{
  "address": "0x7c055875021449c12b6c3c8B9Ed584c1Fb45Ac92",
  "abi": [
    {
      "inputs": [
        {
          "internalType": "contract BaseRegistrarImplementation",
          "name": "base_",
          "type": "address"
        },
        {
          "internalType": "contract PriceOracle",
          "name": "priceOracle_",
          "type": "address"
        },
        {
          "internalType": "contract SourceRegistry",
          "name": "sourceRegistry_",
          "type": "address"
        },
        {
          "internalType": "contract SourceBaseRegistrar",
          "name": "sourceBaseRegistrar_",
          "type": "address"
        },
        {
          "internalType": "address",
          "name": "treasury_",
          "type": "address"
        },
        {
          "internalType": "uint256",
          "name": "start_",
          "type": "uint256"
        },
        {
          "internalType": "uint256",
          "name": "end_",
          "type": "uint256"
        }
      ],
      "stateMutability": "nonpayable",
      "type": "constructor"
    },
    {
      "anonymous": false,
      "inputs": [
        {
          "indexed": false,
          "internalType": "string",
          "name": "labelname",
          "type": "string"
        },
        {
          "indexed": true,
          "internalType": "address",
          "name": "account",
          "type": "address"
        },
        {
          "indexed": true,
          "internalType": "uint256",
          "name": "cost",
          "type": "uint256"
        },
        {
          "indexed": false,
          "internalType": "uint256",
          "name": "expiry",
          "type": "uint256"
        }
      ],
      "name": "Migrated",
      "type": "event"
    },
    {
      "anonymous": false,
      "inputs": [
        {
          "indexed": true,
          "internalType": "address",
          "name": "previousOwner",
          "type": "address"
        },
        {
          "indexed": true,
          "internalType": "address",
          "name": "newOwner",
          "type": "address"
        }
      ],
      "name": "OwnershipTransferred",
      "type": "event"
    },
    {
      "inputs": [],
      "name": "MIN_NAME_LENGTH",
      "outputs": [
        {
          "internalType": "uint256",
          "name": "",
          "type": "uint256"
        }
      ],
      "stateMutability": "view",
      "type": "function"
    },
    {
      "inputs": [
        {
          "internalType": "string",
          "name": "labelname",
          "type": "string"
        }
      ],
      "name": "available",
      "outputs": [
        {
          "internalType": "bool",
          "name": "",
          "type": "bool"
        }
      ],
      "stateMutability": "view",
      "type": "function"
    },
    {
      "inputs": [],
      "name": "base",
      "outputs": [
        {
          "internalType": "contract BaseRegistrarImplementation",
          "name": "",
          "type": "address"
        }
      ],
      "stateMutability": "view",
      "type": "function"
    },
    {
      "inputs": [],
      "name": "discountPercentage",
      "outputs": [
        {
          "internalType": "uint256",
          "name": "",
          "type": "uint256"
        }
      ],
      "stateMutability": "view",
      "type": "function"
    },
    {
      "inputs": [],
      "name": "durationRoundUpUnit",
      "outputs": [
        {
          "internalType": "uint256",
          "name": "",
          "type": "uint256"
        }
      ],
      "stateMutability": "view",
      "type": "function"
    },
    {
      "inputs": [],
      "name": "end",
      "outputs": [
        {
          "internalType": "uint256",
          "name": "",
          "type": "uint256"
        }
      ],
      "stateMutability": "view",
      "type": "function"
    },
    {
      "inputs": [
        {
          "internalType": "bytes32",
          "name": "nodehash",
          "type": "bytes32"
        }
      ],
      "name": "isNameMigrated",
      "outputs": [
        {
          "internalType": "bool",
          "name": "",
          "type": "bool"
        }
      ],
      "stateMutability": "view",
      "type": "function"
    },
    {
      "inputs": [
        {
          "internalType": "address",
          "name": "owner",
          "type": "address"
        },
        {
          "internalType": "bytes32",
          "name": "nodehash",
          "type": "bytes32"
        }
      ],
      "name": "isNameOwner",
      "outputs": [
        {
          "internalType": "bool",
          "name": "",
          "type": "bool"
        }
      ],
      "stateMutability": "view",
      "type": "function"
    },
    {
      "inputs": [
        {
          "internalType": "string",
          "name": "labelname",
          "type": "string"
        },
        {
          "internalType": "address",
          "name": "resolver",
          "type": "address"
        }
      ],
      "name": "migrateWithResolver",
      "outputs": [],
      "stateMutability": "payable",
      "type": "function"
    },
    {
      "inputs": [
        {
          "internalType": "uint256",
          "name": "id",
          "type": "uint256"
        }
      ],
      "name": "migratedDuration",
      "outputs": [
        {
          "internalType": "uint256",
          "name": "",
          "type": "uint256"
        }
      ],
      "stateMutability": "view",
      "type": "function"
    },
    {
      "inputs": [
        {
          "internalType": "string",
          "name": "labelname",
          "type": "string"
        }
      ],
      "name": "nodeHashByLabel",
      "outputs": [
        {
          "internalType": "bytes32",
          "name": "",
          "type": "bytes32"
        }
      ],
      "stateMutability": "view",
      "type": "function"
    },
    {
      "inputs": [],
      "name": "owner",
      "outputs": [
        {
          "internalType": "address",
          "name": "",
          "type": "address"
        }
      ],
      "stateMutability": "view",
      "type": "function"
    },
    {
      "inputs": [],
      "name": "priceOracle",
      "outputs": [
        {
          "internalType": "contract PriceOracle",
          "name": "",
          "type": "address"
        }
      ],
      "stateMutability": "view",
      "type": "function"
    },
    {
      "inputs": [],
      "name": "renounceOwnership",
      "outputs": [],
      "stateMutability": "nonpayable",
      "type": "function"
    },
    {
      "inputs": [
        {
          "internalType": "string",
          "name": "labelname",
          "type": "string"
        },
        {
          "internalType": "uint256",
          "name": "duration",
          "type": "uint256"
        }
      ],
      "name": "rentPrice",
      "outputs": [
        {
          "internalType": "uint256",
          "name": "",
          "type": "uint256"
        }
      ],
      "stateMutability": "view",
      "type": "function"
    },
    {
      "inputs": [
        {
          "internalType": "uint256",
          "name": "start_",
          "type": "uint256"
        },
        {
          "internalType": "uint256",
          "name": "end_",
          "type": "uint256"
        }
      ],
      "name": "setActivePeriod",
      "outputs": [],
      "stateMutability": "nonpayable",
      "type": "function"
    },
    {
      "inputs": [
        {
          "internalType": "uint256",
          "name": "discountPercentage_",
          "type": "uint256"
        }
      ],
      "name": "setDiscountPercentage",
      "outputs": [],
      "stateMutability": "nonpayable",
      "type": "function"
    },
    {
      "inputs": [
        {
          "internalType": "uint256",
          "name": "durationRoundUpUnit_",
          "type": "uint256"
        }
      ],
      "name": "setDurationRoundUpUnit",
      "outputs": [],
      "stateMutability": "nonpayable",
      "type": "function"
    },
    {
      "inputs": [
        {
          "internalType": "contract PriceOracle",
          "name": "_prices",
          "type": "address"
        }
      ],
      "name": "setPriceOracle",
      "outputs": [],
      "stateMutability": "nonpayable",
      "type": "function"
    },
    {
      "inputs": [
        {
          "internalType": "address",
          "name": "treasury_",
          "type": "address"
        }
      ],
      "name": "setTreasury",
      "outputs": [],
      "stateMutability": "nonpayable",
      "type": "function"
    },
    {
      "inputs": [],
      "name": "sourceBaseRegistrar",
      "outputs": [
        {
          "internalType": "contract SourceBaseRegistrar",
          "name": "",
          "type": "address"
        }
      ],
      "stateMutability": "view",
      "type": "function"
    },
    {
      "inputs": [],
      "name": "sourceRegistry",
      "outputs": [
        {
          "internalType": "contract SourceRegistry",
          "name": "",
          "type": "address"
        }
      ],
      "stateMutability": "view",
      "type": "function"
    },
    {
      "inputs": [],
      "name": "start",
      "outputs": [
        {
          "internalType": "uint256",
          "name": "",
          "type": "uint256"
        }
      ],
      "stateMutability": "view",
      "type": "function"
    },
    {
      "inputs": [
        {
          "internalType": "address",
          "name": "newOwner",
          "type": "address"
        }
      ],
      "name": "transferOwnership",
      "outputs": [],
      "stateMutability": "nonpayable",
      "type": "function"
    },
    {
      "inputs": [],
      "name": "treasury",
      "outputs": [
        {
          "internalType": "address",
          "name": "",
          "type": "address"
        }
      ],
      "stateMutability": "view",
      "type": "function"
    },
    {
      "inputs": [
        {
          "internalType": "string",
          "name": "labelname",
          "type": "string"
        }
      ],
      "name": "valid",
      "outputs": [
        {
          "internalType": "bool",
          "name": "",
          "type": "bool"
        }
      ],
      "stateMutability": "pure",
      "type": "function"
    },
    {
      "inputs": [],
      "name": "withdraw",
      "outputs": [],
      "stateMutability": "nonpayable",
      "type": "function"
    }
  ],
  "transactionHash": "0xdbab0233eda01cedc346694013fc026a7968ec84b498aa96853102cf35419294",
  "args": [
    "0x72c5c70504aE74854ca80177840479601A95d16C",
    "0xF6d33DFc1a3c9A42aACc2447f8D4ee7C9e48Ff0a",
    "0x08ced32a7f3eec915ba84415e9c07a7286977956",
    "0xE3b1D32e43Ce8d658368e2CBFF95D57Ef39Be8a6",
    "0x0000000000000000000000000000000000000000",
    1675743226,
    1684383226
  ],
  "numDeployments": 1,
  "solcInputHash": "e90400b39657e40d2d1255b8eeb7f136",
  "bytecode": "0x60806040526276a70060055560646006553480156200001d57600080fd5b506040516200311538038062003115833981810160405281019062000043919062000319565b6200006362000057620001c360201b60201c565b620001cb60201b60201c565b86600a60006101000a81548173ffffffffffffffffffffffffffffffffffffffff021916908373ffffffffffffffffffffffffffffffffffffffff160217905550816008819055508060098190555084600160006101000a81548173ffffffffffffffffffffffffffffffffffffffff021916908373ffffffffffffffffffffffffffffffffffffffff16021790555083600260006101000a81548173ffffffffffffffffffffffffffffffffffffffff021916908373ffffffffffffffffffffffffffffffffffffffff16021790555082600360006101000a81548173ffffffffffffffffffffffffffffffffffffffff021916908373ffffffffffffffffffffffffffffffffffffffff16021790555085600460006101000a81548173ffffffffffffffffffffffffffffffffffffffff021916908373ffffffffffffffffffffffffffffffffffffffff16021790555050505050505050620004f0565b600033905090565b60008060009054906101000a900473ffffffffffffffffffffffffffffffffffffffff169050816000806101000a81548173ffffffffffffffffffffffffffffffffffffffff021916908373ffffffffffffffffffffffffffffffffffffffff1602179055508173ffffffffffffffffffffffffffffffffffffffff168173ffffffffffffffffffffffffffffffffffffffff167f8be0079c531659141344cd1fd0a4f28419497f9722a3daafe3b4186f6b6457e060405160405180910390a35050565b600081519050620002a08162000454565b92915050565b600081519050620002b7816200046e565b92915050565b600081519050620002ce8162000488565b92915050565b600081519050620002e581620004a2565b92915050565b600081519050620002fc81620004bc565b92915050565b6000815190506200031381620004d6565b92915050565b600080600080600080600060e0888a0312156200033557600080fd5b6000620003458a828b01620002a6565b9750506020620003588a828b01620002bd565b96505060406200036b8a828b01620002eb565b95505060606200037e8a828b01620002d4565b9450506080620003918a828b016200028f565b93505060a0620003a48a828b0162000302565b92505060c0620003b78a828b0162000302565b91505092959891949750929550565b6000620003d3826200042a565b9050919050565b6000620003e782620003c6565b9050919050565b6000620003fb82620003c6565b9050919050565b60006200040f82620003c6565b9050919050565b60006200042382620003c6565b9050919050565b600073ffffffffffffffffffffffffffffffffffffffff82169050919050565b6000819050919050565b6200045f81620003c6565b81146200046b57600080fd5b50565b6200047981620003da565b81146200048557600080fd5b50565b6200049381620003ee565b81146200049f57600080fd5b50565b620004ad8162000402565b8114620004b957600080fd5b50565b620004c78162000416565b8114620004d357600080fd5b50565b620004e1816200044a565b8114620004ed57600080fd5b50565b612c1580620005006000396000f3fe60806040526004361061019c5760003560e01c80637840d97c116100ec578063b3428d151161008a578063efbe1c1c11610064578063efbe1c1c146105bf578063f0f44260146105ea578063f2fde38b14610613578063fd1fb6081461063c5761019c565b8063b3428d1514610540578063b3fa9f2414610569578063be9a6555146105945761019c565b806383e7f6ff116100c657806383e7f6ff1461045e5780638da5cb5b1461049b5780639791c097146104c6578063aeb8ce9b146105035761019c565b80637840d97c146103cb5780637d55780b146103f65780637efbdc97146104215761019c565b806350cfeddd116101595780635a424fbd116101335780635a424fbd1461030f57806361d027b31461034c578063715018a61461037757806375eed7f01461038e5761019c565b806350cfeddd14610292578063530e784f146102bd578063533b51a3146102e65761019c565b806305239f0e146101a157806306e3dd0a146101cc5780630fe1cf6a146102095780632630c12f146102255780633ccfd60b146102505780635001f3b514610267575b600080fd5b3480156101ad57600080fd5b506101b6610665565b6040516101c3919061226a565b60405180910390f35b3480156101d857600080fd5b506101f360048036038101906101ee9190611cad565b61068b565b60405161020091906121d5565b60405180910390f35b610223600480360381019061021e9190611d92565b6106ab565b005b34801561023157600080fd5b5061023a610de2565b604051610247919061224f565b60405180910390f35b34801561025c57600080fd5b50610265610e08565b005b34801561027357600080fd5b5061027c610e59565b6040516102899190612234565b60405180910390f35b34801561029e57600080fd5b506102a7610e7f565b6040516102b491906124ae565b60405180910390f35b3480156102c957600080fd5b506102e460048036038101906102df9190611d28565b610e84565b005b3480156102f257600080fd5b5061030d60048036038101906103089190611e3a565b610f40565b005b34801561031b57600080fd5b5061033660048036038101906103319190611e3a565b610f95565b60405161034391906124ae565b60405180910390f35b34801561035857600080fd5b50610361611090565b60405161036e9190612183565b60405180910390f35b34801561038357600080fd5b5061038c6110b6565b005b34801561039a57600080fd5b506103b560048036038101906103b09190611d51565b6110ca565b6040516103c291906121f0565b60405180910390f35b3480156103d757600080fd5b506103e06111a2565b6040516103ed9190612285565b60405180910390f35b34801561040257600080fd5b5061040b6111c8565b60405161041891906124ae565b60405180910390f35b34801561042d57600080fd5b5061044860048036038101906104439190611c48565b6111ce565b60405161045591906121d5565b60405180910390f35b34801561046a57600080fd5b5061048560048036038101906104809190611de6565b6112b1565b60405161049291906124ae565b60405180910390f35b3480156104a757600080fd5b506104b0611442565b6040516104bd9190612183565b60405180910390f35b3480156104d257600080fd5b506104ed60048036038101906104e89190611d51565b61146b565b6040516104fa91906121d5565b60405180910390f35b34801561050f57600080fd5b5061052a60048036038101906105259190611d51565b611481565b60405161053791906121d5565b60405180910390f35b34801561054c57600080fd5b5061056760048036038101906105629190611e3a565b611555565b005b34801561057557600080fd5b5061057e6115ab565b60405161058b91906124ae565b60405180910390f35b3480156105a057600080fd5b506105a96115b1565b6040516105b691906124ae565b60405180910390f35b3480156105cb57600080fd5b506105d46115b7565b6040516105e191906124ae565b60405180910390f35b3480156105f657600080fd5b50610611600480360381019061060c9190611bf6565b6115bd565b005b34801561061f57600080fd5b5061063a60048036038101906106359190611bf6565b611609565b005b34801561064857600080fd5b50610663600480360381019061065e9190611e8c565b61168d565b005b600260009054906101000a900473ffffffffffffffffffffffffffffffffffffffff1681565b60006106a48260001c60076116f590919063ffffffff16565b9050919050565b600854421180156106bd575060095442105b6106fc576040517f08c379a00000000000000000000000000000000000000000000000000000000081526004016106f39061238e565b60405180910390fd5b60008280519060200120905060008160001c9050600061071b856110ca565b905061072733826111ce565b610766576040517f08c379a000000000000000000000000000000000000000000000000000000000815260040161075d9061242e565b60405180910390fd5b61076f8161068b565b156107af576040517f08c379a00000000000000000000000000000000000000000000000000000000081526004016107a69061232e565b60405180910390fd5b6107b885611481565b6107f7576040517f08c379a00000000000000000000000000000000000000000000000000000000081526004016107ee9061244e565b60405180910390fd5b600061080283610f95565b905060008111610847576040517f08c379a000000000000000000000000000000000000000000000000000000000815260040161083e906123ee565b60405180910390fd5b600061085387836112b1565b905060008073ffffffffffffffffffffffffffffffffffffffff168773ffffffffffffffffffffffffffffffffffffffff1614156108c6576040517f08c379a00000000000000000000000000000000000000000000000000000000081526004016108bd9061246e565b60405180910390fd5b600a60009054906101000a900473ffffffffffffffffffffffffffffffffffffffff1673ffffffffffffffffffffffffffffffffffffffff1663fca247ac8630866040518463ffffffff1660e01b8152600401610925939291906124f2565b602060405180830381600087803b15801561093f57600080fd5b505af1158015610953573d6000803e3d6000fd5b505050506040513d601f19601f820116820180604052508101906109779190611e63565b9050600a60009054906101000a900473ffffffffffffffffffffffffffffffffffffffff1673ffffffffffffffffffffffffffffffffffffffff16632e94420f6040518163ffffffff1660e01b815260040160206040518083038186803b1580156109e157600080fd5b505afa1580156109f5573d6000803e3d6000fd5b505050506040513d601f19601f82011682018060405250810190610a199190611cff565b73ffffffffffffffffffffffffffffffffffffffff16631896f70a85896040518363ffffffff1660e01b8152600401610a5392919061220b565b600060405180830381600087803b158015610a6d57600080fd5b505af1158015610a81573d6000803e3d6000fd5b505050508673ffffffffffffffffffffffffffffffffffffffff1663d5fa2b0085336040518363ffffffff1660e01b8152600401610ac092919061220b565b600060405180830381600087803b158015610ada57600080fd5b505af1158015610aee573d6000803e3d6000fd5b50505050600a60009054906101000a900473ffffffffffffffffffffffffffffffffffffffff1673ffffffffffffffffffffffffffffffffffffffff166328ed4f6c86336040518363ffffffff1660e01b8152600401610b4f9291906124c9565b600060405180830381600087803b158015610b6957600080fd5b505af1158015610b7d573d6000803e3d6000fd5b50505050600a60009054906101000a900473ffffffffffffffffffffffffffffffffffffffff1673ffffffffffffffffffffffffffffffffffffffff166323b872dd3033886040518463ffffffff1660e01b8152600401610be09392919061219e565b600060405180830381600087803b158015610bfa57600080fd5b505af1158015610c0e573d6000803e3d6000fd5b50505050813373ffffffffffffffffffffffffffffffffffffffff167f44edaff5bd14fe0f49c47d6a39ef8360095fcefca97724c9157011fed2b1c72b8a84604051610c5b9291906122a0565b60405180910390a381341015610ca6576040517f08c379a0000000000000000000000000000000000000000000000000000000008152600401610c9d9061234e565b60405180910390fd5b600073ffffffffffffffffffffffffffffffffffffffff16600360009054906101000a900473ffffffffffffffffffffffffffffffffffffffff1673ffffffffffffffffffffffffffffffffffffffff1614610d6657600360009054906101000a900473ffffffffffffffffffffffffffffffffffffffff1673ffffffffffffffffffffffffffffffffffffffff166108fc839081150290604051600060405180830381858888f19350505050158015610d64573d6000803e3d6000fd5b505b81341115610dc1573373ffffffffffffffffffffffffffffffffffffffff166108fc8334610d94919061267c565b9081150290604051600060405180830381858888f19350505050158015610dbf573d6000803e3d6000fd5b505b610dd88460001c600761173190919063ffffffff16565b5050505050505050565b600460009054906101000a900473ffffffffffffffffffffffffffffffffffffffff1681565b610e1061176f565b3373ffffffffffffffffffffffffffffffffffffffff166108fc479081150290604051600060405180830381858888f19350505050158015610e56573d6000803e3d6000fd5b50565b600a60009054906101000a900473ffffffffffffffffffffffffffffffffffffffff1681565b600281565b610e8c61176f565b600073ffffffffffffffffffffffffffffffffffffffff168173ffffffffffffffffffffffffffffffffffffffff161415610efc576040517f08c379a0000000000000000000000000000000000000000000000000000000008152600401610ef3906123ae565b60405180910390fd5b80600460006101000a81548173ffffffffffffffffffffffffffffffffffffffff021916908373ffffffffffffffffffffffffffffffffffffffff16021790555050565b610f4861176f565b60008111610f8b576040517f08c379a0000000000000000000000000000000000000000000000000000000008152600401610f82906123ce565b60405180910390fd5b8060058190555050565b600080600260009054906101000a900473ffffffffffffffffffffffffffffffffffffffff1673ffffffffffffffffffffffffffffffffffffffff1663d6e4fa86846040518263ffffffff1660e01b8152600401610ff391906124ae565b60206040518083038186803b15801561100b57600080fd5b505afa15801561101f573d6000803e3d6000fd5b505050506040513d601f19601f820116820180604052508101906110439190611e63565b90504281101561105757600091505061108b565b60004282611065919061267c565b90506000600554611078836005546117ed565b6110829190612622565b90508093505050505b919050565b600360009054906101000a900473ffffffffffffffffffffffffffffffffffffffff1681565b6110be61176f565b6110c8600061182a565b565b6000600a60009054906101000a900473ffffffffffffffffffffffffffffffffffffffff1673ffffffffffffffffffffffffffffffffffffffff1663ddf7fcb06040518163ffffffff1660e01b815260040160206040518083038186803b15801561113457600080fd5b505afa158015611148573d6000803e3d6000fd5b505050506040513d601f19601f8201168201806040525081019061116c9190611cd6565b8280519060200120604051602001611185929190612157565b604051602081830303815290604052805190602001209050919050565b600160009054906101000a900473ffffffffffffffffffffffffffffffffffffffff1681565b60055481565b60008273ffffffffffffffffffffffffffffffffffffffff16600160009054906101000a900473ffffffffffffffffffffffffffffffffffffffff1673ffffffffffffffffffffffffffffffffffffffff166302571be3846040518263ffffffff1660e01b815260040161124291906121f0565b60206040518083038186803b15801561125a57600080fd5b505afa15801561126e573d6000803e3d6000fd5b505050506040513d601f19601f820116820180604052508101906112929190611c1f565b73ffffffffffffffffffffffffffffffffffffffff1614905092915050565b600080838051906020012090506000600460009054906101000a900473ffffffffffffffffffffffffffffffffffffffff1673ffffffffffffffffffffffffffffffffffffffff166350e9a71586600a60009054906101000a900473ffffffffffffffffffffffffffffffffffffffff1673ffffffffffffffffffffffffffffffffffffffff1663d6e4fa868660001c6040518263ffffffff1660e01b815260040161135d91906124ae565b60206040518083038186803b15801561137557600080fd5b505afa158015611389573d6000803e3d6000fd5b505050506040513d601f19601f820116820180604052508101906113ad9190611e63565b876040518463ffffffff1660e01b81526004016113cc939291906122d0565b60206040518083038186803b1580156113e457600080fd5b505afa1580156113f8573d6000803e3d6000fd5b505050506040513d601f19601f8201168201806040525081019061141c9190611e63565b905060646006548261142e9190612622565b61143891906125f1565b9250505092915050565b60008060009054906101000a900473ffffffffffffffffffffffffffffffffffffffff16905090565b60006002611478836118ee565b10159050919050565b600080828051906020012090506114978361146b565b801561154d5750600a60009054906101000a900473ffffffffffffffffffffffffffffffffffffffff1673ffffffffffffffffffffffffffffffffffffffff166396e494e88260001c6040518263ffffffff1660e01b81526004016114fc91906124ae565b60206040518083038186803b15801561151457600080fd5b505afa158015611528573d6000803e3d6000fd5b505050506040513d601f19601f8201168201806040525081019061154c9190611c84565b5b915050919050565b61155d61176f565b60648111156115a1576040517f08c379a00000000000000000000000000000000000000000000000000000000081526004016115989061248e565b60405180910390fd5b8060068190555050565b60065481565b60085481565b60095481565b6115c561176f565b80600360006101000a81548173ffffffffffffffffffffffffffffffffffffffff021916908373ffffffffffffffffffffffffffffffffffffffff16021790555050565b61161161176f565b600073ffffffffffffffffffffffffffffffffffffffff168173ffffffffffffffffffffffffffffffffffffffff161415611681576040517f08c379a00000000000000000000000000000000000000000000000000000000081526004016116789061230e565b60405180910390fd5b61168a8161182a565b50565b61169561176f565b80821080156116a45750600082115b6116e3576040517f08c379a00000000000000000000000000000000000000000000000000000000081526004016116da9061236e565b60405180910390fd5b81600881905550806009819055505050565b600080600883901c9050600060ff84166001901b9050600081866000016000858152602001908152602001600020541614159250505092915050565b6000600882901c9050600060ff83166001901b9050808460000160008481526020019081526020016000206000828254179250508190555050505050565b611777611ac9565b73ffffffffffffffffffffffffffffffffffffffff16611795611442565b73ffffffffffffffffffffffffffffffffffffffff16146117eb576040517f08c379a00000000000000000000000000000000000000000000000000000000081526004016117e29061240e565b60405180910390fd5b565b600080831461181f57600182600185611806919061267c565b61181091906125f1565b61181a919061259b565b611822565b60005b905092915050565b60008060009054906101000a900473ffffffffffffffffffffffffffffffffffffffff169050816000806101000a81548173ffffffffffffffffffffffffffffffffffffffff021916908373ffffffffffffffffffffffffffffffffffffffff1602179055508173ffffffffffffffffffffffffffffffffffffffff168173ffffffffffffffffffffffffffffffffffffffff167f8be0079c531659141344cd1fd0a4f28419497f9722a3daafe3b4186f6b6457e060405160405180910390a35050565b60008060008084519050600092505b80821015611abe576000858381518110611940577f4e487b7100000000000000000000000000000000000000000000000000000000600052603260045260246000fd5b602001015160f81c60f81b9050608060f81b817effffffffffffffffffffffffffffffffffffffffffffffffffffffffffffff1916101561198f57600183611988919061259b565b9250611aaa565b60e060f81b817effffffffffffffffffffffffffffffffffffffffffffffffffffffffffffff191610156119d1576002836119ca919061259b565b9250611aa9565b60f060f81b817effffffffffffffffffffffffffffffffffffffffffffffffffffffffffffff19161015611a1357600383611a0c919061259b565b9250611aa8565b60f8801b817effffffffffffffffffffffffffffffffffffffffffffffffffffffffffffff19161015611a5457600483611a4d919061259b565b9250611aa7565b60fc60f81b817effffffffffffffffffffffffffffffffffffffffffffffffffffffffffffff19161015611a9657600583611a8f919061259b565b9250611aa6565b600683611aa3919061259b565b92505b5b5b5b5b508280611ab690612829565b9350506118fd565b829350505050919050565b600033905090565b6000611ae4611adf8461254e565b612529565b905082815260208101848484011115611afc57600080fd5b611b078482856127b6565b509392505050565b600081359050611b1e81612b55565b92915050565b600081519050611b3381612b55565b92915050565b600081519050611b4881612b6c565b92915050565b600081359050611b5d81612b83565b92915050565b600081519050611b7281612b83565b92915050565b600081519050611b8781612b9a565b92915050565b600081359050611b9c81612bb1565b92915050565b600082601f830112611bb357600080fd5b8135611bc3848260208601611ad1565b91505092915050565b600081359050611bdb81612bc8565b92915050565b600081519050611bf081612bc8565b92915050565b600060208284031215611c0857600080fd5b6000611c1684828501611b0f565b91505092915050565b600060208284031215611c3157600080fd5b6000611c3f84828501611b24565b91505092915050565b60008060408385031215611c5b57600080fd5b6000611c6985828601611b0f565b9250506020611c7a85828601611b4e565b9150509250929050565b600060208284031215611c9657600080fd5b6000611ca484828501611b39565b91505092915050565b600060208284031215611cbf57600080fd5b6000611ccd84828501611b4e565b91505092915050565b600060208284031215611ce857600080fd5b6000611cf684828501611b63565b91505092915050565b600060208284031215611d1157600080fd5b6000611d1f84828501611b78565b91505092915050565b600060208284031215611d3a57600080fd5b6000611d4884828501611b8d565b91505092915050565b600060208284031215611d6357600080fd5b600082013567ffffffffffffffff811115611d7d57600080fd5b611d8984828501611ba2565b91505092915050565b60008060408385031215611da557600080fd5b600083013567ffffffffffffffff811115611dbf57600080fd5b611dcb85828601611ba2565b9250506020611ddc85828601611b0f565b9150509250929050565b60008060408385031215611df957600080fd5b600083013567ffffffffffffffff811115611e1357600080fd5b611e1f85828601611ba2565b9250506020611e3085828601611bcc565b9150509250929050565b600060208284031215611e4c57600080fd5b6000611e5a84828501611bcc565b91505092915050565b600060208284031215611e7557600080fd5b6000611e8384828501611be1565b91505092915050565b60008060408385031215611e9f57600080fd5b6000611ead85828601611bcc565b9250506020611ebe85828601611bcc565b9150509250929050565b611ed1816126b0565b82525050565b611ee0816126c2565b82525050565b611eef816126ce565b82525050565b611f06611f01826126ce565b612872565b82525050565b611f1581612726565b82525050565b611f248161274a565b82525050565b611f338161276e565b82525050565b611f4281612792565b82525050565b6000611f538261257f565b611f5d818561258a565b9350611f6d8185602086016127c5565b611f7681612909565b840191505092915050565b6000611f8e60268361258a565b9150611f998261291a565b604082019050919050565b6000611fb160158361258a565b9150611fbc82612969565b602082019050919050565b6000611fd460148361258a565b9150611fdf82612992565b602082019050919050565b6000611ff7600e8361258a565b9150612002826129bb565b602082019050919050565b600061201a60178361258a565b9150612025826129e4565b602082019050919050565b600061203d600f8361258a565b915061204882612a0d565b602082019050919050565b600061206060148361258a565b915061206b82612a36565b602082019050919050565b6000612083601d8361258a565b915061208e82612a5f565b602082019050919050565b60006120a660208361258a565b91506120b182612a88565b602082019050919050565b60006120c960198361258a565b91506120d482612ab1565b602082019050919050565b60006120ec600d8361258a565b91506120f782612ada565b602082019050919050565b600061210f600e8361258a565b915061211a82612b03565b602082019050919050565b600061213260108361258a565b915061213d82612b2c565b602082019050919050565b6121518161271c565b82525050565b60006121638285611ef5565b6020820191506121738284611ef5565b6020820191508190509392505050565b60006020820190506121986000830184611ec8565b92915050565b60006060820190506121b36000830186611ec8565b6121c06020830185611ec8565b6121cd6040830184612148565b949350505050565b60006020820190506121ea6000830184611ed7565b92915050565b60006020820190506122056000830184611ee6565b92915050565b60006040820190506122206000830185611ee6565b61222d6020830184611ec8565b9392505050565b60006020820190506122496000830184611f0c565b92915050565b60006020820190506122646000830184611f1b565b92915050565b600060208201905061227f6000830184611f2a565b92915050565b600060208201905061229a6000830184611f39565b92915050565b600060408201905081810360008301526122ba8185611f48565b90506122c96020830184612148565b9392505050565b600060608201905081810360008301526122ea8186611f48565b90506122f96020830185612148565b6123066040830184612148565b949350505050565b6000602082019050818103600083015261232781611f81565b9050919050565b6000602082019050818103600083015261234781611fa4565b9050919050565b6000602082019050818103600083015261236781611fc7565b9050919050565b6000602082019050818103600083015261238781611fea565b9050919050565b600060208201905081810360008301526123a78161200d565b9050919050565b600060208201905081810360008301526123c781612030565b9050919050565b600060208201905081810360008301526123e781612053565b9050919050565b6000602082019050818103600083015261240781612076565b9050919050565b6000602082019050818103600083015261242781612099565b9050919050565b60006020820190508181036000830152612447816120bc565b9050919050565b60006020820190508181036000830152612467816120df565b9050919050565b6000602082019050818103600083015261248781612102565b9050919050565b600060208201905081810360008301526124a781612125565b9050919050565b60006020820190506124c36000830184612148565b92915050565b60006040820190506124de6000830185612148565b6124eb6020830184611ec8565b9392505050565b60006060820190506125076000830186612148565b6125146020830185611ec8565b6125216040830184612148565b949350505050565b6000612533612544565b905061253f82826127f8565b919050565b6000604051905090565b600067ffffffffffffffff821115612569576125686128da565b5b61257282612909565b9050602081019050919050565b600081519050919050565b600082825260208201905092915050565b60006125a68261271c565b91506125b18361271c565b9250827fffffffffffffffffffffffffffffffffffffffffffffffffffffffffffffffff038211156125e6576125e561287c565b5b828201905092915050565b60006125fc8261271c565b91506126078361271c565b925082612617576126166128ab565b5b828204905092915050565b600061262d8261271c565b91506126388361271c565b9250817fffffffffffffffffffffffffffffffffffffffffffffffffffffffffffffffff04831182151516156126715761267061287c565b5b828202905092915050565b60006126878261271c565b91506126928361271c565b9250828210156126a5576126a461287c565b5b828203905092915050565b60006126bb826126fc565b9050919050565b60008115159050919050565b6000819050919050565b60006126e3826126b0565b9050919050565b60006126f5826126b0565b9050919050565b600073ffffffffffffffffffffffffffffffffffffffff82169050919050565b6000819050919050565b600061273182612738565b9050919050565b6000612743826126fc565b9050919050565b60006127558261275c565b9050919050565b6000612767826126fc565b9050919050565b600061277982612780565b9050919050565b600061278b826126fc565b9050919050565b600061279d826127a4565b9050919050565b60006127af826126fc565b9050919050565b82818337600083830152505050565b60005b838110156127e35780820151818401526020810190506127c8565b838111156127f2576000848401525b50505050565b61280182612909565b810181811067ffffffffffffffff821117156128205761281f6128da565b5b80604052505050565b60006128348261271c565b91507fffffffffffffffffffffffffffffffffffffffffffffffffffffffffffffffff8214156128675761286661287c565b5b600182019050919050565b6000819050919050565b7f4e487b7100000000000000000000000000000000000000000000000000000000600052601160045260246000fd5b7f4e487b7100000000000000000000000000000000000000000000000000000000600052601260045260246000fd5b7f4e487b7100000000000000000000000000000000000000000000000000000000600052604160045260246000fd5b6000601f19601f8301169050919050565b7f4f776e61626c653a206e6577206f776e657220697320746865207a65726f206160008201527f6464726573730000000000000000000000000000000000000000000000000000602082015250565b7f6e616d6520616c7265616479206d696772617465640000000000000000000000600082015250565b7f696e73756666696369656e74207061796d656e74000000000000000000000000600082015250565b7f696e76616c696420706572696f64000000000000000000000000000000000000600082015250565b7f6d6967726174696f6e206e6f7420617661696c61626c65000000000000000000600082015250565b7f696e76616c696420616464726573730000000000000000000000000000000000600082015250565b7f696e76616c696420726f756e64757020756e6974000000000000000000000000600082015250565b7f736f7572636520746f6b656e206d696768742062652065787069726564000000600082015250565b7f4f776e61626c653a2063616c6c6572206973206e6f7420746865206f776e6572600082015250565b7f6e6f742074686520736f75726365206e616d65206f776e657200000000000000600082015250565b7f6e6f7420617661696c61626c6500000000000000000000000000000000000000600082015250565b7f656d707479207265736f6c766572000000000000000000000000000000000000600082015250565b7f696e76616c696420646973636f756e7400000000000000000000000000000000600082015250565b612b5e816126b0565b8114612b6957600080fd5b50565b612b75816126c2565b8114612b8057600080fd5b50565b612b8c816126ce565b8114612b9757600080fd5b50565b612ba3816126d8565b8114612bae57600080fd5b50565b612bba816126ea565b8114612bc557600080fd5b50565b612bd18161271c565b8114612bdc57600080fd5b5056fea26469706673582212206e8a7c9d7041c3b0f1e7883351ab664e10dccd9fdac590cc508646be01266b6c64736f6c63430008040033",
  "devdoc": {
    "kind": "dev",
    "methods": {
      "isNameMigrated(bytes32)": {
        "details": "returns whether the label name is migrated or not, the input is label name without .bnb suffix"
      },
      "isNameOwner(address,bytes32)": {
        "details": "returns whether the label name is migrated or not, the input is label name without .bnb suffix"
      },
      "migrateWithResolver(string,address)": {
        "details": "migrate .bnb name to our service,"
      },
      "migratedDuration(uint256)": {
        "details": "calculate the duration of migrated domains, domains in grace period  cannot be migrated"
      },
      "nodeHashByLabel(string)": {
        "details": "returns the full name hash, if the labelname.bnb, the input is label name without .bnb suffix"
      },
      "owner()": {
        "details": "Returns the address of the current owner."
      },
      "renounceOwnership()": {
        "details": "Leaves the contract without owner. It will not be possible to call `onlyOwner` functions anymore. Can only be called by the current owner. NOTE: Renouncing ownership will leave the contract without an owner, thereby removing any functionality that is only available to the owner."
      },
      "rentPrice(string,uint256)": {
        "details": "rent price with discount"
      },
      "transferOwnership(address)": {
        "details": "Transfers ownership of the contract to a new account (`newOwner`). Can only be called by the current owner."
      }
    },
    "stateVariables": {
      "discountPercentage": {
        "details": "discount percentage, e.g 85 => 85%"
      },
      "migrationRecords": {
        "details": "key: token id"
      },
      "start": {
        "details": "only in the period of [start, end], the discount is enabled"
      }
    },
    "version": 1
  },
  "userdoc": {
    "kind": "user",
    "methods": {},
    "version": 1
  },
  "storageLayout": {
    "storage": [
      {
        "astId": 7,
        "contract": "contracts/cidregistrar/MIDRegistrarMigrationController.sol:MIDRegistrarMigrationController",
        "label": "_owner",
        "offset": 0,
        "slot": "0",
        "type": "t_address"
      },
      {
        "astId": 5957,
        "contract": "contracts/cidregistrar/MIDRegistrarMigrationController.sol:MIDRegistrarMigrationController",
        "label": "sourceRegistry",
        "offset": 0,
        "slot": "1",
        "type": "t_contract(SourceRegistry)5938"
      },
      {
        "astId": 5960,
        "contract": "contracts/cidregistrar/MIDRegistrarMigrationController.sol:MIDRegistrarMigrationController",
        "label": "sourceBaseRegistrar",
        "offset": 0,
        "slot": "2",
        "type": "t_contract(SourceBaseRegistrar)5946"
      },
      {
        "astId": 5962,
        "contract": "contracts/cidregistrar/MIDRegistrarMigrationController.sol:MIDRegistrarMigrationController",
        "label": "treasury",
        "offset": 0,
        "slot": "3",
        "type": "t_address"
      },
      {
        "astId": 5965,
        "contract": "contracts/cidregistrar/MIDRegistrarMigrationController.sol:MIDRegistrarMigrationController",
        "label": "priceOracle",
        "offset": 0,
        "slot": "4",
        "type": "t_contract(PriceOracle)6711"
      },
      {
        "astId": 5975,
        "contract": "contracts/cidregistrar/MIDRegistrarMigrationController.sol:MIDRegistrarMigrationController",
        "label": "durationRoundUpUnit",
        "offset": 0,
        "slot": "5",
        "type": "t_uint256"
      },
      {
        "astId": 5979,
        "contract": "contracts/cidregistrar/MIDRegistrarMigrationController.sol:MIDRegistrarMigrationController",
        "label": "discountPercentage",
        "offset": 0,
        "slot": "6",
        "type": "t_uint256"
      },
      {
        "astId": 5983,
        "contract": "contracts/cidregistrar/MIDRegistrarMigrationController.sol:MIDRegistrarMigrationController",
        "label": "migrationRecords",
        "offset": 0,
        "slot": "7",
        "type": "t_struct(BitMap)2793_storage"
      },
      {
        "astId": 5986,
        "contract": "contracts/cidregistrar/MIDRegistrarMigrationController.sol:MIDRegistrarMigrationController",
        "label": "start",
        "offset": 0,
        "slot": "8",
        "type": "t_uint256"
      },
      {
        "astId": 5988,
        "contract": "contracts/cidregistrar/MIDRegistrarMigrationController.sol:MIDRegistrarMigrationController",
        "label": "end",
        "offset": 0,
        "slot": "9",
        "type": "t_uint256"
      },
      {
        "astId": 5991,
        "contract": "contracts/cidregistrar/MIDRegistrarMigrationController.sol:MIDRegistrarMigrationController",
        "label": "base",
        "offset": 0,
        "slot": "10",
        "type": "t_contract(BaseRegistrarImplementation)4451"
      }
    ],
    "types": {
      "t_address": {
        "encoding": "inplace",
        "label": "address",
        "numberOfBytes": "20"
      },
      "t_contract(BaseRegistrarImplementation)4451": {
        "encoding": "inplace",
        "label": "contract BaseRegistrarImplementation",
        "numberOfBytes": "20"
      },
      "t_contract(PriceOracle)6711": {
        "encoding": "inplace",
        "label": "contract PriceOracle",
        "numberOfBytes": "20"
      },
      "t_contract(SourceBaseRegistrar)5946": {
        "encoding": "inplace",
        "label": "contract SourceBaseRegistrar",
        "numberOfBytes": "20"
      },
      "t_contract(SourceRegistry)5938": {
        "encoding": "inplace",
        "label": "contract SourceRegistry",
        "numberOfBytes": "20"
      },
      "t_mapping(t_uint256,t_uint256)": {
        "encoding": "mapping",
        "key": "t_uint256",
        "label": "mapping(uint256 => uint256)",
        "numberOfBytes": "32",
        "value": "t_uint256"
      },
      "t_struct(BitMap)2793_storage": {
        "encoding": "inplace",
        "label": "struct BitMaps.BitMap",
        "members": [
          {
            "astId": 2792,
            "contract": "contracts/cidregistrar/MIDRegistrarMigrationController.sol:MIDRegistrarMigrationController",
            "label": "_data",
            "offset": 0,
            "slot": "0",
            "type": "t_mapping(t_uint256,t_uint256)"
          }
        ],
        "numberOfBytes": "32"
      },
      "t_uint256": {
        "encoding": "inplace",
        "label": "uint256",
        "numberOfBytes": "32"
      }
    }
  }
}