{
  "address": "0xBC30dc6Dbd82c3106087eeBF68adddCF931f4020",
  "abi": [
    {
      "inputs": [
        {
          "internalType": "contract BaseRegistrarImplementation",
          "name": "base_",
          "type": "address"
        },
        {
          "internalType": "contract PriceOracle",
          "name": "priceOracle_",
          "type": "address"
        },
        {
          "internalType": "contract SourceRegistry",
          "name": "sourceRegistry_",
          "type": "address"
        },
        {
          "internalType": "contract SourceBaseRegistrar",
          "name": "sourceBaseRegistrar_",
          "type": "address"
        },
        {
          "internalType": "address",
          "name": "treasury_",
          "type": "address"
        },
        {
          "internalType": "uint256",
          "name": "start_",
          "type": "uint256"
        },
        {
          "internalType": "uint256",
          "name": "end_",
          "type": "uint256"
        },
        {
          "internalType": "uint256[]",
          "name": "discountPercentages_",
          "type": "uint256[]"
        }
      ],
      "stateMutability": "nonpayable",
      "type": "constructor"
    },
    {
      "anonymous": false,
      "inputs": [
        {
          "indexed": false,
          "internalType": "string",
          "name": "labelname",
          "type": "string"
        },
        {
          "indexed": true,
          "internalType": "address",
          "name": "account",
          "type": "address"
        },
        {
          "indexed": true,
          "internalType": "uint256",
          "name": "cost",
          "type": "uint256"
        },
        {
          "indexed": false,
          "internalType": "uint256",
          "name": "expiry",
          "type": "uint256"
        }
      ],
      "name": "Migrated",
      "type": "event"
    },
    {
      "anonymous": false,
      "inputs": [
        {
          "indexed": false,
          "internalType": "string",
          "name": "name",
          "type": "string"
        },
        {
          "indexed": true,
          "internalType": "bytes32",
          "name": "label",
          "type": "bytes32"
        },
        {
          "indexed": true,
          "internalType": "address",
          "name": "owner",
          "type": "address"
        },
        {
          "indexed": false,
          "internalType": "uint256",
          "name": "cost",
          "type": "uint256"
        },
        {
          "indexed": false,
          "internalType": "uint256",
          "name": "expires",
          "type": "uint256"
        }
      ],
      "name": "NameRegistered",
      "type": "event"
    },
    {
      "anonymous": false,
      "inputs": [
        {
          "indexed": true,
          "internalType": "address",
          "name": "previousOwner",
          "type": "address"
        },
        {
          "indexed": true,
          "internalType": "address",
          "name": "newOwner",
          "type": "address"
        }
      ],
      "name": "OwnershipTransferred",
      "type": "event"
    },
    {
      "inputs": [],
      "name": "MIN_NAME_LENGTH",
      "outputs": [
        {
          "internalType": "uint256",
          "name": "",
          "type": "uint256"
        }
      ],
      "stateMutability": "view",
      "type": "function"
    },
    {
      "inputs": [
        {
          "internalType": "string",
          "name": "labelname",
          "type": "string"
        }
      ],
      "name": "available",
      "outputs": [
        {
          "internalType": "bool",
          "name": "",
          "type": "bool"
        }
      ],
      "stateMutability": "view",
      "type": "function"
    },
    {
      "inputs": [],
      "name": "base",
      "outputs": [
        {
          "internalType": "contract BaseRegistrarImplementation",
          "name": "",
          "type": "address"
        }
      ],
      "stateMutability": "view",
      "type": "function"
    },
    {
      "inputs": [
        {
          "internalType": "uint256",
          "name": "",
          "type": "uint256"
        }
      ],
      "name": "discountPercentages",
      "outputs": [
        {
          "internalType": "uint256",
          "name": "",
          "type": "uint256"
        }
      ],
      "stateMutability": "view",
      "type": "function"
    },
    {
      "inputs": [],
      "name": "durationRoundUpUnit",
      "outputs": [
        {
          "internalType": "uint256",
          "name": "",
          "type": "uint256"
        }
      ],
      "stateMutability": "view",
      "type": "function"
    },
    {
      "inputs": [],
      "name": "end",
      "outputs": [
        {
          "internalType": "uint256",
          "name": "",
          "type": "uint256"
        }
      ],
      "stateMutability": "view",
      "type": "function"
    },
    {
      "inputs": [
        {
          "internalType": "bytes32",
          "name": "nodehash",
          "type": "bytes32"
        }
      ],
      "name": "isNameMigrated",
      "outputs": [
        {
          "internalType": "bool",
          "name": "",
          "type": "bool"
        }
      ],
      "stateMutability": "view",
      "type": "function"
    },
    {
      "inputs": [
        {
          "internalType": "address",
          "name": "owner",
          "type": "address"
        },
        {
          "internalType": "bytes32",
          "name": "nodehash",
          "type": "bytes32"
        }
      ],
      "name": "isNameOwner",
      "outputs": [
        {
          "internalType": "bool",
          "name": "",
          "type": "bool"
        }
      ],
      "stateMutability": "view",
      "type": "function"
    },
    {
      "inputs": [
        {
          "internalType": "string",
          "name": "labelname",
          "type": "string"
        },
        {
          "internalType": "address",
          "name": "owner",
          "type": "address"
        },
        {
          "internalType": "address",
          "name": "resolver",
          "type": "address"
        }
      ],
      "name": "migrateWithResolver",
      "outputs": [],
      "stateMutability": "payable",
      "type": "function"
    },
    {
      "inputs": [
        {
          "internalType": "uint256",
          "name": "id",
          "type": "uint256"
        }
      ],
      "name": "migratedDuration",
      "outputs": [
        {
          "internalType": "uint256",
          "name": "",
          "type": "uint256"
        }
      ],
      "stateMutability": "view",
      "type": "function"
    },
    {
      "inputs": [
        {
          "internalType": "string",
          "name": "labelname",
          "type": "string"
        }
      ],
      "name": "nodeHashByLabel",
      "outputs": [
        {
          "internalType": "bytes32",
          "name": "",
          "type": "bytes32"
        }
      ],
      "stateMutability": "view",
      "type": "function"
    },
    {
      "inputs": [],
      "name": "owner",
      "outputs": [
        {
          "internalType": "address",
          "name": "",
          "type": "address"
        }
      ],
      "stateMutability": "view",
      "type": "function"
    },
    {
      "inputs": [],
      "name": "priceOracle",
      "outputs": [
        {
          "internalType": "contract PriceOracle",
          "name": "",
          "type": "address"
        }
      ],
      "stateMutability": "view",
      "type": "function"
    },
    {
      "inputs": [],
      "name": "renounceOwnership",
      "outputs": [],
      "stateMutability": "nonpayable",
      "type": "function"
    },
    {
      "inputs": [
        {
          "internalType": "string",
          "name": "labelname",
          "type": "string"
        }
      ],
      "name": "rentPrice",
      "outputs": [
        {
          "internalType": "uint256",
          "name": "",
          "type": "uint256"
        }
      ],
      "stateMutability": "view",
      "type": "function"
    },
    {
      "inputs": [
        {
          "internalType": "string",
          "name": "labelname",
          "type": "string"
        },
        {
          "internalType": "uint256",
          "name": "duration",
          "type": "uint256"
        }
      ],
      "name": "rentPriceWithDuration",
      "outputs": [
        {
          "internalType": "uint256",
          "name": "",
          "type": "uint256"
        }
      ],
      "stateMutability": "view",
      "type": "function"
    },
    {
      "inputs": [
        {
          "internalType": "uint256",
          "name": "start_",
          "type": "uint256"
        },
        {
          "internalType": "uint256",
          "name": "end_",
          "type": "uint256"
        }
      ],
      "name": "setActivePeriod",
      "outputs": [],
      "stateMutability": "nonpayable",
      "type": "function"
    },
    {
      "inputs": [
        {
          "internalType": "uint256[]",
          "name": "discountPercentages_",
          "type": "uint256[]"
        }
      ],
      "name": "setDiscountPercentages",
      "outputs": [],
      "stateMutability": "nonpayable",
      "type": "function"
    },
    {
      "inputs": [
        {
          "internalType": "uint256",
          "name": "durationRoundUpUnit_",
          "type": "uint256"
        }
      ],
      "name": "setDurationRoundUpUnit",
      "outputs": [],
      "stateMutability": "nonpayable",
      "type": "function"
    },
    {
      "inputs": [
        {
          "internalType": "contract PriceOracle",
          "name": "_prices",
          "type": "address"
        }
      ],
      "name": "setPriceOracle",
      "outputs": [],
      "stateMutability": "nonpayable",
      "type": "function"
    },
    {
      "inputs": [
        {
          "internalType": "address",
          "name": "treasury_",
          "type": "address"
        }
      ],
      "name": "setTreasury",
      "outputs": [],
      "stateMutability": "nonpayable",
      "type": "function"
    },
    {
      "inputs": [],
      "name": "sourceBaseRegistrar",
      "outputs": [
        {
          "internalType": "contract SourceBaseRegistrar",
          "name": "",
          "type": "address"
        }
      ],
      "stateMutability": "view",
      "type": "function"
    },
    {
      "inputs": [],
      "name": "sourceRegistry",
      "outputs": [
        {
          "internalType": "contract SourceRegistry",
          "name": "",
          "type": "address"
        }
      ],
      "stateMutability": "view",
      "type": "function"
    },
    {
      "inputs": [],
      "name": "start",
      "outputs": [
        {
          "internalType": "uint256",
          "name": "",
          "type": "uint256"
        }
      ],
      "stateMutability": "view",
      "type": "function"
    },
    {
      "inputs": [
        {
          "internalType": "address",
          "name": "newOwner",
          "type": "address"
        }
      ],
      "name": "transferOwnership",
      "outputs": [],
      "stateMutability": "nonpayable",
      "type": "function"
    },
    {
      "inputs": [],
      "name": "treasury",
      "outputs": [
        {
          "internalType": "address",
          "name": "",
          "type": "address"
        }
      ],
      "stateMutability": "view",
      "type": "function"
    },
    {
      "inputs": [
        {
          "internalType": "string",
          "name": "labelname",
          "type": "string"
        }
      ],
      "name": "valid",
      "outputs": [
        {
          "internalType": "bool",
          "name": "",
          "type": "bool"
        }
      ],
      "stateMutability": "pure",
      "type": "function"
    },
    {
      "inputs": [],
      "name": "withdraw",
      "outputs": [],
      "stateMutability": "nonpayable",
      "type": "function"
    }
  ],
  "transactionHash": "0x1f912f3eb6aec374647be66feb3d851baae3e6a523411b9a8400d81055c9e98a",
  "args": [
    "0xB2B023eBc301cC739BA754B77961CB02127f146E",
    "0xafE899f10EaaC6aeC6Fa054c8c0156F2c2f4FfFd",
    "0x08ced32a7f3eec915ba84415e9c07a7286977956",
    "0xE3b1D32e43Ce8d658368e2CBFF95D57Ef39Be8a6",
    "0x0000000000000000000000000000000000000000",
    1675743226,
    1684383226,
    [
      80,
      80,
      80,
      80,
      80
    ]
  ],
  "numDeployments": 2,
  "solcInputHash": "5b3cfa9d5da4fc1a70e28630258df746",
  "bytecode": "0x60806040526276a7006005553480156200001857600080fd5b50604051620038683803806200386883398181016040528101906200003e919062000566565b6200005e62000052620001d060201b60201c565b620001d860201b60201c565b87600a60006101000a81548173ffffffffffffffffffffffffffffffffffffffff021916908373ffffffffffffffffffffffffffffffffffffffff160217905550826008819055508160098190555085600160006101000a81548173ffffffffffffffffffffffffffffffffffffffff021916908373ffffffffffffffffffffffffffffffffffffffff16021790555084600260006101000a81548173ffffffffffffffffffffffffffffffffffffffff021916908373ffffffffffffffffffffffffffffffffffffffff16021790555083600360006101000a81548173ffffffffffffffffffffffffffffffffffffffff021916908373ffffffffffffffffffffffffffffffffffffffff16021790555086600460006101000a81548173ffffffffffffffffffffffffffffffffffffffff021916908373ffffffffffffffffffffffffffffffffffffffff160217905550620001c2816200029c60201b60201c565b50505050505050506200092f565b600033905090565b60008060009054906101000a900473ffffffffffffffffffffffffffffffffffffffff169050816000806101000a81548173ffffffffffffffffffffffffffffffffffffffff021916908373ffffffffffffffffffffffffffffffffffffffff1602179055508173ffffffffffffffffffffffffffffffffffffffff168173ffffffffffffffffffffffffffffffffffffffff167f8be0079c531659141344cd1fd0a4f28419497f9722a3daafe3b4186f6b6457e060405160405180910390a35050565b620002ac6200030f60201b60201c565b6000815111620002f3576040517f08c379a0000000000000000000000000000000000000000000000000000000008152600401620002ea9062000690565b60405180910390fd5b80600690805190602001906200030b929190620003c9565b5050565b6200031f620001d060201b60201c565b73ffffffffffffffffffffffffffffffffffffffff1662000345620003a060201b60201c565b73ffffffffffffffffffffffffffffffffffffffff16146200039e576040517f08c379a00000000000000000000000000000000000000000000000000000000081526004016200039590620006b2565b60405180910390fd5b565b60008060009054906101000a900473ffffffffffffffffffffffffffffffffffffffff16905090565b82805482825590600052602060002090810192821562000408579160200282015b8281111562000407578251825591602001919060010190620003ea565b5b5090506200041791906200041b565b5090565b5b80821115620004365760008160009055506001016200041c565b5090565b6000620004516200044b84620006fd565b620006d4565b905080838252602082019050828560208602820111156200047157600080fd5b60005b85811015620004a557816200048a88826200054f565b84526020840193506020830192505060018101905062000474565b5050509392505050565b600081519050620004c08162000893565b92915050565b600082601f830112620004d857600080fd5b8151620004ea8482602086016200043a565b91505092915050565b6000815190506200050481620008ad565b92915050565b6000815190506200051b81620008c7565b92915050565b6000815190506200053281620008e1565b92915050565b6000815190506200054981620008fb565b92915050565b600081519050620005608162000915565b92915050565b600080600080600080600080610100898b0312156200058457600080fd5b6000620005948b828c01620004f3565b9850506020620005a78b828c016200050a565b9750506040620005ba8b828c0162000538565b9650506060620005cd8b828c0162000521565b9550506080620005e08b828c01620004af565b94505060a0620005f38b828c016200054f565b93505060c0620006068b828c016200054f565b92505060e089015167ffffffffffffffff8111156200062457600080fd5b620006328b828c01620004c6565b9150509295985092959890939650565b600062000651601a836200072c565b91506200065e8262000841565b602082019050919050565b6000620006786020836200072c565b915062000685826200086a565b602082019050919050565b60006020820190508181036000830152620006ab8162000642565b9050919050565b60006020820190508181036000830152620006cd8162000669565b9050919050565b6000620006e0620006f3565b9050620006ee8282620007cb565b919050565b6000604051905090565b600067ffffffffffffffff8211156200071b576200071a62000801565b5b602082029050602081019050919050565b600082825260208201905092915050565b60006200074a82620007a1565b9050919050565b60006200075e826200073d565b9050919050565b600062000772826200073d565b9050919050565b600062000786826200073d565b9050919050565b60006200079a826200073d565b9050919050565b600073ffffffffffffffffffffffffffffffffffffffff82169050919050565b6000819050919050565b620007d68262000830565b810181811067ffffffffffffffff82111715620007f857620007f762000801565b5b80604052505050565b7f4e487b7100000000000000000000000000000000000000000000000000000000600052604160045260246000fd5b6000601f19601f8301169050919050565b7f656d70747920646973636f756e742070657263656e7461676573000000000000600082015250565b7f4f776e61626c653a2063616c6c6572206973206e6f7420746865206f776e6572600082015250565b6200089e816200073d565b8114620008aa57600080fd5b50565b620008b88162000751565b8114620008c457600080fd5b50565b620008d28162000765565b8114620008de57600080fd5b50565b620008ec8162000779565b8114620008f857600080fd5b50565b62000906816200078d565b81146200091257600080fd5b50565b6200092081620007c1565b81146200092c57600080fd5b50565b612f29806200093f6000396000f3fe6080604052600436106101b75760003560e01c80637d55780b116100ec578063c5ffa9871161008a578063f0f4426011610064578063f0f442601461062b578063f2fde38b14610654578063fd1fb6081461067d578063ff47ed76146106a6576101b7565b8063c5ffa987146105a7578063d66ce4fe146105c3578063efbe1c1c14610600576101b7565b80639791c097116100c65780639791c097146104c5578063a03eab3d14610502578063aeb8ce9b1461053f578063be9a65551461057c576101b7565b80637d55780b146104325780637efbdc971461045d5780638da5cb5b1461049a576101b7565b8063530e784f1161015957806361d027b31161013357806361d027b314610388578063715018a6146103b357806375eed7f0146103ca5780637840d97c14610407576101b7565b8063530e784f146102f9578063533b51a3146103225780635a424fbd1461034b576101b7565b80632630c12f116101955780632630c12f146102615780633ccfd60b1461028c5780635001f3b5146102a357806350cfeddd146102ce576101b7565b806305239f0e146101bc57806306e3dd0a146101e75780630c10f1aa14610224575b600080fd5b3480156101c857600080fd5b506101d16106cf565b6040516101de9190612552565b60405180910390f35b3480156101f357600080fd5b5061020e60048036038101906102099190611f82565b6106f5565b60405161021b91906124bd565b60405180910390f35b34801561023057600080fd5b5061024b600480360381019061024691906120ce565b610715565b6040516102589190612796565b60405180910390f35b34801561026d57600080fd5b50610276610918565b6040516102839190612537565b60405180910390f35b34801561029857600080fd5b506102a161093e565b005b3480156102af57600080fd5b506102b861098f565b6040516102c5919061251c565b60405180910390f35b3480156102da57600080fd5b506102e36109b5565b6040516102f09190612796565b60405180910390f35b34801561030557600080fd5b50610320600480360381019061031b9190611ffd565b6109ba565b005b34801561032e57600080fd5b5061034960048036038101906103449190612122565b610a76565b005b34801561035757600080fd5b50610372600480360381019061036d9190612122565b610acb565b60405161037f9190612796565b60405180910390f35b34801561039457600080fd5b5061039d610bc6565b6040516103aa919061246b565b60405180910390f35b3480156103bf57600080fd5b506103c8610bec565b005b3480156103d657600080fd5b506103f160048036038101906103ec9190612026565b610c00565b6040516103fe91906124d8565b60405180910390f35b34801561041357600080fd5b5061041c610cd8565b604051610429919061256d565b60405180910390f35b34801561043e57600080fd5b50610447610cfe565b6040516104549190612796565b60405180910390f35b34801561046957600080fd5b50610484600480360381019061047f9190611edc565b610d04565b60405161049191906124bd565b60405180910390f35b3480156104a657600080fd5b506104af610de7565b6040516104bc919061246b565b60405180910390f35b3480156104d157600080fd5b506104ec60048036038101906104e79190612026565b610e10565b6040516104f991906124bd565b60405180910390f35b34801561050e57600080fd5b5061052960048036038101906105249190612026565b610e26565b6040516105369190612796565b60405180910390f35b34801561054b57600080fd5b5061056660048036038101906105619190612026565b610e5c565b60405161057391906124bd565b60405180910390f35b34801561058857600080fd5b50610591610f30565b60405161059e9190612796565b60405180910390f35b6105c160048036038101906105bc9190612067565b610f36565b005b3480156105cf57600080fd5b506105ea60048036038101906105e59190612122565b6116c1565b6040516105f79190612796565b60405180910390f35b34801561060c57600080fd5b506106156116e5565b6040516106229190612796565b60405180910390f35b34801561063757600080fd5b50610652600480360381019061064d9190611e8a565b6116eb565b005b34801561066057600080fd5b5061067b60048036038101906106769190611e8a565b611737565b005b34801561068957600080fd5b506106a4600480360381019061069f9190612174565b6117bb565b005b3480156106b257600080fd5b506106cd60048036038101906106c89190611f18565b611823565b005b600260009054906101000a900473ffffffffffffffffffffffffffffffffffffffff1681565b600061070e8260001c600761188990919063ffffffff16565b9050919050565b600080610721846118c5565b90506000848051906020012090506000600460009054906101000a900473ffffffffffffffffffffffffffffffffffffffff1673ffffffffffffffffffffffffffffffffffffffff166350e9a71587600a60009054906101000a900473ffffffffffffffffffffffffffffffffffffffff1673ffffffffffffffffffffffffffffffffffffffff1663d6e4fa868660001c6040518263ffffffff1660e01b81526004016107ce9190612796565b60206040518083038186803b1580156107e657600080fd5b505afa1580156107fa573d6000803e3d6000fd5b505050506040513d601f19601f8201168201806040525081019061081e919061214b565b886040518463ffffffff1660e01b815260040161083d939291906125b8565b60206040518083038186803b15801561085557600080fd5b505afa158015610869573d6000803e3d6000fd5b505050506040513d601f19601f8201168201806040525081019061088d919061214b565b90506006805490508311156108a55760068054905092505b606460066001856108b69190612990565b815481106108ed577f4e487b7100000000000000000000000000000000000000000000000000000000600052603260045260246000fd5b9060005260206000200154826109039190612936565b61090d9190612905565b935050505092915050565b600460009054906101000a900473ffffffffffffffffffffffffffffffffffffffff1681565b610946611aa0565b3373ffffffffffffffffffffffffffffffffffffffff166108fc479081150290604051600060405180830381858888f1935050505015801561098c573d6000803e3d6000fd5b50565b600a60009054906101000a900473ffffffffffffffffffffffffffffffffffffffff1681565b600281565b6109c2611aa0565b600073ffffffffffffffffffffffffffffffffffffffff168173ffffffffffffffffffffffffffffffffffffffff161415610a32576040517f08c379a0000000000000000000000000000000000000000000000000000000008152600401610a2990612696565b60405180910390fd5b80600460006101000a81548173ffffffffffffffffffffffffffffffffffffffff021916908373ffffffffffffffffffffffffffffffffffffffff16021790555050565b610a7e611aa0565b60008111610ac1576040517f08c379a0000000000000000000000000000000000000000000000000000000008152600401610ab8906126b6565b60405180910390fd5b8060058190555050565b600080600260009054906101000a900473ffffffffffffffffffffffffffffffffffffffff1673ffffffffffffffffffffffffffffffffffffffff1663d6e4fa86846040518263ffffffff1660e01b8152600401610b299190612796565b60206040518083038186803b158015610b4157600080fd5b505afa158015610b55573d6000803e3d6000fd5b505050506040513d601f19601f82011682018060405250810190610b79919061214b565b905042811015610b8d576000915050610bc1565b60004282610b9b9190612990565b90506000600554610bae83600554611b1e565b610bb89190612936565b90508093505050505b919050565b600360009054906101000a900473ffffffffffffffffffffffffffffffffffffffff1681565b610bf4611aa0565b610bfe6000611b5b565b565b6000600a60009054906101000a900473ffffffffffffffffffffffffffffffffffffffff1673ffffffffffffffffffffffffffffffffffffffff1663ddf7fcb06040518163ffffffff1660e01b815260040160206040518083038186803b158015610c6a57600080fd5b505afa158015610c7e573d6000803e3d6000fd5b505050506040513d601f19601f82011682018060405250810190610ca29190611fab565b8280519060200120604051602001610cbb92919061243f565b604051602081830303815290604052805190602001209050919050565b600160009054906101000a900473ffffffffffffffffffffffffffffffffffffffff1681565b60055481565b60008273ffffffffffffffffffffffffffffffffffffffff16600160009054906101000a900473ffffffffffffffffffffffffffffffffffffffff1673ffffffffffffffffffffffffffffffffffffffff166302571be3846040518263ffffffff1660e01b8152600401610d7891906124d8565b60206040518083038186803b158015610d9057600080fd5b505afa158015610da4573d6000803e3d6000fd5b505050506040513d601f19601f82011682018060405250810190610dc89190611eb3565b73ffffffffffffffffffffffffffffffffffffffff1614905092915050565b60008060009054906101000a900473ffffffffffffffffffffffffffffffffffffffff16905090565b60006002610e1d836118c5565b10159050919050565b6000808280519060200120905060008160001c90506000610e4682610acb565b9050610e528582610715565b9350505050919050565b60008082805190602001209050610e7283610e10565b8015610f285750600a60009054906101000a900473ffffffffffffffffffffffffffffffffffffffff1673ffffffffffffffffffffffffffffffffffffffff166396e494e88260001c6040518263ffffffff1660e01b8152600401610ed79190612796565b60206040518083038186803b158015610eef57600080fd5b505afa158015610f03573d6000803e3d6000fd5b505050506040513d601f19601f82011682018060405250810190610f279190611f59565b5b915050919050565b60085481565b60085442118015610f48575060095442105b610f87576040517f08c379a0000000000000000000000000000000000000000000000000000000008152600401610f7e90612676565b60405180910390fd5b60008380519060200120905060008160001c90506000610fa686610c00565b9050610fb28582610d04565b610ff1576040517f08c379a0000000000000000000000000000000000000000000000000000000008152600401610fe890612736565b60405180910390fd5b610ffa816106f5565b1561103a576040517f08c379a000000000000000000000000000000000000000000000000000000000815260040161103190612616565b60405180910390fd5b61104386610e5c565b611082576040517f08c379a000000000000000000000000000000000000000000000000000000000815260040161107990612756565b60405180910390fd5b600061108d83610acb565b9050600081116110d2576040517f08c379a00000000000000000000000000000000000000000000000000000000081526004016110c9906126d6565b60405180910390fd5b60006110de8883610715565b905060008073ffffffffffffffffffffffffffffffffffffffff168773ffffffffffffffffffffffffffffffffffffffff161415611151576040517f08c379a000000000000000000000000000000000000000000000000000000000815260040161114890612776565b60405180910390fd5b600a60009054906101000a900473ffffffffffffffffffffffffffffffffffffffff1673ffffffffffffffffffffffffffffffffffffffff1663fca247ac8630866040518463ffffffff1660e01b81526004016111b0939291906127da565b602060405180830381600087803b1580156111ca57600080fd5b505af11580156111de573d6000803e3d6000fd5b505050506040513d601f19601f82011682018060405250810190611202919061214b565b9050600a60009054906101000a900473ffffffffffffffffffffffffffffffffffffffff1673ffffffffffffffffffffffffffffffffffffffff16632e94420f6040518163ffffffff1660e01b815260040160206040518083038186803b15801561126c57600080fd5b505afa158015611280573d6000803e3d6000fd5b505050506040513d601f19601f820116820180604052508101906112a49190611fd4565b73ffffffffffffffffffffffffffffffffffffffff16631896f70a85896040518363ffffffff1660e01b81526004016112de9291906124f3565b600060405180830381600087803b1580156112f857600080fd5b505af115801561130c573d6000803e3d6000fd5b505050508673ffffffffffffffffffffffffffffffffffffffff1663d5fa2b00858a6040518363ffffffff1660e01b815260040161134b9291906124f3565b600060405180830381600087803b15801561136557600080fd5b505af1158015611379573d6000803e3d6000fd5b50505050600a60009054906101000a900473ffffffffffffffffffffffffffffffffffffffff1673ffffffffffffffffffffffffffffffffffffffff166328ed4f6c868a6040518363ffffffff1660e01b81526004016113da9291906127b1565b600060405180830381600087803b1580156113f457600080fd5b505af1158015611408573d6000803e3d6000fd5b50505050600a60009054906101000a900473ffffffffffffffffffffffffffffffffffffffff1673ffffffffffffffffffffffffffffffffffffffff166323b872dd308a886040518463ffffffff1660e01b815260040161146b93929190612486565b600060405180830381600087803b15801561148557600080fd5b505af1158015611499573d6000803e3d6000fd5b50505050818873ffffffffffffffffffffffffffffffffffffffff167f44edaff5bd14fe0f49c47d6a39ef8360095fcefca97724c9157011fed2b1c72b8b846040516114e6929190612588565b60405180910390a381341015611531576040517f08c379a000000000000000000000000000000000000000000000000000000000815260040161152890612636565b60405180910390fd5b600073ffffffffffffffffffffffffffffffffffffffff16600360009054906101000a900473ffffffffffffffffffffffffffffffffffffffff1673ffffffffffffffffffffffffffffffffffffffff16146115f157600360009054906101000a900473ffffffffffffffffffffffffffffffffffffffff1673ffffffffffffffffffffffffffffffffffffffff166108fc839081150290604051600060405180830381858888f193505050501580156115ef573d6000803e3d6000fd5b505b8134111561164c573373ffffffffffffffffffffffffffffffffffffffff166108fc833461161f9190612990565b9081150290604051600060405180830381858888f1935050505015801561164a573d6000803e3d6000fd5b505b6116638460001c6007611c1f90919063ffffffff16565b8773ffffffffffffffffffffffffffffffffffffffff16867fca6abbe9d7f11422cb6ca7629fbf6fe9efb1c621f71ce8f02b9f2a230097404f8b85856040516116ae939291906125b8565b60405180910390a3505050505050505050565b600681815481106116d157600080fd5b906000526020600020016000915090505481565b60095481565b6116f3611aa0565b80600360006101000a81548173ffffffffffffffffffffffffffffffffffffffff021916908373ffffffffffffffffffffffffffffffffffffffff16021790555050565b61173f611aa0565b600073ffffffffffffffffffffffffffffffffffffffff168173ffffffffffffffffffffffffffffffffffffffff1614156117af576040517f08c379a00000000000000000000000000000000000000000000000000000000081526004016117a6906125f6565b60405180910390fd5b6117b881611b5b565b50565b6117c3611aa0565b80821080156117d25750600082115b611811576040517f08c379a000000000000000000000000000000000000000000000000000000000815260040161180890612656565b60405180910390fd5b81600881905550806009819055505050565b61182b611aa0565b600081511161186f576040517f08c379a0000000000000000000000000000000000000000000000000000000008152600401611866906126f6565b60405180910390fd5b8060069080519060200190611885929190611c65565b5050565b600080600883901c9050600060ff84166001901b9050600081866000016000858152602001908152602001600020541614159250505092915050565b60008060008084519050600092505b80821015611a95576000858381518110611917577f4e487b7100000000000000000000000000000000000000000000000000000000600052603260045260246000fd5b602001015160f81c60f81b9050608060f81b817effffffffffffffffffffffffffffffffffffffffffffffffffffffffffffff191610156119665760018361195f91906128af565b9250611a81565b60e060f81b817effffffffffffffffffffffffffffffffffffffffffffffffffffffffffffff191610156119a8576002836119a191906128af565b9250611a80565b60f060f81b817effffffffffffffffffffffffffffffffffffffffffffffffffffffffffffff191610156119ea576003836119e391906128af565b9250611a7f565b60f8801b817effffffffffffffffffffffffffffffffffffffffffffffffffffffffffffff19161015611a2b57600483611a2491906128af565b9250611a7e565b60fc60f81b817effffffffffffffffffffffffffffffffffffffffffffffffffffffffffffff19161015611a6d57600583611a6691906128af565b9250611a7d565b600683611a7a91906128af565b92505b5b5b5b5b508280611a8d90612b3d565b9350506118d4565b829350505050919050565b611aa8611c5d565b73ffffffffffffffffffffffffffffffffffffffff16611ac6610de7565b73ffffffffffffffffffffffffffffffffffffffff1614611b1c576040517f08c379a0000000000000000000000000000000000000000000000000000000008152600401611b1390612716565b60405180910390fd5b565b6000808314611b5057600182600185611b379190612990565b611b419190612905565b611b4b91906128af565b611b53565b60005b905092915050565b60008060009054906101000a900473ffffffffffffffffffffffffffffffffffffffff169050816000806101000a81548173ffffffffffffffffffffffffffffffffffffffff021916908373ffffffffffffffffffffffffffffffffffffffff1602179055508173ffffffffffffffffffffffffffffffffffffffff168173ffffffffffffffffffffffffffffffffffffffff167f8be0079c531659141344cd1fd0a4f28419497f9722a3daafe3b4186f6b6457e060405160405180910390a35050565b6000600882901c9050600060ff83166001901b9050808460000160008481526020019081526020016000206000828254179250508190555050505050565b600033905090565b828054828255906000526020600020908101928215611ca1579160200282015b82811115611ca0578251825591602001919060010190611c85565b5b509050611cae9190611cb2565b5090565b5b80821115611ccb576000816000905550600101611cb3565b5090565b6000611ce2611cdd84612836565b612811565b90508083825260208201905082856020860282011115611d0157600080fd5b60005b85811015611d315781611d178882611e60565b845260208401935060208301925050600181019050611d04565b5050509392505050565b6000611d4e611d4984612862565b612811565b905082815260208101848484011115611d6657600080fd5b611d71848285612aca565b509392505050565b600081359050611d8881612e69565b92915050565b600081519050611d9d81612e69565b92915050565b600082601f830112611db457600080fd5b8135611dc4848260208601611ccf565b91505092915050565b600081519050611ddc81612e80565b92915050565b600081359050611df181612e97565b92915050565b600081519050611e0681612e97565b92915050565b600081519050611e1b81612eae565b92915050565b600081359050611e3081612ec5565b92915050565b600082601f830112611e4757600080fd5b8135611e57848260208601611d3b565b91505092915050565b600081359050611e6f81612edc565b92915050565b600081519050611e8481612edc565b92915050565b600060208284031215611e9c57600080fd5b6000611eaa84828501611d79565b91505092915050565b600060208284031215611ec557600080fd5b6000611ed384828501611d8e565b91505092915050565b60008060408385031215611eef57600080fd5b6000611efd85828601611d79565b9250506020611f0e85828601611de2565b9150509250929050565b600060208284031215611f2a57600080fd5b600082013567ffffffffffffffff811115611f4457600080fd5b611f5084828501611da3565b91505092915050565b600060208284031215611f6b57600080fd5b6000611f7984828501611dcd565b91505092915050565b600060208284031215611f9457600080fd5b6000611fa284828501611de2565b91505092915050565b600060208284031215611fbd57600080fd5b6000611fcb84828501611df7565b91505092915050565b600060208284031215611fe657600080fd5b6000611ff484828501611e0c565b91505092915050565b60006020828403121561200f57600080fd5b600061201d84828501611e21565b91505092915050565b60006020828403121561203857600080fd5b600082013567ffffffffffffffff81111561205257600080fd5b61205e84828501611e36565b91505092915050565b60008060006060848603121561207c57600080fd5b600084013567ffffffffffffffff81111561209657600080fd5b6120a286828701611e36565b93505060206120b386828701611d79565b92505060406120c486828701611d79565b9150509250925092565b600080604083850312156120e157600080fd5b600083013567ffffffffffffffff8111156120fb57600080fd5b61210785828601611e36565b925050602061211885828601611e60565b9150509250929050565b60006020828403121561213457600080fd5b600061214284828501611e60565b91505092915050565b60006020828403121561215d57600080fd5b600061216b84828501611e75565b91505092915050565b6000806040838503121561218757600080fd5b600061219585828601611e60565b92505060206121a685828601611e60565b9150509250929050565b6121b9816129c4565b82525050565b6121c8816129d6565b82525050565b6121d7816129e2565b82525050565b6121ee6121e9826129e2565b612b86565b82525050565b6121fd81612a3a565b82525050565b61220c81612a5e565b82525050565b61221b81612a82565b82525050565b61222a81612aa6565b82525050565b600061223b82612893565b612245818561289e565b9350612255818560208601612ad9565b61225e81612c1d565b840191505092915050565b600061227660268361289e565b915061228182612c2e565b604082019050919050565b600061229960158361289e565b91506122a482612c7d565b602082019050919050565b60006122bc60148361289e565b91506122c782612ca6565b602082019050919050565b60006122df600e8361289e565b91506122ea82612ccf565b602082019050919050565b600061230260178361289e565b915061230d82612cf8565b602082019050919050565b6000612325600f8361289e565b915061233082612d21565b602082019050919050565b600061234860148361289e565b915061235382612d4a565b602082019050919050565b600061236b601d8361289e565b915061237682612d73565b602082019050919050565b600061238e601a8361289e565b915061239982612d9c565b602082019050919050565b60006123b160208361289e565b91506123bc82612dc5565b602082019050919050565b60006123d460198361289e565b91506123df82612dee565b602082019050919050565b60006123f7600d8361289e565b915061240282612e17565b602082019050919050565b600061241a600e8361289e565b915061242582612e40565b602082019050919050565b61243981612a30565b82525050565b600061244b82856121dd565b60208201915061245b82846121dd565b6020820191508190509392505050565b600060208201905061248060008301846121b0565b92915050565b600060608201905061249b60008301866121b0565b6124a860208301856121b0565b6124b56040830184612430565b949350505050565b60006020820190506124d260008301846121bf565b92915050565b60006020820190506124ed60008301846121ce565b92915050565b600060408201905061250860008301856121ce565b61251560208301846121b0565b9392505050565b600060208201905061253160008301846121f4565b92915050565b600060208201905061254c6000830184612203565b92915050565b60006020820190506125676000830184612212565b92915050565b60006020820190506125826000830184612221565b92915050565b600060408201905081810360008301526125a28185612230565b90506125b16020830184612430565b9392505050565b600060608201905081810360008301526125d28186612230565b90506125e16020830185612430565b6125ee6040830184612430565b949350505050565b6000602082019050818103600083015261260f81612269565b9050919050565b6000602082019050818103600083015261262f8161228c565b9050919050565b6000602082019050818103600083015261264f816122af565b9050919050565b6000602082019050818103600083015261266f816122d2565b9050919050565b6000602082019050818103600083015261268f816122f5565b9050919050565b600060208201905081810360008301526126af81612318565b9050919050565b600060208201905081810360008301526126cf8161233b565b9050919050565b600060208201905081810360008301526126ef8161235e565b9050919050565b6000602082019050818103600083015261270f81612381565b9050919050565b6000602082019050818103600083015261272f816123a4565b9050919050565b6000602082019050818103600083015261274f816123c7565b9050919050565b6000602082019050818103600083015261276f816123ea565b9050919050565b6000602082019050818103600083015261278f8161240d565b9050919050565b60006020820190506127ab6000830184612430565b92915050565b60006040820190506127c66000830185612430565b6127d360208301846121b0565b9392505050565b60006060820190506127ef6000830186612430565b6127fc60208301856121b0565b6128096040830184612430565b949350505050565b600061281b61282c565b90506128278282612b0c565b919050565b6000604051905090565b600067ffffffffffffffff82111561285157612850612bee565b5b602082029050602081019050919050565b600067ffffffffffffffff82111561287d5761287c612bee565b5b61288682612c1d565b9050602081019050919050565b600081519050919050565b600082825260208201905092915050565b60006128ba82612a30565b91506128c583612a30565b9250827fffffffffffffffffffffffffffffffffffffffffffffffffffffffffffffffff038211156128fa576128f9612b90565b5b828201905092915050565b600061291082612a30565b915061291b83612a30565b92508261292b5761292a612bbf565b5b828204905092915050565b600061294182612a30565b915061294c83612a30565b9250817fffffffffffffffffffffffffffffffffffffffffffffffffffffffffffffffff048311821515161561298557612984612b90565b5b828202905092915050565b600061299b82612a30565b91506129a683612a30565b9250828210156129b9576129b8612b90565b5b828203905092915050565b60006129cf82612a10565b9050919050565b60008115159050919050565b6000819050919050565b60006129f7826129c4565b9050919050565b6000612a09826129c4565b9050919050565b600073ffffffffffffffffffffffffffffffffffffffff82169050919050565b6000819050919050565b6000612a4582612a4c565b9050919050565b6000612a5782612a10565b9050919050565b6000612a6982612a70565b9050919050565b6000612a7b82612a10565b9050919050565b6000612a8d82612a94565b9050919050565b6000612a9f82612a10565b9050919050565b6000612ab182612ab8565b9050919050565b6000612ac382612a10565b9050919050565b82818337600083830152505050565b60005b83811015612af7578082015181840152602081019050612adc565b83811115612b06576000848401525b50505050565b612b1582612c1d565b810181811067ffffffffffffffff82111715612b3457612b33612bee565b5b80604052505050565b6000612b4882612a30565b91507fffffffffffffffffffffffffffffffffffffffffffffffffffffffffffffffff821415612b7b57612b7a612b90565b5b600182019050919050565b6000819050919050565b7f4e487b7100000000000000000000000000000000000000000000000000000000600052601160045260246000fd5b7f4e487b7100000000000000000000000000000000000000000000000000000000600052601260045260246000fd5b7f4e487b7100000000000000000000000000000000000000000000000000000000600052604160045260246000fd5b6000601f19601f8301169050919050565b7f4f776e61626c653a206e6577206f776e657220697320746865207a65726f206160008201527f6464726573730000000000000000000000000000000000000000000000000000602082015250565b7f6e616d6520616c7265616479206d696772617465640000000000000000000000600082015250565b7f696e73756666696369656e74207061796d656e74000000000000000000000000600082015250565b7f696e76616c696420706572696f64000000000000000000000000000000000000600082015250565b7f6d6967726174696f6e206e6f7420617661696c61626c65000000000000000000600082015250565b7f696e76616c696420616464726573730000000000000000000000000000000000600082015250565b7f696e76616c696420726f756e64757020756e6974000000000000000000000000600082015250565b7f736f7572636520746f6b656e206d696768742062652065787069726564000000600082015250565b7f656d70747920646973636f756e742070657263656e7461676573000000000000600082015250565b7f4f776e61626c653a2063616c6c6572206973206e6f7420746865206f776e6572600082015250565b7f6e6f742074686520736f75726365206e616d65206f776e657200000000000000600082015250565b7f6e6f7420617661696c61626c6500000000000000000000000000000000000000600082015250565b7f656d707479207265736f6c766572000000000000000000000000000000000000600082015250565b612e72816129c4565b8114612e7d57600080fd5b50565b612e89816129d6565b8114612e9457600080fd5b50565b612ea0816129e2565b8114612eab57600080fd5b50565b612eb7816129ec565b8114612ec257600080fd5b50565b612ece816129fe565b8114612ed957600080fd5b50565b612ee581612a30565b8114612ef057600080fd5b5056fea26469706673582212209a4c2a077b03a1aad1fed085be24c502cc421001cbf9201bc7f10a3aedbcd76e64736f6c63430008040033",
  "devdoc": {
    "kind": "dev",
    "methods": {
      "isNameMigrated(bytes32)": {
        "details": "returns whether the label name is migrated or not, the input is label name without .bnb suffix"
      },
      "isNameOwner(address,bytes32)": {
        "details": "returns whether the label name is migrated or not, the input is label name without .bnb suffix"
      },
      "migrateWithResolver(string,address,address)": {
        "details": "migrate .bnb name to our service, owner is the recipient address"
      },
      "migratedDuration(uint256)": {
        "details": "calculate the duration of migrated domains, domains in grace period  cannot be migrated"
      },
      "nodeHashByLabel(string)": {
        "details": "returns the full name hash, if the labelname.bnb, the input is label name without .bnb suffix"
      },
      "owner()": {
        "details": "Returns the address of the current owner."
      },
      "renounceOwnership()": {
        "details": "Leaves the contract without owner. It will not be possible to call `onlyOwner` functions anymore. Can only be called by the current owner. NOTE: Renouncing ownership will leave the contract without an owner, thereby removing any functionality that is only available to the owner."
      },
      "rentPriceWithDuration(string,uint256)": {
        "details": "rent price with discount"
      },
      "transferOwnership(address)": {
        "details": "Transfers ownership of the contract to a new account (`newOwner`). Can only be called by the current owner."
      }
    },
    "stateVariables": {
      "discountPercentages": {
        "details": "discount percentage  e.g [50, 60, 70, 80, 90] => For names in length 1->5, the discounts: 50%, 60%, 70%, 80%, 90%"
      },
      "migrationRecords": {
        "details": "key: token id"
      },
      "start": {
        "details": "only in the period of [start, end], the discount is enabled"
      }
    },
    "version": 1
  },
  "userdoc": {
    "kind": "user",
    "methods": {},
    "version": 1
  },
  "storageLayout": {
    "storage": [
      {
        "astId": 7,
        "contract": "contracts/business/MIDRegistrarMigrationController.sol:MIDRegistrarMigrationController",
        "label": "_owner",
        "offset": 0,
        "slot": "0",
        "type": "t_address"
      },
      {
        "astId": 3065,
        "contract": "contracts/business/MIDRegistrarMigrationController.sol:MIDRegistrarMigrationController",
        "label": "sourceRegistry",
        "offset": 0,
        "slot": "1",
        "type": "t_contract(SourceRegistry)3046"
      },
      {
        "astId": 3068,
        "contract": "contracts/business/MIDRegistrarMigrationController.sol:MIDRegistrarMigrationController",
        "label": "sourceBaseRegistrar",
        "offset": 0,
        "slot": "2",
        "type": "t_contract(SourceBaseRegistrar)3054"
      },
      {
        "astId": 3070,
        "contract": "contracts/business/MIDRegistrarMigrationController.sol:MIDRegistrarMigrationController",
        "label": "treasury",
        "offset": 0,
        "slot": "3",
        "type": "t_address"
      },
      {
        "astId": 3073,
        "contract": "contracts/business/MIDRegistrarMigrationController.sol:MIDRegistrarMigrationController",
        "label": "priceOracle",
        "offset": 0,
        "slot": "4",
        "type": "t_contract(PriceOracle)4951"
      },
      {
        "astId": 3083,
        "contract": "contracts/business/MIDRegistrarMigrationController.sol:MIDRegistrarMigrationController",
        "label": "durationRoundUpUnit",
        "offset": 0,
        "slot": "5",
        "type": "t_uint256"
      },
      {
        "astId": 3087,
        "contract": "contracts/business/MIDRegistrarMigrationController.sol:MIDRegistrarMigrationController",
        "label": "discountPercentages",
        "offset": 0,
        "slot": "6",
        "type": "t_array(t_uint256)dyn_storage"
      },
      {
        "astId": 3091,
        "contract": "contracts/business/MIDRegistrarMigrationController.sol:MIDRegistrarMigrationController",
        "label": "migrationRecords",
        "offset": 0,
        "slot": "7",
        "type": "t_struct(BitMap)2793_storage"
      },
      {
        "astId": 3094,
        "contract": "contracts/business/MIDRegistrarMigrationController.sol:MIDRegistrarMigrationController",
        "label": "start",
        "offset": 0,
        "slot": "8",
        "type": "t_uint256"
      },
      {
        "astId": 3096,
        "contract": "contracts/business/MIDRegistrarMigrationController.sol:MIDRegistrarMigrationController",
        "label": "end",
        "offset": 0,
        "slot": "9",
        "type": "t_uint256"
      },
      {
        "astId": 3099,
        "contract": "contracts/business/MIDRegistrarMigrationController.sol:MIDRegistrarMigrationController",
        "label": "base",
        "offset": 0,
        "slot": "10",
        "type": "t_contract(BaseRegistrarImplementation)4836"
      }
    ],
    "types": {
      "t_address": {
        "encoding": "inplace",
        "label": "address",
        "numberOfBytes": "20"
      },
      "t_array(t_uint256)dyn_storage": {
        "base": "t_uint256",
        "encoding": "dynamic_array",
        "label": "uint256[]",
        "numberOfBytes": "32"
      },
      "t_contract(BaseRegistrarImplementation)4836": {
        "encoding": "inplace",
        "label": "contract BaseRegistrarImplementation",
        "numberOfBytes": "20"
      },
      "t_contract(PriceOracle)4951": {
        "encoding": "inplace",
        "label": "contract PriceOracle",
        "numberOfBytes": "20"
      },
      "t_contract(SourceBaseRegistrar)3054": {
        "encoding": "inplace",
        "label": "contract SourceBaseRegistrar",
        "numberOfBytes": "20"
      },
      "t_contract(SourceRegistry)3046": {
        "encoding": "inplace",
        "label": "contract SourceRegistry",
        "numberOfBytes": "20"
      },
      "t_mapping(t_uint256,t_uint256)": {
        "encoding": "mapping",
        "key": "t_uint256",
        "label": "mapping(uint256 => uint256)",
        "numberOfBytes": "32",
        "value": "t_uint256"
      },
      "t_struct(BitMap)2793_storage": {
        "encoding": "inplace",
        "label": "struct BitMaps.BitMap",
        "members": [
          {
            "astId": 2792,
            "contract": "contracts/business/MIDRegistrarMigrationController.sol:MIDRegistrarMigrationController",
            "label": "_data",
            "offset": 0,
            "slot": "0",
            "type": "t_mapping(t_uint256,t_uint256)"
          }
        ],
        "numberOfBytes": "32"
      },
      "t_uint256": {
        "encoding": "inplace",
        "label": "uint256",
        "numberOfBytes": "32"
      }
    }
  }
}