{
  "address": "0xF6d33DFc1a3c9A42aACc2447f8D4ee7C9e48Ff0a",
  "abi": [
    {
      "inputs": [
        {
          "internalType": "contract AggregatorInterface",
          "name": "_usdOracle",
          "type": "address"
        },
        {
          "internalType": "uint256[]",
          "name": "_rentPrices",
          "type": "uint256[]"
        }
      ],
      "stateMutability": "nonpayable",
      "type": "constructor"
    },
    {
      "anonymous": false,
      "inputs": [
        {
          "indexed": false,
          "internalType": "address",
          "name": "oracle",
          "type": "address"
        }
      ],
      "name": "OracleChanged",
      "type": "event"
    },
    {
      "anonymous": false,
      "inputs": [
        {
          "indexed": true,
          "internalType": "address",
          "name": "previousOwner",
          "type": "address"
        },
        {
          "indexed": true,
          "internalType": "address",
          "name": "newOwner",
          "type": "address"
        }
      ],
      "name": "OwnershipTransferred",
      "type": "event"
    },
    {
      "anonymous": false,
      "inputs": [
        {
          "indexed": false,
          "internalType": "uint256[]",
          "name": "prices",
          "type": "uint256[]"
        }
      ],
      "name": "RentPriceChanged",
      "type": "event"
    },
    {
      "inputs": [],
      "name": "ethPrice",
      "outputs": [
        {
          "internalType": "uint256",
          "name": "",
          "type": "uint256"
        }
      ],
      "stateMutability": "view",
      "type": "function"
    },
    {
      "inputs": [],
      "name": "owner",
      "outputs": [
        {
          "internalType": "address",
          "name": "",
          "type": "address"
        }
      ],
      "stateMutability": "view",
      "type": "function"
    },
    {
      "inputs": [
        {
          "internalType": "string",
          "name": "name",
          "type": "string"
        },
        {
          "internalType": "uint256",
          "name": "expires",
          "type": "uint256"
        },
        {
          "internalType": "uint256",
          "name": "duration",
          "type": "uint256"
        }
      ],
      "name": "premium",
      "outputs": [
        {
          "internalType": "uint256",
          "name": "",
          "type": "uint256"
        }
      ],
      "stateMutability": "view",
      "type": "function"
    },
    {
      "inputs": [
        {
          "internalType": "string",
          "name": "name",
          "type": "string"
        },
        {
          "internalType": "uint256",
          "name": "expires",
          "type": "uint256"
        },
        {
          "internalType": "uint256",
          "name": "duration",
          "type": "uint256"
        }
      ],
      "name": "price",
      "outputs": [
        {
          "internalType": "uint256",
          "name": "",
          "type": "uint256"
        }
      ],
      "stateMutability": "view",
      "type": "function"
    },
    {
      "inputs": [],
      "name": "renounceOwnership",
      "outputs": [],
      "stateMutability": "nonpayable",
      "type": "function"
    },
    {
      "inputs": [
        {
          "internalType": "uint256",
          "name": "",
          "type": "uint256"
        }
      ],
      "name": "rentPrices",
      "outputs": [
        {
          "internalType": "uint256",
          "name": "",
          "type": "uint256"
        }
      ],
      "stateMutability": "view",
      "type": "function"
    },
    {
      "inputs": [
        {
          "internalType": "contract AggregatorInterface",
          "name": "_usdOracle",
          "type": "address"
        }
      ],
      "name": "setOracle",
      "outputs": [],
      "stateMutability": "nonpayable",
      "type": "function"
    },
    {
      "inputs": [
        {
          "internalType": "uint256[]",
          "name": "_rentPrices",
          "type": "uint256[]"
        }
      ],
      "name": "setPrices",
      "outputs": [],
      "stateMutability": "nonpayable",
      "type": "function"
    },
    {
      "inputs": [
        {
          "internalType": "bytes4",
          "name": "interfaceID",
          "type": "bytes4"
        }
      ],
      "name": "supportsInterface",
      "outputs": [
        {
          "internalType": "bool",
          "name": "",
          "type": "bool"
        }
      ],
      "stateMutability": "view",
      "type": "function"
    },
    {
      "inputs": [
        {
          "internalType": "address",
          "name": "newOwner",
          "type": "address"
        }
      ],
      "name": "transferOwnership",
      "outputs": [],
      "stateMutability": "nonpayable",
      "type": "function"
    },
    {
      "inputs": [],
      "name": "usdOracle",
      "outputs": [
        {
          "internalType": "contract AggregatorInterface",
          "name": "",
          "type": "address"
        }
      ],
      "stateMutability": "view",
      "type": "function"
    }
  ],
  "transactionHash": "0x8d56d26c61fe3e3b2942f5bd93379e0d04973777418e3437edafdd7bd7a8a159",
  "args": [
    "0x0567f2323251f0aab15c8dfb1967e4e8a7d42aee",
    [
      63419583967529,
      28158295281582,
      15854895991882,
      3805175038051,
      158548959918
    ]
  ],
  "numDeployments": 1,
  "solcInputHash": "e90400b39657e40d2d1255b8eeb7f136",
  "bytecode": "0x60806040523480156200001157600080fd5b5060405162001cb038038062001cb08339818101604052810190620000379190620003dd565b620000576200004b620000b160201b60201c565b620000b960201b60201c565b81600260006101000a81548173ffffffffffffffffffffffffffffffffffffffff021916908373ffffffffffffffffffffffffffffffffffffffff160217905550620000a9816200017d60201b60201c565b505062000700565b600033905090565b60008060009054906101000a900473ffffffffffffffffffffffffffffffffffffffff169050816000806101000a81548173ffffffffffffffffffffffffffffffffffffffff021916908373ffffffffffffffffffffffffffffffffffffffff1602179055508173ffffffffffffffffffffffffffffffffffffffff168173ffffffffffffffffffffffffffffffffffffffff167f8be0079c531659141344cd1fd0a4f28419497f9722a3daafe3b4186f6b6457e060405160405180910390a35050565b6200018d620001e260201b60201c565b8060019080519060200190620001a59291906200029c565b507f73422d94aedd596c2d4d39f27a01033adc390a9054efaf259afefd95ef7331df81604051620001d79190620004f3565b60405180910390a150565b620001f2620000b160201b60201c565b73ffffffffffffffffffffffffffffffffffffffff16620002186200027360201b60201c565b73ffffffffffffffffffffffffffffffffffffffff161462000271576040517f08c379a0000000000000000000000000000000000000000000000000000000008152600401620002689062000517565b60405180910390fd5b565b60008060009054906101000a900473ffffffffffffffffffffffffffffffffffffffff16905090565b828054828255906000526020600020908101928215620002db579160200282015b82811115620002da578251825591602001919060010190620002bd565b5b509050620002ea9190620002ee565b5090565b5b8082111562000309576000816000905550600101620002ef565b5090565b6000620003246200031e8462000562565b62000539565b905080838252602082019050828560208602820111156200034457600080fd5b60005b858110156200037857816200035d8882620003c6565b84526020840193506020830192505060018101905062000347565b5050509392505050565b600082601f8301126200039457600080fd5b8151620003a68482602086016200030d565b91505092915050565b600081519050620003c081620006cc565b92915050565b600081519050620003d781620006e6565b92915050565b60008060408385031215620003f157600080fd5b60006200040185828601620003af565b925050602083015167ffffffffffffffff8111156200041f57600080fd5b6200042d8582860162000382565b9150509250929050565b6000620004458383620004e2565b60208301905092915050565b60006200045e82620005a1565b6200046a8185620005b9565b9350620004778362000591565b8060005b83811015620004ae57815162000492888262000437565b97506200049f83620005ac565b9250506001810190506200047b565b5085935050505092915050565b6000620004ca602083620005ca565b9150620004d782620006a3565b602082019050919050565b620004ed8162000623565b82525050565b600060208201905081810360008301526200050f818462000451565b905092915050565b600060208201905081810360008301526200053281620004bb565b9050919050565b60006200054562000558565b90506200055382826200062d565b919050565b6000604051905090565b600067ffffffffffffffff82111562000580576200057f62000663565b5b602082029050602081019050919050565b6000819050602082019050919050565b600081519050919050565b6000602082019050919050565b600082825260208201905092915050565b600082825260208201905092915050565b6000620005e88262000603565b9050919050565b6000620005fc82620005db565b9050919050565b600073ffffffffffffffffffffffffffffffffffffffff82169050919050565b6000819050919050565b620006388262000692565b810181811067ffffffffffffffff821117156200065a576200065962000663565b5b80604052505050565b7f4e487b7100000000000000000000000000000000000000000000000000000000600052604160045260246000fd5b6000601f19601f8301169050919050565b7f4f776e61626c653a2063616c6c6572206973206e6f7420746865206f776e6572600082015250565b620006d781620005ef565b8114620006e357600080fd5b50565b620006f18162000623565b8114620006fd57600080fd5b50565b6115a080620007106000396000f3fe608060405234801561001057600080fd5b50600436106100a95760003560e01c80637adbf973116100715780637adbf973146101645780638da5cb5b14610180578063a34e35961461019e578063c8a4271f146101ce578063f2fde38b146101ec578063ff186b2e14610208576100a9565b806301ffc9a7146100ae57806306d5d0b6146100de57806350e9a7151461010e578063715018a61461013e57806379cf92d314610148575b600080fd5b6100c860048036038101906100c39190610d46565b610226565b6040516100d59190610fe0565b60405180910390f35b6100f860048036038101906100f39190610e2d565b61031a565b6040516101059190611096565b60405180910390f35b61012860048036038101906101239190610dc1565b61033e565b6040516101359190611096565b60405180910390f35b6101466104fe565b005b610162600480360381019061015d9190610d05565b610512565b005b61017e60048036038101906101799190610d6f565b61056b565b005b6101886105ee565b6040516101959190610fa3565b60405180910390f35b6101b860048036038101906101b39190610dc1565b610617565b6040516101c59190611096565b60405180910390f35b6101d661067a565b6040516101e39190610ffb565b60405180910390f35b61020660048036038101906102019190610cdc565b6106a0565b005b610210610724565b60405161021d9190611096565b60405180910390f35b60007f01ffc9a7a5cef8baa21ed3c5c0d7e23accb804b619e9333b597f47a0d84076e27bffffffffffffffffffffffffffffffffffffffffffffffffffffffff1916827bffffffffffffffffffffffffffffffffffffffffffffffffffffffff1916148061031357507fa34e3596c835a2bb0c76af3bc7896686f9d9abbb37ea27272246c0e9dab761c57f50e9a715a506f81ba3cfca69197fa8231c19274521697ca4e52316238d69d8a9187bffffffffffffffffffffffffffffffffffffffffffffffffffffffff1916827bffffffffffffffffffffffffffffffffffffffffffffffffffffffff1916145b9050919050565b6001818154811061032a57600080fd5b906000526020600020016000915090505481565b60008061038e86868080601f016020809104026020016040519081016040528093929190818152602001838380828437600081840152601f19601f820116905080830192505050505050506107cb565b905060028110156103d4576040517f08c379a00000000000000000000000000000000000000000000000000000000081526004016103cb90611056565b60405180910390fd5b603f811115610418576040517f08c379a000000000000000000000000000000000000000000000000000000000815260040161040f90611036565b60405180910390fd5b60018054905081111561042e5760018054905090505b6000836001808461043f919061122d565b81548110610476577f4e487b7100000000000000000000000000000000000000000000000000000000600052603260045260246000fd5b906000526020600020015461048b91906111d3565b90506104dc87878080601f016020809104026020016040519081016040528093929190818152602001838380828437600081840152601f19601f8201169050808301925050505050505086866109a6565b816104e7919061114c565b90506104f2816109af565b92505050949350505050565b6105066109df565b6105106000610a5d565b565b61051a6109df565b8060019080519060200190610530929190610b29565b507f73422d94aedd596c2d4d39f27a01033adc390a9054efaf259afefd95ef7331df816040516105609190610fbe565b60405180910390a150565b6105736109df565b80600260006101000a81548173ffffffffffffffffffffffffffffffffffffffff021916908373ffffffffffffffffffffffffffffffffffffffff1602179055507f0e05ae75e8b926552cf6fcd744d19f422561e3ced1e426868730852702dbe418816040516105e39190610fa3565b60405180910390a150565b60008060009054906101000a900473ffffffffffffffffffffffffffffffffffffffff16905090565b600061067061066b86868080601f016020809104026020016040519081016040528093929190818152602001838380828437600081840152601f19601f8201169050808301925050505050505085856109a6565b6109af565b9050949350505050565b600260009054906101000a900473ffffffffffffffffffffffffffffffffffffffff1681565b6106a86109df565b600073ffffffffffffffffffffffffffffffffffffffff168173ffffffffffffffffffffffffffffffffffffffff161415610718576040517f08c379a000000000000000000000000000000000000000000000000000000000815260040161070f90611016565b60405180910390fd5b61072181610a5d565b50565b6000600260009054906101000a900473ffffffffffffffffffffffffffffffffffffffff1673ffffffffffffffffffffffffffffffffffffffff166350d25bcd6040518163ffffffff1660e01b815260040160206040518083038186803b15801561078e57600080fd5b505afa1580156107a2573d6000803e3d6000fd5b505050506040513d601f19601f820116820180604052508101906107c69190610d98565b905090565b60008060008084519050600092505b8082101561099b57600085838151811061081d577f4e487b7100000000000000000000000000000000000000000000000000000000600052603260045260246000fd5b602001015160f81c60f81b9050608060f81b817effffffffffffffffffffffffffffffffffffffffffffffffffffffffffffff1916101561086c57600183610865919061114c565b9250610987565b60e060f81b817effffffffffffffffffffffffffffffffffffffffffffffffffffffffffffff191610156108ae576002836108a7919061114c565b9250610986565b60f060f81b817effffffffffffffffffffffffffffffffffffffffffffffffffffffffffffff191610156108f0576003836108e9919061114c565b9250610985565b60f8801b817effffffffffffffffffffffffffffffffffffffffffffffffffffffffffffff191610156109315760048361092a919061114c565b9250610984565b60fc60f81b817effffffffffffffffffffffffffffffffffffffffffffffffffffffffffffff191610156109735760058361096c919061114c565b9250610983565b600683610980919061114c565b92505b5b5b5b5b50828061099390611346565b9350506107da565b829350505050919050565b60009392505050565b6000806109ba610724565b9050806305f5e100846109cd91906111d3565b6109d791906111a2565b915050919050565b6109e7610b21565b73ffffffffffffffffffffffffffffffffffffffff16610a056105ee565b73ffffffffffffffffffffffffffffffffffffffff1614610a5b576040517f08c379a0000000000000000000000000000000000000000000000000000000008152600401610a5290611076565b60405180910390fd5b565b60008060009054906101000a900473ffffffffffffffffffffffffffffffffffffffff169050816000806101000a81548173ffffffffffffffffffffffffffffffffffffffff021916908373ffffffffffffffffffffffffffffffffffffffff1602179055508173ffffffffffffffffffffffffffffffffffffffff168173ffffffffffffffffffffffffffffffffffffffff167f8be0079c531659141344cd1fd0a4f28419497f9722a3daafe3b4186f6b6457e060405160405180910390a35050565b600033905090565b828054828255906000526020600020908101928215610b65579160200282015b82811115610b64578251825591602001919060010190610b49565b5b509050610b729190610b76565b5090565b5b80821115610b8f576000816000905550600101610b77565b5090565b6000610ba6610ba1846110d6565b6110b1565b90508083825260208201905082856020860282011115610bc557600080fd5b60005b85811015610bf55781610bdb8882610cc7565b845260208401935060208301925050600181019050610bc8565b5050509392505050565b600081359050610c0e816114f7565b92915050565b600082601f830112610c2557600080fd5b8135610c35848260208601610b93565b91505092915050565b600081359050610c4d8161150e565b92915050565b600081359050610c6281611525565b92915050565b600081519050610c778161153c565b92915050565b60008083601f840112610c8f57600080fd5b8235905067ffffffffffffffff811115610ca857600080fd5b602083019150836001820283011115610cc057600080fd5b9250929050565b600081359050610cd681611553565b92915050565b600060208284031215610cee57600080fd5b6000610cfc84828501610bff565b91505092915050565b600060208284031215610d1757600080fd5b600082013567ffffffffffffffff811115610d3157600080fd5b610d3d84828501610c14565b91505092915050565b600060208284031215610d5857600080fd5b6000610d6684828501610c3e565b91505092915050565b600060208284031215610d8157600080fd5b6000610d8f84828501610c53565b91505092915050565b600060208284031215610daa57600080fd5b6000610db884828501610c68565b91505092915050565b60008060008060608587031215610dd757600080fd5b600085013567ffffffffffffffff811115610df157600080fd5b610dfd87828801610c7d565b94509450506020610e1087828801610cc7565b9250506040610e2187828801610cc7565b91505092959194509250565b600060208284031215610e3f57600080fd5b6000610e4d84828501610cc7565b91505092915050565b6000610e628383610f85565b60208301905092915050565b610e7781611261565b82525050565b6000610e8882611112565b610e92818561112a565b9350610e9d83611102565b8060005b83811015610ece578151610eb58882610e56565b9750610ec08361111d565b925050600181019050610ea1565b5085935050505092915050565b610ee481611273565b82525050565b610ef3816112f1565b82525050565b6000610f0660268361113b565b9150610f118261142d565b604082019050919050565b6000610f29600d8361113b565b9150610f348261147c565b602082019050919050565b6000610f4c600e8361113b565b9150610f57826114a5565b602082019050919050565b6000610f6f60208361113b565b9150610f7a826114ce565b602082019050919050565b610f8e816112e7565b82525050565b610f9d816112e7565b82525050565b6000602082019050610fb86000830184610e6e565b92915050565b60006020820190508181036000830152610fd88184610e7d565b905092915050565b6000602082019050610ff56000830184610edb565b92915050565b60006020820190506110106000830184610eea565b92915050565b6000602082019050818103600083015261102f81610ef9565b9050919050565b6000602082019050818103600083015261104f81610f1c565b9050919050565b6000602082019050818103600083015261106f81610f3f565b9050919050565b6000602082019050818103600083015261108f81610f62565b9050919050565b60006020820190506110ab6000830184610f94565b92915050565b60006110bb6110cc565b90506110c78282611315565b919050565b6000604051905090565b600067ffffffffffffffff8211156110f1576110f06113ed565b5b602082029050602081019050919050565b6000819050602082019050919050565b600081519050919050565b6000602082019050919050565b600082825260208201905092915050565b600082825260208201905092915050565b6000611157826112e7565b9150611162836112e7565b9250827fffffffffffffffffffffffffffffffffffffffffffffffffffffffffffffffff038211156111975761119661138f565b5b828201905092915050565b60006111ad826112e7565b91506111b8836112e7565b9250826111c8576111c76113be565b5b828204905092915050565b60006111de826112e7565b91506111e9836112e7565b9250817fffffffffffffffffffffffffffffffffffffffffffffffffffffffffffffffff04831182151516156112225761122161138f565b5b828202905092915050565b6000611238826112e7565b9150611243836112e7565b9250828210156112565761125561138f565b5b828203905092915050565b600061126c826112c7565b9050919050565b60008115159050919050565b60007fffffffff0000000000000000000000000000000000000000000000000000000082169050919050565b60006112b682611261565b9050919050565b6000819050919050565b600073ffffffffffffffffffffffffffffffffffffffff82169050919050565b6000819050919050565b60006112fc82611303565b9050919050565b600061130e826112c7565b9050919050565b61131e8261141c565b810181811067ffffffffffffffff8211171561133d5761133c6113ed565b5b80604052505050565b6000611351826112e7565b91507fffffffffffffffffffffffffffffffffffffffffffffffffffffffffffffffff8214156113845761138361138f565b5b600182019050919050565b7f4e487b7100000000000000000000000000000000000000000000000000000000600052601160045260246000fd5b7f4e487b7100000000000000000000000000000000000000000000000000000000600052601260045260246000fd5b7f4e487b7100000000000000000000000000000000000000000000000000000000600052604160045260246000fd5b6000601f19601f8301169050919050565b7f4f776e61626c653a206e6577206f776e657220697320746865207a65726f206160008201527f6464726573730000000000000000000000000000000000000000000000000000602082015250565b7f6e616d6520746f6f206c6f6e6700000000000000000000000000000000000000600082015250565b7f6e616d6520746f6f2073686f7274000000000000000000000000000000000000600082015250565b7f4f776e61626c653a2063616c6c6572206973206e6f7420746865206f776e6572600082015250565b61150081611261565b811461150b57600080fd5b50565b6115178161127f565b811461152257600080fd5b50565b61152e816112ab565b811461153957600080fd5b50565b611545816112bd565b811461155057600080fd5b50565b61155c816112e7565b811461156757600080fd5b5056fea2646970667358221220f87c46c6528c64beac07cb525e2222c9cda8877563bac3d5f1126520d38a6d0164736f6c63430008040033",
  "devdoc": {
    "kind": "dev",
    "methods": {
      "owner()": {
        "details": "Returns the address of the current owner."
      },
      "premium(string,uint256,uint256)": {
        "details": "Returns the pricing premium in wei."
      },
      "price(string,uint256,uint256)": {
        "details": "Returns the price to register or renew a name.",
        "params": {
          "duration": "How long the name is being registered or extended for, in seconds.",
          "expires": "When the name presently expires (0 if this is a new registration).",
          "name": "The name being registered or renewed."
        },
        "returns": {
          "_0": "The price of this renewal or registration, in wei."
        }
      },
      "renounceOwnership()": {
        "details": "Leaves the contract without owner. It will not be possible to call `onlyOwner` functions anymore. Can only be called by the current owner. NOTE: Renouncing ownership will leave the contract without an owner, thereby removing any functionality that is only available to the owner."
      },
      "setOracle(address)": {
        "details": "Sets the price oracle address",
        "params": {
          "_usdOracle": "The address of the price oracle to use."
        }
      },
      "setPrices(uint256[])": {
        "details": "Sets rent prices.",
        "params": {
          "_rentPrices": "The price array. Each element corresponds to a specific                    name length; names longer than the length of the array                    default to the price of the last element. Values are                    in base price units, equal to one attodollar (1e-18                    dollar) each."
        }
      },
      "transferOwnership(address)": {
        "details": "Transfers ownership of the contract to a new account (`newOwner`). Can only be called by the current owner."
      }
    },
    "version": 1
  },
  "userdoc": {
    "kind": "user",
    "methods": {},
    "version": 1
  },
  "storageLayout": {
    "storage": [
      {
        "astId": 7,
        "contract": "contracts/oracles/StablePriceOracle.sol:StablePriceOracle",
        "label": "_owner",
        "offset": 0,
        "slot": "0",
        "type": "t_address"
      },
      {
        "astId": 6731,
        "contract": "contracts/oracles/StablePriceOracle.sol:StablePriceOracle",
        "label": "rentPrices",
        "offset": 0,
        "slot": "1",
        "type": "t_array(t_uint256)dyn_storage"
      },
      {
        "astId": 6734,
        "contract": "contracts/oracles/StablePriceOracle.sol:StablePriceOracle",
        "label": "usdOracle",
        "offset": 0,
        "slot": "2",
        "type": "t_contract(AggregatorInterface)6722"
      }
    ],
    "types": {
      "t_address": {
        "encoding": "inplace",
        "label": "address",
        "numberOfBytes": "20"
      },
      "t_array(t_uint256)dyn_storage": {
        "base": "t_uint256",
        "encoding": "dynamic_array",
        "label": "uint256[]",
        "numberOfBytes": "32"
      },
      "t_contract(AggregatorInterface)6722": {
        "encoding": "inplace",
        "label": "contract AggregatorInterface",
        "numberOfBytes": "20"
      },
      "t_uint256": {
        "encoding": "inplace",
        "label": "uint256",
        "numberOfBytes": "32"
      }
    }
  }
}