{
  "address": "0x8d7D2F4D4e6F7994067114Bbd4A347DE00Af41F2",
  "abi": [
    {
      "inputs": [
        {
          "internalType": "uint256",
          "name": "wishCap_",
          "type": "uint256"
        },
        {
          "internalType": "uint256",
          "name": "wishPhraseStart_",
          "type": "uint256"
        },
        {
          "internalType": "uint256",
          "name": "wishPhraseEnd_",
          "type": "uint256"
        },
        {
          "internalType": "bytes32",
          "name": "baseNode_",
          "type": "bytes32"
        }
      ],
      "stateMutability": "nonpayable",
      "type": "constructor"
    },
    {
      "anonymous": false,
      "inputs": [
        {
          "indexed": true,
          "internalType": "address",
          "name": "previousOwner",
          "type": "address"
        },
        {
          "indexed": true,
          "internalType": "address",
          "name": "newOwner",
          "type": "address"
        }
      ],
      "name": "OwnershipTransferred",
      "type": "event"
    },
    {
      "anonymous": false,
      "inputs": [
        {
          "indexed": true,
          "internalType": "address",
          "name": "user",
          "type": "address"
        },
        {
          "indexed": true,
          "internalType": "string",
          "name": "wish",
          "type": "string"
        }
      ],
      "name": "WishAdded",
      "type": "event"
    },
    {
      "inputs": [
        {
          "internalType": "string[]",
          "name": "names",
          "type": "string[]"
        }
      ],
      "name": "addReservedNames",
      "outputs": [],
      "stateMutability": "nonpayable",
      "type": "function"
    },
    {
      "inputs": [],
      "name": "baseNode",
      "outputs": [
        {
          "internalType": "bytes32",
          "name": "",
          "type": "bytes32"
        }
      ],
      "stateMutability": "view",
      "type": "function"
    },
    {
      "inputs": [],
      "name": "blocktime",
      "outputs": [
        {
          "internalType": "uint256",
          "name": "",
          "type": "uint256"
        }
      ],
      "stateMutability": "view",
      "type": "function"
    },
    {
      "inputs": [
        {
          "internalType": "string",
          "name": "name",
          "type": "string"
        }
      ],
      "name": "needAuction",
      "outputs": [
        {
          "internalType": "bool",
          "name": "",
          "type": "bool"
        }
      ],
      "stateMutability": "view",
      "type": "function"
    },
    {
      "inputs": [],
      "name": "owner",
      "outputs": [
        {
          "internalType": "address",
          "name": "",
          "type": "address"
        }
      ],
      "stateMutability": "view",
      "type": "function"
    },
    {
      "inputs": [],
      "name": "renounceOwnership",
      "outputs": [],
      "stateMutability": "nonpayable",
      "type": "function"
    },
    {
      "inputs": [
        {
          "internalType": "bytes32",
          "name": "",
          "type": "bytes32"
        }
      ],
      "name": "reservedNameMap",
      "outputs": [
        {
          "internalType": "bool",
          "name": "",
          "type": "bool"
        }
      ],
      "stateMutability": "view",
      "type": "function"
    },
    {
      "inputs": [
        {
          "internalType": "uint256",
          "name": "",
          "type": "uint256"
        }
      ],
      "name": "reservedNames",
      "outputs": [
        {
          "internalType": "string",
          "name": "",
          "type": "string"
        }
      ],
      "stateMutability": "view",
      "type": "function"
    },
    {
      "inputs": [
        {
          "internalType": "bytes32",
          "name": "baseNode_",
          "type": "bytes32"
        }
      ],
      "name": "setBaseNode",
      "outputs": [],
      "stateMutability": "nonpayable",
      "type": "function"
    },
    {
      "inputs": [
        {
          "internalType": "uint256",
          "name": "wishCap_",
          "type": "uint256"
        }
      ],
      "name": "setWishCap",
      "outputs": [],
      "stateMutability": "nonpayable",
      "type": "function"
    },
    {
      "inputs": [
        {
          "internalType": "uint256",
          "name": "wishPhraseStart_",
          "type": "uint256"
        },
        {
          "internalType": "uint256",
          "name": "wishPhraseEnd_",
          "type": "uint256"
        }
      ],
      "name": "setWishPhraseTime",
      "outputs": [],
      "stateMutability": "nonpayable",
      "type": "function"
    },
    {
      "inputs": [
        {
          "internalType": "string[]",
          "name": "names",
          "type": "string[]"
        }
      ],
      "name": "setWishes",
      "outputs": [],
      "stateMutability": "nonpayable",
      "type": "function"
    },
    {
      "inputs": [
        {
          "internalType": "address",
          "name": "newOwner",
          "type": "address"
        }
      ],
      "name": "transferOwnership",
      "outputs": [],
      "stateMutability": "nonpayable",
      "type": "function"
    },
    {
      "inputs": [
        {
          "internalType": "address",
          "name": "user",
          "type": "address"
        },
        {
          "internalType": "string",
          "name": "name",
          "type": "string"
        }
      ],
      "name": "userHasWish",
      "outputs": [
        {
          "internalType": "bool",
          "name": "",
          "type": "bool"
        }
      ],
      "stateMutability": "view",
      "type": "function"
    },
    {
      "inputs": [
        {
          "internalType": "address",
          "name": "user",
          "type": "address"
        }
      ],
      "name": "userWishes",
      "outputs": [
        {
          "internalType": "string[]",
          "name": "",
          "type": "string[]"
        }
      ],
      "stateMutability": "view",
      "type": "function"
    },
    {
      "inputs": [],
      "name": "wishCap",
      "outputs": [
        {
          "internalType": "uint256",
          "name": "",
          "type": "uint256"
        }
      ],
      "stateMutability": "view",
      "type": "function"
    },
    {
      "inputs": [
        {
          "internalType": "bytes32",
          "name": "",
          "type": "bytes32"
        }
      ],
      "name": "wishCounts",
      "outputs": [
        {
          "internalType": "uint256",
          "name": "",
          "type": "uint256"
        }
      ],
      "stateMutability": "view",
      "type": "function"
    },
    {
      "inputs": [],
      "name": "wishPhraseEnd",
      "outputs": [
        {
          "internalType": "uint256",
          "name": "",
          "type": "uint256"
        }
      ],
      "stateMutability": "view",
      "type": "function"
    },
    {
      "inputs": [],
      "name": "wishPhraseStart",
      "outputs": [
        {
          "internalType": "uint256",
          "name": "",
          "type": "uint256"
        }
      ],
      "stateMutability": "view",
      "type": "function"
    },
    {
      "inputs": [
        {
          "internalType": "address",
          "name": "",
          "type": "address"
        },
        {
          "internalType": "uint256",
          "name": "",
          "type": "uint256"
        }
      ],
      "name": "wishes",
      "outputs": [
        {
          "internalType": "string",
          "name": "",
          "type": "string"
        }
      ],
      "stateMutability": "view",
      "type": "function"
    }
  ],
  "transactionHash": "0x2897cb41335f020cd5945f34a76f8017408016e1ed1513e7d0eb0eb427a622ae",
  "args": [
    5,
    1675743226,
    1678335226,
    "0xdba5666821b22671387fe7ea11d7cc41ede85a5aa67c3e7b3d68ce6a661f389c"
  ],
  "numDeployments": 2,
  "solcInputHash": "46ef6853993e668298713b2f0021f4ed",
  "bytecode": "0x60806040523480156200001157600080fd5b506040516200260738038062002607833981810160405281019062000037919062000380565b620000576200004b6200009560201b60201c565b6200009d60201b60201c565b62000068846200016160201b60201c565b6200007a8383620001c160201b60201c565b6200008b816200023560201b60201c565b5050505062000529565b600033905090565b60008060009054906101000a900473ffffffffffffffffffffffffffffffffffffffff169050816000806101000a81548173ffffffffffffffffffffffffffffffffffffffff021916908373ffffffffffffffffffffffffffffffffffffffff1602179055508173ffffffffffffffffffffffffffffffffffffffff168173ffffffffffffffffffffffffffffffffffffffff167f8be0079c531659141344cd1fd0a4f28419497f9722a3daafe3b4186f6b6457e060405160405180910390a35050565b620001716200029860201b60201c565b60008111620001b7576040517f08c379a0000000000000000000000000000000000000000000000000000000008152600401620001ae906200045c565b60405180910390fd5b8060048190555050565b620001d16200029860201b60201c565b600082118015620001e157508082105b62000223576040517f08c379a00000000000000000000000000000000000000000000000000000000081526004016200021a906200045c565b60405180910390fd5b81600581905550806006819055505050565b620002456200029860201b60201c565b6000801b8114156200028e576040517f08c379a000000000000000000000000000000000000000000000000000000000815260040162000285906200045c565b60405180910390fd5b8060038190555050565b620002a86200009560201b60201c565b73ffffffffffffffffffffffffffffffffffffffff16620002ce6200032960201b60201c565b73ffffffffffffffffffffffffffffffffffffffff161462000327576040517f08c379a00000000000000000000000000000000000000000000000000000000081526004016200031e906200043a565b60405180910390fd5b565b60008060009054906101000a900473ffffffffffffffffffffffffffffffffffffffff16905090565b6000815190506200036381620004f5565b92915050565b6000815190506200037a816200050f565b92915050565b600080600080608085870312156200039757600080fd5b6000620003a78782880162000369565b9450506020620003ba8782880162000369565b9350506040620003cd8782880162000369565b9250506060620003e08782880162000352565b91505092959194509250565b6000620003fb6020836200047e565b91506200040882620004a3565b602082019050919050565b6000620004226012836200047e565b91506200042f82620004cc565b602082019050919050565b600060208201905081810360008301526200045581620003ec565b9050919050565b60006020820190508181036000830152620004778162000413565b9050919050565b600082825260208201905092915050565b6000819050919050565b6000819050919050565b7f4f776e61626c653a2063616c6c6572206973206e6f7420746865206f776e6572600082015250565b7f696e76616c696420706172616d65746572730000000000000000000000000000600082015250565b62000500816200048f565b81146200050c57600080fd5b50565b6200051a8162000499565b81146200052657600080fd5b50565b6120ce80620005396000396000f3fe608060405234801561001057600080fd5b506004361061012c5760003560e01c806375c62395116100ad578063ddf7fcb011610071578063ddf7fcb014610331578063e4af45781461034f578063f2fde38b1461036b578063f70236a414610387578063f9d0974f146103b75761012c565b806375c623951461028d57806376450677146102a95780638da5cb5b146102d9578063a9b12c4c146102f7578063d37dd5d4146103155761012c565b80634f8342fc116100f45780634f8342fc146101e75780634fa71bd31461020557806359e36cf014610235578063715018a61461026557806374bcbcc81461026f5761012c565b806313e9eaab14610131578063164d17c71461014d5780631b84d0e21461017d578063290199f7146101ad578063478e40a0146101cb575b600080fd5b61014b600480360381019061014691906115f2565b6103e7565b005b610167600480360381019061016291906115f2565b61043f565b6040516101749190611a2b565b60405180910390f35b610197600480360381019061019291906115f2565b61045f565b6040516101a49190611b83565b60405180910390f35b6101b5610477565b6040516101c29190611b83565b60405180910390f35b6101e560048036038101906101e091906115b1565b61047d565b005b6101ef6105fc565b6040516101fc9190611b83565b60405180910390f35b61021f600480360381019061021a9190611575565b610602565b60405161022c9190611a61565b60405180910390f35b61024f600480360381019061024a919061161b565b6106bb565b60405161025c9190611a2b565b60405180910390f35b61026d6106e1565b005b6102776106f5565b6040516102849190611b83565b60405180910390f35b6102a760048036038101906102a2919061165c565b6106fb565b005b6102c360048036038101906102be91906114f8565b610750565b6040516102d09190611a09565b60405180910390f35b6102e1610868565b6040516102ee91906119ee565b60405180910390f35b6102ff610891565b60405161030c9190611b83565b60405180910390f35b61032f600480360381019061032a91906115b1565b610899565b005b610339610c8c565b6040516103469190611a46565b60405180910390f35b61036960048036038101906103649190611685565b610c92565b005b610385600480360381019061038091906114f8565b610cfa565b005b6103a1600480360381019061039c9190611521565b610d7e565b6040516103ae9190611a2b565b60405180910390f35b6103d160048036038101906103cc919061165c565b610e69565b6040516103de9190611a61565b60405180910390f35b6103ef610f15565b6000801b811415610435576040517f08c379a000000000000000000000000000000000000000000000000000000000815260040161042c90611b63565b60405180910390fd5b8060038190555050565b60076020528060005260406000206000915054906101000a900460ff1681565b60016020528060005260406000206000915090505481565b60045481565b610485610f15565b60005b81518110156105f85760008282815181106104cc577f4e487b7100000000000000000000000000000000000000000000000000000000600052603260045260246000fd5b60200260200101518051906020012090506007600082815260200190815260200160002060009054906101000a900460ff161561053e576040517f08c379a000000000000000000000000000000000000000000000000000000000815260040161053590611b23565b60405180910390fd5b60016007600083815260200190815260200160002060006101000a81548160ff02191690831515021790555060088383815181106105a5577f4e487b7100000000000000000000000000000000000000000000000000000000600052603260045260246000fd5b60200260200101519080600181540180825580915050600190039060005260206000200160009091909190915090805190602001906105e592919061123a565b5050806105f190611dfe565b9050610488565b5050565b60065481565b6002602052816000526040600020818154811061061e57600080fd5b9060005260206000200160009150915050805461063a90611d9b565b80601f016020809104026020016040519081016040528092919081815260200182805461066690611d9b565b80156106b35780601f10610688576101008083540402835291602001916106b3565b820191906000526020600020905b81548152906001019060200180831161069657829003601f168201915b505050505081565b600060018060008480519060200120815260200190815260200160002054119050919050565b6106e9610f15565b6106f36000610f93565b565b60055481565b610703610f15565b60008111610746576040517f08c379a000000000000000000000000000000000000000000000000000000000815260040161073d90611b63565b60405180910390fd5b8060048190555050565b6060600260008373ffffffffffffffffffffffffffffffffffffffff1673ffffffffffffffffffffffffffffffffffffffff168152602001908152602001600020805480602002602001604051908101604052809291908181526020016000905b8282101561085d5783829060005260206000200180546107d090611d9b565b80601f01602080910402602001604051908101604052809291908181526020018280546107fc90611d9b565b80156108495780601f1061081e57610100808354040283529160200191610849565b820191906000526020600020905b81548152906001019060200180831161082c57829003601f168201915b5050505050815260200190600101906107b1565b505050509050919050565b60008060009054906101000a900473ffffffffffffffffffffffffffffffffffffffff16905090565b600042905090565b600554421180156108ab575060065442105b6108ea576040517f08c379a00000000000000000000000000000000000000000000000000000000081526004016108e190611ac3565b60405180910390fd5b60045481511461092f576040517f08c379a000000000000000000000000000000000000000000000000000000000815260040161092690611b43565b60405180910390fd5b6000600260003373ffffffffffffffffffffffffffffffffffffffff1673ffffffffffffffffffffffffffffffffffffffff168152602001908152602001600020905060005b8251811015610c335760008382815181106109b9577f4e487b7100000000000000000000000000000000000000000000000000000000600052603260045260246000fd5b602002602001015190506000818051906020012090506000610a1a868581518110610a0d577f4e487b7100000000000000000000000000000000000000000000000000000000600052603260045260246000fd5b6020026020010151611057565b11610a5a576040517f08c379a0000000000000000000000000000000000000000000000000000000008152600401610a5190611aa3565b60405180910390fd5b60005b8551811015610b0957808414610af85781868281518110610aa7577f4e487b7100000000000000000000000000000000000000000000000000000000600052603260045260246000fd5b6020026020010151805190602001201415610af7576040517f08c379a0000000000000000000000000000000000000000000000000000000008152600401610aee90611ae3565b60405180910390fd5b5b80610b0290611dfe565b9050610a5d565b50600080600090505b8580549050811015610b965782868281548110610b58577f4e487b7100000000000000000000000000000000000000000000000000000000600052603260045260246000fd5b90600052602060002001604051610b6f91906119c0565b60405180910390201491508115610b8557610b96565b80610b8f90611dfe565b9050610b12565b5080610bc657600160008381526020019081526020016000206000815480929190610bc090611dfe565b91905055505b82604051610bd491906119d7565b60405180910390203373ffffffffffffffffffffffffffffffffffffffff167f33a61c410f1da6487b7371b61a28fda0b28feb517e03f447100284359ff1864860405160405180910390a350505080610c2c90611dfe565b9050610975565b5081600260003373ffffffffffffffffffffffffffffffffffffffff1673ffffffffffffffffffffffffffffffffffffffff1681526020019081526020016000209080519060200190610c879291906112c0565b505050565b60035481565b610c9a610f15565b600082118015610ca957508082105b610ce8576040517f08c379a0000000000000000000000000000000000000000000000000000000008152600401610cdf90611b63565b60405180910390fd5b81600581905550806006819055505050565b610d02610f15565b600073ffffffffffffffffffffffffffffffffffffffff168173ffffffffffffffffffffffffffffffffffffffff161415610d72576040517f08c379a0000000000000000000000000000000000000000000000000000000008152600401610d6990611a83565b60405180910390fd5b610d7b81610f93565b50565b600080828051906020012090506000600260008673ffffffffffffffffffffffffffffffffffffffff1673ffffffffffffffffffffffffffffffffffffffff168152602001908152602001600020905060005b8180549050811015610e5b5782828281548110610e17577f4e487b7100000000000000000000000000000000000000000000000000000000600052603260045260246000fd5b90600052602060002001604051610e2e91906119c0565b60405180910390201415610e485760019350505050610e63565b8080610e5390611dfe565b915050610dd1565b506000925050505b92915050565b60088181548110610e7957600080fd5b906000526020600020016000915090508054610e9490611d9b565b80601f0160208091040260200160405190810160405280929190818152602001828054610ec090611d9b565b8015610f0d5780601f10610ee257610100808354040283529160200191610f0d565b820191906000526020600020905b815481529060010190602001808311610ef057829003601f168201915b505050505081565b610f1d611232565b73ffffffffffffffffffffffffffffffffffffffff16610f3b610868565b73ffffffffffffffffffffffffffffffffffffffff1614610f91576040517f08c379a0000000000000000000000000000000000000000000000000000000008152600401610f8890611b03565b60405180910390fd5b565b60008060009054906101000a900473ffffffffffffffffffffffffffffffffffffffff169050816000806101000a81548173ffffffffffffffffffffffffffffffffffffffff021916908373ffffffffffffffffffffffffffffffffffffffff1602179055508173ffffffffffffffffffffffffffffffffffffffff168173ffffffffffffffffffffffffffffffffffffffff167f8be0079c531659141344cd1fd0a4f28419497f9722a3daafe3b4186f6b6457e060405160405180910390a35050565b60008060008084519050600092505b808210156112275760008583815181106110a9577f4e487b7100000000000000000000000000000000000000000000000000000000600052603260045260246000fd5b602001015160f81c60f81b9050608060f81b817effffffffffffffffffffffffffffffffffffffffffffffffffffffffffffff191610156110f8576001836110f19190611cb1565b9250611213565b60e060f81b817effffffffffffffffffffffffffffffffffffffffffffffffffffffffffffff1916101561113a576002836111339190611cb1565b9250611212565b60f060f81b817effffffffffffffffffffffffffffffffffffffffffffffffffffffffffffff1916101561117c576003836111759190611cb1565b9250611211565b60f8801b817effffffffffffffffffffffffffffffffffffffffffffffffffffffffffffff191610156111bd576004836111b69190611cb1565b9250611210565b60fc60f81b817effffffffffffffffffffffffffffffffffffffffffffffffffffffffffffff191610156111ff576005836111f89190611cb1565b925061120f565b60068361120c9190611cb1565b92505b5b5b5b5b50828061121f90611dfe565b935050611066565b829350505050919050565b600033905090565b82805461124690611d9b565b90600052602060002090601f01602090048101928261126857600085556112af565b82601f1061128157805160ff19168380011785556112af565b828001600101855582156112af579182015b828111156112ae578251825591602001919060010190611293565b5b5090506112bc9190611320565b5090565b82805482825590600052602060002090810192821561130f579160200282015b8281111561130e5782518290805190602001906112fe92919061123a565b50916020019190600101906112e0565b5b50905061131c919061133d565b5090565b5b80821115611339576000816000905550600101611321565b5090565b5b8082111561135d57600081816113549190611361565b5060010161133e565b5090565b50805461136d90611d9b565b6000825580601f1061137f575061139e565b601f01602090049060005260206000209081019061139d9190611320565b5b50565b60006113b46113af84611bc3565b611b9e565b905080838252602082019050828560208602820111156113d357600080fd5b60005b8581101561141d57813567ffffffffffffffff8111156113f557600080fd5b80860161140289826114b9565b855260208501945060208401935050506001810190506113d6565b5050509392505050565b600061143a61143584611bef565b611b9e565b90508281526020810184848401111561145257600080fd5b61145d848285611d59565b509392505050565b60008135905061147481612053565b92915050565b600082601f83011261148b57600080fd5b813561149b8482602086016113a1565b91505092915050565b6000813590506114b38161206a565b92915050565b600082601f8301126114ca57600080fd5b81356114da848260208601611427565b91505092915050565b6000813590506114f281612081565b92915050565b60006020828403121561150a57600080fd5b600061151884828501611465565b91505092915050565b6000806040838503121561153457600080fd5b600061154285828601611465565b925050602083013567ffffffffffffffff81111561155f57600080fd5b61156b858286016114b9565b9150509250929050565b6000806040838503121561158857600080fd5b600061159685828601611465565b92505060206115a7858286016114e3565b9150509250929050565b6000602082840312156115c357600080fd5b600082013567ffffffffffffffff8111156115dd57600080fd5b6115e98482850161147a565b91505092915050565b60006020828403121561160457600080fd5b6000611612848285016114a4565b91505092915050565b60006020828403121561162d57600080fd5b600082013567ffffffffffffffff81111561164757600080fd5b611653848285016114b9565b91505092915050565b60006020828403121561166e57600080fd5b600061167c848285016114e3565b91505092915050565b6000806040838503121561169857600080fd5b60006116a6858286016114e3565b92505060206116b7858286016114e3565b9150509250929050565b60006116cd83836117f6565b905092915050565b6116de81611d07565b82525050565b60006116ef82611c45565b6116f98185611c68565b93508360208202850161170b85611c20565b8060005b85811015611747578484038952815161172885826116c1565b945061173383611c5b565b925060208a0199505060018101905061170f565b50829750879550505050505092915050565b61176281611d19565b82525050565b61177181611d25565b82525050565b6000815461178481611d9b565b61178e8186611c79565b945060018216600081146117a957600181146117ba576117ed565b60ff198316865281860193506117ed565b6117c385611c30565b60005b838110156117e5578154818901526001820191506020810190506117c6565b838801955050505b50505092915050565b600061180182611c50565b61180b8185611c84565b935061181b818560208601611d68565b61182481611ed4565b840191505092915050565b600061183a82611c50565b6118448185611c95565b9350611854818560208601611d68565b61185d81611ed4565b840191505092915050565b600061187382611c50565b61187d8185611ca6565b935061188d818560208601611d68565b80840191505092915050565b60006118a6602683611c95565b91506118b182611ee5565b604082019050919050565b60006118c9600a83611c95565b91506118d482611f34565b602082019050919050565b60006118ec601383611c95565b91506118f782611f5d565b602082019050919050565b600061190f600f83611c95565b915061191a82611f86565b602082019050919050565b6000611932602083611c95565b915061193d82611faf565b602082019050919050565b6000611955600f83611c95565b915061196082611fd8565b602082019050919050565b6000611978601183611c95565b915061198382612001565b602082019050919050565b600061199b601283611c95565b91506119a68261202a565b602082019050919050565b6119ba81611d4f565b82525050565b60006119cc8284611777565b915081905092915050565b60006119e38284611868565b915081905092915050565b6000602082019050611a0360008301846116d5565b92915050565b60006020820190508181036000830152611a2381846116e4565b905092915050565b6000602082019050611a406000830184611759565b92915050565b6000602082019050611a5b6000830184611768565b92915050565b60006020820190508181036000830152611a7b818461182f565b905092915050565b60006020820190508181036000830152611a9c81611899565b9050919050565b60006020820190508181036000830152611abc816118bc565b9050919050565b60006020820190508181036000830152611adc816118df565b9050919050565b60006020820190508181036000830152611afc81611902565b9050919050565b60006020820190508181036000830152611b1c81611925565b9050919050565b60006020820190508181036000830152611b3c81611948565b9050919050565b60006020820190508181036000830152611b5c8161196b565b9050919050565b60006020820190508181036000830152611b7c8161198e565b9050919050565b6000602082019050611b9860008301846119b1565b92915050565b6000611ba8611bb9565b9050611bb48282611dcd565b919050565b6000604051905090565b600067ffffffffffffffff821115611bde57611bdd611ea5565b5b602082029050602081019050919050565b600067ffffffffffffffff821115611c0a57611c09611ea5565b5b611c1382611ed4565b9050602081019050919050565b6000819050602082019050919050565b60008190508160005260206000209050919050565b600081519050919050565b600081519050919050565b6000602082019050919050565b600082825260208201905092915050565b600081905092915050565b600082825260208201905092915050565b600082825260208201905092915050565b600081905092915050565b6000611cbc82611d4f565b9150611cc783611d4f565b9250827fffffffffffffffffffffffffffffffffffffffffffffffffffffffffffffffff03821115611cfc57611cfb611e47565b5b828201905092915050565b6000611d1282611d2f565b9050919050565b60008115159050919050565b6000819050919050565b600073ffffffffffffffffffffffffffffffffffffffff82169050919050565b6000819050919050565b82818337600083830152505050565b60005b83811015611d86578082015181840152602081019050611d6b565b83811115611d95576000848401525b50505050565b60006002820490506001821680611db357607f821691505b60208210811415611dc757611dc6611e76565b5b50919050565b611dd682611ed4565b810181811067ffffffffffffffff82111715611df557611df4611ea5565b5b80604052505050565b6000611e0982611d4f565b91507fffffffffffffffffffffffffffffffffffffffffffffffffffffffffffffffff821415611e3c57611e3b611e47565b5b600182019050919050565b7f4e487b7100000000000000000000000000000000000000000000000000000000600052601160045260246000fd5b7f4e487b7100000000000000000000000000000000000000000000000000000000600052602260045260246000fd5b7f4e487b7100000000000000000000000000000000000000000000000000000000600052604160045260246000fd5b6000601f19601f8301169050919050565b7f4f776e61626c653a206e6577206f776e657220697320746865207a65726f206160008201527f6464726573730000000000000000000000000000000000000000000000000000602082015250565b7f656d707479206e616d6500000000000000000000000000000000000000000000600082015250565b7f6e6f7420776973686c6973742070687261736500000000000000000000000000600082015250565b7f6475706c69636174656420776973680000000000000000000000000000000000600082015250565b7f4f776e61626c653a2063616c6c6572206973206e6f7420746865206f776e6572600082015250565b7f6475706c696361746564206e616d650000000000000000000000000000000000600082015250565b7f77726f6e672077697368206e756d626572000000000000000000000000000000600082015250565b7f696e76616c696420706172616d65746572730000000000000000000000000000600082015250565b61205c81611d07565b811461206757600080fd5b50565b61207381611d25565b811461207e57600080fd5b50565b61208a81611d4f565b811461209557600080fd5b5056fea26469706673582212201ae3a5b8d81088bf7324a530b491f68cf0e5a7ef33e85469ae5e9d0b78f5185664736f6c63430008040033",
  "devdoc": {
    "kind": "dev",
    "methods": {
      "owner()": {
        "details": "Returns the address of the current owner."
      },
      "renounceOwnership()": {
        "details": "Leaves the contract without owner. It will not be possible to call `onlyOwner` functions anymore. Can only be called by the current owner. NOTE: Renouncing ownership will leave the contract without an owner, thereby removing any functionality that is only available to the owner."
      },
      "transferOwnership(address)": {
        "details": "Transfers ownership of the contract to a new account (`newOwner`). Can only be called by the current owner."
      }
    },
    "version": 1
  },
  "userdoc": {
    "kind": "user",
    "methods": {},
    "version": 1
  },
  "storageLayout": {
    "storage": [
      {
        "astId": 7,
        "contract": "contracts/business/Wishlist.sol:Wishlist",
        "label": "_owner",
        "offset": 0,
        "slot": "0",
        "type": "t_address"
      },
      {
        "astId": 3839,
        "contract": "contracts/business/Wishlist.sol:Wishlist",
        "label": "wishCounts",
        "offset": 0,
        "slot": "1",
        "type": "t_mapping(t_bytes32,t_uint256)"
      },
      {
        "astId": 3844,
        "contract": "contracts/business/Wishlist.sol:Wishlist",
        "label": "wishes",
        "offset": 0,
        "slot": "2",
        "type": "t_mapping(t_address,t_array(t_string_storage)dyn_storage)"
      },
      {
        "astId": 3847,
        "contract": "contracts/business/Wishlist.sol:Wishlist",
        "label": "baseNode",
        "offset": 0,
        "slot": "3",
        "type": "t_bytes32"
      },
      {
        "astId": 3849,
        "contract": "contracts/business/Wishlist.sol:Wishlist",
        "label": "wishCap",
        "offset": 0,
        "slot": "4",
        "type": "t_uint256"
      },
      {
        "astId": 3851,
        "contract": "contracts/business/Wishlist.sol:Wishlist",
        "label": "wishPhraseStart",
        "offset": 0,
        "slot": "5",
        "type": "t_uint256"
      },
      {
        "astId": 3853,
        "contract": "contracts/business/Wishlist.sol:Wishlist",
        "label": "wishPhraseEnd",
        "offset": 0,
        "slot": "6",
        "type": "t_uint256"
      },
      {
        "astId": 3857,
        "contract": "contracts/business/Wishlist.sol:Wishlist",
        "label": "reservedNameMap",
        "offset": 0,
        "slot": "7",
        "type": "t_mapping(t_bytes32,t_bool)"
      },
      {
        "astId": 3860,
        "contract": "contracts/business/Wishlist.sol:Wishlist",
        "label": "reservedNames",
        "offset": 0,
        "slot": "8",
        "type": "t_array(t_string_storage)dyn_storage"
      }
    ],
    "types": {
      "t_address": {
        "encoding": "inplace",
        "label": "address",
        "numberOfBytes": "20"
      },
      "t_array(t_string_storage)dyn_storage": {
        "base": "t_string_storage",
        "encoding": "dynamic_array",
        "label": "string[]",
        "numberOfBytes": "32"
      },
      "t_bool": {
        "encoding": "inplace",
        "label": "bool",
        "numberOfBytes": "1"
      },
      "t_bytes32": {
        "encoding": "inplace",
        "label": "bytes32",
        "numberOfBytes": "32"
      },
      "t_mapping(t_address,t_array(t_string_storage)dyn_storage)": {
        "encoding": "mapping",
        "key": "t_address",
        "label": "mapping(address => string[])",
        "numberOfBytes": "32",
        "value": "t_array(t_string_storage)dyn_storage"
      },
      "t_mapping(t_bytes32,t_bool)": {
        "encoding": "mapping",
        "key": "t_bytes32",
        "label": "mapping(bytes32 => bool)",
        "numberOfBytes": "32",
        "value": "t_bool"
      },
      "t_mapping(t_bytes32,t_uint256)": {
        "encoding": "mapping",
        "key": "t_bytes32",
        "label": "mapping(bytes32 => uint256)",
        "numberOfBytes": "32",
        "value": "t_uint256"
      },
      "t_string_storage": {
        "encoding": "bytes",
        "label": "string",
        "numberOfBytes": "32"
      },
      "t_uint256": {
        "encoding": "inplace",
        "label": "uint256",
        "numberOfBytes": "32"
      }
    }
  }
}