{
  "address": "0xF91fD680B5d5538D4f2Fd21C952BF7bF8ccF7fbF",
  "abi": [
    {
      "inputs": [
        {
          "internalType": "contract MID",
          "name": "_mid",
          "type": "address"
        },
        {
          "internalType": "bytes32",
          "name": "_baseNode",
          "type": "bytes32"
        }
      ],
      "stateMutability": "nonpayable",
      "type": "constructor"
    },
    {
      "anonymous": false,
      "inputs": [
        {
          "indexed": true,
          "internalType": "address",
          "name": "owner",
          "type": "address"
        },
        {
          "indexed": true,
          "internalType": "address",
          "name": "approved",
          "type": "address"
        },
        {
          "indexed": true,
          "internalType": "uint256",
          "name": "tokenId",
          "type": "uint256"
        }
      ],
      "name": "Approval",
      "type": "event"
    },
    {
      "anonymous": false,
      "inputs": [
        {
          "indexed": true,
          "internalType": "address",
          "name": "owner",
          "type": "address"
        },
        {
          "indexed": true,
          "internalType": "address",
          "name": "operator",
          "type": "address"
        },
        {
          "indexed": false,
          "internalType": "bool",
          "name": "approved",
          "type": "bool"
        }
      ],
      "name": "ApprovalForAll",
      "type": "event"
    },
    {
      "anonymous": false,
      "inputs": [
        {
          "indexed": true,
          "internalType": "string",
          "name": "URI",
          "type": "string"
        }
      ],
      "name": "BaseURIChanged",
      "type": "event"
    },
    {
      "anonymous": false,
      "inputs": [
        {
          "indexed": true,
          "internalType": "address",
          "name": "controller",
          "type": "address"
        }
      ],
      "name": "ControllerAdded",
      "type": "event"
    },
    {
      "anonymous": false,
      "inputs": [
        {
          "indexed": true,
          "internalType": "address",
          "name": "controller",
          "type": "address"
        }
      ],
      "name": "ControllerRemoved",
      "type": "event"
    },
    {
      "anonymous": false,
      "inputs": [
        {
          "indexed": true,
          "internalType": "uint256",
          "name": "period",
          "type": "uint256"
        }
      ],
      "name": "GracePeriodChanged",
      "type": "event"
    },
    {
      "anonymous": false,
      "inputs": [
        {
          "indexed": true,
          "internalType": "uint256",
          "name": "cap",
          "type": "uint256"
        }
      ],
      "name": "MaxMintCapChanged",
      "type": "event"
    },
    {
      "anonymous": false,
      "inputs": [
        {
          "indexed": true,
          "internalType": "uint256",
          "name": "id",
          "type": "uint256"
        },
        {
          "indexed": true,
          "internalType": "address",
          "name": "owner",
          "type": "address"
        },
        {
          "indexed": false,
          "internalType": "uint256",
          "name": "expires",
          "type": "uint256"
        }
      ],
      "name": "NameMigrated",
      "type": "event"
    },
    {
      "anonymous": false,
      "inputs": [
        {
          "indexed": true,
          "internalType": "uint256",
          "name": "id",
          "type": "uint256"
        },
        {
          "indexed": true,
          "internalType": "address",
          "name": "owner",
          "type": "address"
        },
        {
          "indexed": false,
          "internalType": "uint256",
          "name": "expires",
          "type": "uint256"
        }
      ],
      "name": "NameRegistered",
      "type": "event"
    },
    {
      "anonymous": false,
      "inputs": [
        {
          "indexed": true,
          "internalType": "uint256",
          "name": "id",
          "type": "uint256"
        },
        {
          "indexed": false,
          "internalType": "uint256",
          "name": "expires",
          "type": "uint256"
        }
      ],
      "name": "NameRenewed",
      "type": "event"
    },
    {
      "anonymous": false,
      "inputs": [
        {
          "indexed": true,
          "internalType": "address",
          "name": "previousOwner",
          "type": "address"
        },
        {
          "indexed": true,
          "internalType": "address",
          "name": "newOwner",
          "type": "address"
        }
      ],
      "name": "OwnershipTransferred",
      "type": "event"
    },
    {
      "anonymous": false,
      "inputs": [
        {
          "indexed": false,
          "internalType": "address",
          "name": "account",
          "type": "address"
        }
      ],
      "name": "Paused",
      "type": "event"
    },
    {
      "anonymous": false,
      "inputs": [
        {
          "indexed": true,
          "internalType": "address",
          "name": "from",
          "type": "address"
        },
        {
          "indexed": true,
          "internalType": "address",
          "name": "to",
          "type": "address"
        },
        {
          "indexed": true,
          "internalType": "uint256",
          "name": "tokenId",
          "type": "uint256"
        }
      ],
      "name": "Transfer",
      "type": "event"
    },
    {
      "anonymous": false,
      "inputs": [
        {
          "indexed": false,
          "internalType": "address",
          "name": "account",
          "type": "address"
        }
      ],
      "name": "Unpaused",
      "type": "event"
    },
    {
      "inputs": [
        {
          "internalType": "address",
          "name": "controller",
          "type": "address"
        }
      ],
      "name": "addController",
      "outputs": [],
      "stateMutability": "nonpayable",
      "type": "function"
    },
    {
      "inputs": [
        {
          "internalType": "address",
          "name": "to",
          "type": "address"
        },
        {
          "internalType": "uint256",
          "name": "tokenId",
          "type": "uint256"
        }
      ],
      "name": "approve",
      "outputs": [],
      "stateMutability": "nonpayable",
      "type": "function"
    },
    {
      "inputs": [
        {
          "internalType": "uint256",
          "name": "id",
          "type": "uint256"
        }
      ],
      "name": "available",
      "outputs": [
        {
          "internalType": "bool",
          "name": "",
          "type": "bool"
        }
      ],
      "stateMutability": "view",
      "type": "function"
    },
    {
      "inputs": [
        {
          "internalType": "address",
          "name": "owner",
          "type": "address"
        }
      ],
      "name": "balanceOf",
      "outputs": [
        {
          "internalType": "uint256",
          "name": "",
          "type": "uint256"
        }
      ],
      "stateMutability": "view",
      "type": "function"
    },
    {
      "inputs": [],
      "name": "baseNode",
      "outputs": [
        {
          "internalType": "bytes32",
          "name": "",
          "type": "bytes32"
        }
      ],
      "stateMutability": "view",
      "type": "function"
    },
    {
      "inputs": [],
      "name": "baseURI",
      "outputs": [
        {
          "internalType": "string",
          "name": "",
          "type": "string"
        }
      ],
      "stateMutability": "view",
      "type": "function"
    },
    {
      "inputs": [
        {
          "internalType": "address",
          "name": "",
          "type": "address"
        }
      ],
      "name": "controllers",
      "outputs": [
        {
          "internalType": "bool",
          "name": "",
          "type": "bool"
        }
      ],
      "stateMutability": "view",
      "type": "function"
    },
    {
      "inputs": [
        {
          "internalType": "uint256",
          "name": "tokenId",
          "type": "uint256"
        }
      ],
      "name": "getApproved",
      "outputs": [
        {
          "internalType": "address",
          "name": "",
          "type": "address"
        }
      ],
      "stateMutability": "view",
      "type": "function"
    },
    {
      "inputs": [],
      "name": "gracePeriod",
      "outputs": [
        {
          "internalType": "uint256",
          "name": "",
          "type": "uint256"
        }
      ],
      "stateMutability": "view",
      "type": "function"
    },
    {
      "inputs": [
        {
          "internalType": "address",
          "name": "owner",
          "type": "address"
        },
        {
          "internalType": "address",
          "name": "operator",
          "type": "address"
        }
      ],
      "name": "isApprovedForAll",
      "outputs": [
        {
          "internalType": "bool",
          "name": "",
          "type": "bool"
        }
      ],
      "stateMutability": "view",
      "type": "function"
    },
    {
      "inputs": [],
      "name": "maxMintPerUser",
      "outputs": [
        {
          "internalType": "uint256",
          "name": "",
          "type": "uint256"
        }
      ],
      "stateMutability": "view",
      "type": "function"
    },
    {
      "inputs": [],
      "name": "mid",
      "outputs": [
        {
          "internalType": "contract MID",
          "name": "",
          "type": "address"
        }
      ],
      "stateMutability": "view",
      "type": "function"
    },
    {
      "inputs": [],
      "name": "name",
      "outputs": [
        {
          "internalType": "string",
          "name": "",
          "type": "string"
        }
      ],
      "stateMutability": "view",
      "type": "function"
    },
    {
      "inputs": [
        {
          "internalType": "uint256",
          "name": "id",
          "type": "uint256"
        }
      ],
      "name": "nameExpires",
      "outputs": [
        {
          "internalType": "uint256",
          "name": "",
          "type": "uint256"
        }
      ],
      "stateMutability": "view",
      "type": "function"
    },
    {
      "inputs": [],
      "name": "owner",
      "outputs": [
        {
          "internalType": "address",
          "name": "",
          "type": "address"
        }
      ],
      "stateMutability": "view",
      "type": "function"
    },
    {
      "inputs": [
        {
          "internalType": "uint256",
          "name": "tokenId",
          "type": "uint256"
        }
      ],
      "name": "ownerOf",
      "outputs": [
        {
          "internalType": "address",
          "name": "",
          "type": "address"
        }
      ],
      "stateMutability": "view",
      "type": "function"
    },
    {
      "inputs": [],
      "name": "pause",
      "outputs": [],
      "stateMutability": "nonpayable",
      "type": "function"
    },
    {
      "inputs": [],
      "name": "paused",
      "outputs": [
        {
          "internalType": "bool",
          "name": "",
          "type": "bool"
        }
      ],
      "stateMutability": "view",
      "type": "function"
    },
    {
      "inputs": [
        {
          "internalType": "uint256",
          "name": "id",
          "type": "uint256"
        },
        {
          "internalType": "address",
          "name": "owner",
          "type": "address"
        }
      ],
      "name": "reclaim",
      "outputs": [],
      "stateMutability": "nonpayable",
      "type": "function"
    },
    {
      "inputs": [
        {
          "internalType": "uint256",
          "name": "id",
          "type": "uint256"
        },
        {
          "internalType": "address",
          "name": "owner",
          "type": "address"
        },
        {
          "internalType": "uint256",
          "name": "duration",
          "type": "uint256"
        }
      ],
      "name": "register",
      "outputs": [
        {
          "internalType": "uint256",
          "name": "",
          "type": "uint256"
        }
      ],
      "stateMutability": "nonpayable",
      "type": "function"
    },
    {
      "inputs": [
        {
          "internalType": "uint256",
          "name": "id",
          "type": "uint256"
        },
        {
          "internalType": "address",
          "name": "owner",
          "type": "address"
        },
        {
          "internalType": "uint256",
          "name": "duration",
          "type": "uint256"
        }
      ],
      "name": "registerOnly",
      "outputs": [
        {
          "internalType": "uint256",
          "name": "",
          "type": "uint256"
        }
      ],
      "stateMutability": "nonpayable",
      "type": "function"
    },
    {
      "inputs": [
        {
          "internalType": "address",
          "name": "controller",
          "type": "address"
        }
      ],
      "name": "removeController",
      "outputs": [],
      "stateMutability": "nonpayable",
      "type": "function"
    },
    {
      "inputs": [
        {
          "internalType": "uint256",
          "name": "id",
          "type": "uint256"
        },
        {
          "internalType": "uint256",
          "name": "duration",
          "type": "uint256"
        }
      ],
      "name": "renew",
      "outputs": [
        {
          "internalType": "uint256",
          "name": "",
          "type": "uint256"
        }
      ],
      "stateMutability": "nonpayable",
      "type": "function"
    },
    {
      "inputs": [],
      "name": "renounceOwnership",
      "outputs": [],
      "stateMutability": "nonpayable",
      "type": "function"
    },
    {
      "inputs": [
        {
          "internalType": "address",
          "name": "from",
          "type": "address"
        },
        {
          "internalType": "address",
          "name": "to",
          "type": "address"
        },
        {
          "internalType": "uint256",
          "name": "tokenId",
          "type": "uint256"
        }
      ],
      "name": "safeTransferFrom",
      "outputs": [],
      "stateMutability": "nonpayable",
      "type": "function"
    },
    {
      "inputs": [
        {
          "internalType": "address",
          "name": "from",
          "type": "address"
        },
        {
          "internalType": "address",
          "name": "to",
          "type": "address"
        },
        {
          "internalType": "uint256",
          "name": "tokenId",
          "type": "uint256"
        },
        {
          "internalType": "bytes",
          "name": "_data",
          "type": "bytes"
        }
      ],
      "name": "safeTransferFrom",
      "outputs": [],
      "stateMutability": "nonpayable",
      "type": "function"
    },
    {
      "inputs": [
        {
          "internalType": "address",
          "name": "operator",
          "type": "address"
        },
        {
          "internalType": "bool",
          "name": "approved",
          "type": "bool"
        }
      ],
      "name": "setApprovalForAll",
      "outputs": [],
      "stateMutability": "nonpayable",
      "type": "function"
    },
    {
      "inputs": [
        {
          "internalType": "string",
          "name": "baseURI_",
          "type": "string"
        }
      ],
      "name": "setBaseURI",
      "outputs": [],
      "stateMutability": "nonpayable",
      "type": "function"
    },
    {
      "inputs": [
        {
          "internalType": "uint256",
          "name": "gracePeriod_",
          "type": "uint256"
        }
      ],
      "name": "setGracePeriod",
      "outputs": [],
      "stateMutability": "nonpayable",
      "type": "function"
    },
    {
      "inputs": [
        {
          "internalType": "uint256",
          "name": "cap",
          "type": "uint256"
        }
      ],
      "name": "setMaxMintPerUser",
      "outputs": [],
      "stateMutability": "nonpayable",
      "type": "function"
    },
    {
      "inputs": [
        {
          "internalType": "address",
          "name": "resolver",
          "type": "address"
        }
      ],
      "name": "setResolver",
      "outputs": [],
      "stateMutability": "nonpayable",
      "type": "function"
    },
    {
      "inputs": [
        {
          "internalType": "bytes4",
          "name": "interfaceID",
          "type": "bytes4"
        }
      ],
      "name": "supportsInterface",
      "outputs": [
        {
          "internalType": "bool",
          "name": "",
          "type": "bool"
        }
      ],
      "stateMutability": "pure",
      "type": "function"
    },
    {
      "inputs": [],
      "name": "symbol",
      "outputs": [
        {
          "internalType": "string",
          "name": "",
          "type": "string"
        }
      ],
      "stateMutability": "view",
      "type": "function"
    },
    {
      "inputs": [
        {
          "internalType": "uint256",
          "name": "_index",
          "type": "uint256"
        }
      ],
      "name": "tokenByIndex",
      "outputs": [
        {
          "internalType": "uint256",
          "name": "",
          "type": "uint256"
        }
      ],
      "stateMutability": "view",
      "type": "function"
    },
    {
      "inputs": [
        {
          "internalType": "address",
          "name": "_owner",
          "type": "address"
        },
        {
          "internalType": "uint256",
          "name": "_index",
          "type": "uint256"
        }
      ],
      "name": "tokenOfOwnerByIndex",
      "outputs": [
        {
          "internalType": "uint256",
          "name": "",
          "type": "uint256"
        }
      ],
      "stateMutability": "view",
      "type": "function"
    },
    {
      "inputs": [
        {
          "internalType": "uint256",
          "name": "tokenId",
          "type": "uint256"
        }
      ],
      "name": "tokenURI",
      "outputs": [
        {
          "internalType": "string",
          "name": "",
          "type": "string"
        }
      ],
      "stateMutability": "view",
      "type": "function"
    },
    {
      "inputs": [
        {
          "internalType": "address",
          "name": "_owner",
          "type": "address"
        }
      ],
      "name": "tokensOfOwner",
      "outputs": [
        {
          "internalType": "uint256[]",
          "name": "",
          "type": "uint256[]"
        }
      ],
      "stateMutability": "view",
      "type": "function"
    },
    {
      "inputs": [],
      "name": "totalSupply",
      "outputs": [
        {
          "internalType": "uint256",
          "name": "",
          "type": "uint256"
        }
      ],
      "stateMutability": "view",
      "type": "function"
    },
    {
      "inputs": [
        {
          "internalType": "address",
          "name": "from",
          "type": "address"
        },
        {
          "internalType": "address",
          "name": "to",
          "type": "address"
        },
        {
          "internalType": "uint256",
          "name": "tokenId",
          "type": "uint256"
        }
      ],
      "name": "transferFrom",
      "outputs": [],
      "stateMutability": "nonpayable",
      "type": "function"
    },
    {
      "inputs": [
        {
          "internalType": "address",
          "name": "newOwner",
          "type": "address"
        }
      ],
      "name": "transferOwnership",
      "outputs": [],
      "stateMutability": "nonpayable",
      "type": "function"
    },
    {
      "inputs": [],
      "name": "unpause",
      "outputs": [],
      "stateMutability": "nonpayable",
      "type": "function"
    }
  ],
  "transactionHash": "0x46096377b5a6edac7723cca8444a2bad811ca1f6f7bf4ecb4571edd27d451491",
  "args": [
    "0x1AC13DE986239B8b38F957E7aB2ffc864184cf92",
    "0xdba5666821b22671387fe7ea11d7cc41ede85a5aa67c3e7b3d68ce6a661f389c"
  ],
  "numDeployments": 3,
  "solcInputHash": "82c07910d5165ac86e96acb5f5fad668",
  "bytecode": "0x608060405262278d00600755678ac7230489e80000600e553480156200002457600080fd5b50604051620056233803806200562383398181016040528101906200004a91906200031f565b6040518060400160405280600e81526020017f4d6f6e7374657220446f6d61696e0000000000000000000000000000000000008152506040518060400160405280600381526020017f4d4944000000000000000000000000000000000000000000000000000000000081525060008060006101000a81548160ff021916908315150217905550620000f0620000e46200017460201b60201c565b6200017c60201b60201c565b81600190805190602001906200010892919062000241565b5080600290805190602001906200012192919062000241565b50505081600860006101000a81548173ffffffffffffffffffffffffffffffffffffffff021916908373ffffffffffffffffffffffffffffffffffffffff1602179055508060098190555050506200044b565b600033905090565b60008060019054906101000a900473ffffffffffffffffffffffffffffffffffffffff16905081600060016101000a81548173ffffffffffffffffffffffffffffffffffffffff021916908373ffffffffffffffffffffffffffffffffffffffff1602179055508173ffffffffffffffffffffffffffffffffffffffff168173ffffffffffffffffffffffffffffffffffffffff167f8be0079c531659141344cd1fd0a4f28419497f9722a3daafe3b4186f6b6457e060405160405180910390a35050565b8280546200024f90620003b2565b90600052602060002090601f016020900481019282620002735760008555620002bf565b82601f106200028e57805160ff1916838001178555620002bf565b82800160010185558215620002bf579182015b82811115620002be578251825591602001919060010190620002a1565b5b509050620002ce9190620002d2565b5090565b5b80821115620002ed576000816000905550600101620002d3565b5090565b600081519050620003028162000417565b92915050565b600081519050620003198162000431565b92915050565b600080604083850312156200033357600080fd5b6000620003438582860162000308565b92505060206200035685828601620002f1565b9150509250929050565b60006200036d8262000392565b9050919050565b6000819050919050565b60006200038b8262000360565b9050919050565b600073ffffffffffffffffffffffffffffffffffffffff82169050919050565b60006002820490506001821680620003cb57607f821691505b60208210811415620003e257620003e1620003e8565b5b50919050565b7f4e487b7100000000000000000000000000000000000000000000000000000000600052602260045260246000fd5b620004228162000374565b81146200042e57600080fd5b50565b6200043c816200037e565b81146200044857600080fd5b50565b6151c8806200045b6000396000f3fe608060405234801561001057600080fd5b50600436106102535760003560e01c806383ccaef711610146578063c475abff116100c3578063ddf7fcb011610087578063ddf7fcb01461070c578063e985e9c51461072a578063f2f659601461075a578063f2fde38b14610776578063f6a74ed714610792578063fca247ac146107ae57610253565b8063c475abff1461062e578063c87b56dd1461065e578063d304c4bc1461068e578063d6e4fa86146106ac578063da8c229e146106dc57610253565b806396e494e81161010a57806396e494e81461058c578063a06db7dc146105bc578063a22cb465146105da578063a7fc7a07146105f6578063b88d4fde1461061257610253565b806383ccaef7146104fa5780638456cb59146105165780638462151c146105205780638da5cb5b1461055057806395d89b411461056e57610253565b80633f4ba83a116101d45780635c975abb116101985780635c975abb146104545780636352211e146104725780636c0360eb146104a257806370a08231146104c0578063715018a6146104f057610253565b80633f4ba83a146103c657806342842e0e146103d05780634e543b26146103ec5780634f6ccce71461040857806355f804b31461043857610253565b806318160ddd1161021b57806318160ddd1461032257806323b872dd1461034057806328ed4f6c1461035c5780632e94420f146103785780632f745c591461039657610253565b806301ffc9a71461025857806306fdde0314610288578063081812fc146102a6578063095ea7b3146102d65780630e297b45146102f2575b600080fd5b610272600480360381019061026d9190613bdd565b6107de565b60405161027f91906143c7565b60405180910390f35b610290610a28565b60405161029d9190614478565b60405180910390f35b6102c060048036038101906102bb9190613c70565b610aba565b6040516102cd919061433e565b60405180910390f35b6102f060048036038101906102eb9190613b78565b610b00565b005b61030c60048036038101906103079190613cd5565b610c18565b60405161031991906147fa565b60405180910390f35b61032a610c30565b60405161033791906147fa565b60405180910390f35b61035a60048036038101906103559190613a72565b610c3d565b005b61037660048036038101906103719190613c99565b610d54565b005b610380610f7a565b60405161038d919061445d565b60405180910390f35b6103b060048036038101906103ab9190613b78565b610fa0565b6040516103bd91906147fa565b60405180910390f35b6103ce6110b0565b005b6103ea60048036038101906103e59190613a72565b6110c2565b005b610406600480360381019061040191906139e4565b6110e2565b005b610422600480360381019061041d9190613c70565b61117e565b60405161042f91906147fa565b60405180910390f35b610452600480360381019061044d9190613c2f565b611213565b005b61045c611278565b60405161046991906143c7565b60405180910390f35b61048c60048036038101906104879190613c70565b61128e565b604051610499919061433e565b60405180910390f35b6104aa6112f5565b6040516104b79190614478565b60405180910390f35b6104da60048036038101906104d591906139e4565b611383565b6040516104e791906147fa565b60405180910390f35b6104f861143b565b005b610514600480360381019061050f9190613c70565b61144f565b005b61051e6114d1565b005b61053a600480360381019061053591906139e4565b6114e3565b60405161054791906143a5565b60405180910390f35b61055861157a565b604051610565919061433e565b60405180910390f35b6105766115a3565b6040516105839190614478565b60405180910390f35b6105a660048036038101906105a19190613c70565b611635565b6040516105b391906143c7565b60405180910390f35b6105c4611661565b6040516105d191906147fa565b60405180910390f35b6105f460048036038101906105ef9190613b3c565b611667565b005b610610600480360381019061060b91906139e4565b61167d565b005b61062c60048036038101906106279190613ac1565b611723565b005b61064860048036038101906106439190613d24565b61183c565b60405161065591906147fa565b60405180910390f35b61067860048036038101906106739190613c70565b611b5a565b6040516106859190614478565b60405180910390f35b610696611c02565b6040516106a391906147fa565b60405180910390f35b6106c660048036038101906106c19190613c70565b611c08565b6040516106d391906147fa565b60405180910390f35b6106f660048036038101906106f191906139e4565b611c25565b60405161070391906143c7565b60405180910390f35b610714611c45565b60405161072191906143e2565b60405180910390f35b610744600480360381019061073f9190613a36565b611c4b565b60405161075191906143c7565b60405180910390f35b610774600480360381019061076f9190613c70565b611cdf565b005b610790600480360381019061078b91906139e4565b611d20565b005b6107ac60048036038101906107a791906139e4565b611da4565b005b6107c860048036038101906107c39190613cd5565b611e4a565b6040516107d591906147fa565b60405180910390f35b60007f01ffc9a7a5cef8baa21ed3c5c0d7e23accb804b619e9333b597f47a0d84076e27bffffffffffffffffffffffffffffffffffffffffffffffffffffffff1916827bffffffffffffffffffffffffffffffffffffffffffffffffffffffff191614806109b957507fb88d4fde60196325a28bb7f99a2582e0b46de55b18761e960c14ad7a320994657f42842e0eb38857a7775b4e7364b2775df7325074d088e7fb39590cd6281184ed7f23b872dd7302113369cda2901243429419bec145408fa8b352b3dd92b66c680b7fe985e9c5c6636c6879256001057b28ccac7718ef0ac56553ff9b926452cab8a37fa22cb4651ab9570f89bb516380c40ce76762284fb1f21337ceaf6adab99e7d4a7f081812fc55e34fdc7cf5d8b5cf4e3621fa6423fde952ec6ab24afdc0d85c0b2e7f095ea7b334ae44009aa867bfb386f5c3b4b443ac6f0ee573fa91c4608fbadfba7f6352211e6566aa027e75ac9dbf2423197fbd9b82b9d981a3ab367d355866aa1c7f70a08231b98ef4ca268c9cc3f6b4590e4bfec28280db06bb5d45e689f2a360be18181818181818187bffffffffffffffffffffffffffffffffffffffffffffffffffffffff1916827bffffffffffffffffffffffffffffffffffffffffffffffffffffffff1916145b80610a2157507f28ed4f6c74b219a5819055dfbcd2f1837c046c364cf01fabb6799e4f440d6f137bffffffffffffffffffffffffffffffffffffffffffffffffffffffff1916827bffffffffffffffffffffffffffffffffffffffffffffffffffffffff1916145b9050919050565b606060018054610a3790614a9b565b80601f0160208091040260200160405190810160405280929190818152602001828054610a6390614a9b565b8015610ab05780601f10610a8557610100808354040283529160200191610ab0565b820191906000526020600020905b815481529060010190602001808311610a9357829003601f168201915b5050505050905090565b6000610ac582611e62565b6005600083815260200190815260200160002060009054906101000a900473ffffffffffffffffffffffffffffffffffffffff169050919050565b6000610b0b82611ead565b90508073ffffffffffffffffffffffffffffffffffffffff168373ffffffffffffffffffffffffffffffffffffffff161415610b7c576040517f08c379a0000000000000000000000000000000000000000000000000000000008152600401610b739061477a565b60405180910390fd5b8073ffffffffffffffffffffffffffffffffffffffff16610b9b611f34565b73ffffffffffffffffffffffffffffffffffffffff161480610bca5750610bc981610bc4611f34565b611c4b565b5b610c09576040517f08c379a0000000000000000000000000000000000000000000000000000000008152600401610c009061479a565b60405180910390fd5b610c138383611f3c565b505050565b6000610c278484846000611ff5565b90509392505050565b6000600d80549050905090565b610c4e610c48611f34565b82612413565b610c8d576040517f08c379a0000000000000000000000000000000000000000000000000000000008152600401610c849061451a565b60405180910390fd5b610c988383836124a8565b600860009054906101000a900473ffffffffffffffffffffffffffffffffffffffff1673ffffffffffffffffffffffffffffffffffffffff166306ab59236009548360001b856040518463ffffffff1660e01b8152600401610cfc93929190614426565b602060405180830381600087803b158015610d1657600080fd5b505af1158015610d2a573d6000803e3d6000fd5b505050506040513d601f19601f82011682018060405250810190610d4e9190613bb4565b50505050565b3073ffffffffffffffffffffffffffffffffffffffff16600860009054906101000a900473ffffffffffffffffffffffffffffffffffffffff1673ffffffffffffffffffffffffffffffffffffffff166302571be36009546040518263ffffffff1660e01b8152600401610dc891906143e2565b60206040518083038186803b158015610de057600080fd5b505afa158015610df4573d6000803e3d6000fd5b505050506040513d601f19601f82011682018060405250810190610e189190613a0d565b73ffffffffffffffffffffffffffffffffffffffff1614610e6e576040517f08c379a0000000000000000000000000000000000000000000000000000000008152600401610e65906146ba565b60405180910390fd5b610e766127a2565b610e803383612413565b610ebf576040517f08c379a0000000000000000000000000000000000000000000000000000000008152600401610eb69061449a565b60405180910390fd5b600860009054906101000a900473ffffffffffffffffffffffffffffffffffffffff1673ffffffffffffffffffffffffffffffffffffffff166306ab59236009548460001b846040518463ffffffff1660e01b8152600401610f2393929190614426565b602060405180830381600087803b158015610f3d57600080fd5b505af1158015610f51573d6000803e3d6000fd5b505050506040513d601f19601f82011682018060405250810190610f759190613bb4565b505050565b600860009054906101000a900473ffffffffffffffffffffffffffffffffffffffff1681565b6000601060008473ffffffffffffffffffffffffffffffffffffffff1673ffffffffffffffffffffffffffffffffffffffff168152602001908152602001600020805490508210611026576040517f08c379a000000000000000000000000000000000000000000000000000000000815260040161101d906147da565b60405180910390fd5b601060008473ffffffffffffffffffffffffffffffffffffffff1673ffffffffffffffffffffffffffffffffffffffff168152602001908152602001600020828154811061109d577f4e487b7100000000000000000000000000000000000000000000000000000000600052603260045260246000fd5b9060005260206000200154905092915050565b6110b86127ec565b6110c061286a565b565b6110dd83838360405180602001604052806000815250611723565b505050565b6110ea6127ec565b600860009054906101000a900473ffffffffffffffffffffffffffffffffffffffff1673ffffffffffffffffffffffffffffffffffffffff16631896f70a600954836040518363ffffffff1660e01b81526004016111499291906143fd565b600060405180830381600087803b15801561116357600080fd5b505af1158015611177573d6000803e3d6000fd5b5050505050565b6000600d8054905082106111c7576040517f08c379a00000000000000000000000000000000000000000000000000000000081526004016111be906147da565b60405180910390fd5b600d8281548110611201577f4e487b7100000000000000000000000000000000000000000000000000000000600052603260045260246000fd5b90600052602060002001549050919050565b61121b6127ec565b80600c90805190602001906112319291906137de565b50600c6040516112419190614303565b60405180910390207f5411e8ebf1636d9e83d5fc4900bf80cbac82e8790da2a4c94db4895e889eedf660405160405180910390a250565b60008060009054906101000a900460ff16905090565b600042600b600084815260200190815260200160002054116112e5576040517f08c379a00000000000000000000000000000000000000000000000000000000081526004016112dc9061465a565b60405180910390fd5b6112ee82611ead565b9050919050565b600c805461130290614a9b565b80601f016020809104026020016040519081016040528092919081815260200182805461132e90614a9b565b801561137b5780601f106113505761010080835404028352916020019161137b565b820191906000526020600020905b81548152906001019060200180831161135e57829003601f168201915b505050505081565b60008073ffffffffffffffffffffffffffffffffffffffff168273ffffffffffffffffffffffffffffffffffffffff1614156113f4576040517f08c379a00000000000000000000000000000000000000000000000000000000081526004016113eb9061469a565b60405180910390fd5b600460008373ffffffffffffffffffffffffffffffffffffffff1673ffffffffffffffffffffffffffffffffffffffff168152602001908152602001600020549050919050565b6114436127ec565b61144d60006128cc565b565b6114576127ec565b6000811161149a576040517f08c379a0000000000000000000000000000000000000000000000000000000008152600401611491906144ba565b60405180910390fd5b80600e81905550807fe2622cd4be2b8558947da70a95c567e89753cd7c1b12d32d2c2acbcb20516d6e60405160405180910390a250565b6114d96127ec565b6114e1612991565b565b6060601060008373ffffffffffffffffffffffffffffffffffffffff1673ffffffffffffffffffffffffffffffffffffffff16815260200190815260200160002080548060200260200160405190810160405280929190818152602001828054801561156e57602002820191906000526020600020905b81548152602001906001019080831161155a575b50505050509050919050565b60008060019054906101000a900473ffffffffffffffffffffffffffffffffffffffff16905090565b6060600280546115b290614a9b565b80601f01602080910402602001604051908101604052809291908181526020018280546115de90614a9b565b801561162b5780601f106116005761010080835404028352916020019161162b565b820191906000526020600020905b81548152906001019060200180831161160e57829003601f168201915b5050505050905090565b600042600754600b600085815260200190815260200160002054611659919061492d565b109050919050565b60075481565b611679611672611f34565b83836129f3565b5050565b6116856127ec565b6001600a60008373ffffffffffffffffffffffffffffffffffffffff1673ffffffffffffffffffffffffffffffffffffffff16815260200190815260200160002060006101000a81548160ff0219169083151502179055508073ffffffffffffffffffffffffffffffffffffffff167f0a8bb31534c0ed46f380cb867bd5c803a189ced9a764e30b3a4991a9901d747460405160405180910390a250565b61173461172e611f34565b83612413565b611773576040517f08c379a000000000000000000000000000000000000000000000000000000000815260040161176a9061451a565b60405180910390fd5b61177f84848484612b60565b600860009054906101000a900473ffffffffffffffffffffffffffffffffffffffff1673ffffffffffffffffffffffffffffffffffffffff166306ab59236009548460001b866040518463ffffffff1660e01b81526004016117e393929190614426565b602060405180830381600087803b1580156117fd57600080fd5b505af1158015611811573d6000803e3d6000fd5b505050506040513d601f19601f820116820180604052508101906118359190613bb4565b5050505050565b60003073ffffffffffffffffffffffffffffffffffffffff16600860009054906101000a900473ffffffffffffffffffffffffffffffffffffffff1673ffffffffffffffffffffffffffffffffffffffff166302571be36009546040518263ffffffff1660e01b81526004016118b291906143e2565b60206040518083038186803b1580156118ca57600080fd5b505afa1580156118de573d6000803e3d6000fd5b505050506040513d601f19601f820116820180604052508101906119029190613a0d565b73ffffffffffffffffffffffffffffffffffffffff1614611958576040517f08c379a000000000000000000000000000000000000000000000000000000000815260040161194f906146ba565b60405180910390fd5b600a60003373ffffffffffffffffffffffffffffffffffffffff1673ffffffffffffffffffffffffffffffffffffffff16815260200190815260200160002060009054906101000a900460ff166119e4576040517f08c379a00000000000000000000000000000000000000000000000000000000081526004016119db906146fa565b60405180910390fd5b6119ec6127a2565b42600754600b600086815260200190815260200160002054611a0e919061492d565b1015611a4f576040517f08c379a0000000000000000000000000000000000000000000000000000000008152600401611a469061461a565b60405180910390fd5b60075482611a5d919061492d565b60075483600b600087815260200190815260200160002054611a7f919061492d565b611a89919061492d565b11611ac9576040517f08c379a0000000000000000000000000000000000000000000000000000000008152600401611ac09061459a565b60405180910390fd5b81600b60008581526020019081526020016000206000828254611aec919061492d565b92505081905550827f9b87a00e30f1ac65d898f070f8a3488fe60517182d0a2098e1b4b93a54aa9bd6600b600086815260200190815260200160002054604051611b3691906147fa565b60405180910390a2600b600084815260200190815260200160002054905092915050565b6060611b6582612bbc565b611ba4576040517f08c379a0000000000000000000000000000000000000000000000000000000008152600401611b9b906145ba565b60405180910390fd5b6000600c8054611bb390614a9b565b905011611bcf5760405180602001604052806000815250611bfb565b600c611bda83612bfd565b604051602001611beb92919061431a565b6040516020818303038152906040525b9050919050565b600e5481565b6000600b6000838152602001908152602001600020549050919050565b600a6020528060005260406000206000915054906101000a900460ff1681565b60095481565b6000600660008473ffffffffffffffffffffffffffffffffffffffff1673ffffffffffffffffffffffffffffffffffffffff16815260200190815260200160002060008373ffffffffffffffffffffffffffffffffffffffff1673ffffffffffffffffffffffffffffffffffffffff16815260200190815260200160002060009054906101000a900460ff16905092915050565b611ce76127ec565b806007819055506007547fcc2c34a1adf0911114053f75b51b2b1f8fc9ef9e25f0a5f12f210032b5b0a1b260405160405180910390a250565b611d286127ec565b600073ffffffffffffffffffffffffffffffffffffffff168173ffffffffffffffffffffffffffffffffffffffff161415611d98576040517f08c379a0000000000000000000000000000000000000000000000000000000008152600401611d8f9061453a565b60405180910390fd5b611da1816128cc565b50565b611dac6127ec565b6000600a60008373ffffffffffffffffffffffffffffffffffffffff1673ffffffffffffffffffffffffffffffffffffffff16815260200190815260200160002060006101000a81548160ff0219169083151502179055508073ffffffffffffffffffffffffffffffffffffffff167f33d83959be2573f5453b12eb9d43b3499bc57d96bd2f067ba44803c859e8111360405160405180910390a250565b6000611e598484846001611ff5565b90509392505050565b611e6b81612bbc565b611eaa576040517f08c379a0000000000000000000000000000000000000000000000000000000008152600401611ea19061475a565b60405180910390fd5b50565b600080611eb983612d21565b9050600073ffffffffffffffffffffffffffffffffffffffff168173ffffffffffffffffffffffffffffffffffffffff161415611f2b576040517f08c379a0000000000000000000000000000000000000000000000000000000008152600401611f229061475a565b60405180910390fd5b80915050919050565b600033905090565b816005600083815260200190815260200160002060006101000a81548173ffffffffffffffffffffffffffffffffffffffff021916908373ffffffffffffffffffffffffffffffffffffffff160217905550808273ffffffffffffffffffffffffffffffffffffffff16611faf83611ead565b73ffffffffffffffffffffffffffffffffffffffff167f8c5be1e5ebec7d5bd14f71427d1e84f3dd0314c0f7b2291e5b200ac8c7c3b92560405160405180910390a45050565b60003073ffffffffffffffffffffffffffffffffffffffff16600860009054906101000a900473ffffffffffffffffffffffffffffffffffffffff1673ffffffffffffffffffffffffffffffffffffffff166302571be36009546040518263ffffffff1660e01b815260040161206b91906143e2565b60206040518083038186803b15801561208357600080fd5b505afa158015612097573d6000803e3d6000fd5b505050506040513d601f19601f820116820180604052508101906120bb9190613a0d565b73ffffffffffffffffffffffffffffffffffffffff1614612111576040517f08c379a0000000000000000000000000000000000000000000000000000000008152600401612108906146ba565b60405180910390fd5b600a60003373ffffffffffffffffffffffffffffffffffffffff1673ffffffffffffffffffffffffffffffffffffffff16815260200190815260200160002060009054906101000a900460ff1661219d576040517f08c379a0000000000000000000000000000000000000000000000000000000008152600401612194906146fa565b60405180910390fd5b6121a56127a2565b6121ae85611635565b6121ed576040517f08c379a00000000000000000000000000000000000000000000000000000000081526004016121e4906147ba565b60405180910390fd5b600754426121fb919061492d565b600754844261220a919061492d565b612214919061492d565b11612254576040517f08c379a000000000000000000000000000000000000000000000000000000000815260040161224b9061473a565b60405180910390fd5b600e5461226085611383565b106122a0576040517f08c379a00000000000000000000000000000000000000000000000000000000081526004016122979061463a565b60405180910390fd5b82426122ac919061492d565b600b6000878152602001908152602001600020819055506122cc85612bbc565b156122db576122da85612d5e565b5b6122e58486612eac565b81156123a357600860009054906101000a900473ffffffffffffffffffffffffffffffffffffffff1673ffffffffffffffffffffffffffffffffffffffff166306ab59236009548760001b876040518463ffffffff1660e01b815260040161234f93929190614426565b602060405180830381600087803b15801561236957600080fd5b505af115801561237d573d6000803e3d6000fd5b505050506040513d601f19601f820116820180604052508101906123a19190613bb4565b505b8373ffffffffffffffffffffffffffffffffffffffff16857fb3d987963d01b2f68493b4bdb130988f157ea43070d4ad840fee0466ed9370d985426123e8919061492d565b6040516123f591906147fa565b60405180910390a38242612409919061492d565b9050949350505050565b60008061241f8361128e565b90508073ffffffffffffffffffffffffffffffffffffffff168473ffffffffffffffffffffffffffffffffffffffff16148061248e57508373ffffffffffffffffffffffffffffffffffffffff1661247684610aba565b73ffffffffffffffffffffffffffffffffffffffff16145b8061249f575061249e8185611c4b565b5b91505092915050565b8273ffffffffffffffffffffffffffffffffffffffff166124c882611ead565b73ffffffffffffffffffffffffffffffffffffffff161461251e576040517f08c379a00000000000000000000000000000000000000000000000000000000081526004016125159061455a565b60405180910390fd5b600073ffffffffffffffffffffffffffffffffffffffff168273ffffffffffffffffffffffffffffffffffffffff16141561258e576040517f08c379a0000000000000000000000000000000000000000000000000000000008152600401612585906145da565b60405180910390fd5b61259b8383836001612f0c565b8273ffffffffffffffffffffffffffffffffffffffff166125bb82611ead565b73ffffffffffffffffffffffffffffffffffffffff1614612611576040517f08c379a00000000000000000000000000000000000000000000000000000000081526004016126089061455a565b60405180910390fd5b6005600082815260200190815260200160002060006101000a81549073ffffffffffffffffffffffffffffffffffffffff02191690556001600460008573ffffffffffffffffffffffffffffffffffffffff1673ffffffffffffffffffffffffffffffffffffffff168152602001908152602001600020600082825403925050819055506001600460008473ffffffffffffffffffffffffffffffffffffffff1673ffffffffffffffffffffffffffffffffffffffff16815260200190815260200160002060008282540192505081905550816003600083815260200190815260200160002060006101000a81548173ffffffffffffffffffffffffffffffffffffffff021916908373ffffffffffffffffffffffffffffffffffffffff160217905550808273ffffffffffffffffffffffffffffffffffffffff168473ffffffffffffffffffffffffffffffffffffffff167fddf252ad1be2c89b69c2b068fc378daa952ba7f163c4a11628f55a4df523b3ef60405160405180910390a461279d8383836001613032565b505050565b6127aa611278565b156127ea576040517f08c379a00000000000000000000000000000000000000000000000000000000081526004016127e19061467a565b60405180910390fd5b565b6127f4611f34565b73ffffffffffffffffffffffffffffffffffffffff1661281261157a565b73ffffffffffffffffffffffffffffffffffffffff1614612868576040517f08c379a000000000000000000000000000000000000000000000000000000000815260040161285f9061471a565b60405180910390fd5b565b612872613038565b60008060006101000a81548160ff0219169083151502179055507f5db9ee0a495bf2e6ff9c91a7834c1ba4fdd244a5e8aa4e537bd38aeae4b073aa6128b5611f34565b6040516128c2919061433e565b60405180910390a1565b60008060019054906101000a900473ffffffffffffffffffffffffffffffffffffffff16905081600060016101000a81548173ffffffffffffffffffffffffffffffffffffffff021916908373ffffffffffffffffffffffffffffffffffffffff1602179055508173ffffffffffffffffffffffffffffffffffffffff168173ffffffffffffffffffffffffffffffffffffffff167f8be0079c531659141344cd1fd0a4f28419497f9722a3daafe3b4186f6b6457e060405160405180910390a35050565b6129996127a2565b60016000806101000a81548160ff0219169083151502179055507f62e78cea01bee320cd4e420270b5ea74000d11b0c9f74754ebdbfc544b05a2586129dc611f34565b6040516129e9919061433e565b60405180910390a1565b8173ffffffffffffffffffffffffffffffffffffffff168373ffffffffffffffffffffffffffffffffffffffff161415612a62576040517f08c379a0000000000000000000000000000000000000000000000000000000008152600401612a59906145fa565b60405180910390fd5b80600660008573ffffffffffffffffffffffffffffffffffffffff1673ffffffffffffffffffffffffffffffffffffffff16815260200190815260200160002060008473ffffffffffffffffffffffffffffffffffffffff1673ffffffffffffffffffffffffffffffffffffffff16815260200190815260200160002060006101000a81548160ff0219169083151502179055508173ffffffffffffffffffffffffffffffffffffffff168373ffffffffffffffffffffffffffffffffffffffff167f17307eab39ab6107e8899845ad3d59bd9653f200f220920489ca2b5937696c3183604051612b5391906143c7565b60405180910390a3505050565b612b6b8484846124a8565b612b7784848484613081565b612bb6576040517f08c379a0000000000000000000000000000000000000000000000000000000008152600401612bad906144fa565b60405180910390fd5b50505050565b60008073ffffffffffffffffffffffffffffffffffffffff16612bde83612d21565b73ffffffffffffffffffffffffffffffffffffffff1614159050919050565b606060006001612c0c84613218565b01905060008167ffffffffffffffff811115612c51577f4e487b7100000000000000000000000000000000000000000000000000000000600052604160045260246000fd5b6040519080825280601f01601f191660200182016040528015612c835781602001600182028036833780820191505090505b509050600082602001820190505b600115612d16578080600190039150507f3031323334353637383961626364656600000000000000000000000000000000600a86061a8153600a8581612d00577f4e487b7100000000000000000000000000000000000000000000000000000000600052601260045260246000fd5b0494506000851415612d1157612d16565b612c91565b819350505050919050565b60006003600083815260200190815260200160002060009054906101000a900473ffffffffffffffffffffffffffffffffffffffff169050919050565b612d678161344f565b6000600f600083815260200190815260200160002054905060006001600d80549050612d939190614983565b90506000600d8281548110612dd1577f4e487b7100000000000000000000000000000000000000000000000000000000600052603260045260246000fd5b9060005260206000200154905080600d8481548110612e19577f4e487b7100000000000000000000000000000000000000000000000000000000600052603260045260246000fd5b9060005260206000200181905550600d805480612e5f577f4e487b7100000000000000000000000000000000000000000000000000000000600052603160045260246000fd5b6001900381819060005260206000200160009055905582600f6000838152602001908152602001600020819055506000600f60008681526020019081526020016000208190555050505050565b612eb6828261359d565b600d8190806001815401808255809150506001900390600052602060002001600090919091909150556001600d80549050612ef19190614983565b600f6000838152602001908152602001600020819055505050565b600181111561302c57600073ffffffffffffffffffffffffffffffffffffffff168473ffffffffffffffffffffffffffffffffffffffff1614612fa05780600460008673ffffffffffffffffffffffffffffffffffffffff1673ffffffffffffffffffffffffffffffffffffffff1681526020019081526020016000206000828254612f989190614983565b925050819055505b600073ffffffffffffffffffffffffffffffffffffffff168373ffffffffffffffffffffffffffffffffffffffff161461302b5780600460008573ffffffffffffffffffffffffffffffffffffffff1673ffffffffffffffffffffffffffffffffffffffff1681526020019081526020016000206000828254613023919061492d565b925050819055505b5b50505050565b50505050565b613040611278565b61307f576040517f08c379a0000000000000000000000000000000000000000000000000000000008152600401613076906144da565b60405180910390fd5b565b60006130a28473ffffffffffffffffffffffffffffffffffffffff166137bb565b1561320b578373ffffffffffffffffffffffffffffffffffffffff1663150b7a026130cb611f34565b8786866040518563ffffffff1660e01b81526004016130ed9493929190614359565b602060405180830381600087803b15801561310757600080fd5b505af192505050801561313857506040513d601f19601f820116820180604052508101906131359190613c06565b60015b6131bb573d8060008114613168576040519150601f19603f3d011682016040523d82523d6000602084013e61316d565b606091505b506000815114156131b3576040517f08c379a00000000000000000000000000000000000000000000000000000000081526004016131aa906144fa565b60405180910390fd5b805181602001fd5b63150b7a0260e01b7bffffffffffffffffffffffffffffffffffffffffffffffffffffffff1916817bffffffffffffffffffffffffffffffffffffffffffffffffffffffff191614915050613210565b600190505b949350505050565b600080600090507a184f03e93ff9f4daa797ed6e38ed64bf6a1f010000000000000000831061329c577a184f03e93ff9f4daa797ed6e38ed64bf6a1f0100000000000000008381613292577f4e487b7100000000000000000000000000000000000000000000000000000000600052601260045260246000fd5b0492506040810190505b6d04ee2d6d415b85acef810000000083106132ff576d04ee2d6d415b85acef810000000083816132f5577f4e487b7100000000000000000000000000000000000000000000000000000000600052601260045260246000fd5b0492506020810190505b662386f26fc10000831061335457662386f26fc10000838161334a577f4e487b7100000000000000000000000000000000000000000000000000000000600052601260045260246000fd5b0492506010810190505b6305f5e10083106133a3576305f5e1008381613399577f4e487b7100000000000000000000000000000000000000000000000000000000600052601260045260246000fd5b0492506008810190505b61271083106133ee5761271083816133e4577f4e487b7100000000000000000000000000000000000000000000000000000000600052601260045260246000fd5b0492506004810190505b60648310613437576064838161342d577f4e487b7100000000000000000000000000000000000000000000000000000000600052601260045260246000fd5b0492506002810190505b600a8310613446576001810190505b80915050919050565b600061345a82611ead565b905061346a816000846001612f0c565b61347382611ead565b90506005600083815260200190815260200160002060006101000a81549073ffffffffffffffffffffffffffffffffffffffff02191690556001600460008373ffffffffffffffffffffffffffffffffffffffff1673ffffffffffffffffffffffffffffffffffffffff168152602001908152602001600020600082825403925050819055506003600083815260200190815260200160002060006101000a81549073ffffffffffffffffffffffffffffffffffffffff021916905581600073ffffffffffffffffffffffffffffffffffffffff168273ffffffffffffffffffffffffffffffffffffffff167fddf252ad1be2c89b69c2b068fc378daa952ba7f163c4a11628f55a4df523b3ef60405160405180910390a4613599816000846001613032565b5050565b600073ffffffffffffffffffffffffffffffffffffffff168273ffffffffffffffffffffffffffffffffffffffff16141561360d576040517f08c379a0000000000000000000000000000000000000000000000000000000008152600401613604906146da565b60405180910390fd5b61361681612bbc565b15613656576040517f08c379a000000000000000000000000000000000000000000000000000000000815260040161364d9061457a565b60405180910390fd5b613664600083836001612f0c565b61366d81612bbc565b156136ad576040517f08c379a00000000000000000000000000000000000000000000000000000000081526004016136a49061457a565b60405180910390fd5b6001600460008473ffffffffffffffffffffffffffffffffffffffff1673ffffffffffffffffffffffffffffffffffffffff16815260200190815260200160002060008282540192505081905550816003600083815260200190815260200160002060006101000a81548173ffffffffffffffffffffffffffffffffffffffff021916908373ffffffffffffffffffffffffffffffffffffffff160217905550808273ffffffffffffffffffffffffffffffffffffffff16600073ffffffffffffffffffffffffffffffffffffffff167fddf252ad1be2c89b69c2b068fc378daa952ba7f163c4a11628f55a4df523b3ef60405160405180910390a46137b7600083836001613032565b5050565b6000808273ffffffffffffffffffffffffffffffffffffffff163b119050919050565b8280546137ea90614a9b565b90600052602060002090601f01602090048101928261380c5760008555613853565b82601f1061382557805160ff1916838001178555613853565b82800160010185558215613853579182015b82811115613852578251825591602001919060010190613837565b5b5090506138609190613864565b5090565b5b8082111561387d576000816000905550600101613865565b5090565b600061389461388f8461483a565b614815565b9050828152602081018484840111156138ac57600080fd5b6138b7848285614a59565b509392505050565b60006138d26138cd8461486b565b614815565b9050828152602081018484840111156138ea57600080fd5b6138f5848285614a59565b509392505050565b60008135905061390c8161511f565b92915050565b6000815190506139218161511f565b92915050565b60008135905061393681615136565b92915050565b60008151905061394b8161514d565b92915050565b60008135905061396081615164565b92915050565b60008151905061397581615164565b92915050565b600082601f83011261398c57600080fd5b813561399c848260208601613881565b91505092915050565b600082601f8301126139b657600080fd5b81356139c68482602086016138bf565b91505092915050565b6000813590506139de8161517b565b92915050565b6000602082840312156139f657600080fd5b6000613a04848285016138fd565b91505092915050565b600060208284031215613a1f57600080fd5b6000613a2d84828501613912565b91505092915050565b60008060408385031215613a4957600080fd5b6000613a57858286016138fd565b9250506020613a68858286016138fd565b9150509250929050565b600080600060608486031215613a8757600080fd5b6000613a95868287016138fd565b9350506020613aa6868287016138fd565b9250506040613ab7868287016139cf565b9150509250925092565b60008060008060808587031215613ad757600080fd5b6000613ae5878288016138fd565b9450506020613af6878288016138fd565b9350506040613b07878288016139cf565b925050606085013567ffffffffffffffff811115613b2457600080fd5b613b308782880161397b565b91505092959194509250565b60008060408385031215613b4f57600080fd5b6000613b5d858286016138fd565b9250506020613b6e85828601613927565b9150509250929050565b60008060408385031215613b8b57600080fd5b6000613b99858286016138fd565b9250506020613baa858286016139cf565b9150509250929050565b600060208284031215613bc657600080fd5b6000613bd48482850161393c565b91505092915050565b600060208284031215613bef57600080fd5b6000613bfd84828501613951565b91505092915050565b600060208284031215613c1857600080fd5b6000613c2684828501613966565b91505092915050565b600060208284031215613c4157600080fd5b600082013567ffffffffffffffff811115613c5b57600080fd5b613c67848285016139a5565b91505092915050565b600060208284031215613c8257600080fd5b6000613c90848285016139cf565b91505092915050565b60008060408385031215613cac57600080fd5b6000613cba858286016139cf565b9250506020613ccb858286016138fd565b9150509250929050565b600080600060608486031215613cea57600080fd5b6000613cf8868287016139cf565b9350506020613d09868287016138fd565b9250506040613d1a868287016139cf565b9150509250925092565b60008060408385031215613d3757600080fd5b6000613d45858286016139cf565b9250506020613d56858286016139cf565b9150509250929050565b6000613d6c83836142e5565b60208301905092915050565b613d81816149b7565b82525050565b6000613d92826148c1565b613d9c81856148ef565b9350613da78361489c565b8060005b83811015613dd8578151613dbf8882613d60565b9750613dca836148e2565b925050600181019050613dab565b5085935050505092915050565b613dee816149c9565b82525050565b613dfd816149d5565b82525050565b6000613e0e826148cc565b613e188185614900565b9350613e28818560208601614a68565b613e3181614b8b565b840191505092915050565b613e4581614a35565b82525050565b6000613e56826148d7565b613e608185614911565b9350613e70818560208601614a68565b613e7981614b8b565b840191505092915050565b6000613e8f826148d7565b613e998185614922565b9350613ea9818560208601614a68565b80840191505092915050565b60008154613ec281614a9b565b613ecc8186614922565b94506001821660008114613ee75760018114613ef857613f2b565b60ff19831686528186019350613f2b565b613f01856148ac565b60005b83811015613f2357815481890152600182019150602081019050613f04565b838801955050505b50505092915050565b6000613f41601583614911565b9150613f4c82614b9c565b602082019050919050565b6000613f64601083614911565b9150613f6f82614bc5565b602082019050919050565b6000613f87601483614911565b9150613f9282614bee565b602082019050919050565b6000613faa603283614911565b9150613fb582614c17565b604082019050919050565b6000613fcd602783614911565b9150613fd882614c66565b604082019050919050565b6000613ff0602683614911565b9150613ffb82614cb5565b604082019050919050565b6000614013602583614911565b915061401e82614d04565b604082019050919050565b6000614036601c83614911565b915061404182614d53565b602082019050919050565b6000614059601483614911565b915061406482614d7c565b602082019050919050565b600061407c601683614911565b915061408782614da5565b602082019050919050565b600061409f602483614911565b91506140aa82614dce565b604082019050919050565b60006140c2601983614911565b91506140cd82614e1d565b602082019050919050565b60006140e5601583614911565b91506140f082614e46565b602082019050919050565b6000614108601383614911565b915061411382614e6f565b602082019050919050565b600061412b600783614911565b915061413682614e98565b602082019050919050565b600061414e601083614911565b915061415982614ec1565b602082019050919050565b6000614171602983614911565b915061417c82614eea565b604082019050919050565b6000614194600883614911565b915061419f82614f39565b602082019050919050565b60006141b7602083614911565b91506141c282614f62565b602082019050919050565b60006141da600983614911565b91506141e582614f8b565b602082019050919050565b60006141fd602083614911565b915061420882614fb4565b602082019050919050565b6000614220601283614911565b915061422b82614fdd565b602082019050919050565b6000614243601883614911565b915061424e82615006565b602082019050919050565b6000614266602183614911565b91506142718261502f565b604082019050919050565b6000614289603d83614911565b91506142948261507e565b604082019050919050565b60006142ac600d83614911565b91506142b7826150cd565b602082019050919050565b60006142cf600d83614911565b91506142da826150f6565b602082019050919050565b6142ee81614a2b565b82525050565b6142fd81614a2b565b82525050565b600061430f8284613eb5565b915081905092915050565b60006143268285613eb5565b91506143328284613e84565b91508190509392505050565b60006020820190506143536000830184613d78565b92915050565b600060808201905061436e6000830187613d78565b61437b6020830186613d78565b61438860408301856142f4565b818103606083015261439a8184613e03565b905095945050505050565b600060208201905081810360008301526143bf8184613d87565b905092915050565b60006020820190506143dc6000830184613de5565b92915050565b60006020820190506143f76000830184613df4565b92915050565b60006040820190506144126000830185613df4565b61441f6020830184613d78565b9392505050565b600060608201905061443b6000830186613df4565b6144486020830185613df4565b6144556040830184613d78565b949350505050565b60006020820190506144726000830184613e3c565b92915050565b600060208201905081810360008301526144928184613e4b565b905092915050565b600060208201905081810360008301526144b381613f34565b9050919050565b600060208201905081810360008301526144d381613f57565b9050919050565b600060208201905081810360008301526144f381613f7a565b9050919050565b6000602082019050818103600083015261451381613f9d565b9050919050565b6000602082019050818103600083015261453381613fc0565b9050919050565b6000602082019050818103600083015261455381613fe3565b9050919050565b6000602082019050818103600083015261457381614006565b9050919050565b6000602082019050818103600083015261459381614029565b9050919050565b600060208201905081810360008301526145b38161404c565b9050919050565b600060208201905081810360008301526145d38161406f565b9050919050565b600060208201905081810360008301526145f381614092565b9050919050565b60006020820190508181036000830152614613816140b5565b9050919050565b60006020820190508181036000830152614633816140d8565b9050919050565b60006020820190508181036000830152614653816140fb565b9050919050565b600060208201905081810360008301526146738161411e565b9050919050565b6000602082019050818103600083015261469381614141565b9050919050565b600060208201905081810360008301526146b381614164565b9050919050565b600060208201905081810360008301526146d381614187565b9050919050565b600060208201905081810360008301526146f3816141aa565b9050919050565b60006020820190508181036000830152614713816141cd565b9050919050565b60006020820190508181036000830152614733816141f0565b9050919050565b6000602082019050818103600083015261475381614213565b9050919050565b6000602082019050818103600083015261477381614236565b9050919050565b6000602082019050818103600083015261479381614259565b9050919050565b600060208201905081810360008301526147b38161427c565b9050919050565b600060208201905081810360008301526147d38161429f565b9050919050565b600060208201905081810360008301526147f3816142c2565b9050919050565b600060208201905061480f60008301846142f4565b92915050565b600061481f614830565b905061482b8282614acd565b919050565b6000604051905090565b600067ffffffffffffffff82111561485557614854614b5c565b5b61485e82614b8b565b9050602081019050919050565b600067ffffffffffffffff82111561488657614885614b5c565b5b61488f82614b8b565b9050602081019050919050565b6000819050602082019050919050565b60008190508160005260206000209050919050565b600081519050919050565b600081519050919050565b600081519050919050565b6000602082019050919050565b600082825260208201905092915050565b600082825260208201905092915050565b600082825260208201905092915050565b600081905092915050565b600061493882614a2b565b915061494383614a2b565b9250827fffffffffffffffffffffffffffffffffffffffffffffffffffffffffffffffff0382111561497857614977614afe565b5b828201905092915050565b600061498e82614a2b565b915061499983614a2b565b9250828210156149ac576149ab614afe565b5b828203905092915050565b60006149c282614a0b565b9050919050565b60008115159050919050565b6000819050919050565b60007fffffffff0000000000000000000000000000000000000000000000000000000082169050919050565b600073ffffffffffffffffffffffffffffffffffffffff82169050919050565b6000819050919050565b6000614a4082614a47565b9050919050565b6000614a5282614a0b565b9050919050565b82818337600083830152505050565b60005b83811015614a86578082015181840152602081019050614a6b565b83811115614a95576000848401525b50505050565b60006002820490506001821680614ab357607f821691505b60208210811415614ac757614ac6614b2d565b5b50919050565b614ad682614b8b565b810181811067ffffffffffffffff82111715614af557614af4614b5c565b5b80604052505050565b7f4e487b7100000000000000000000000000000000000000000000000000000000600052601160045260246000fd5b7f4e487b7100000000000000000000000000000000000000000000000000000000600052602260045260246000fd5b7f4e487b7100000000000000000000000000000000000000000000000000000000600052604160045260246000fd5b6000601f19601f8301169050919050565b7f6e6f7420617070726f766564206f72206f776e65720000000000000000000000600082015250565b7f696e76616c6964206d696e742063617000000000000000000000000000000000600082015250565b7f5061757361626c653a206e6f7420706175736564000000000000000000000000600082015250565b7f4552433732313a207472616e7366657220746f206e6f6e20455243373231526560008201527f63656976657220696d706c656d656e7465720000000000000000000000000000602082015250565b7f4552433732313a2063616c6c6572206973206e6f7420617070726f766564206f60008201527f72206f776e657200000000000000000000000000000000000000000000000000602082015250565b7f4f776e61626c653a206e6577206f776e657220697320746865207a65726f206160008201527f6464726573730000000000000000000000000000000000000000000000000000602082015250565b7f4552433732313a207472616e736665722066726f6d20696e636f72726563742060008201527f6f776e6572000000000000000000000000000000000000000000000000000000602082015250565b7f4552433732313a20746f6b656e20616c7265616479206d696e74656400000000600082015250565b7f74696d657374616d70206f766572666c6f776564000000000000000000000000600082015250565b7f746f6b656e496420646f6573206e6f7420657869737400000000000000000000600082015250565b7f4552433732313a207472616e7366657220746f20746865207a65726f2061646460008201527f7265737300000000000000000000000000000000000000000000000000000000602082015250565b7f4552433732313a20617070726f766520746f2063616c6c657200000000000000600082015250565b7f7374696c6c20696e20677261636520706572696f640000000000000000000000600082015250565b7f62616c616e636520657863656564732063617000000000000000000000000000600082015250565b7f6578706972656400000000000000000000000000000000000000000000000000600082015250565b7f5061757361626c653a2070617573656400000000000000000000000000000000600082015250565b7f4552433732313a2061646472657373207a65726f206973206e6f74206120766160008201527f6c6964206f776e65720000000000000000000000000000000000000000000000602082015250565b7f6e6f74206c697665000000000000000000000000000000000000000000000000600082015250565b7f4552433732313a206d696e7420746f20746865207a65726f2061646472657373600082015250565b7f6f6e6c79206374726c0000000000000000000000000000000000000000000000600082015250565b7f4f776e61626c653a2063616c6c6572206973206e6f7420746865206f776e6572600082015250565b7f74696d657374616d70206f766572666c6f770000000000000000000000000000600082015250565b7f4552433732313a20696e76616c696420746f6b656e2049440000000000000000600082015250565b7f4552433732313a20617070726f76616c20746f2063757272656e74206f776e6560008201527f7200000000000000000000000000000000000000000000000000000000000000602082015250565b7f4552433732313a20617070726f76652063616c6c6572206973206e6f7420746f60008201527f6b656e206f776e6572206f7220617070726f76656420666f7220616c6c000000602082015250565b7f6e6f7420617661696c61626c6500000000000000000000000000000000000000600082015250565b7f696e76616c696420696e64657800000000000000000000000000000000000000600082015250565b615128816149b7565b811461513357600080fd5b50565b61513f816149c9565b811461514a57600080fd5b50565b615156816149d5565b811461516157600080fd5b50565b61516d816149df565b811461517857600080fd5b50565b61518481614a2b565b811461518f57600080fd5b5056fea2646970667358221220af9da265d9275ee54137acf4381098f093d6a08ec71a06ae4a6ad614284082c264736f6c63430008040033",
  "devdoc": {
    "kind": "dev",
    "methods": {
      "addController(address)": {
        "details": "Authorises a controller, who can register and renew domains."
      },
      "approve(address,uint256)": {
        "details": "See {IERC721-approve}."
      },
      "available(uint256)": {
        "details": "Returns true iff the specified name is available for registration."
      },
      "balanceOf(address)": {
        "details": "See {IERC721-balanceOf}."
      },
      "getApproved(uint256)": {
        "details": "See {IERC721-getApproved}."
      },
      "isApprovedForAll(address,address)": {
        "details": "See {IERC721-isApprovedForAll}."
      },
      "name()": {
        "details": "See {IERC721Metadata-name}."
      },
      "nameExpires(uint256)": {
        "details": "Returns the expiration timestamp of the specified id."
      },
      "owner()": {
        "details": "Returns the address of the current owner."
      },
      "ownerOf(uint256)": {
        "details": "Gets the owner of the specified token ID. Names become unowned      when their registration expires.",
        "params": {
          "tokenId": "uint256 ID of the token to query the owner of"
        },
        "returns": {
          "_0": "address currently marked as the owner of the given token ID"
        }
      },
      "pause()": {
        "details": "Pause the register & renew globally"
      },
      "paused()": {
        "details": "Returns true if the contract is paused, and false otherwise."
      },
      "reclaim(uint256,address)": {
        "details": "Reclaim ownership of a name in MID, if you own it in the registrar."
      },
      "register(uint256,address,uint256)": {
        "details": "Register a name.",
        "params": {
          "duration": "Duration in seconds for the registration.",
          "id": "The token ID (keccak256 of the label).",
          "owner": "The address that should own the registration."
        }
      },
      "registerOnly(uint256,address,uint256)": {
        "details": "Register a name, without modifying the registry.",
        "params": {
          "duration": "Duration in seconds for the registration.",
          "id": "The token ID (keccak256 of the label).",
          "owner": "The address that should own the registration."
        }
      },
      "removeController(address)": {
        "details": "Revoke controller permission for an address."
      },
      "renew(uint256,uint256)": {
        "details": "Renew the name with input duration"
      },
      "renounceOwnership()": {
        "details": "Leaves the contract without owner. It will not be possible to call `onlyOwner` functions anymore. Can only be called by the current owner. NOTE: Renouncing ownership will leave the contract without an owner, thereby removing any functionality that is only available to the owner."
      },
      "safeTransferFrom(address,address,uint256)": {
        "details": "See {IERC721-safeTransferFrom}."
      },
      "safeTransferFrom(address,address,uint256,bytes)": {
        "details": "modify `transferFrom` and `safeTransferFrom` to make the domain automatically  transfer to target owner as well"
      },
      "setApprovalForAll(address,bool)": {
        "details": "See {IERC721-setApprovalForAll}."
      },
      "setBaseURI(string)": {
        "details": "Support directly set the baseURI.",
        "params": {
          "baseURI_": "the new base URI"
        }
      },
      "setGracePeriod(uint256)": {
        "details": "Reset the grace period"
      },
      "setMaxMintPerUser(uint256)": {
        "details": "max mint per user setter"
      },
      "setResolver(address)": {
        "details": "Set the resolver for the TLD this registrar manages."
      },
      "symbol()": {
        "details": "See {IERC721Metadata-symbol}."
      },
      "tokenByIndex(uint256)": {
        "details": "Get token ID by stored order"
      },
      "tokenURI(uint256)": {
        "details": "Return the metadata URI by token ID"
      },
      "totalSupply()": {
        "details": "Support token metadata"
      },
      "transferFrom(address,address,uint256)": {
        "details": "modify `transferFrom` and `safeTransferFrom` to make the domain automatically  transfer to target owner as well"
      },
      "transferOwnership(address)": {
        "details": "Transfers ownership of the contract to a new account (`newOwner`). Can only be called by the current owner."
      },
      "unpause()": {
        "details": "Unpause the register & renew globally"
      }
    },
    "stateVariables": {
      "baseURI": {
        "details": "Base URI of NFT metadata"
      },
      "expiries": {
        "details": "A map of expiry times"
      },
      "idToIndexes": {
        "details": "mapping from token id to index in tokens array"
      },
      "maxMintPerUser": {
        "details": "The max minting count per account"
      },
      "ownerToIds": {
        "details": "mapping from owner address to token ids"
      },
      "tokens": {
        "details": "All minted token ids"
      }
    },
    "version": 1
  },
  "userdoc": {
    "kind": "user",
    "methods": {},
    "version": 1
  },
  "storageLayout": {
    "storage": [
      {
        "astId": 130,
        "contract": "contracts/cidregistrar/BaseRegistrarImplementation.sol:BaseRegistrarImplementation",
        "label": "_paused",
        "offset": 0,
        "slot": "0",
        "type": "t_bool"
      },
      {
        "astId": 7,
        "contract": "contracts/cidregistrar/BaseRegistrarImplementation.sol:BaseRegistrarImplementation",
        "label": "_owner",
        "offset": 1,
        "slot": "0",
        "type": "t_address"
      },
      {
        "astId": 246,
        "contract": "contracts/cidregistrar/BaseRegistrarImplementation.sol:BaseRegistrarImplementation",
        "label": "_name",
        "offset": 0,
        "slot": "1",
        "type": "t_string_storage"
      },
      {
        "astId": 248,
        "contract": "contracts/cidregistrar/BaseRegistrarImplementation.sol:BaseRegistrarImplementation",
        "label": "_symbol",
        "offset": 0,
        "slot": "2",
        "type": "t_string_storage"
      },
      {
        "astId": 252,
        "contract": "contracts/cidregistrar/BaseRegistrarImplementation.sol:BaseRegistrarImplementation",
        "label": "_owners",
        "offset": 0,
        "slot": "3",
        "type": "t_mapping(t_uint256,t_address)"
      },
      {
        "astId": 256,
        "contract": "contracts/cidregistrar/BaseRegistrarImplementation.sol:BaseRegistrarImplementation",
        "label": "_balances",
        "offset": 0,
        "slot": "4",
        "type": "t_mapping(t_address,t_uint256)"
      },
      {
        "astId": 260,
        "contract": "contracts/cidregistrar/BaseRegistrarImplementation.sol:BaseRegistrarImplementation",
        "label": "_tokenApprovals",
        "offset": 0,
        "slot": "5",
        "type": "t_mapping(t_uint256,t_address)"
      },
      {
        "astId": 266,
        "contract": "contracts/cidregistrar/BaseRegistrarImplementation.sol:BaseRegistrarImplementation",
        "label": "_operatorApprovals",
        "offset": 0,
        "slot": "6",
        "type": "t_mapping(t_address,t_mapping(t_address,t_bool))"
      },
      {
        "astId": 3469,
        "contract": "contracts/cidregistrar/BaseRegistrarImplementation.sol:BaseRegistrarImplementation",
        "label": "gracePeriod",
        "offset": 0,
        "slot": "7",
        "type": "t_uint256"
      },
      {
        "astId": 3502,
        "contract": "contracts/cidregistrar/BaseRegistrarImplementation.sol:BaseRegistrarImplementation",
        "label": "mid",
        "offset": 0,
        "slot": "8",
        "type": "t_contract(MID)6303"
      },
      {
        "astId": 3504,
        "contract": "contracts/cidregistrar/BaseRegistrarImplementation.sol:BaseRegistrarImplementation",
        "label": "baseNode",
        "offset": 0,
        "slot": "9",
        "type": "t_bytes32"
      },
      {
        "astId": 3508,
        "contract": "contracts/cidregistrar/BaseRegistrarImplementation.sol:BaseRegistrarImplementation",
        "label": "controllers",
        "offset": 0,
        "slot": "10",
        "type": "t_mapping(t_address,t_bool)"
      },
      {
        "astId": 3594,
        "contract": "contracts/cidregistrar/BaseRegistrarImplementation.sol:BaseRegistrarImplementation",
        "label": "expiries",
        "offset": 0,
        "slot": "11",
        "type": "t_mapping(t_uint256,t_uint256)"
      },
      {
        "astId": 3597,
        "contract": "contracts/cidregistrar/BaseRegistrarImplementation.sol:BaseRegistrarImplementation",
        "label": "baseURI",
        "offset": 0,
        "slot": "12",
        "type": "t_string_storage"
      },
      {
        "astId": 3601,
        "contract": "contracts/cidregistrar/BaseRegistrarImplementation.sol:BaseRegistrarImplementation",
        "label": "tokens",
        "offset": 0,
        "slot": "13",
        "type": "t_array(t_uint256)dyn_storage"
      },
      {
        "astId": 3605,
        "contract": "contracts/cidregistrar/BaseRegistrarImplementation.sol:BaseRegistrarImplementation",
        "label": "maxMintPerUser",
        "offset": 0,
        "slot": "14",
        "type": "t_uint256"
      },
      {
        "astId": 3610,
        "contract": "contracts/cidregistrar/BaseRegistrarImplementation.sol:BaseRegistrarImplementation",
        "label": "idToIndexes",
        "offset": 0,
        "slot": "15",
        "type": "t_mapping(t_uint256,t_uint256)"
      },
      {
        "astId": 3616,
        "contract": "contracts/cidregistrar/BaseRegistrarImplementation.sol:BaseRegistrarImplementation",
        "label": "ownerToIds",
        "offset": 0,
        "slot": "16",
        "type": "t_mapping(t_address,t_array(t_uint256)dyn_storage)"
      }
    ],
    "types": {
      "t_address": {
        "encoding": "inplace",
        "label": "address",
        "numberOfBytes": "20"
      },
      "t_array(t_uint256)dyn_storage": {
        "base": "t_uint256",
        "encoding": "dynamic_array",
        "label": "uint256[]",
        "numberOfBytes": "32"
      },
      "t_bool": {
        "encoding": "inplace",
        "label": "bool",
        "numberOfBytes": "1"
      },
      "t_bytes32": {
        "encoding": "inplace",
        "label": "bytes32",
        "numberOfBytes": "32"
      },
      "t_contract(MID)6303": {
        "encoding": "inplace",
        "label": "contract MID",
        "numberOfBytes": "20"
      },
      "t_mapping(t_address,t_array(t_uint256)dyn_storage)": {
        "encoding": "mapping",
        "key": "t_address",
        "label": "mapping(address => uint256[])",
        "numberOfBytes": "32",
        "value": "t_array(t_uint256)dyn_storage"
      },
      "t_mapping(t_address,t_bool)": {
        "encoding": "mapping",
        "key": "t_address",
        "label": "mapping(address => bool)",
        "numberOfBytes": "32",
        "value": "t_bool"
      },
      "t_mapping(t_address,t_mapping(t_address,t_bool))": {
        "encoding": "mapping",
        "key": "t_address",
        "label": "mapping(address => mapping(address => bool))",
        "numberOfBytes": "32",
        "value": "t_mapping(t_address,t_bool)"
      },
      "t_mapping(t_address,t_uint256)": {
        "encoding": "mapping",
        "key": "t_address",
        "label": "mapping(address => uint256)",
        "numberOfBytes": "32",
        "value": "t_uint256"
      },
      "t_mapping(t_uint256,t_address)": {
        "encoding": "mapping",
        "key": "t_uint256",
        "label": "mapping(uint256 => address)",
        "numberOfBytes": "32",
        "value": "t_address"
      },
      "t_mapping(t_uint256,t_uint256)": {
        "encoding": "mapping",
        "key": "t_uint256",
        "label": "mapping(uint256 => uint256)",
        "numberOfBytes": "32",
        "value": "t_uint256"
      },
      "t_string_storage": {
        "encoding": "bytes",
        "label": "string",
        "numberOfBytes": "32"
      },
      "t_uint256": {
        "encoding": "inplace",
        "label": "uint256",
        "numberOfBytes": "32"
      }
    }
  }
}