{
  "address": "0x830FEe121521B95BA0c574b442beBb3f18894549",
  "abi": [
    {
      "inputs": [
        {
          "internalType": "contract MID",
          "name": "_mid",
          "type": "address"
        },
        {
          "internalType": "bytes32",
          "name": "_baseNode",
          "type": "bytes32"
        }
      ],
      "stateMutability": "nonpayable",
      "type": "constructor"
    },
    {
      "anonymous": false,
      "inputs": [
        {
          "indexed": true,
          "internalType": "address",
          "name": "owner",
          "type": "address"
        },
        {
          "indexed": true,
          "internalType": "address",
          "name": "approved",
          "type": "address"
        },
        {
          "indexed": true,
          "internalType": "uint256",
          "name": "tokenId",
          "type": "uint256"
        }
      ],
      "name": "Approval",
      "type": "event"
    },
    {
      "anonymous": false,
      "inputs": [
        {
          "indexed": true,
          "internalType": "address",
          "name": "owner",
          "type": "address"
        },
        {
          "indexed": true,
          "internalType": "address",
          "name": "operator",
          "type": "address"
        },
        {
          "indexed": false,
          "internalType": "bool",
          "name": "approved",
          "type": "bool"
        }
      ],
      "name": "ApprovalForAll",
      "type": "event"
    },
    {
      "anonymous": false,
      "inputs": [
        {
          "indexed": true,
          "internalType": "string",
          "name": "URI",
          "type": "string"
        }
      ],
      "name": "BaseURIChanged",
      "type": "event"
    },
    {
      "anonymous": false,
      "inputs": [
        {
          "indexed": true,
          "internalType": "address",
          "name": "controller",
          "type": "address"
        }
      ],
      "name": "ControllerAdded",
      "type": "event"
    },
    {
      "anonymous": false,
      "inputs": [
        {
          "indexed": true,
          "internalType": "address",
          "name": "controller",
          "type": "address"
        }
      ],
      "name": "ControllerRemoved",
      "type": "event"
    },
    {
      "anonymous": false,
      "inputs": [
        {
          "indexed": true,
          "internalType": "uint256",
          "name": "period",
          "type": "uint256"
        }
      ],
      "name": "GracePeriodChanged",
      "type": "event"
    },
    {
      "anonymous": false,
      "inputs": [
        {
          "indexed": true,
          "internalType": "uint256",
          "name": "cap",
          "type": "uint256"
        }
      ],
      "name": "MaxMintCapChanged",
      "type": "event"
    },
    {
      "anonymous": false,
      "inputs": [
        {
          "indexed": true,
          "internalType": "uint256",
          "name": "id",
          "type": "uint256"
        },
        {
          "indexed": true,
          "internalType": "address",
          "name": "owner",
          "type": "address"
        },
        {
          "indexed": false,
          "internalType": "uint256",
          "name": "expires",
          "type": "uint256"
        }
      ],
      "name": "NameMigrated",
      "type": "event"
    },
    {
      "anonymous": false,
      "inputs": [
        {
          "indexed": true,
          "internalType": "uint256",
          "name": "id",
          "type": "uint256"
        },
        {
          "indexed": true,
          "internalType": "address",
          "name": "owner",
          "type": "address"
        },
        {
          "indexed": false,
          "internalType": "uint256",
          "name": "expires",
          "type": "uint256"
        }
      ],
      "name": "NameRegistered",
      "type": "event"
    },
    {
      "anonymous": false,
      "inputs": [
        {
          "indexed": true,
          "internalType": "uint256",
          "name": "id",
          "type": "uint256"
        },
        {
          "indexed": false,
          "internalType": "uint256",
          "name": "expires",
          "type": "uint256"
        }
      ],
      "name": "NameRenewed",
      "type": "event"
    },
    {
      "anonymous": false,
      "inputs": [
        {
          "indexed": true,
          "internalType": "address",
          "name": "previousOwner",
          "type": "address"
        },
        {
          "indexed": true,
          "internalType": "address",
          "name": "newOwner",
          "type": "address"
        }
      ],
      "name": "OwnershipTransferred",
      "type": "event"
    },
    {
      "anonymous": false,
      "inputs": [
        {
          "indexed": false,
          "internalType": "address",
          "name": "account",
          "type": "address"
        }
      ],
      "name": "Paused",
      "type": "event"
    },
    {
      "anonymous": false,
      "inputs": [
        {
          "indexed": true,
          "internalType": "address",
          "name": "registrar",
          "type": "address"
        }
      ],
      "name": "ReservedNameRegistrarChanged",
      "type": "event"
    },
    {
      "anonymous": false,
      "inputs": [
        {
          "indexed": true,
          "internalType": "uint256",
          "name": "count",
          "type": "uint256"
        }
      ],
      "name": "ReservedTokenAdded",
      "type": "event"
    },
    {
      "anonymous": false,
      "inputs": [
        {
          "indexed": true,
          "internalType": "address",
          "name": "from",
          "type": "address"
        },
        {
          "indexed": true,
          "internalType": "address",
          "name": "to",
          "type": "address"
        },
        {
          "indexed": true,
          "internalType": "uint256",
          "name": "tokenId",
          "type": "uint256"
        }
      ],
      "name": "Transfer",
      "type": "event"
    },
    {
      "anonymous": false,
      "inputs": [
        {
          "indexed": false,
          "internalType": "address",
          "name": "account",
          "type": "address"
        }
      ],
      "name": "Unpaused",
      "type": "event"
    },
    {
      "inputs": [
        {
          "internalType": "address",
          "name": "controller",
          "type": "address"
        }
      ],
      "name": "addController",
      "outputs": [],
      "stateMutability": "nonpayable",
      "type": "function"
    },
    {
      "inputs": [
        {
          "internalType": "string[]",
          "name": "labelNames",
          "type": "string[]"
        }
      ],
      "name": "addReservedLabelNames",
      "outputs": [],
      "stateMutability": "nonpayable",
      "type": "function"
    },
    {
      "inputs": [
        {
          "internalType": "address",
          "name": "to",
          "type": "address"
        },
        {
          "internalType": "uint256",
          "name": "tokenId",
          "type": "uint256"
        }
      ],
      "name": "approve",
      "outputs": [],
      "stateMutability": "nonpayable",
      "type": "function"
    },
    {
      "inputs": [
        {
          "internalType": "uint256",
          "name": "id",
          "type": "uint256"
        }
      ],
      "name": "available",
      "outputs": [
        {
          "internalType": "bool",
          "name": "",
          "type": "bool"
        }
      ],
      "stateMutability": "view",
      "type": "function"
    },
    {
      "inputs": [
        {
          "internalType": "address",
          "name": "owner",
          "type": "address"
        }
      ],
      "name": "balanceOf",
      "outputs": [
        {
          "internalType": "uint256",
          "name": "",
          "type": "uint256"
        }
      ],
      "stateMutability": "view",
      "type": "function"
    },
    {
      "inputs": [],
      "name": "baseNode",
      "outputs": [
        {
          "internalType": "bytes32",
          "name": "",
          "type": "bytes32"
        }
      ],
      "stateMutability": "view",
      "type": "function"
    },
    {
      "inputs": [],
      "name": "baseURI",
      "outputs": [
        {
          "internalType": "string",
          "name": "",
          "type": "string"
        }
      ],
      "stateMutability": "view",
      "type": "function"
    },
    {
      "inputs": [
        {
          "internalType": "address",
          "name": "registrar",
          "type": "address"
        }
      ],
      "name": "canRegisterReservedId",
      "outputs": [
        {
          "internalType": "bool",
          "name": "",
          "type": "bool"
        }
      ],
      "stateMutability": "view",
      "type": "function"
    },
    {
      "inputs": [
        {
          "internalType": "address",
          "name": "",
          "type": "address"
        }
      ],
      "name": "controllers",
      "outputs": [
        {
          "internalType": "bool",
          "name": "",
          "type": "bool"
        }
      ],
      "stateMutability": "view",
      "type": "function"
    },
    {
      "inputs": [
        {
          "internalType": "uint256",
          "name": "tokenId",
          "type": "uint256"
        }
      ],
      "name": "getApproved",
      "outputs": [
        {
          "internalType": "address",
          "name": "",
          "type": "address"
        }
      ],
      "stateMutability": "view",
      "type": "function"
    },
    {
      "inputs": [],
      "name": "getReservedDomains",
      "outputs": [
        {
          "components": [
            {
              "internalType": "uint256",
              "name": "id",
              "type": "uint256"
            },
            {
              "internalType": "string",
              "name": "labelName",
              "type": "string"
            }
          ],
          "internalType": "struct ReservedDomain[]",
          "name": "results",
          "type": "tuple[]"
        }
      ],
      "stateMutability": "view",
      "type": "function"
    },
    {
      "inputs": [],
      "name": "gracePeriod",
      "outputs": [
        {
          "internalType": "uint256",
          "name": "",
          "type": "uint256"
        }
      ],
      "stateMutability": "view",
      "type": "function"
    },
    {
      "inputs": [
        {
          "internalType": "address",
          "name": "owner",
          "type": "address"
        },
        {
          "internalType": "address",
          "name": "operator",
          "type": "address"
        }
      ],
      "name": "isApprovedForAll",
      "outputs": [
        {
          "internalType": "bool",
          "name": "",
          "type": "bool"
        }
      ],
      "stateMutability": "view",
      "type": "function"
    },
    {
      "inputs": [
        {
          "internalType": "uint256",
          "name": "id",
          "type": "uint256"
        }
      ],
      "name": "isTokenIdReserved",
      "outputs": [
        {
          "internalType": "bool",
          "name": "",
          "type": "bool"
        }
      ],
      "stateMutability": "view",
      "type": "function"
    },
    {
      "inputs": [],
      "name": "maxMintPerUser",
      "outputs": [
        {
          "internalType": "uint256",
          "name": "",
          "type": "uint256"
        }
      ],
      "stateMutability": "view",
      "type": "function"
    },
    {
      "inputs": [],
      "name": "mid",
      "outputs": [
        {
          "internalType": "contract MID",
          "name": "",
          "type": "address"
        }
      ],
      "stateMutability": "view",
      "type": "function"
    },
    {
      "inputs": [],
      "name": "name",
      "outputs": [
        {
          "internalType": "string",
          "name": "",
          "type": "string"
        }
      ],
      "stateMutability": "view",
      "type": "function"
    },
    {
      "inputs": [
        {
          "internalType": "uint256",
          "name": "id",
          "type": "uint256"
        }
      ],
      "name": "nameExpires",
      "outputs": [
        {
          "internalType": "uint256",
          "name": "",
          "type": "uint256"
        }
      ],
      "stateMutability": "view",
      "type": "function"
    },
    {
      "inputs": [],
      "name": "owner",
      "outputs": [
        {
          "internalType": "address",
          "name": "",
          "type": "address"
        }
      ],
      "stateMutability": "view",
      "type": "function"
    },
    {
      "inputs": [
        {
          "internalType": "uint256",
          "name": "tokenId",
          "type": "uint256"
        }
      ],
      "name": "ownerOf",
      "outputs": [
        {
          "internalType": "address",
          "name": "",
          "type": "address"
        }
      ],
      "stateMutability": "view",
      "type": "function"
    },
    {
      "inputs": [],
      "name": "pause",
      "outputs": [],
      "stateMutability": "nonpayable",
      "type": "function"
    },
    {
      "inputs": [],
      "name": "paused",
      "outputs": [
        {
          "internalType": "bool",
          "name": "",
          "type": "bool"
        }
      ],
      "stateMutability": "view",
      "type": "function"
    },
    {
      "inputs": [
        {
          "internalType": "uint256",
          "name": "id",
          "type": "uint256"
        },
        {
          "internalType": "address",
          "name": "owner",
          "type": "address"
        }
      ],
      "name": "reclaim",
      "outputs": [],
      "stateMutability": "nonpayable",
      "type": "function"
    },
    {
      "inputs": [
        {
          "internalType": "uint256",
          "name": "id",
          "type": "uint256"
        },
        {
          "internalType": "address",
          "name": "owner",
          "type": "address"
        },
        {
          "internalType": "uint256",
          "name": "duration",
          "type": "uint256"
        }
      ],
      "name": "register",
      "outputs": [
        {
          "internalType": "uint256",
          "name": "",
          "type": "uint256"
        }
      ],
      "stateMutability": "nonpayable",
      "type": "function"
    },
    {
      "inputs": [
        {
          "internalType": "uint256",
          "name": "id",
          "type": "uint256"
        },
        {
          "internalType": "address",
          "name": "owner",
          "type": "address"
        },
        {
          "internalType": "uint256",
          "name": "duration",
          "type": "uint256"
        }
      ],
      "name": "registerOnly",
      "outputs": [
        {
          "internalType": "uint256",
          "name": "",
          "type": "uint256"
        }
      ],
      "stateMutability": "nonpayable",
      "type": "function"
    },
    {
      "inputs": [
        {
          "internalType": "address",
          "name": "controller",
          "type": "address"
        }
      ],
      "name": "removeController",
      "outputs": [],
      "stateMutability": "nonpayable",
      "type": "function"
    },
    {
      "inputs": [
        {
          "internalType": "uint256",
          "name": "id",
          "type": "uint256"
        },
        {
          "internalType": "uint256",
          "name": "duration",
          "type": "uint256"
        }
      ],
      "name": "renew",
      "outputs": [
        {
          "internalType": "uint256",
          "name": "",
          "type": "uint256"
        }
      ],
      "stateMutability": "nonpayable",
      "type": "function"
    },
    {
      "inputs": [],
      "name": "renounceOwnership",
      "outputs": [],
      "stateMutability": "nonpayable",
      "type": "function"
    },
    {
      "inputs": [],
      "name": "reservedIDRegistrar",
      "outputs": [
        {
          "internalType": "address",
          "name": "",
          "type": "address"
        }
      ],
      "stateMutability": "view",
      "type": "function"
    },
    {
      "inputs": [
        {
          "internalType": "uint256",
          "name": "",
          "type": "uint256"
        }
      ],
      "name": "reservedTokenIds",
      "outputs": [
        {
          "internalType": "uint256",
          "name": "id",
          "type": "uint256"
        },
        {
          "internalType": "string",
          "name": "labelName",
          "type": "string"
        }
      ],
      "stateMutability": "view",
      "type": "function"
    },
    {
      "inputs": [
        {
          "internalType": "address",
          "name": "from",
          "type": "address"
        },
        {
          "internalType": "address",
          "name": "to",
          "type": "address"
        },
        {
          "internalType": "uint256",
          "name": "tokenId",
          "type": "uint256"
        }
      ],
      "name": "safeTransferFrom",
      "outputs": [],
      "stateMutability": "nonpayable",
      "type": "function"
    },
    {
      "inputs": [
        {
          "internalType": "address",
          "name": "from",
          "type": "address"
        },
        {
          "internalType": "address",
          "name": "to",
          "type": "address"
        },
        {
          "internalType": "uint256",
          "name": "tokenId",
          "type": "uint256"
        },
        {
          "internalType": "bytes",
          "name": "_data",
          "type": "bytes"
        }
      ],
      "name": "safeTransferFrom",
      "outputs": [],
      "stateMutability": "nonpayable",
      "type": "function"
    },
    {
      "inputs": [
        {
          "internalType": "address",
          "name": "operator",
          "type": "address"
        },
        {
          "internalType": "bool",
          "name": "approved",
          "type": "bool"
        }
      ],
      "name": "setApprovalForAll",
      "outputs": [],
      "stateMutability": "nonpayable",
      "type": "function"
    },
    {
      "inputs": [
        {
          "internalType": "string",
          "name": "baseURI_",
          "type": "string"
        }
      ],
      "name": "setBaseURI",
      "outputs": [],
      "stateMutability": "nonpayable",
      "type": "function"
    },
    {
      "inputs": [
        {
          "internalType": "uint256",
          "name": "gracePeriod_",
          "type": "uint256"
        }
      ],
      "name": "setGracePeriod",
      "outputs": [],
      "stateMutability": "nonpayable",
      "type": "function"
    },
    {
      "inputs": [
        {
          "internalType": "uint256",
          "name": "cap",
          "type": "uint256"
        }
      ],
      "name": "setMaxMintPerUser",
      "outputs": [],
      "stateMutability": "nonpayable",
      "type": "function"
    },
    {
      "inputs": [
        {
          "internalType": "address",
          "name": "registrar_",
          "type": "address"
        }
      ],
      "name": "setReservedIDRegistrar",
      "outputs": [],
      "stateMutability": "nonpayable",
      "type": "function"
    },
    {
      "inputs": [
        {
          "internalType": "address",
          "name": "resolver",
          "type": "address"
        }
      ],
      "name": "setResolver",
      "outputs": [],
      "stateMutability": "nonpayable",
      "type": "function"
    },
    {
      "inputs": [
        {
          "internalType": "bytes4",
          "name": "interfaceID",
          "type": "bytes4"
        }
      ],
      "name": "supportsInterface",
      "outputs": [
        {
          "internalType": "bool",
          "name": "",
          "type": "bool"
        }
      ],
      "stateMutability": "pure",
      "type": "function"
    },
    {
      "inputs": [],
      "name": "symbol",
      "outputs": [
        {
          "internalType": "string",
          "name": "",
          "type": "string"
        }
      ],
      "stateMutability": "view",
      "type": "function"
    },
    {
      "inputs": [
        {
          "internalType": "uint256",
          "name": "_index",
          "type": "uint256"
        }
      ],
      "name": "tokenByIndex",
      "outputs": [
        {
          "internalType": "uint256",
          "name": "",
          "type": "uint256"
        }
      ],
      "stateMutability": "view",
      "type": "function"
    },
    {
      "inputs": [
        {
          "internalType": "address",
          "name": "_owner",
          "type": "address"
        },
        {
          "internalType": "uint256",
          "name": "_index",
          "type": "uint256"
        }
      ],
      "name": "tokenOfOwnerByIndex",
      "outputs": [
        {
          "internalType": "uint256",
          "name": "",
          "type": "uint256"
        }
      ],
      "stateMutability": "view",
      "type": "function"
    },
    {
      "inputs": [
        {
          "internalType": "uint256",
          "name": "tokenId",
          "type": "uint256"
        }
      ],
      "name": "tokenURI",
      "outputs": [
        {
          "internalType": "string",
          "name": "",
          "type": "string"
        }
      ],
      "stateMutability": "view",
      "type": "function"
    },
    {
      "inputs": [
        {
          "internalType": "address",
          "name": "_owner",
          "type": "address"
        }
      ],
      "name": "tokensOfOwner",
      "outputs": [
        {
          "internalType": "uint256[]",
          "name": "",
          "type": "uint256[]"
        }
      ],
      "stateMutability": "view",
      "type": "function"
    },
    {
      "inputs": [],
      "name": "totalSupply",
      "outputs": [
        {
          "internalType": "uint256",
          "name": "",
          "type": "uint256"
        }
      ],
      "stateMutability": "view",
      "type": "function"
    },
    {
      "inputs": [
        {
          "internalType": "address",
          "name": "from",
          "type": "address"
        },
        {
          "internalType": "address",
          "name": "to",
          "type": "address"
        },
        {
          "internalType": "uint256",
          "name": "tokenId",
          "type": "uint256"
        }
      ],
      "name": "transferFrom",
      "outputs": [],
      "stateMutability": "nonpayable",
      "type": "function"
    },
    {
      "inputs": [
        {
          "internalType": "address",
          "name": "newOwner",
          "type": "address"
        }
      ],
      "name": "transferOwnership",
      "outputs": [],
      "stateMutability": "nonpayable",
      "type": "function"
    },
    {
      "inputs": [],
      "name": "unpause",
      "outputs": [],
      "stateMutability": "nonpayable",
      "type": "function"
    }
  ],
  "transactionHash": "0x2114a8183d65e77fcc469b52adf44a7b61f1ab2dbc1ec5d1e635dae5fdae9aba",
  "args": [
    "0x1AC13DE986239B8b38F957E7aB2ffc864184cf92",
    "0xdba5666821b22671387fe7ea11d7cc41ede85a5aa67c3e7b3d68ce6a661f389c"
  ],
  "numDeployments": 2,
  "solcInputHash": "6b90bab0db63675253029d7abb0eb162",
  "bytecode": "0x608060405262278d00600755678ac7230489e800006011553480156200002457600080fd5b50604051620061fc380380620061fc83398181016040528101906200004a91906200031f565b6040518060400160405280600e81526020017f4d6f6e7374657220446f6d61696e0000000000000000000000000000000000008152506040518060400160405280600381526020017f4d4944000000000000000000000000000000000000000000000000000000000081525060008060006101000a81548160ff021916908315150217905550620000f0620000e46200017460201b60201c565b6200017c60201b60201c565b81600190805190602001906200010892919062000241565b5080600290805190602001906200012192919062000241565b50505081600860006101000a81548173ffffffffffffffffffffffffffffffffffffffff021916908373ffffffffffffffffffffffffffffffffffffffff1602179055508060098190555050506200044b565b600033905090565b60008060019054906101000a900473ffffffffffffffffffffffffffffffffffffffff16905081600060016101000a81548173ffffffffffffffffffffffffffffffffffffffff021916908373ffffffffffffffffffffffffffffffffffffffff1602179055508173ffffffffffffffffffffffffffffffffffffffff168173ffffffffffffffffffffffffffffffffffffffff167f8be0079c531659141344cd1fd0a4f28419497f9722a3daafe3b4186f6b6457e060405160405180910390a35050565b8280546200024f90620003b2565b90600052602060002090601f016020900481019282620002735760008555620002bf565b82601f106200028e57805160ff1916838001178555620002bf565b82800160010185558215620002bf579182015b82811115620002be578251825591602001919060010190620002a1565b5b509050620002ce9190620002d2565b5090565b5b80821115620002ed576000816000905550600101620002d3565b5090565b600081519050620003028162000417565b92915050565b600081519050620003198162000431565b92915050565b600080604083850312156200033357600080fd5b6000620003438582860162000308565b92505060206200035685828601620002f1565b9150509250929050565b60006200036d8262000392565b9050919050565b6000819050919050565b60006200038b8262000360565b9050919050565b600073ffffffffffffffffffffffffffffffffffffffff82169050919050565b60006002820490506001821680620003cb57607f821691505b60208210811415620003e257620003e1620003e8565b5b50919050565b7f4e487b7100000000000000000000000000000000000000000000000000000000600052602260045260246000fd5b620004228162000374565b81146200042e57600080fd5b50565b6200043c816200037e565b81146200044857600080fd5b50565b615da1806200045b6000396000f3fe608060405234801561001057600080fd5b50600436106102a05760003560e01c80638456cb5911610167578063c475abff116100ce578063e80e31da11610087578063e80e31da1461084c578063e985e9c51461087c578063f2f65960146108ac578063f2fde38b146108c8578063f6a74ed7146108e4578063fca247ac14610900576102a0565b8063c475abff14610750578063c87b56dd14610780578063d304c4bc146107b0578063d6e4fa86146107ce578063da8c229e146107fe578063ddf7fcb01461082e576102a0565b8063a06db7dc11610120578063a06db7dc146106a4578063a22cb465146106c2578063a7fc7a07146106de578063aa19dbc0146106fa578063b6c1bf4714610716578063b88d4fde14610734576102a0565b80638456cb59146105e25780638462151c146105ec5780638da5cb5b1461061c5780638eaba75d1461063a57806395d89b411461065657806396e494e814610674576102a0565b806342842e0e1161020b5780635c975abb116101c45780635c975abb146105205780636352211e1461053e5780636c0360eb1461056e57806370a082311461058c578063715018a6146105bc57806383ccaef7146105c6576102a0565b806342842e0e1461044d5780634e543b26146104695780634f6ccce71461048557806355f804b3146104b5578063583eeb1f146104d1578063594d04dc146104ef576102a0565b806323b872dd1161025d57806323b872dd1461038d57806328ed4f6c146103a95780632e94420f146103c55780632f745c59146103e35780633f4ba83a146104135780633f5124691461041d576102a0565b806301ffc9a7146102a557806306fdde03146102d5578063081812fc146102f3578063095ea7b3146103235780630e297b451461033f57806318160ddd1461036f575b600080fd5b6102bf60048036038101906102ba91906144ce565b610930565b6040516102cc9190614e1f565b60405180910390f35b6102dd610b7a565b6040516102ea9190614ed0565b60405180910390f35b61030d60048036038101906103089190614561565b610c0c565b60405161031a9190614d74565b60405180910390f35b61033d60048036038101906103389190614428565b610c52565b005b610359600480360381019061035491906145c6565b610d6a565b6040516103669190615292565b60405180910390f35b610377610d82565b6040516103849190615292565b60405180910390f35b6103a760048036038101906103a29190614322565b610d8f565b005b6103c360048036038101906103be919061458a565b610ea6565b005b6103cd6110cc565b6040516103da9190614eb5565b60405180910390f35b6103fd60048036038101906103f89190614428565b6110f2565b60405161040a9190615292565b60405180910390f35b61041b611202565b005b61043760048036038101906104329190614294565b611214565b6040516104449190614e1f565b60405180910390f35b61046760048036038101906104629190614322565b61126e565b005b610483600480360381019061047e9190614294565b61128e565b005b61049f600480360381019061049a9190614561565b61132a565b6040516104ac9190615292565b60405180910390f35b6104cf60048036038101906104ca9190614520565b6113bf565b005b6104d9611424565b6040516104e69190614d74565b60405180910390f35b61050960048036038101906105049190614561565b61144a565b6040516105179291906152ad565b60405180910390f35b610528611506565b6040516105359190614e1f565b60405180910390f35b61055860048036038101906105539190614561565b61151c565b6040516105659190614d74565b60405180910390f35b610576611583565b6040516105839190614ed0565b60405180910390f35b6105a660048036038101906105a19190614294565b611611565b6040516105b39190615292565b60405180910390f35b6105c46116c9565b005b6105e060048036038101906105db9190614561565b6116dd565b005b6105ea61175f565b005b61060660048036038101906106019190614294565b611771565b6040516106139190614dfd565b60405180910390f35b610624611808565b6040516106319190614d74565b60405180910390f35b610654600480360381019061064f9190614464565b611831565b005b61065e61199b565b60405161066b9190614ed0565b60405180910390f35b61068e60048036038101906106899190614561565b611a2d565b60405161069b9190614e1f565b60405180910390f35b6106ac611a59565b6040516106b99190615292565b60405180910390f35b6106dc60048036038101906106d791906143ec565b611a5f565b005b6106f860048036038101906106f39190614294565b611a75565b005b610714600480360381019061070f9190614294565b611b1b565b005b61071e611c3c565b60405161072b9190614ddb565b60405180910390f35b61074e60048036038101906107499190614371565b611e17565b005b61076a60048036038101906107659190614615565b611f30565b6040516107779190615292565b60405180910390f35b61079a60048036038101906107959190614561565b61224e565b6040516107a79190614ed0565b60405180910390f35b6107b86122f6565b6040516107c59190615292565b60405180910390f35b6107e860048036038101906107e39190614561565b6122fc565b6040516107f59190615292565b60405180910390f35b61081860048036038101906108139190614294565b612319565b6040516108259190614e1f565b60405180910390f35b610836612339565b6040516108439190614e3a565b60405180910390f35b61086660048036038101906108619190614561565b61233f565b6040516108739190614e1f565b60405180910390f35b610896600480360381019061089191906142e6565b61235c565b6040516108a39190614e1f565b60405180910390f35b6108c660048036038101906108c19190614561565b6123f0565b005b6108e260048036038101906108dd9190614294565b612431565b005b6108fe60048036038101906108f99190614294565b6124b5565b005b61091a600480360381019061091591906145c6565b61255b565b6040516109279190615292565b60405180910390f35b60007f01ffc9a7a5cef8baa21ed3c5c0d7e23accb804b619e9333b597f47a0d84076e27bffffffffffffffffffffffffffffffffffffffffffffffffffffffff1916827bffffffffffffffffffffffffffffffffffffffffffffffffffffffff19161480610b0b57507fb88d4fde60196325a28bb7f99a2582e0b46de55b18761e960c14ad7a320994657f42842e0eb38857a7775b4e7364b2775df7325074d088e7fb39590cd6281184ed7f23b872dd7302113369cda2901243429419bec145408fa8b352b3dd92b66c680b7fe985e9c5c6636c6879256001057b28ccac7718ef0ac56553ff9b926452cab8a37fa22cb4651ab9570f89bb516380c40ce76762284fb1f21337ceaf6adab99e7d4a7f081812fc55e34fdc7cf5d8b5cf4e3621fa6423fde952ec6ab24afdc0d85c0b2e7f095ea7b334ae44009aa867bfb386f5c3b4b443ac6f0ee573fa91c4608fbadfba7f6352211e6566aa027e75ac9dbf2423197fbd9b82b9d981a3ab367d355866aa1c7f70a08231b98ef4ca268c9cc3f6b4590e4bfec28280db06bb5d45e689f2a360be18181818181818187bffffffffffffffffffffffffffffffffffffffffffffffffffffffff1916827bffffffffffffffffffffffffffffffffffffffffffffffffffffffff1916145b80610b7357507f28ed4f6c74b219a5819055dfbcd2f1837c046c364cf01fabb6799e4f440d6f137bffffffffffffffffffffffffffffffffffffffffffffffffffffffff1916827bffffffffffffffffffffffffffffffffffffffffffffffffffffffff1916145b9050919050565b606060018054610b89906155d9565b80601f0160208091040260200160405190810160405280929190818152602001828054610bb5906155d9565b8015610c025780601f10610bd757610100808354040283529160200191610c02565b820191906000526020600020905b815481529060010190602001808311610be557829003601f168201915b5050505050905090565b6000610c1782612573565b6005600083815260200190815260200160002060009054906101000a900473ffffffffffffffffffffffffffffffffffffffff169050919050565b6000610c5d826125be565b90508073ffffffffffffffffffffffffffffffffffffffff168373ffffffffffffffffffffffffffffffffffffffff161415610cce576040517f08c379a0000000000000000000000000000000000000000000000000000000008152600401610cc590615212565b60405180910390fd5b8073ffffffffffffffffffffffffffffffffffffffff16610ced612645565b73ffffffffffffffffffffffffffffffffffffffff161480610d1c5750610d1b81610d16612645565b61235c565b5b610d5b576040517f08c379a0000000000000000000000000000000000000000000000000000000008152600401610d5290615232565b60405180910390fd5b610d65838361264d565b505050565b6000610d798484846000612706565b90509392505050565b6000601080549050905090565b610da0610d9a612645565b82612b7f565b610ddf576040517f08c379a0000000000000000000000000000000000000000000000000000000008152600401610dd690614f92565b60405180910390fd5b610dea838383612c14565b600860009054906101000a900473ffffffffffffffffffffffffffffffffffffffff1673ffffffffffffffffffffffffffffffffffffffff166306ab59236009548360001b856040518463ffffffff1660e01b8152600401610e4e93929190614e7e565b602060405180830381600087803b158015610e6857600080fd5b505af1158015610e7c573d6000803e3d6000fd5b505050506040513d601f19601f82011682018060405250810190610ea091906144a5565b50505050565b3073ffffffffffffffffffffffffffffffffffffffff16600860009054906101000a900473ffffffffffffffffffffffffffffffffffffffff1673ffffffffffffffffffffffffffffffffffffffff166302571be36009546040518263ffffffff1660e01b8152600401610f1a9190614e3a565b60206040518083038186803b158015610f3257600080fd5b505afa158015610f46573d6000803e3d6000fd5b505050506040513d601f19601f82011682018060405250810190610f6a91906142bd565b73ffffffffffffffffffffffffffffffffffffffff1614610fc0576040517f08c379a0000000000000000000000000000000000000000000000000000000008152600401610fb790615152565b60405180910390fd5b610fc8612f0e565b610fd23383612b7f565b611011576040517f08c379a000000000000000000000000000000000000000000000000000000000815260040161100890614ef2565b60405180910390fd5b600860009054906101000a900473ffffffffffffffffffffffffffffffffffffffff1673ffffffffffffffffffffffffffffffffffffffff166306ab59236009548460001b846040518463ffffffff1660e01b815260040161107593929190614e7e565b602060405180830381600087803b15801561108f57600080fd5b505af11580156110a3573d6000803e3d6000fd5b505050506040513d601f19601f820116820180604052508101906110c791906144a5565b505050565b600860009054906101000a900473ffffffffffffffffffffffffffffffffffffffff1681565b6000601360008473ffffffffffffffffffffffffffffffffffffffff1673ffffffffffffffffffffffffffffffffffffffff168152602001908152602001600020805490508210611178576040517f08c379a000000000000000000000000000000000000000000000000000000000815260040161116f90615272565b60405180910390fd5b601360008473ffffffffffffffffffffffffffffffffffffffff1673ffffffffffffffffffffffffffffffffffffffff16815260200190815260200160002082815481106111ef577f4e487b7100000000000000000000000000000000000000000000000000000000600052603260045260246000fd5b9060005260206000200154905092915050565b61120a612f58565b611212612fd6565b565b6000600c60009054906101000a900473ffffffffffffffffffffffffffffffffffffffff1673ffffffffffffffffffffffffffffffffffffffff168273ffffffffffffffffffffffffffffffffffffffff16149050919050565b61128983838360405180602001604052806000815250611e17565b505050565b611296612f58565b600860009054906101000a900473ffffffffffffffffffffffffffffffffffffffff1673ffffffffffffffffffffffffffffffffffffffff16631896f70a600954836040518363ffffffff1660e01b81526004016112f5929190614e55565b600060405180830381600087803b15801561130f57600080fd5b505af1158015611323573d6000803e3d6000fd5b5050505050565b60006010805490508210611373576040517f08c379a000000000000000000000000000000000000000000000000000000000815260040161136a90615272565b60405180910390fd5b601082815481106113ad577f4e487b7100000000000000000000000000000000000000000000000000000000600052603260045260246000fd5b90600052602060002001549050919050565b6113c7612f58565b80600f90805190602001906113dd929190613fc4565b50600f6040516113ed9190614d39565b60405180910390207f5411e8ebf1636d9e83d5fc4900bf80cbac82e8790da2a4c94db4895e889eedf660405160405180910390a250565b600c60009054906101000a900473ffffffffffffffffffffffffffffffffffffffff1681565b600d818154811061145a57600080fd5b9060005260206000209060020201600091509050806000015490806001018054611483906155d9565b80601f01602080910402602001604051908101604052809291908181526020018280546114af906155d9565b80156114fc5780601f106114d1576101008083540402835291602001916114fc565b820191906000526020600020905b8154815290600101906020018083116114df57829003601f168201915b5050505050905082565b60008060009054906101000a900460ff16905090565b600042600e60008481526020019081526020016000205411611573576040517f08c379a000000000000000000000000000000000000000000000000000000000815260040161156a906150d2565b60405180910390fd5b61157c826125be565b9050919050565b600f8054611590906155d9565b80601f01602080910402602001604051908101604052809291908181526020018280546115bc906155d9565b80156116095780601f106115de57610100808354040283529160200191611609565b820191906000526020600020905b8154815290600101906020018083116115ec57829003601f168201915b505050505081565b60008073ffffffffffffffffffffffffffffffffffffffff168273ffffffffffffffffffffffffffffffffffffffff161415611682576040517f08c379a000000000000000000000000000000000000000000000000000000000815260040161167990615112565b60405180910390fd5b600460008373ffffffffffffffffffffffffffffffffffffffff1673ffffffffffffffffffffffffffffffffffffffff168152602001908152602001600020549050919050565b6116d1612f58565b6116db6000613038565b565b6116e5612f58565b60008111611728576040517f08c379a000000000000000000000000000000000000000000000000000000000815260040161171f90614f12565b60405180910390fd5b80601181905550807fe2622cd4be2b8558947da70a95c567e89753cd7c1b12d32d2c2acbcb20516d6e60405160405180910390a250565b611767612f58565b61176f6130fd565b565b6060601360008373ffffffffffffffffffffffffffffffffffffffff1673ffffffffffffffffffffffffffffffffffffffff1681526020019081526020016000208054806020026020016040519081016040528092919081815260200182805480156117fc57602002820191906000526020600020905b8154815260200190600101908083116117e8575b50505050509050919050565b60008060019054906101000a900473ffffffffffffffffffffffffffffffffffffffff16905090565b611839612f58565b60005b8151811015611969576000828281518110611880577f4e487b7100000000000000000000000000000000000000000000000000000000600052603260045260246000fd5b602002602001015180519060200120905060008160001c90506118ad81600b61315f90919063ffffffff16565b600d60405180604001604052808381526020018686815181106118f9577f4e487b7100000000000000000000000000000000000000000000000000000000600052603260045260246000fd5b60200260200101518152509080600181540180825580915050600190039060005260206000209060020201600090919091909150600082015181600001556020820151816001019080519060200190611953929190613fc4565b5050505050806119629061563c565b905061183c565b5080517fa4c3cd462f158bd7d5585bea8b7cf141d737a95d93a4e277f6bb86aaf27f723360405160405180910390a250565b6060600280546119aa906155d9565b80601f01602080910402602001604051908101604052809291908181526020018280546119d6906155d9565b8015611a235780601f106119f857610100808354040283529160200191611a23565b820191906000526020600020905b815481529060010190602001808311611a0657829003601f168201915b5050505050905090565b600042600754600e600085815260200190815260200160002054611a51919061546b565b109050919050565b60075481565b611a71611a6a612645565b838361319d565b5050565b611a7d612f58565b6001600a60008373ffffffffffffffffffffffffffffffffffffffff1673ffffffffffffffffffffffffffffffffffffffff16815260200190815260200160002060006101000a81548160ff0219169083151502179055508073ffffffffffffffffffffffffffffffffffffffff167f0a8bb31534c0ed46f380cb867bd5c803a189ced9a764e30b3a4991a9901d747460405160405180910390a250565b611b23612f58565b600073ffffffffffffffffffffffffffffffffffffffff168173ffffffffffffffffffffffffffffffffffffffff161415611b93576040517f08c379a0000000000000000000000000000000000000000000000000000000008152600401611b8a90614f52565b60405180910390fd5b80600c60006101000a81548173ffffffffffffffffffffffffffffffffffffffff021916908373ffffffffffffffffffffffffffffffffffffffff160217905550600c60009054906101000a900473ffffffffffffffffffffffffffffffffffffffff1673ffffffffffffffffffffffffffffffffffffffff167f066fa6d1f1ef9fda39d214ef7b86b6cd568ad4e8966bcf943dc8a18ae9b0f85860405160405180910390a250565b6060600d8054905067ffffffffffffffff811115611c83577f4e487b7100000000000000000000000000000000000000000000000000000000600052604160045260246000fd5b604051908082528060200260200182016040528015611cbc57816020015b611ca961404a565b815260200190600190039081611ca15790505b50905060005b600d80549050811015611e1357600d8181548110611d09577f4e487b7100000000000000000000000000000000000000000000000000000000600052603260045260246000fd5b906000526020600020906002020160405180604001604052908160008201548152602001600182018054611d3c906155d9565b80601f0160208091040260200160405190810160405280929190818152602001828054611d68906155d9565b8015611db55780601f10611d8a57610100808354040283529160200191611db5565b820191906000526020600020905b815481529060010190602001808311611d9857829003601f168201915b505050505081525050828281518110611df7577f4e487b7100000000000000000000000000000000000000000000000000000000600052603260045260246000fd5b602002602001018190525080611e0c9061563c565b9050611cc2565b5090565b611e28611e22612645565b83612b7f565b611e67576040517f08c379a0000000000000000000000000000000000000000000000000000000008152600401611e5e90614f92565b60405180910390fd5b611e738484848461330a565b600860009054906101000a900473ffffffffffffffffffffffffffffffffffffffff1673ffffffffffffffffffffffffffffffffffffffff166306ab59236009548460001b866040518463ffffffff1660e01b8152600401611ed793929190614e7e565b602060405180830381600087803b158015611ef157600080fd5b505af1158015611f05573d6000803e3d6000fd5b505050506040513d601f19601f82011682018060405250810190611f2991906144a5565b5050505050565b60003073ffffffffffffffffffffffffffffffffffffffff16600860009054906101000a900473ffffffffffffffffffffffffffffffffffffffff1673ffffffffffffffffffffffffffffffffffffffff166302571be36009546040518263ffffffff1660e01b8152600401611fa69190614e3a565b60206040518083038186803b158015611fbe57600080fd5b505afa158015611fd2573d6000803e3d6000fd5b505050506040513d601f19601f82011682018060405250810190611ff691906142bd565b73ffffffffffffffffffffffffffffffffffffffff161461204c576040517f08c379a000000000000000000000000000000000000000000000000000000000815260040161204390615152565b60405180910390fd5b600a60003373ffffffffffffffffffffffffffffffffffffffff1673ffffffffffffffffffffffffffffffffffffffff16815260200190815260200160002060009054906101000a900460ff166120d8576040517f08c379a00000000000000000000000000000000000000000000000000000000081526004016120cf90615192565b60405180910390fd5b6120e0612f0e565b42600754600e600086815260200190815260200160002054612102919061546b565b1015612143576040517f08c379a000000000000000000000000000000000000000000000000000000000815260040161213a90615092565b60405180910390fd5b60075482612151919061546b565b60075483600e600087815260200190815260200160002054612173919061546b565b61217d919061546b565b116121bd576040517f08c379a00000000000000000000000000000000000000000000000000000000081526004016121b490615012565b60405180910390fd5b81600e600085815260200190815260200160002060008282546121e0919061546b565b92505081905550827f9b87a00e30f1ac65d898f070f8a3488fe60517182d0a2098e1b4b93a54aa9bd6600e60008681526020019081526020016000205460405161222a9190615292565b60405180910390a2600e600084815260200190815260200160002054905092915050565b606061225982613366565b612298576040517f08c379a000000000000000000000000000000000000000000000000000000000815260040161228f90615032565b60405180910390fd5b6000600f80546122a7906155d9565b9050116122c357604051806020016040528060008152506122ef565b600f6122ce836133a7565b6040516020016122df929190614d50565b6040516020818303038152906040525b9050919050565b60115481565b6000600e6000838152602001908152602001600020549050919050565b600a6020528060005260406000206000915054906101000a900460ff1681565b60095481565b600061235582600b6134cb90919063ffffffff16565b9050919050565b6000600660008473ffffffffffffffffffffffffffffffffffffffff1673ffffffffffffffffffffffffffffffffffffffff16815260200190815260200160002060008373ffffffffffffffffffffffffffffffffffffffff1673ffffffffffffffffffffffffffffffffffffffff16815260200190815260200160002060009054906101000a900460ff16905092915050565b6123f8612f58565b806007819055506007547fcc2c34a1adf0911114053f75b51b2b1f8fc9ef9e25f0a5f12f210032b5b0a1b260405160405180910390a250565b612439612f58565b600073ffffffffffffffffffffffffffffffffffffffff168173ffffffffffffffffffffffffffffffffffffffff1614156124a9576040517f08c379a00000000000000000000000000000000000000000000000000000000081526004016124a090614fb2565b60405180910390fd5b6124b281613038565b50565b6124bd612f58565b6000600a60008373ffffffffffffffffffffffffffffffffffffffff1673ffffffffffffffffffffffffffffffffffffffff16815260200190815260200160002060006101000a81548160ff0219169083151502179055508073ffffffffffffffffffffffffffffffffffffffff167f33d83959be2573f5453b12eb9d43b3499bc57d96bd2f067ba44803c859e8111360405160405180910390a250565b600061256a8484846001612706565b90509392505050565b61257c81613366565b6125bb576040517f08c379a00000000000000000000000000000000000000000000000000000000081526004016125b2906151f2565b60405180910390fd5b50565b6000806125ca83613507565b9050600073ffffffffffffffffffffffffffffffffffffffff168173ffffffffffffffffffffffffffffffffffffffff16141561263c576040517f08c379a0000000000000000000000000000000000000000000000000000000008152600401612633906151f2565b60405180910390fd5b80915050919050565b600033905090565b816005600083815260200190815260200160002060006101000a81548173ffffffffffffffffffffffffffffffffffffffff021916908373ffffffffffffffffffffffffffffffffffffffff160217905550808273ffffffffffffffffffffffffffffffffffffffff166126c0836125be565b73ffffffffffffffffffffffffffffffffffffffff167f8c5be1e5ebec7d5bd14f71427d1e84f3dd0314c0f7b2291e5b200ac8c7c3b92560405160405180910390a45050565b60003073ffffffffffffffffffffffffffffffffffffffff16600860009054906101000a900473ffffffffffffffffffffffffffffffffffffffff1673ffffffffffffffffffffffffffffffffffffffff166302571be36009546040518263ffffffff1660e01b815260040161277c9190614e3a565b60206040518083038186803b15801561279457600080fd5b505afa1580156127a8573d6000803e3d6000fd5b505050506040513d601f19601f820116820180604052508101906127cc91906142bd565b73ffffffffffffffffffffffffffffffffffffffff1614612822576040517f08c379a000000000000000000000000000000000000000000000000000000000815260040161281990615152565b60405180910390fd5b600a60003373ffffffffffffffffffffffffffffffffffffffff1673ffffffffffffffffffffffffffffffffffffffff16815260200190815260200160002060009054906101000a900460ff166128ae576040517f08c379a00000000000000000000000000000000000000000000000000000000081526004016128a590615192565b60405180910390fd5b6128b6612f0e565b6128bf85611a2d565b6128fe576040517f08c379a00000000000000000000000000000000000000000000000000000000081526004016128f590615252565b60405180910390fd5b6129078561233f565b8015612919575061291733611214565b155b15612959576040517f08c379a000000000000000000000000000000000000000000000000000000000815260040161295090615132565b60405180910390fd5b60075442612967919061546b565b6007548442612976919061546b565b612980919061546b565b116129c0576040517f08c379a00000000000000000000000000000000000000000000000000000000081526004016129b7906151d2565b60405180910390fd5b6011546129cc85611611565b10612a0c576040517f08c379a0000000000000000000000000000000000000000000000000000000008152600401612a03906150b2565b60405180910390fd5b8242612a18919061546b565b600e600087815260200190815260200160002081905550612a3885613366565b15612a4757612a4685613544565b5b612a518486613692565b8115612b0f57600860009054906101000a900473ffffffffffffffffffffffffffffffffffffffff1673ffffffffffffffffffffffffffffffffffffffff166306ab59236009548760001b876040518463ffffffff1660e01b8152600401612abb93929190614e7e565b602060405180830381600087803b158015612ad557600080fd5b505af1158015612ae9573d6000803e3d6000fd5b505050506040513d601f19601f82011682018060405250810190612b0d91906144a5565b505b8373ffffffffffffffffffffffffffffffffffffffff16857fb3d987963d01b2f68493b4bdb130988f157ea43070d4ad840fee0466ed9370d98542612b54919061546b565b604051612b619190615292565b60405180910390a38242612b75919061546b565b9050949350505050565b600080612b8b8361151c565b90508073ffffffffffffffffffffffffffffffffffffffff168473ffffffffffffffffffffffffffffffffffffffff161480612bfa57508373ffffffffffffffffffffffffffffffffffffffff16612be284610c0c565b73ffffffffffffffffffffffffffffffffffffffff16145b80612c0b5750612c0a818561235c565b5b91505092915050565b8273ffffffffffffffffffffffffffffffffffffffff16612c34826125be565b73ffffffffffffffffffffffffffffffffffffffff1614612c8a576040517f08c379a0000000000000000000000000000000000000000000000000000000008152600401612c8190614fd2565b60405180910390fd5b600073ffffffffffffffffffffffffffffffffffffffff168273ffffffffffffffffffffffffffffffffffffffff161415612cfa576040517f08c379a0000000000000000000000000000000000000000000000000000000008152600401612cf190615052565b60405180910390fd5b612d0783838360016136f2565b8273ffffffffffffffffffffffffffffffffffffffff16612d27826125be565b73ffffffffffffffffffffffffffffffffffffffff1614612d7d576040517f08c379a0000000000000000000000000000000000000000000000000000000008152600401612d7490614fd2565b60405180910390fd5b6005600082815260200190815260200160002060006101000a81549073ffffffffffffffffffffffffffffffffffffffff02191690556001600460008573ffffffffffffffffffffffffffffffffffffffff1673ffffffffffffffffffffffffffffffffffffffff168152602001908152602001600020600082825403925050819055506001600460008473ffffffffffffffffffffffffffffffffffffffff1673ffffffffffffffffffffffffffffffffffffffff16815260200190815260200160002060008282540192505081905550816003600083815260200190815260200160002060006101000a81548173ffffffffffffffffffffffffffffffffffffffff021916908373ffffffffffffffffffffffffffffffffffffffff160217905550808273ffffffffffffffffffffffffffffffffffffffff168473ffffffffffffffffffffffffffffffffffffffff167fddf252ad1be2c89b69c2b068fc378daa952ba7f163c4a11628f55a4df523b3ef60405160405180910390a4612f098383836001613818565b505050565b612f16611506565b15612f56576040517f08c379a0000000000000000000000000000000000000000000000000000000008152600401612f4d906150f2565b60405180910390fd5b565b612f60612645565b73ffffffffffffffffffffffffffffffffffffffff16612f7e611808565b73ffffffffffffffffffffffffffffffffffffffff1614612fd4576040517f08c379a0000000000000000000000000000000000000000000000000000000008152600401612fcb906151b2565b60405180910390fd5b565b612fde61381e565b60008060006101000a81548160ff0219169083151502179055507f5db9ee0a495bf2e6ff9c91a7834c1ba4fdd244a5e8aa4e537bd38aeae4b073aa613021612645565b60405161302e9190614d74565b60405180910390a1565b60008060019054906101000a900473ffffffffffffffffffffffffffffffffffffffff16905081600060016101000a81548173ffffffffffffffffffffffffffffffffffffffff021916908373ffffffffffffffffffffffffffffffffffffffff1602179055508173ffffffffffffffffffffffffffffffffffffffff168173ffffffffffffffffffffffffffffffffffffffff167f8be0079c531659141344cd1fd0a4f28419497f9722a3daafe3b4186f6b6457e060405160405180910390a35050565b613105612f0e565b60016000806101000a81548160ff0219169083151502179055507f62e78cea01bee320cd4e420270b5ea74000d11b0c9f74754ebdbfc544b05a258613148612645565b6040516131559190614d74565b60405180910390a1565b6000600882901c9050600060ff83166001901b9050808460000160008481526020019081526020016000206000828254179250508190555050505050565b8173ffffffffffffffffffffffffffffffffffffffff168373ffffffffffffffffffffffffffffffffffffffff16141561320c576040517f08c379a000000000000000000000000000000000000000000000000000000000815260040161320390615072565b60405180910390fd5b80600660008573ffffffffffffffffffffffffffffffffffffffff1673ffffffffffffffffffffffffffffffffffffffff16815260200190815260200160002060008473ffffffffffffffffffffffffffffffffffffffff1673ffffffffffffffffffffffffffffffffffffffff16815260200190815260200160002060006101000a81548160ff0219169083151502179055508173ffffffffffffffffffffffffffffffffffffffff168373ffffffffffffffffffffffffffffffffffffffff167f17307eab39ab6107e8899845ad3d59bd9653f200f220920489ca2b5937696c31836040516132fd9190614e1f565b60405180910390a3505050565b613315848484612c14565b61332184848484613867565b613360576040517f08c379a000000000000000000000000000000000000000000000000000000000815260040161335790614f72565b60405180910390fd5b50505050565b60008073ffffffffffffffffffffffffffffffffffffffff1661338883613507565b73ffffffffffffffffffffffffffffffffffffffff1614159050919050565b6060600060016133b6846139fe565b01905060008167ffffffffffffffff8111156133fb577f4e487b7100000000000000000000000000000000000000000000000000000000600052604160045260246000fd5b6040519080825280601f01601f19166020018201604052801561342d5781602001600182028036833780820191505090505b509050600082602001820190505b6001156134c0578080600190039150507f3031323334353637383961626364656600000000000000000000000000000000600a86061a8153600a85816134aa577f4e487b7100000000000000000000000000000000000000000000000000000000600052601260045260246000fd5b04945060008514156134bb576134c0565b61343b565b819350505050919050565b600080600883901c9050600060ff84166001901b9050600081866000016000858152602001908152602001600020541614159250505092915050565b60006003600083815260200190815260200160002060009054906101000a900473ffffffffffffffffffffffffffffffffffffffff169050919050565b61354d81613c35565b6000601260008381526020019081526020016000205490506000600160108054905061357991906154c1565b90506000601082815481106135b7577f4e487b7100000000000000000000000000000000000000000000000000000000600052603260045260246000fd5b9060005260206000200154905080601084815481106135ff577f4e487b7100000000000000000000000000000000000000000000000000000000600052603260045260246000fd5b90600052602060002001819055506010805480613645577f4e487b7100000000000000000000000000000000000000000000000000000000600052603160045260246000fd5b600190038181906000526020600020016000905590558260126000838152602001908152602001600020819055506000601260008681526020019081526020016000208190555050505050565b61369c8282613d83565b601081908060018154018082558091505060019003906000526020600020016000909190919091505560016010805490506136d791906154c1565b60126000838152602001908152602001600020819055505050565b600181111561381257600073ffffffffffffffffffffffffffffffffffffffff168473ffffffffffffffffffffffffffffffffffffffff16146137865780600460008673ffffffffffffffffffffffffffffffffffffffff1673ffffffffffffffffffffffffffffffffffffffff168152602001908152602001600020600082825461377e91906154c1565b925050819055505b600073ffffffffffffffffffffffffffffffffffffffff168373ffffffffffffffffffffffffffffffffffffffff16146138115780600460008573ffffffffffffffffffffffffffffffffffffffff1673ffffffffffffffffffffffffffffffffffffffff1681526020019081526020016000206000828254613809919061546b565b925050819055505b5b50505050565b50505050565b613826611506565b613865576040517f08c379a000000000000000000000000000000000000000000000000000000000815260040161385c90614f32565b60405180910390fd5b565b60006138888473ffffffffffffffffffffffffffffffffffffffff16613fa1565b156139f1578373ffffffffffffffffffffffffffffffffffffffff1663150b7a026138b1612645565b8786866040518563ffffffff1660e01b81526004016138d39493929190614d8f565b602060405180830381600087803b1580156138ed57600080fd5b505af192505050801561391e57506040513d601f19601f8201168201806040525081019061391b91906144f7565b60015b6139a1573d806000811461394e576040519150601f19603f3d011682016040523d82523d6000602084013e613953565b606091505b50600081511415613999576040517f08c379a000000000000000000000000000000000000000000000000000000000815260040161399090614f72565b60405180910390fd5b805181602001fd5b63150b7a0260e01b7bffffffffffffffffffffffffffffffffffffffffffffffffffffffff1916817bffffffffffffffffffffffffffffffffffffffffffffffffffffffff1916149150506139f6565b600190505b949350505050565b600080600090507a184f03e93ff9f4daa797ed6e38ed64bf6a1f0100000000000000008310613a82577a184f03e93ff9f4daa797ed6e38ed64bf6a1f0100000000000000008381613a78577f4e487b7100000000000000000000000000000000000000000000000000000000600052601260045260246000fd5b0492506040810190505b6d04ee2d6d415b85acef81000000008310613ae5576d04ee2d6d415b85acef81000000008381613adb577f4e487b7100000000000000000000000000000000000000000000000000000000600052601260045260246000fd5b0492506020810190505b662386f26fc100008310613b3a57662386f26fc100008381613b30577f4e487b7100000000000000000000000000000000000000000000000000000000600052601260045260246000fd5b0492506010810190505b6305f5e1008310613b89576305f5e1008381613b7f577f4e487b7100000000000000000000000000000000000000000000000000000000600052601260045260246000fd5b0492506008810190505b6127108310613bd4576127108381613bca577f4e487b7100000000000000000000000000000000000000000000000000000000600052601260045260246000fd5b0492506004810190505b60648310613c1d5760648381613c13577f4e487b7100000000000000000000000000000000000000000000000000000000600052601260045260246000fd5b0492506002810190505b600a8310613c2c576001810190505b80915050919050565b6000613c40826125be565b9050613c508160008460016136f2565b613c59826125be565b90506005600083815260200190815260200160002060006101000a81549073ffffffffffffffffffffffffffffffffffffffff02191690556001600460008373ffffffffffffffffffffffffffffffffffffffff1673ffffffffffffffffffffffffffffffffffffffff168152602001908152602001600020600082825403925050819055506003600083815260200190815260200160002060006101000a81549073ffffffffffffffffffffffffffffffffffffffff021916905581600073ffffffffffffffffffffffffffffffffffffffff168273ffffffffffffffffffffffffffffffffffffffff167fddf252ad1be2c89b69c2b068fc378daa952ba7f163c4a11628f55a4df523b3ef60405160405180910390a4613d7f816000846001613818565b5050565b600073ffffffffffffffffffffffffffffffffffffffff168273ffffffffffffffffffffffffffffffffffffffff161415613df3576040517f08c379a0000000000000000000000000000000000000000000000000000000008152600401613dea90615172565b60405180910390fd5b613dfc81613366565b15613e3c576040517f08c379a0000000000000000000000000000000000000000000000000000000008152600401613e3390614ff2565b60405180910390fd5b613e4a6000838360016136f2565b613e5381613366565b15613e93576040517f08c379a0000000000000000000000000000000000000000000000000000000008152600401613e8a90614ff2565b60405180910390fd5b6001600460008473ffffffffffffffffffffffffffffffffffffffff1673ffffffffffffffffffffffffffffffffffffffff16815260200190815260200160002060008282540192505081905550816003600083815260200190815260200160002060006101000a81548173ffffffffffffffffffffffffffffffffffffffff021916908373ffffffffffffffffffffffffffffffffffffffff160217905550808273ffffffffffffffffffffffffffffffffffffffff16600073ffffffffffffffffffffffffffffffffffffffff167fddf252ad1be2c89b69c2b068fc378daa952ba7f163c4a11628f55a4df523b3ef60405160405180910390a4613f9d600083836001613818565b5050565b6000808273ffffffffffffffffffffffffffffffffffffffff163b119050919050565b828054613fd0906155d9565b90600052602060002090601f016020900481019282613ff25760008555614039565b82601f1061400b57805160ff1916838001178555614039565b82800160010185558215614039579182015b8281111561403857825182559160200191906001019061401d565b5b5090506140469190614064565b5090565b604051806040016040528060008152602001606081525090565b5b8082111561407d576000816000905550600101614065565b5090565b600061409461408f84615302565b6152dd565b905080838252602082019050828560208602820111156140b357600080fd5b60005b858110156140fd57813567ffffffffffffffff8111156140d557600080fd5b8086016140e28982614255565b855260208501945060208401935050506001810190506140b6565b5050509392505050565b600061411a6141158461532e565b6152dd565b90508281526020810184848401111561413257600080fd5b61413d848285615597565b509392505050565b60006141586141538461535f565b6152dd565b90508281526020810184848401111561417057600080fd5b61417b848285615597565b509392505050565b60008135905061419281615cf8565b92915050565b6000815190506141a781615cf8565b92915050565b600082601f8301126141be57600080fd5b81356141ce848260208601614081565b91505092915050565b6000813590506141e681615d0f565b92915050565b6000815190506141fb81615d26565b92915050565b60008135905061421081615d3d565b92915050565b60008151905061422581615d3d565b92915050565b600082601f83011261423c57600080fd5b813561424c848260208601614107565b91505092915050565b600082601f83011261426657600080fd5b8135614276848260208601614145565b91505092915050565b60008135905061428e81615d54565b92915050565b6000602082840312156142a657600080fd5b60006142b484828501614183565b91505092915050565b6000602082840312156142cf57600080fd5b60006142dd84828501614198565b91505092915050565b600080604083850312156142f957600080fd5b600061430785828601614183565b925050602061431885828601614183565b9150509250929050565b60008060006060848603121561433757600080fd5b600061434586828701614183565b935050602061435686828701614183565b92505060406143678682870161427f565b9150509250925092565b6000806000806080858703121561438757600080fd5b600061439587828801614183565b94505060206143a687828801614183565b93505060406143b78782880161427f565b925050606085013567ffffffffffffffff8111156143d457600080fd5b6143e08782880161422b565b91505092959194509250565b600080604083850312156143ff57600080fd5b600061440d85828601614183565b925050602061441e858286016141d7565b9150509250929050565b6000806040838503121561443b57600080fd5b600061444985828601614183565b925050602061445a8582860161427f565b9150509250929050565b60006020828403121561447657600080fd5b600082013567ffffffffffffffff81111561449057600080fd5b61449c848285016141ad565b91505092915050565b6000602082840312156144b757600080fd5b60006144c5848285016141ec565b91505092915050565b6000602082840312156144e057600080fd5b60006144ee84828501614201565b91505092915050565b60006020828403121561450957600080fd5b600061451784828501614216565b91505092915050565b60006020828403121561453257600080fd5b600082013567ffffffffffffffff81111561454c57600080fd5b61455884828501614255565b91505092915050565b60006020828403121561457357600080fd5b60006145818482850161427f565b91505092915050565b6000806040838503121561459d57600080fd5b60006145ab8582860161427f565b92505060206145bc85828601614183565b9150509250929050565b6000806000606084860312156145db57600080fd5b60006145e98682870161427f565b93505060206145fa86828701614183565b925050604061460b8682870161427f565b9150509250925092565b6000806040838503121561462857600080fd5b60006146368582860161427f565b92505060206146478582860161427f565b9150509250929050565b600061465d8383614cde565b905092915050565b60006146718383614d1b565b60208301905092915050565b614686816154f5565b82525050565b6000614697826153c5565b6146a1818561540b565b9350836020820285016146b385615390565b8060005b858110156146ef57848403895281516146d08582614651565b94506146db836153f1565b925060208a019950506001810190506146b7565b50829750879550505050505092915050565b600061470c826153d0565b614716818561541c565b9350614721836153a0565b8060005b838110156147525781516147398882614665565b9750614744836153fe565b925050600181019050614725565b5085935050505092915050565b61476881615507565b82525050565b61477781615513565b82525050565b6000614788826153db565b614792818561542d565b93506147a28185602086016155a6565b6147ab81615712565b840191505092915050565b6147bf81615573565b82525050565b60006147d0826153e6565b6147da818561543e565b93506147ea8185602086016155a6565b6147f381615712565b840191505092915050565b6000614809826153e6565b614813818561544f565b93506148238185602086016155a6565b61482c81615712565b840191505092915050565b6000614842826153e6565b61484c8185615460565b935061485c8185602086016155a6565b80840191505092915050565b60008154614875816155d9565b61487f8186615460565b9450600182166000811461489a57600181146148ab576148de565b60ff198316865281860193506148de565b6148b4856153b0565b60005b838110156148d6578154818901526001820191506020810190506148b7565b838801955050505b50505092915050565b60006148f460158361544f565b91506148ff82615723565b602082019050919050565b600061491760108361544f565b91506149228261574c565b602082019050919050565b600061493a60148361544f565b915061494582615775565b602082019050919050565b600061495d60118361544f565b91506149688261579e565b602082019050919050565b600061498060328361544f565b915061498b826157c7565b604082019050919050565b60006149a360278361544f565b91506149ae82615816565b604082019050919050565b60006149c660268361544f565b91506149d182615865565b604082019050919050565b60006149e960258361544f565b91506149f4826158b4565b604082019050919050565b6000614a0c601c8361544f565b9150614a1782615903565b602082019050919050565b6000614a2f60148361544f565b9150614a3a8261592c565b602082019050919050565b6000614a5260168361544f565b9150614a5d82615955565b602082019050919050565b6000614a7560248361544f565b9150614a808261597e565b604082019050919050565b6000614a9860198361544f565b9150614aa3826159cd565b602082019050919050565b6000614abb60158361544f565b9150614ac6826159f6565b602082019050919050565b6000614ade60138361544f565b9150614ae982615a1f565b602082019050919050565b6000614b0160078361544f565b9150614b0c82615a48565b602082019050919050565b6000614b2460108361544f565b9150614b2f82615a71565b602082019050919050565b6000614b4760298361544f565b9150614b5282615a9a565b604082019050919050565b6000614b6a60118361544f565b9150614b7582615ae9565b602082019050919050565b6000614b8d60088361544f565b9150614b9882615b12565b602082019050919050565b6000614bb060208361544f565b9150614bbb82615b3b565b602082019050919050565b6000614bd360098361544f565b9150614bde82615b64565b602082019050919050565b6000614bf660208361544f565b9150614c0182615b8d565b602082019050919050565b6000614c1960128361544f565b9150614c2482615bb6565b602082019050919050565b6000614c3c60188361544f565b9150614c4782615bdf565b602082019050919050565b6000614c5f60218361544f565b9150614c6a82615c08565b604082019050919050565b6000614c82603d8361544f565b9150614c8d82615c57565b604082019050919050565b6000614ca5600d8361544f565b9150614cb082615ca6565b602082019050919050565b6000614cc8600d8361544f565b9150614cd382615ccf565b602082019050919050565b6000604083016000830151614cf66000860182614d1b565b5060208301518482036020860152614d0e82826147c5565b9150508091505092915050565b614d2481615569565b82525050565b614d3381615569565b82525050565b6000614d458284614868565b915081905092915050565b6000614d5c8285614868565b9150614d688284614837565b91508190509392505050565b6000602082019050614d89600083018461467d565b92915050565b6000608082019050614da4600083018761467d565b614db1602083018661467d565b614dbe6040830185614d2a565b8181036060830152614dd0818461477d565b905095945050505050565b60006020820190508181036000830152614df5818461468c565b905092915050565b60006020820190508181036000830152614e178184614701565b905092915050565b6000602082019050614e34600083018461475f565b92915050565b6000602082019050614e4f600083018461476e565b92915050565b6000604082019050614e6a600083018561476e565b614e77602083018461467d565b9392505050565b6000606082019050614e93600083018661476e565b614ea0602083018561476e565b614ead604083018461467d565b949350505050565b6000602082019050614eca60008301846147b6565b92915050565b60006020820190508181036000830152614eea81846147fe565b905092915050565b60006020820190508181036000830152614f0b816148e7565b9050919050565b60006020820190508181036000830152614f2b8161490a565b9050919050565b60006020820190508181036000830152614f4b8161492d565b9050919050565b60006020820190508181036000830152614f6b81614950565b9050919050565b60006020820190508181036000830152614f8b81614973565b9050919050565b60006020820190508181036000830152614fab81614996565b9050919050565b60006020820190508181036000830152614fcb816149b9565b9050919050565b60006020820190508181036000830152614feb816149dc565b9050919050565b6000602082019050818103600083015261500b816149ff565b9050919050565b6000602082019050818103600083015261502b81614a22565b9050919050565b6000602082019050818103600083015261504b81614a45565b9050919050565b6000602082019050818103600083015261506b81614a68565b9050919050565b6000602082019050818103600083015261508b81614a8b565b9050919050565b600060208201905081810360008301526150ab81614aae565b9050919050565b600060208201905081810360008301526150cb81614ad1565b9050919050565b600060208201905081810360008301526150eb81614af4565b9050919050565b6000602082019050818103600083015261510b81614b17565b9050919050565b6000602082019050818103600083015261512b81614b3a565b9050919050565b6000602082019050818103600083015261514b81614b5d565b9050919050565b6000602082019050818103600083015261516b81614b80565b9050919050565b6000602082019050818103600083015261518b81614ba3565b9050919050565b600060208201905081810360008301526151ab81614bc6565b9050919050565b600060208201905081810360008301526151cb81614be9565b9050919050565b600060208201905081810360008301526151eb81614c0c565b9050919050565b6000602082019050818103600083015261520b81614c2f565b9050919050565b6000602082019050818103600083015261522b81614c52565b9050919050565b6000602082019050818103600083015261524b81614c75565b9050919050565b6000602082019050818103600083015261526b81614c98565b9050919050565b6000602082019050818103600083015261528b81614cbb565b9050919050565b60006020820190506152a76000830184614d2a565b92915050565b60006040820190506152c26000830185614d2a565b81810360208301526152d481846147fe565b90509392505050565b60006152e76152f8565b90506152f3828261560b565b919050565b6000604051905090565b600067ffffffffffffffff82111561531d5761531c6156e3565b5b602082029050602081019050919050565b600067ffffffffffffffff821115615349576153486156e3565b5b61535282615712565b9050602081019050919050565b600067ffffffffffffffff82111561537a576153796156e3565b5b61538382615712565b9050602081019050919050565b6000819050602082019050919050565b6000819050602082019050919050565b60008190508160005260206000209050919050565b600081519050919050565b600081519050919050565b600081519050919050565b600081519050919050565b6000602082019050919050565b6000602082019050919050565b600082825260208201905092915050565b600082825260208201905092915050565b600082825260208201905092915050565b600082825260208201905092915050565b600082825260208201905092915050565b600081905092915050565b600061547682615569565b915061548183615569565b9250827fffffffffffffffffffffffffffffffffffffffffffffffffffffffffffffffff038211156154b6576154b5615685565b5b828201905092915050565b60006154cc82615569565b91506154d783615569565b9250828210156154ea576154e9615685565b5b828203905092915050565b600061550082615549565b9050919050565b60008115159050919050565b6000819050919050565b60007fffffffff0000000000000000000000000000000000000000000000000000000082169050919050565b600073ffffffffffffffffffffffffffffffffffffffff82169050919050565b6000819050919050565b600061557e82615585565b9050919050565b600061559082615549565b9050919050565b82818337600083830152505050565b60005b838110156155c45780820151818401526020810190506155a9565b838111156155d3576000848401525b50505050565b600060028204905060018216806155f157607f821691505b60208210811415615605576156046156b4565b5b50919050565b61561482615712565b810181811067ffffffffffffffff82111715615633576156326156e3565b5b80604052505050565b600061564782615569565b91507fffffffffffffffffffffffffffffffffffffffffffffffffffffffffffffffff82141561567a57615679615685565b5b600182019050919050565b7f4e487b7100000000000000000000000000000000000000000000000000000000600052601160045260246000fd5b7f4e487b7100000000000000000000000000000000000000000000000000000000600052602260045260246000fd5b7f4e487b7100000000000000000000000000000000000000000000000000000000600052604160045260246000fd5b6000601f19601f8301169050919050565b7f6e6f7420617070726f766564206f72206f776e65720000000000000000000000600082015250565b7f696e76616c6964206d696e742063617000000000000000000000000000000000600082015250565b7f5061757361626c653a206e6f7420706175736564000000000000000000000000600082015250565b7f696e76616c696420726567697374726172000000000000000000000000000000600082015250565b7f4552433732313a207472616e7366657220746f206e6f6e20455243373231526560008201527f63656976657220696d706c656d656e7465720000000000000000000000000000602082015250565b7f4552433732313a2063616c6c6572206973206e6f7420617070726f766564206f60008201527f72206f776e657200000000000000000000000000000000000000000000000000602082015250565b7f4f776e61626c653a206e6577206f776e657220697320746865207a65726f206160008201527f6464726573730000000000000000000000000000000000000000000000000000602082015250565b7f4552433732313a207472616e736665722066726f6d20696e636f72726563742060008201527f6f776e6572000000000000000000000000000000000000000000000000000000602082015250565b7f4552433732313a20746f6b656e20616c7265616479206d696e74656400000000600082015250565b7f74696d657374616d70206f766572666c6f776564000000000000000000000000600082015250565b7f746f6b656e496420646f6573206e6f7420657869737400000000000000000000600082015250565b7f4552433732313a207472616e7366657220746f20746865207a65726f2061646460008201527f7265737300000000000000000000000000000000000000000000000000000000602082015250565b7f4552433732313a20617070726f766520746f2063616c6c657200000000000000600082015250565b7f7374696c6c20696e20677261636520706572696f640000000000000000000000600082015250565b7f62616c616e636520657863656564732063617000000000000000000000000000600082015250565b7f6578706972656400000000000000000000000000000000000000000000000000600082015250565b7f5061757361626c653a2070617573656400000000000000000000000000000000600082015250565b7f4552433732313a2061646472657373207a65726f206973206e6f74206120766160008201527f6c6964206f776e65720000000000000000000000000000000000000000000000602082015250565b7f726573657276656420746f6b656e206964000000000000000000000000000000600082015250565b7f6e6f74206c697665000000000000000000000000000000000000000000000000600082015250565b7f4552433732313a206d696e7420746f20746865207a65726f2061646472657373600082015250565b7f6f6e6c79206374726c0000000000000000000000000000000000000000000000600082015250565b7f4f776e61626c653a2063616c6c6572206973206e6f7420746865206f776e6572600082015250565b7f74696d657374616d70206f766572666c6f770000000000000000000000000000600082015250565b7f4552433732313a20696e76616c696420746f6b656e2049440000000000000000600082015250565b7f4552433732313a20617070726f76616c20746f2063757272656e74206f776e6560008201527f7200000000000000000000000000000000000000000000000000000000000000602082015250565b7f4552433732313a20617070726f76652063616c6c6572206973206e6f7420746f60008201527f6b656e206f776e6572206f7220617070726f76656420666f7220616c6c000000602082015250565b7f6e6f7420617661696c61626c6500000000000000000000000000000000000000600082015250565b7f696e76616c696420696e64657800000000000000000000000000000000000000600082015250565b615d01816154f5565b8114615d0c57600080fd5b50565b615d1881615507565b8114615d2357600080fd5b50565b615d2f81615513565b8114615d3a57600080fd5b50565b615d468161551d565b8114615d5157600080fd5b50565b615d5d81615569565b8114615d6857600080fd5b5056fea2646970667358221220c8dab933ea77e17d2c50f27f473db7f63778beb36e873838ab370383b3c2112564736f6c63430008040033",
  "devdoc": {
    "kind": "dev",
    "methods": {
      "addController(address)": {
        "details": "Authorises a controller, who can register and renew domains."
      },
      "addReservedLabelNames(string[])": {
        "details": "Some names are reserved for special purposes "
      },
      "approve(address,uint256)": {
        "details": "See {IERC721-approve}."
      },
      "available(uint256)": {
        "details": "Returns true iff the specified name is available for registration."
      },
      "balanceOf(address)": {
        "details": "See {IERC721-balanceOf}."
      },
      "getApproved(uint256)": {
        "details": "See {IERC721-getApproved}."
      },
      "isApprovedForAll(address,address)": {
        "details": "See {IERC721-isApprovedForAll}."
      },
      "name()": {
        "details": "See {IERC721Metadata-name}."
      },
      "nameExpires(uint256)": {
        "details": "Returns the expiration timestamp of the specified id."
      },
      "owner()": {
        "details": "Returns the address of the current owner."
      },
      "ownerOf(uint256)": {
        "details": "Gets the owner of the specified token ID. Names become unowned      when their registration expires.",
        "params": {
          "tokenId": "uint256 ID of the token to query the owner of"
        },
        "returns": {
          "_0": "address currently marked as the owner of the given token ID"
        }
      },
      "pause()": {
        "details": "Pause the register & renew globally"
      },
      "paused()": {
        "details": "Returns true if the contract is paused, and false otherwise."
      },
      "reclaim(uint256,address)": {
        "details": "Reclaim ownership of a name in MID, if you own it in the registrar."
      },
      "register(uint256,address,uint256)": {
        "details": "Register a name.",
        "params": {
          "duration": "Duration in seconds for the registration.",
          "id": "The token ID (keccak256 of the label).",
          "owner": "The address that should own the registration."
        }
      },
      "registerOnly(uint256,address,uint256)": {
        "details": "Register a name, without modifying the registry.",
        "params": {
          "duration": "Duration in seconds for the registration.",
          "id": "The token ID (keccak256 of the label).",
          "owner": "The address that should own the registration."
        }
      },
      "removeController(address)": {
        "details": "Revoke controller permission for an address."
      },
      "renew(uint256,uint256)": {
        "details": "Renew the name with input duration"
      },
      "renounceOwnership()": {
        "details": "Leaves the contract without owner. It will not be possible to call `onlyOwner` functions anymore. Can only be called by the current owner. NOTE: Renouncing ownership will leave the contract without an owner, thereby removing any functionality that is only available to the owner."
      },
      "safeTransferFrom(address,address,uint256)": {
        "details": "See {IERC721-safeTransferFrom}."
      },
      "safeTransferFrom(address,address,uint256,bytes)": {
        "details": "modify `transferFrom` and `safeTransferFrom` to make the domain automatically  transfer to target owner as well"
      },
      "setApprovalForAll(address,bool)": {
        "details": "See {IERC721-setApprovalForAll}."
      },
      "setBaseURI(string)": {
        "details": "Support directly set the baseURI.",
        "params": {
          "baseURI_": "the new base URI"
        }
      },
      "setGracePeriod(uint256)": {
        "details": "Reset the grace period"
      },
      "setMaxMintPerUser(uint256)": {
        "details": "max mint per user setter"
      },
      "setResolver(address)": {
        "details": "Set the resolver for the TLD this registrar manages."
      },
      "symbol()": {
        "details": "See {IERC721Metadata-symbol}."
      },
      "tokenByIndex(uint256)": {
        "details": "Get token ID by stored order"
      },
      "tokenURI(uint256)": {
        "details": "Return the metadata URI by token ID"
      },
      "totalSupply()": {
        "details": "Support token metadata"
      },
      "transferFrom(address,address,uint256)": {
        "details": "modify `transferFrom` and `safeTransferFrom` to make the domain automatically  transfer to target owner as well"
      },
      "transferOwnership(address)": {
        "details": "Transfers ownership of the contract to a new account (`newOwner`). Can only be called by the current owner."
      },
      "unpause()": {
        "details": "Unpause the register & renew globally"
      }
    },
    "stateVariables": {
      "baseURI": {
        "details": "Base URI of NFT metadata"
      },
      "expiries": {
        "details": "A map of expiry times"
      },
      "idToIndexes": {
        "details": "mapping from token id to index in tokens array"
      },
      "maxMintPerUser": {
        "details": "The max minting count per account"
      },
      "ownerToIds": {
        "details": "mapping from owner address to token ids"
      },
      "tokens": {
        "details": "All minted token ids"
      }
    },
    "version": 1
  },
  "userdoc": {
    "kind": "user",
    "methods": {},
    "version": 1
  },
  "storageLayout": {
    "storage": [
      {
        "astId": 130,
        "contract": "contracts/cidregistrar/BaseRegistrarImplementation.sol:BaseRegistrarImplementation",
        "label": "_paused",
        "offset": 0,
        "slot": "0",
        "type": "t_bool"
      },
      {
        "astId": 7,
        "contract": "contracts/cidregistrar/BaseRegistrarImplementation.sol:BaseRegistrarImplementation",
        "label": "_owner",
        "offset": 1,
        "slot": "0",
        "type": "t_address"
      },
      {
        "astId": 246,
        "contract": "contracts/cidregistrar/BaseRegistrarImplementation.sol:BaseRegistrarImplementation",
        "label": "_name",
        "offset": 0,
        "slot": "1",
        "type": "t_string_storage"
      },
      {
        "astId": 248,
        "contract": "contracts/cidregistrar/BaseRegistrarImplementation.sol:BaseRegistrarImplementation",
        "label": "_symbol",
        "offset": 0,
        "slot": "2",
        "type": "t_string_storage"
      },
      {
        "astId": 252,
        "contract": "contracts/cidregistrar/BaseRegistrarImplementation.sol:BaseRegistrarImplementation",
        "label": "_owners",
        "offset": 0,
        "slot": "3",
        "type": "t_mapping(t_uint256,t_address)"
      },
      {
        "astId": 256,
        "contract": "contracts/cidregistrar/BaseRegistrarImplementation.sol:BaseRegistrarImplementation",
        "label": "_balances",
        "offset": 0,
        "slot": "4",
        "type": "t_mapping(t_address,t_uint256)"
      },
      {
        "astId": 260,
        "contract": "contracts/cidregistrar/BaseRegistrarImplementation.sol:BaseRegistrarImplementation",
        "label": "_tokenApprovals",
        "offset": 0,
        "slot": "5",
        "type": "t_mapping(t_uint256,t_address)"
      },
      {
        "astId": 266,
        "contract": "contracts/cidregistrar/BaseRegistrarImplementation.sol:BaseRegistrarImplementation",
        "label": "_operatorApprovals",
        "offset": 0,
        "slot": "6",
        "type": "t_mapping(t_address,t_mapping(t_address,t_bool))"
      },
      {
        "astId": 2935,
        "contract": "contracts/cidregistrar/BaseRegistrarImplementation.sol:BaseRegistrarImplementation",
        "label": "gracePeriod",
        "offset": 0,
        "slot": "7",
        "type": "t_uint256"
      },
      {
        "astId": 2968,
        "contract": "contracts/cidregistrar/BaseRegistrarImplementation.sol:BaseRegistrarImplementation",
        "label": "mid",
        "offset": 0,
        "slot": "8",
        "type": "t_contract(MID)5976"
      },
      {
        "astId": 2970,
        "contract": "contracts/cidregistrar/BaseRegistrarImplementation.sol:BaseRegistrarImplementation",
        "label": "baseNode",
        "offset": 0,
        "slot": "9",
        "type": "t_bytes32"
      },
      {
        "astId": 2974,
        "contract": "contracts/cidregistrar/BaseRegistrarImplementation.sol:BaseRegistrarImplementation",
        "label": "controllers",
        "offset": 0,
        "slot": "10",
        "type": "t_mapping(t_address,t_bool)"
      },
      {
        "astId": 5554,
        "contract": "contracts/cidregistrar/BaseRegistrarImplementation.sol:BaseRegistrarImplementation",
        "label": "reservedTokenIdMap",
        "offset": 0,
        "slot": "11",
        "type": "t_struct(BitMap)2793_storage"
      },
      {
        "astId": 5557,
        "contract": "contracts/cidregistrar/BaseRegistrarImplementation.sol:BaseRegistrarImplementation",
        "label": "reservedIDRegistrar",
        "offset": 0,
        "slot": "12",
        "type": "t_address"
      },
      {
        "astId": 5562,
        "contract": "contracts/cidregistrar/BaseRegistrarImplementation.sol:BaseRegistrarImplementation",
        "label": "reservedTokenIds",
        "offset": 0,
        "slot": "13",
        "type": "t_array(t_struct(ReservedDomain)5543_storage)dyn_storage"
      },
      {
        "astId": 3063,
        "contract": "contracts/cidregistrar/BaseRegistrarImplementation.sol:BaseRegistrarImplementation",
        "label": "expiries",
        "offset": 0,
        "slot": "14",
        "type": "t_mapping(t_uint256,t_uint256)"
      },
      {
        "astId": 3066,
        "contract": "contracts/cidregistrar/BaseRegistrarImplementation.sol:BaseRegistrarImplementation",
        "label": "baseURI",
        "offset": 0,
        "slot": "15",
        "type": "t_string_storage"
      },
      {
        "astId": 3070,
        "contract": "contracts/cidregistrar/BaseRegistrarImplementation.sol:BaseRegistrarImplementation",
        "label": "tokens",
        "offset": 0,
        "slot": "16",
        "type": "t_array(t_uint256)dyn_storage"
      },
      {
        "astId": 3074,
        "contract": "contracts/cidregistrar/BaseRegistrarImplementation.sol:BaseRegistrarImplementation",
        "label": "maxMintPerUser",
        "offset": 0,
        "slot": "17",
        "type": "t_uint256"
      },
      {
        "astId": 3079,
        "contract": "contracts/cidregistrar/BaseRegistrarImplementation.sol:BaseRegistrarImplementation",
        "label": "idToIndexes",
        "offset": 0,
        "slot": "18",
        "type": "t_mapping(t_uint256,t_uint256)"
      },
      {
        "astId": 3085,
        "contract": "contracts/cidregistrar/BaseRegistrarImplementation.sol:BaseRegistrarImplementation",
        "label": "ownerToIds",
        "offset": 0,
        "slot": "19",
        "type": "t_mapping(t_address,t_array(t_uint256)dyn_storage)"
      }
    ],
    "types": {
      "t_address": {
        "encoding": "inplace",
        "label": "address",
        "numberOfBytes": "20"
      },
      "t_array(t_struct(ReservedDomain)5543_storage)dyn_storage": {
        "base": "t_struct(ReservedDomain)5543_storage",
        "encoding": "dynamic_array",
        "label": "struct ReservedDomain[]",
        "numberOfBytes": "32"
      },
      "t_array(t_uint256)dyn_storage": {
        "base": "t_uint256",
        "encoding": "dynamic_array",
        "label": "uint256[]",
        "numberOfBytes": "32"
      },
      "t_bool": {
        "encoding": "inplace",
        "label": "bool",
        "numberOfBytes": "1"
      },
      "t_bytes32": {
        "encoding": "inplace",
        "label": "bytes32",
        "numberOfBytes": "32"
      },
      "t_contract(MID)5976": {
        "encoding": "inplace",
        "label": "contract MID",
        "numberOfBytes": "20"
      },
      "t_mapping(t_address,t_array(t_uint256)dyn_storage)": {
        "encoding": "mapping",
        "key": "t_address",
        "label": "mapping(address => uint256[])",
        "numberOfBytes": "32",
        "value": "t_array(t_uint256)dyn_storage"
      },
      "t_mapping(t_address,t_bool)": {
        "encoding": "mapping",
        "key": "t_address",
        "label": "mapping(address => bool)",
        "numberOfBytes": "32",
        "value": "t_bool"
      },
      "t_mapping(t_address,t_mapping(t_address,t_bool))": {
        "encoding": "mapping",
        "key": "t_address",
        "label": "mapping(address => mapping(address => bool))",
        "numberOfBytes": "32",
        "value": "t_mapping(t_address,t_bool)"
      },
      "t_mapping(t_address,t_uint256)": {
        "encoding": "mapping",
        "key": "t_address",
        "label": "mapping(address => uint256)",
        "numberOfBytes": "32",
        "value": "t_uint256"
      },
      "t_mapping(t_uint256,t_address)": {
        "encoding": "mapping",
        "key": "t_uint256",
        "label": "mapping(uint256 => address)",
        "numberOfBytes": "32",
        "value": "t_address"
      },
      "t_mapping(t_uint256,t_uint256)": {
        "encoding": "mapping",
        "key": "t_uint256",
        "label": "mapping(uint256 => uint256)",
        "numberOfBytes": "32",
        "value": "t_uint256"
      },
      "t_string_storage": {
        "encoding": "bytes",
        "label": "string",
        "numberOfBytes": "32"
      },
      "t_struct(BitMap)2793_storage": {
        "encoding": "inplace",
        "label": "struct BitMaps.BitMap",
        "members": [
          {
            "astId": 2792,
            "contract": "contracts/cidregistrar/BaseRegistrarImplementation.sol:BaseRegistrarImplementation",
            "label": "_data",
            "offset": 0,
            "slot": "0",
            "type": "t_mapping(t_uint256,t_uint256)"
          }
        ],
        "numberOfBytes": "32"
      },
      "t_struct(ReservedDomain)5543_storage": {
        "encoding": "inplace",
        "label": "struct ReservedDomain",
        "members": [
          {
            "astId": 5540,
            "contract": "contracts/cidregistrar/BaseRegistrarImplementation.sol:BaseRegistrarImplementation",
            "label": "id",
            "offset": 0,
            "slot": "0",
            "type": "t_uint256"
          },
          {
            "astId": 5542,
            "contract": "contracts/cidregistrar/BaseRegistrarImplementation.sol:BaseRegistrarImplementation",
            "label": "labelName",
            "offset": 0,
            "slot": "1",
            "type": "t_string_storage"
          }
        ],
        "numberOfBytes": "64"
      },
      "t_uint256": {
        "encoding": "inplace",
        "label": "uint256",
        "numberOfBytes": "32"
      }
    }
  }
}