{
  "address": "0xe90Aeab76281ee2C6e68A4AEB126fB248fd2Ee4C",
  "abi": [
    {
      "inputs": [
        {
          "internalType": "contract MID",
          "name": "_mid",
          "type": "address"
        },
        {
          "internalType": "bytes32",
          "name": "_baseNode",
          "type": "bytes32"
        }
      ],
      "stateMutability": "nonpayable",
      "type": "constructor"
    },
    {
      "anonymous": false,
      "inputs": [
        {
          "indexed": true,
          "internalType": "address",
          "name": "owner",
          "type": "address"
        },
        {
          "indexed": true,
          "internalType": "address",
          "name": "approved",
          "type": "address"
        },
        {
          "indexed": true,
          "internalType": "uint256",
          "name": "tokenId",
          "type": "uint256"
        }
      ],
      "name": "Approval",
      "type": "event"
    },
    {
      "anonymous": false,
      "inputs": [
        {
          "indexed": true,
          "internalType": "address",
          "name": "owner",
          "type": "address"
        },
        {
          "indexed": true,
          "internalType": "address",
          "name": "operator",
          "type": "address"
        },
        {
          "indexed": false,
          "internalType": "bool",
          "name": "approved",
          "type": "bool"
        }
      ],
      "name": "ApprovalForAll",
      "type": "event"
    },
    {
      "anonymous": false,
      "inputs": [
        {
          "indexed": true,
          "internalType": "string",
          "name": "URI",
          "type": "string"
        }
      ],
      "name": "BaseURIChanged",
      "type": "event"
    },
    {
      "anonymous": false,
      "inputs": [
        {
          "indexed": true,
          "internalType": "address",
          "name": "controller",
          "type": "address"
        }
      ],
      "name": "ControllerAdded",
      "type": "event"
    },
    {
      "anonymous": false,
      "inputs": [
        {
          "indexed": true,
          "internalType": "address",
          "name": "controller",
          "type": "address"
        }
      ],
      "name": "ControllerRemoved",
      "type": "event"
    },
    {
      "anonymous": false,
      "inputs": [
        {
          "indexed": true,
          "internalType": "uint256",
          "name": "period",
          "type": "uint256"
        }
      ],
      "name": "GracePeriodChanged",
      "type": "event"
    },
    {
      "anonymous": false,
      "inputs": [
        {
          "indexed": true,
          "internalType": "uint256",
          "name": "cap",
          "type": "uint256"
        }
      ],
      "name": "MaxMintCapChanged",
      "type": "event"
    },
    {
      "anonymous": false,
      "inputs": [
        {
          "indexed": true,
          "internalType": "uint256",
          "name": "id",
          "type": "uint256"
        },
        {
          "indexed": true,
          "internalType": "address",
          "name": "owner",
          "type": "address"
        },
        {
          "indexed": false,
          "internalType": "uint256",
          "name": "expires",
          "type": "uint256"
        }
      ],
      "name": "NameMigrated",
      "type": "event"
    },
    {
      "anonymous": false,
      "inputs": [
        {
          "indexed": true,
          "internalType": "uint256",
          "name": "id",
          "type": "uint256"
        },
        {
          "indexed": true,
          "internalType": "address",
          "name": "owner",
          "type": "address"
        },
        {
          "indexed": false,
          "internalType": "uint256",
          "name": "expires",
          "type": "uint256"
        }
      ],
      "name": "NameRegistered",
      "type": "event"
    },
    {
      "anonymous": false,
      "inputs": [
        {
          "indexed": true,
          "internalType": "uint256",
          "name": "id",
          "type": "uint256"
        },
        {
          "indexed": false,
          "internalType": "uint256",
          "name": "expires",
          "type": "uint256"
        }
      ],
      "name": "NameRenewed",
      "type": "event"
    },
    {
      "anonymous": false,
      "inputs": [
        {
          "indexed": true,
          "internalType": "address",
          "name": "previousOwner",
          "type": "address"
        },
        {
          "indexed": true,
          "internalType": "address",
          "name": "newOwner",
          "type": "address"
        }
      ],
      "name": "OwnershipTransferred",
      "type": "event"
    },
    {
      "anonymous": false,
      "inputs": [
        {
          "indexed": false,
          "internalType": "address",
          "name": "account",
          "type": "address"
        }
      ],
      "name": "Paused",
      "type": "event"
    },
    {
      "anonymous": false,
      "inputs": [
        {
          "indexed": true,
          "internalType": "address",
          "name": "registrar",
          "type": "address"
        }
      ],
      "name": "ReservedNameRegistrarChanged",
      "type": "event"
    },
    {
      "anonymous": false,
      "inputs": [
        {
          "indexed": true,
          "internalType": "uint256",
          "name": "count",
          "type": "uint256"
        }
      ],
      "name": "ReservedTokenAdded",
      "type": "event"
    },
    {
      "anonymous": false,
      "inputs": [
        {
          "indexed": true,
          "internalType": "address",
          "name": "from",
          "type": "address"
        },
        {
          "indexed": true,
          "internalType": "address",
          "name": "to",
          "type": "address"
        },
        {
          "indexed": true,
          "internalType": "uint256",
          "name": "tokenId",
          "type": "uint256"
        }
      ],
      "name": "Transfer",
      "type": "event"
    },
    {
      "anonymous": false,
      "inputs": [
        {
          "indexed": false,
          "internalType": "address",
          "name": "account",
          "type": "address"
        }
      ],
      "name": "Unpaused",
      "type": "event"
    },
    {
      "inputs": [
        {
          "internalType": "address",
          "name": "controller",
          "type": "address"
        }
      ],
      "name": "addController",
      "outputs": [],
      "stateMutability": "nonpayable",
      "type": "function"
    },
    {
      "inputs": [
        {
          "internalType": "uint256[]",
          "name": "ids",
          "type": "uint256[]"
        }
      ],
      "name": "addReservedTokenId",
      "outputs": [],
      "stateMutability": "nonpayable",
      "type": "function"
    },
    {
      "inputs": [
        {
          "internalType": "address",
          "name": "to",
          "type": "address"
        },
        {
          "internalType": "uint256",
          "name": "tokenId",
          "type": "uint256"
        }
      ],
      "name": "approve",
      "outputs": [],
      "stateMutability": "nonpayable",
      "type": "function"
    },
    {
      "inputs": [
        {
          "internalType": "uint256",
          "name": "id",
          "type": "uint256"
        }
      ],
      "name": "available",
      "outputs": [
        {
          "internalType": "bool",
          "name": "",
          "type": "bool"
        }
      ],
      "stateMutability": "view",
      "type": "function"
    },
    {
      "inputs": [
        {
          "internalType": "address",
          "name": "owner",
          "type": "address"
        }
      ],
      "name": "balanceOf",
      "outputs": [
        {
          "internalType": "uint256",
          "name": "",
          "type": "uint256"
        }
      ],
      "stateMutability": "view",
      "type": "function"
    },
    {
      "inputs": [],
      "name": "baseNode",
      "outputs": [
        {
          "internalType": "bytes32",
          "name": "",
          "type": "bytes32"
        }
      ],
      "stateMutability": "view",
      "type": "function"
    },
    {
      "inputs": [],
      "name": "baseURI",
      "outputs": [
        {
          "internalType": "string",
          "name": "",
          "type": "string"
        }
      ],
      "stateMutability": "view",
      "type": "function"
    },
    {
      "inputs": [
        {
          "internalType": "address",
          "name": "registrar",
          "type": "address"
        }
      ],
      "name": "canRegisterReservedId",
      "outputs": [
        {
          "internalType": "bool",
          "name": "",
          "type": "bool"
        }
      ],
      "stateMutability": "view",
      "type": "function"
    },
    {
      "inputs": [
        {
          "internalType": "address",
          "name": "",
          "type": "address"
        }
      ],
      "name": "controllers",
      "outputs": [
        {
          "internalType": "bool",
          "name": "",
          "type": "bool"
        }
      ],
      "stateMutability": "view",
      "type": "function"
    },
    {
      "inputs": [
        {
          "internalType": "uint256",
          "name": "tokenId",
          "type": "uint256"
        }
      ],
      "name": "getApproved",
      "outputs": [
        {
          "internalType": "address",
          "name": "",
          "type": "address"
        }
      ],
      "stateMutability": "view",
      "type": "function"
    },
    {
      "inputs": [],
      "name": "gracePeriod",
      "outputs": [
        {
          "internalType": "uint256",
          "name": "",
          "type": "uint256"
        }
      ],
      "stateMutability": "view",
      "type": "function"
    },
    {
      "inputs": [
        {
          "internalType": "address",
          "name": "owner",
          "type": "address"
        },
        {
          "internalType": "address",
          "name": "operator",
          "type": "address"
        }
      ],
      "name": "isApprovedForAll",
      "outputs": [
        {
          "internalType": "bool",
          "name": "",
          "type": "bool"
        }
      ],
      "stateMutability": "view",
      "type": "function"
    },
    {
      "inputs": [
        {
          "internalType": "uint256",
          "name": "id",
          "type": "uint256"
        }
      ],
      "name": "isTokenIdReserved",
      "outputs": [
        {
          "internalType": "bool",
          "name": "",
          "type": "bool"
        }
      ],
      "stateMutability": "view",
      "type": "function"
    },
    {
      "inputs": [],
      "name": "maxMintPerUser",
      "outputs": [
        {
          "internalType": "uint256",
          "name": "",
          "type": "uint256"
        }
      ],
      "stateMutability": "view",
      "type": "function"
    },
    {
      "inputs": [],
      "name": "mid",
      "outputs": [
        {
          "internalType": "contract MID",
          "name": "",
          "type": "address"
        }
      ],
      "stateMutability": "view",
      "type": "function"
    },
    {
      "inputs": [],
      "name": "name",
      "outputs": [
        {
          "internalType": "string",
          "name": "",
          "type": "string"
        }
      ],
      "stateMutability": "view",
      "type": "function"
    },
    {
      "inputs": [
        {
          "internalType": "uint256",
          "name": "id",
          "type": "uint256"
        }
      ],
      "name": "nameExpires",
      "outputs": [
        {
          "internalType": "uint256",
          "name": "",
          "type": "uint256"
        }
      ],
      "stateMutability": "view",
      "type": "function"
    },
    {
      "inputs": [],
      "name": "owner",
      "outputs": [
        {
          "internalType": "address",
          "name": "",
          "type": "address"
        }
      ],
      "stateMutability": "view",
      "type": "function"
    },
    {
      "inputs": [
        {
          "internalType": "uint256",
          "name": "tokenId",
          "type": "uint256"
        }
      ],
      "name": "ownerOf",
      "outputs": [
        {
          "internalType": "address",
          "name": "",
          "type": "address"
        }
      ],
      "stateMutability": "view",
      "type": "function"
    },
    {
      "inputs": [],
      "name": "pause",
      "outputs": [],
      "stateMutability": "nonpayable",
      "type": "function"
    },
    {
      "inputs": [],
      "name": "paused",
      "outputs": [
        {
          "internalType": "bool",
          "name": "",
          "type": "bool"
        }
      ],
      "stateMutability": "view",
      "type": "function"
    },
    {
      "inputs": [
        {
          "internalType": "uint256",
          "name": "id",
          "type": "uint256"
        },
        {
          "internalType": "address",
          "name": "owner",
          "type": "address"
        }
      ],
      "name": "reclaim",
      "outputs": [],
      "stateMutability": "nonpayable",
      "type": "function"
    },
    {
      "inputs": [
        {
          "internalType": "uint256",
          "name": "id",
          "type": "uint256"
        },
        {
          "internalType": "address",
          "name": "owner",
          "type": "address"
        },
        {
          "internalType": "uint256",
          "name": "duration",
          "type": "uint256"
        }
      ],
      "name": "register",
      "outputs": [
        {
          "internalType": "uint256",
          "name": "",
          "type": "uint256"
        }
      ],
      "stateMutability": "nonpayable",
      "type": "function"
    },
    {
      "inputs": [
        {
          "internalType": "uint256",
          "name": "id",
          "type": "uint256"
        },
        {
          "internalType": "address",
          "name": "owner",
          "type": "address"
        },
        {
          "internalType": "uint256",
          "name": "duration",
          "type": "uint256"
        }
      ],
      "name": "registerOnly",
      "outputs": [
        {
          "internalType": "uint256",
          "name": "",
          "type": "uint256"
        }
      ],
      "stateMutability": "nonpayable",
      "type": "function"
    },
    {
      "inputs": [
        {
          "internalType": "address",
          "name": "controller",
          "type": "address"
        }
      ],
      "name": "removeController",
      "outputs": [],
      "stateMutability": "nonpayable",
      "type": "function"
    },
    {
      "inputs": [
        {
          "internalType": "uint256",
          "name": "id",
          "type": "uint256"
        },
        {
          "internalType": "uint256",
          "name": "duration",
          "type": "uint256"
        }
      ],
      "name": "renew",
      "outputs": [
        {
          "internalType": "uint256",
          "name": "",
          "type": "uint256"
        }
      ],
      "stateMutability": "nonpayable",
      "type": "function"
    },
    {
      "inputs": [],
      "name": "renounceOwnership",
      "outputs": [],
      "stateMutability": "nonpayable",
      "type": "function"
    },
    {
      "inputs": [],
      "name": "reservedIDRegistrar",
      "outputs": [
        {
          "internalType": "address",
          "name": "",
          "type": "address"
        }
      ],
      "stateMutability": "view",
      "type": "function"
    },
    {
      "inputs": [
        {
          "internalType": "uint256",
          "name": "",
          "type": "uint256"
        }
      ],
      "name": "reservedTokenIds",
      "outputs": [
        {
          "internalType": "uint256",
          "name": "",
          "type": "uint256"
        }
      ],
      "stateMutability": "view",
      "type": "function"
    },
    {
      "inputs": [
        {
          "internalType": "address",
          "name": "from",
          "type": "address"
        },
        {
          "internalType": "address",
          "name": "to",
          "type": "address"
        },
        {
          "internalType": "uint256",
          "name": "tokenId",
          "type": "uint256"
        }
      ],
      "name": "safeTransferFrom",
      "outputs": [],
      "stateMutability": "nonpayable",
      "type": "function"
    },
    {
      "inputs": [
        {
          "internalType": "address",
          "name": "from",
          "type": "address"
        },
        {
          "internalType": "address",
          "name": "to",
          "type": "address"
        },
        {
          "internalType": "uint256",
          "name": "tokenId",
          "type": "uint256"
        },
        {
          "internalType": "bytes",
          "name": "_data",
          "type": "bytes"
        }
      ],
      "name": "safeTransferFrom",
      "outputs": [],
      "stateMutability": "nonpayable",
      "type": "function"
    },
    {
      "inputs": [
        {
          "internalType": "address",
          "name": "operator",
          "type": "address"
        },
        {
          "internalType": "bool",
          "name": "approved",
          "type": "bool"
        }
      ],
      "name": "setApprovalForAll",
      "outputs": [],
      "stateMutability": "nonpayable",
      "type": "function"
    },
    {
      "inputs": [
        {
          "internalType": "string",
          "name": "baseURI_",
          "type": "string"
        }
      ],
      "name": "setBaseURI",
      "outputs": [],
      "stateMutability": "nonpayable",
      "type": "function"
    },
    {
      "inputs": [
        {
          "internalType": "uint256",
          "name": "gracePeriod_",
          "type": "uint256"
        }
      ],
      "name": "setGracePeriod",
      "outputs": [],
      "stateMutability": "nonpayable",
      "type": "function"
    },
    {
      "inputs": [
        {
          "internalType": "uint256",
          "name": "cap",
          "type": "uint256"
        }
      ],
      "name": "setMaxMintPerUser",
      "outputs": [],
      "stateMutability": "nonpayable",
      "type": "function"
    },
    {
      "inputs": [
        {
          "internalType": "address",
          "name": "registrar_",
          "type": "address"
        }
      ],
      "name": "setReservedIDRegistrar",
      "outputs": [],
      "stateMutability": "nonpayable",
      "type": "function"
    },
    {
      "inputs": [
        {
          "internalType": "address",
          "name": "resolver",
          "type": "address"
        }
      ],
      "name": "setResolver",
      "outputs": [],
      "stateMutability": "nonpayable",
      "type": "function"
    },
    {
      "inputs": [
        {
          "internalType": "bytes4",
          "name": "interfaceID",
          "type": "bytes4"
        }
      ],
      "name": "supportsInterface",
      "outputs": [
        {
          "internalType": "bool",
          "name": "",
          "type": "bool"
        }
      ],
      "stateMutability": "pure",
      "type": "function"
    },
    {
      "inputs": [],
      "name": "symbol",
      "outputs": [
        {
          "internalType": "string",
          "name": "",
          "type": "string"
        }
      ],
      "stateMutability": "view",
      "type": "function"
    },
    {
      "inputs": [
        {
          "internalType": "uint256",
          "name": "_index",
          "type": "uint256"
        }
      ],
      "name": "tokenByIndex",
      "outputs": [
        {
          "internalType": "uint256",
          "name": "",
          "type": "uint256"
        }
      ],
      "stateMutability": "view",
      "type": "function"
    },
    {
      "inputs": [
        {
          "internalType": "address",
          "name": "_owner",
          "type": "address"
        },
        {
          "internalType": "uint256",
          "name": "_index",
          "type": "uint256"
        }
      ],
      "name": "tokenOfOwnerByIndex",
      "outputs": [
        {
          "internalType": "uint256",
          "name": "",
          "type": "uint256"
        }
      ],
      "stateMutability": "view",
      "type": "function"
    },
    {
      "inputs": [
        {
          "internalType": "uint256",
          "name": "tokenId",
          "type": "uint256"
        }
      ],
      "name": "tokenURI",
      "outputs": [
        {
          "internalType": "string",
          "name": "",
          "type": "string"
        }
      ],
      "stateMutability": "view",
      "type": "function"
    },
    {
      "inputs": [
        {
          "internalType": "address",
          "name": "_owner",
          "type": "address"
        }
      ],
      "name": "tokensOfOwner",
      "outputs": [
        {
          "internalType": "uint256[]",
          "name": "",
          "type": "uint256[]"
        }
      ],
      "stateMutability": "view",
      "type": "function"
    },
    {
      "inputs": [],
      "name": "totalSupply",
      "outputs": [
        {
          "internalType": "uint256",
          "name": "",
          "type": "uint256"
        }
      ],
      "stateMutability": "view",
      "type": "function"
    },
    {
      "inputs": [
        {
          "internalType": "address",
          "name": "from",
          "type": "address"
        },
        {
          "internalType": "address",
          "name": "to",
          "type": "address"
        },
        {
          "internalType": "uint256",
          "name": "tokenId",
          "type": "uint256"
        }
      ],
      "name": "transferFrom",
      "outputs": [],
      "stateMutability": "nonpayable",
      "type": "function"
    },
    {
      "inputs": [
        {
          "internalType": "address",
          "name": "newOwner",
          "type": "address"
        }
      ],
      "name": "transferOwnership",
      "outputs": [],
      "stateMutability": "nonpayable",
      "type": "function"
    },
    {
      "inputs": [],
      "name": "unpause",
      "outputs": [],
      "stateMutability": "nonpayable",
      "type": "function"
    }
  ],
  "transactionHash": "0xe8a7a494e3e6d4f027bd5c14b5c25e54323bc9e83016c3fae5a802b8a28210c3",
  "args": [
    "0xab4914C910533b03F32B7BbCfA56D2B2412949ee",
    "0xdba5666821b22671387fe7ea11d7cc41ede85a5aa67c3e7b3d68ce6a661f389c"
  ],
  "numDeployments": 2,
  "solcInputHash": "de3db2be8f51f7ad0375eb1b8de1d1b8",
  "bytecode": "0x608060405262278d00600755678ac7230489e800006011553480156200002457600080fd5b5060405162005d3a38038062005d3a83398181016040528101906200004a91906200031f565b6040518060400160405280600e81526020017f4d6f6e7374657220446f6d61696e0000000000000000000000000000000000008152506040518060400160405280600381526020017f4d4944000000000000000000000000000000000000000000000000000000000081525060008060006101000a81548160ff021916908315150217905550620000f0620000e46200017460201b60201c565b6200017c60201b60201c565b81600190805190602001906200010892919062000241565b5080600290805190602001906200012192919062000241565b50505081600860006101000a81548173ffffffffffffffffffffffffffffffffffffffff021916908373ffffffffffffffffffffffffffffffffffffffff1602179055508060098190555050506200044b565b600033905090565b60008060019054906101000a900473ffffffffffffffffffffffffffffffffffffffff16905081600060016101000a81548173ffffffffffffffffffffffffffffffffffffffff021916908373ffffffffffffffffffffffffffffffffffffffff1602179055508173ffffffffffffffffffffffffffffffffffffffff168173ffffffffffffffffffffffffffffffffffffffff167f8be0079c531659141344cd1fd0a4f28419497f9722a3daafe3b4186f6b6457e060405160405180910390a35050565b8280546200024f90620003b2565b90600052602060002090601f016020900481019282620002735760008555620002bf565b82601f106200028e57805160ff1916838001178555620002bf565b82800160010185558215620002bf579182015b82811115620002be578251825591602001919060010190620002a1565b5b509050620002ce9190620002d2565b5090565b5b80821115620002ed576000816000905550600101620002d3565b5090565b600081519050620003028162000417565b92915050565b600081519050620003198162000431565b92915050565b600080604083850312156200033357600080fd5b6000620003438582860162000308565b92505060206200035685828601620002f1565b9150509250929050565b60006200036d8262000392565b9050919050565b6000819050919050565b60006200038b8262000360565b9050919050565b600073ffffffffffffffffffffffffffffffffffffffff82169050919050565b60006002820490506001821680620003cb57607f821691505b60208210811415620003e257620003e1620003e8565b5b50919050565b7f4e487b7100000000000000000000000000000000000000000000000000000000600052602260045260246000fd5b620004228162000374565b81146200042e57600080fd5b50565b6200043c816200037e565b81146200044857600080fd5b50565b6158df806200045b6000396000f3fe608060405234801561001057600080fd5b50600436106102955760003560e01c8063715018a611610167578063c475abff116100ce578063e80e31da11610087578063e80e31da14610822578063e985e9c514610852578063f2f6596014610882578063f2fde38b1461089e578063f6a74ed7146108ba578063fca247ac146108d657610295565b8063c475abff14610726578063c87b56dd14610756578063d304c4bc14610786578063d6e4fa86146107a4578063da8c229e146107d4578063ddf7fcb01461080457610295565b806396e494e81161012057806396e494e814610668578063a06db7dc14610698578063a22cb465146106b6578063a7fc7a07146106d2578063aa19dbc0146106ee578063b88d4fde1461070a57610295565b8063715018a6146105cc57806383ccaef7146105d65780638456cb59146105f25780638462151c146105fc5780638da5cb5b1461062c57806395d89b411461064a57610295565b80633f5124691161020b578063583eeb1f116101c4578063583eeb1f146104e2578063594d04dc146105005780635c975abb146105305780636352211e1461054e5780636c0360eb1461057e57806370a082311461059c57610295565b80633f5124691461041257806342842e0e146104425780634e4d35fb1461045e5780634e543b261461047a5780634f6ccce71461049657806355f804b3146104c657610295565b806318160ddd1161025d57806318160ddd1461036457806323b872dd1461038257806328ed4f6c1461039e5780632e94420f146103ba5780632f745c59146103d85780633f4ba83a1461040857610295565b806301ffc9a71461029a57806306fdde03146102ca578063081812fc146102e8578063095ea7b3146103185780630e297b4514610334575b600080fd5b6102b460048036038101906102af91906141a7565b610906565b6040516102c191906149d7565b60405180910390f35b6102d2610b50565b6040516102df9190614a88565b60405180910390f35b61030260048036038101906102fd919061423a565b610be2565b60405161030f919061494e565b60405180910390f35b610332600480360381019061032d9190614101565b610c28565b005b61034e6004803603810190610349919061429f565b610d40565b60405161035b9190614e4a565b60405180910390f35b61036c610d58565b6040516103799190614e4a565b60405180910390f35b61039c60048036038101906103979190613ffb565b610d65565b005b6103b860048036038101906103b39190614263565b610e7c565b005b6103c26110a2565b6040516103cf9190614a6d565b60405180910390f35b6103f260048036038101906103ed9190614101565b6110c8565b6040516103ff9190614e4a565b60405180910390f35b6104106111d8565b005b61042c60048036038101906104279190613f6d565b6111ea565b60405161043991906149d7565b60405180910390f35b61045c60048036038101906104579190613ffb565b611244565b005b6104786004803603810190610473919061413d565b611264565b005b610494600480360381019061048f9190613f6d565b611378565b005b6104b060048036038101906104ab919061423a565b611414565b6040516104bd9190614e4a565b60405180910390f35b6104e060048036038101906104db91906141f9565b6114a9565b005b6104ea61150e565b6040516104f7919061494e565b60405180910390f35b61051a6004803603810190610515919061423a565b611534565b6040516105279190614e4a565b60405180910390f35b610538611558565b60405161054591906149d7565b60405180910390f35b6105686004803603810190610563919061423a565b61156e565b604051610575919061494e565b60405180910390f35b6105866115d5565b6040516105939190614a88565b60405180910390f35b6105b660048036038101906105b19190613f6d565b611663565b6040516105c39190614e4a565b60405180910390f35b6105d461171b565b005b6105f060048036038101906105eb919061423a565b61172f565b005b6105fa6117b1565b005b61061660048036038101906106119190613f6d565b6117c3565b60405161062391906149b5565b60405180910390f35b61063461185a565b604051610641919061494e565b60405180910390f35b610652611883565b60405161065f9190614a88565b60405180910390f35b610682600480360381019061067d919061423a565b611915565b60405161068f91906149d7565b60405180910390f35b6106a0611941565b6040516106ad9190614e4a565b60405180910390f35b6106d060048036038101906106cb91906140c5565b611947565b005b6106ec60048036038101906106e79190613f6d565b61195d565b005b61070860048036038101906107039190613f6d565b611a03565b005b610724600480360381019061071f919061404a565b611b24565b005b610740600480360381019061073b91906142ee565b611c3d565b60405161074d9190614e4a565b60405180910390f35b610770600480360381019061076b919061423a565b611f5b565b60405161077d9190614a88565b60405180910390f35b61078e612003565b60405161079b9190614e4a565b60405180910390f35b6107be60048036038101906107b9919061423a565b612009565b6040516107cb9190614e4a565b60405180910390f35b6107ee60048036038101906107e99190613f6d565b612026565b6040516107fb91906149d7565b60405180910390f35b61080c612046565b60405161081991906149f2565b60405180910390f35b61083c6004803603810190610837919061423a565b61204c565b60405161084991906149d7565b60405180910390f35b61086c60048036038101906108679190613fbf565b612069565b60405161087991906149d7565b60405180910390f35b61089c6004803603810190610897919061423a565b6120fd565b005b6108b860048036038101906108b39190613f6d565b61213e565b005b6108d460048036038101906108cf9190613f6d565b6121c2565b005b6108f060048036038101906108eb919061429f565b612268565b6040516108fd9190614e4a565b60405180910390f35b60007f01ffc9a7a5cef8baa21ed3c5c0d7e23accb804b619e9333b597f47a0d84076e27bffffffffffffffffffffffffffffffffffffffffffffffffffffffff1916827bffffffffffffffffffffffffffffffffffffffffffffffffffffffff19161480610ae157507fb88d4fde60196325a28bb7f99a2582e0b46de55b18761e960c14ad7a320994657f42842e0eb38857a7775b4e7364b2775df7325074d088e7fb39590cd6281184ed7f23b872dd7302113369cda2901243429419bec145408fa8b352b3dd92b66c680b7fe985e9c5c6636c6879256001057b28ccac7718ef0ac56553ff9b926452cab8a37fa22cb4651ab9570f89bb516380c40ce76762284fb1f21337ceaf6adab99e7d4a7f081812fc55e34fdc7cf5d8b5cf4e3621fa6423fde952ec6ab24afdc0d85c0b2e7f095ea7b334ae44009aa867bfb386f5c3b4b443ac6f0ee573fa91c4608fbadfba7f6352211e6566aa027e75ac9dbf2423197fbd9b82b9d981a3ab367d355866aa1c7f70a08231b98ef4ca268c9cc3f6b4590e4bfec28280db06bb5d45e689f2a360be18181818181818187bffffffffffffffffffffffffffffffffffffffffffffffffffffffff1916827bffffffffffffffffffffffffffffffffffffffffffffffffffffffff1916145b80610b4957507f28ed4f6c74b219a5819055dfbcd2f1837c046c364cf01fabb6799e4f440d6f137bffffffffffffffffffffffffffffffffffffffffffffffffffffffff1916827bffffffffffffffffffffffffffffffffffffffffffffffffffffffff1916145b9050919050565b606060018054610b5f90615117565b80601f0160208091040260200160405190810160405280929190818152602001828054610b8b90615117565b8015610bd85780601f10610bad57610100808354040283529160200191610bd8565b820191906000526020600020905b815481529060010190602001808311610bbb57829003601f168201915b5050505050905090565b6000610bed82612280565b6005600083815260200190815260200160002060009054906101000a900473ffffffffffffffffffffffffffffffffffffffff169050919050565b6000610c33826122cb565b90508073ffffffffffffffffffffffffffffffffffffffff168373ffffffffffffffffffffffffffffffffffffffff161415610ca4576040517f08c379a0000000000000000000000000000000000000000000000000000000008152600401610c9b90614dca565b60405180910390fd5b8073ffffffffffffffffffffffffffffffffffffffff16610cc3612352565b73ffffffffffffffffffffffffffffffffffffffff161480610cf25750610cf181610cec612352565b612069565b5b610d31576040517f08c379a0000000000000000000000000000000000000000000000000000000008152600401610d2890614dea565b60405180910390fd5b610d3b838361235a565b505050565b6000610d4f8484846000612413565b90509392505050565b6000601080549050905090565b610d76610d70612352565b8261288c565b610db5576040517f08c379a0000000000000000000000000000000000000000000000000000000008152600401610dac90614b4a565b60405180910390fd5b610dc0838383612921565b600860009054906101000a900473ffffffffffffffffffffffffffffffffffffffff1673ffffffffffffffffffffffffffffffffffffffff166306ab59236009548360001b856040518463ffffffff1660e01b8152600401610e2493929190614a36565b602060405180830381600087803b158015610e3e57600080fd5b505af1158015610e52573d6000803e3d6000fd5b505050506040513d601f19601f82011682018060405250810190610e76919061417e565b50505050565b3073ffffffffffffffffffffffffffffffffffffffff16600860009054906101000a900473ffffffffffffffffffffffffffffffffffffffff1673ffffffffffffffffffffffffffffffffffffffff166302571be36009546040518263ffffffff1660e01b8152600401610ef091906149f2565b60206040518083038186803b158015610f0857600080fd5b505afa158015610f1c573d6000803e3d6000fd5b505050506040513d601f19601f82011682018060405250810190610f409190613f96565b73ffffffffffffffffffffffffffffffffffffffff1614610f96576040517f08c379a0000000000000000000000000000000000000000000000000000000008152600401610f8d90614d0a565b60405180910390fd5b610f9e612c1b565b610fa8338361288c565b610fe7576040517f08c379a0000000000000000000000000000000000000000000000000000000008152600401610fde90614aaa565b60405180910390fd5b600860009054906101000a900473ffffffffffffffffffffffffffffffffffffffff1673ffffffffffffffffffffffffffffffffffffffff166306ab59236009548460001b846040518463ffffffff1660e01b815260040161104b93929190614a36565b602060405180830381600087803b15801561106557600080fd5b505af1158015611079573d6000803e3d6000fd5b505050506040513d601f19601f8201168201806040525081019061109d919061417e565b505050565b600860009054906101000a900473ffffffffffffffffffffffffffffffffffffffff1681565b6000601360008473ffffffffffffffffffffffffffffffffffffffff1673ffffffffffffffffffffffffffffffffffffffff16815260200190815260200160002080549050821061114e576040517f08c379a000000000000000000000000000000000000000000000000000000000815260040161114590614e2a565b60405180910390fd5b601360008473ffffffffffffffffffffffffffffffffffffffff1673ffffffffffffffffffffffffffffffffffffffff16815260200190815260200160002082815481106111c5577f4e487b7100000000000000000000000000000000000000000000000000000000600052603260045260246000fd5b9060005260206000200154905092915050565b6111e0612c65565b6111e8612ce3565b565b6000600c60009054906101000a900473ffffffffffffffffffffffffffffffffffffffff1673ffffffffffffffffffffffffffffffffffffffff168273ffffffffffffffffffffffffffffffffffffffff16149050919050565b61125f83838360405180602001604052806000815250611b24565b505050565b61126c612c65565b60005b8151811015611346576112cc8282815181106112b4577f4e487b7100000000000000000000000000000000000000000000000000000000600052603260045260246000fd5b6020026020010151600b612d4590919063ffffffff16565b600d828281518110611307577f4e487b7100000000000000000000000000000000000000000000000000000000600052603260045260246000fd5b602002602001015190806001815401808255809150506001900390600052602060002001600090919091909150558061133f9061517a565b905061126f565b5080517fa4c3cd462f158bd7d5585bea8b7cf141d737a95d93a4e277f6bb86aaf27f723360405160405180910390a250565b611380612c65565b600860009054906101000a900473ffffffffffffffffffffffffffffffffffffffff1673ffffffffffffffffffffffffffffffffffffffff16631896f70a600954836040518363ffffffff1660e01b81526004016113df929190614a0d565b600060405180830381600087803b1580156113f957600080fd5b505af115801561140d573d6000803e3d6000fd5b5050505050565b6000601080549050821061145d576040517f08c379a000000000000000000000000000000000000000000000000000000000815260040161145490614e2a565b60405180910390fd5b60108281548110611497577f4e487b7100000000000000000000000000000000000000000000000000000000600052603260045260246000fd5b90600052602060002001549050919050565b6114b1612c65565b80600f90805190602001906114c7929190613cd1565b50600f6040516114d79190614913565b60405180910390207f5411e8ebf1636d9e83d5fc4900bf80cbac82e8790da2a4c94db4895e889eedf660405160405180910390a250565b600c60009054906101000a900473ffffffffffffffffffffffffffffffffffffffff1681565b600d818154811061154457600080fd5b906000526020600020016000915090505481565b60008060009054906101000a900460ff16905090565b600042600e600084815260200190815260200160002054116115c5576040517f08c379a00000000000000000000000000000000000000000000000000000000081526004016115bc90614c8a565b60405180910390fd5b6115ce826122cb565b9050919050565b600f80546115e290615117565b80601f016020809104026020016040519081016040528092919081815260200182805461160e90615117565b801561165b5780601f106116305761010080835404028352916020019161165b565b820191906000526020600020905b81548152906001019060200180831161163e57829003601f168201915b505050505081565b60008073ffffffffffffffffffffffffffffffffffffffff168273ffffffffffffffffffffffffffffffffffffffff1614156116d4576040517f08c379a00000000000000000000000000000000000000000000000000000000081526004016116cb90614cca565b60405180910390fd5b600460008373ffffffffffffffffffffffffffffffffffffffff1673ffffffffffffffffffffffffffffffffffffffff168152602001908152602001600020549050919050565b611723612c65565b61172d6000612d83565b565b611737612c65565b6000811161177a576040517f08c379a000000000000000000000000000000000000000000000000000000000815260040161177190614aca565b60405180910390fd5b80601181905550807fe2622cd4be2b8558947da70a95c567e89753cd7c1b12d32d2c2acbcb20516d6e60405160405180910390a250565b6117b9612c65565b6117c1612e48565b565b6060601360008373ffffffffffffffffffffffffffffffffffffffff1673ffffffffffffffffffffffffffffffffffffffff16815260200190815260200160002080548060200260200160405190810160405280929190818152602001828054801561184e57602002820191906000526020600020905b81548152602001906001019080831161183a575b50505050509050919050565b60008060019054906101000a900473ffffffffffffffffffffffffffffffffffffffff16905090565b60606002805461189290615117565b80601f01602080910402602001604051908101604052809291908181526020018280546118be90615117565b801561190b5780601f106118e05761010080835404028352916020019161190b565b820191906000526020600020905b8154815290600101906020018083116118ee57829003601f168201915b5050505050905090565b600042600754600e6000858152602001908152602001600020546119399190614fa9565b109050919050565b60075481565b611959611952612352565b8383612eaa565b5050565b611965612c65565b6001600a60008373ffffffffffffffffffffffffffffffffffffffff1673ffffffffffffffffffffffffffffffffffffffff16815260200190815260200160002060006101000a81548160ff0219169083151502179055508073ffffffffffffffffffffffffffffffffffffffff167f0a8bb31534c0ed46f380cb867bd5c803a189ced9a764e30b3a4991a9901d747460405160405180910390a250565b611a0b612c65565b600073ffffffffffffffffffffffffffffffffffffffff168173ffffffffffffffffffffffffffffffffffffffff161415611a7b576040517f08c379a0000000000000000000000000000000000000000000000000000000008152600401611a7290614b0a565b60405180910390fd5b80600c60006101000a81548173ffffffffffffffffffffffffffffffffffffffff021916908373ffffffffffffffffffffffffffffffffffffffff160217905550600c60009054906101000a900473ffffffffffffffffffffffffffffffffffffffff1673ffffffffffffffffffffffffffffffffffffffff167f066fa6d1f1ef9fda39d214ef7b86b6cd568ad4e8966bcf943dc8a18ae9b0f85860405160405180910390a250565b611b35611b2f612352565b8361288c565b611b74576040517f08c379a0000000000000000000000000000000000000000000000000000000008152600401611b6b90614b4a565b60405180910390fd5b611b8084848484613017565b600860009054906101000a900473ffffffffffffffffffffffffffffffffffffffff1673ffffffffffffffffffffffffffffffffffffffff166306ab59236009548460001b866040518463ffffffff1660e01b8152600401611be493929190614a36565b602060405180830381600087803b158015611bfe57600080fd5b505af1158015611c12573d6000803e3d6000fd5b505050506040513d601f19601f82011682018060405250810190611c36919061417e565b5050505050565b60003073ffffffffffffffffffffffffffffffffffffffff16600860009054906101000a900473ffffffffffffffffffffffffffffffffffffffff1673ffffffffffffffffffffffffffffffffffffffff166302571be36009546040518263ffffffff1660e01b8152600401611cb391906149f2565b60206040518083038186803b158015611ccb57600080fd5b505afa158015611cdf573d6000803e3d6000fd5b505050506040513d601f19601f82011682018060405250810190611d039190613f96565b73ffffffffffffffffffffffffffffffffffffffff1614611d59576040517f08c379a0000000000000000000000000000000000000000000000000000000008152600401611d5090614d0a565b60405180910390fd5b600a60003373ffffffffffffffffffffffffffffffffffffffff1673ffffffffffffffffffffffffffffffffffffffff16815260200190815260200160002060009054906101000a900460ff16611de5576040517f08c379a0000000000000000000000000000000000000000000000000000000008152600401611ddc90614d4a565b60405180910390fd5b611ded612c1b565b42600754600e600086815260200190815260200160002054611e0f9190614fa9565b1015611e50576040517f08c379a0000000000000000000000000000000000000000000000000000000008152600401611e4790614c4a565b60405180910390fd5b60075482611e5e9190614fa9565b60075483600e600087815260200190815260200160002054611e809190614fa9565b611e8a9190614fa9565b11611eca576040517f08c379a0000000000000000000000000000000000000000000000000000000008152600401611ec190614bca565b60405180910390fd5b81600e60008581526020019081526020016000206000828254611eed9190614fa9565b92505081905550827f9b87a00e30f1ac65d898f070f8a3488fe60517182d0a2098e1b4b93a54aa9bd6600e600086815260200190815260200160002054604051611f379190614e4a565b60405180910390a2600e600084815260200190815260200160002054905092915050565b6060611f6682613073565b611fa5576040517f08c379a0000000000000000000000000000000000000000000000000000000008152600401611f9c90614bea565b60405180910390fd5b6000600f8054611fb490615117565b905011611fd05760405180602001604052806000815250611ffc565b600f611fdb836130b4565b604051602001611fec92919061492a565b6040516020818303038152906040525b9050919050565b60115481565b6000600e6000838152602001908152602001600020549050919050565b600a6020528060005260406000206000915054906101000a900460ff1681565b60095481565b600061206282600b6131d890919063ffffffff16565b9050919050565b6000600660008473ffffffffffffffffffffffffffffffffffffffff1673ffffffffffffffffffffffffffffffffffffffff16815260200190815260200160002060008373ffffffffffffffffffffffffffffffffffffffff1673ffffffffffffffffffffffffffffffffffffffff16815260200190815260200160002060009054906101000a900460ff16905092915050565b612105612c65565b806007819055506007547fcc2c34a1adf0911114053f75b51b2b1f8fc9ef9e25f0a5f12f210032b5b0a1b260405160405180910390a250565b612146612c65565b600073ffffffffffffffffffffffffffffffffffffffff168173ffffffffffffffffffffffffffffffffffffffff1614156121b6576040517f08c379a00000000000000000000000000000000000000000000000000000000081526004016121ad90614b6a565b60405180910390fd5b6121bf81612d83565b50565b6121ca612c65565b6000600a60008373ffffffffffffffffffffffffffffffffffffffff1673ffffffffffffffffffffffffffffffffffffffff16815260200190815260200160002060006101000a81548160ff0219169083151502179055508073ffffffffffffffffffffffffffffffffffffffff167f33d83959be2573f5453b12eb9d43b3499bc57d96bd2f067ba44803c859e8111360405160405180910390a250565b60006122778484846001612413565b90509392505050565b61228981613073565b6122c8576040517f08c379a00000000000000000000000000000000000000000000000000000000081526004016122bf90614daa565b60405180910390fd5b50565b6000806122d783613214565b9050600073ffffffffffffffffffffffffffffffffffffffff168173ffffffffffffffffffffffffffffffffffffffff161415612349576040517f08c379a000000000000000000000000000000000000000000000000000000000815260040161234090614daa565b60405180910390fd5b80915050919050565b600033905090565b816005600083815260200190815260200160002060006101000a81548173ffffffffffffffffffffffffffffffffffffffff021916908373ffffffffffffffffffffffffffffffffffffffff160217905550808273ffffffffffffffffffffffffffffffffffffffff166123cd836122cb565b73ffffffffffffffffffffffffffffffffffffffff167f8c5be1e5ebec7d5bd14f71427d1e84f3dd0314c0f7b2291e5b200ac8c7c3b92560405160405180910390a45050565b60003073ffffffffffffffffffffffffffffffffffffffff16600860009054906101000a900473ffffffffffffffffffffffffffffffffffffffff1673ffffffffffffffffffffffffffffffffffffffff166302571be36009546040518263ffffffff1660e01b815260040161248991906149f2565b60206040518083038186803b1580156124a157600080fd5b505afa1580156124b5573d6000803e3d6000fd5b505050506040513d601f19601f820116820180604052508101906124d99190613f96565b73ffffffffffffffffffffffffffffffffffffffff161461252f576040517f08c379a000000000000000000000000000000000000000000000000000000000815260040161252690614d0a565b60405180910390fd5b600a60003373ffffffffffffffffffffffffffffffffffffffff1673ffffffffffffffffffffffffffffffffffffffff16815260200190815260200160002060009054906101000a900460ff166125bb576040517f08c379a00000000000000000000000000000000000000000000000000000000081526004016125b290614d4a565b60405180910390fd5b6125c3612c1b565b6125cc85611915565b61260b576040517f08c379a000000000000000000000000000000000000000000000000000000000815260040161260290614e0a565b60405180910390fd5b6126148561204c565b80156126265750612624336111ea565b155b15612666576040517f08c379a000000000000000000000000000000000000000000000000000000000815260040161265d90614cea565b60405180910390fd5b600754426126749190614fa9565b60075484426126839190614fa9565b61268d9190614fa9565b116126cd576040517f08c379a00000000000000000000000000000000000000000000000000000000081526004016126c490614d8a565b60405180910390fd5b6011546126d985611663565b10612719576040517f08c379a000000000000000000000000000000000000000000000000000000000815260040161271090614c6a565b60405180910390fd5b82426127259190614fa9565b600e60008781526020019081526020016000208190555061274585613073565b156127545761275385613251565b5b61275e848661339f565b811561281c57600860009054906101000a900473ffffffffffffffffffffffffffffffffffffffff1673ffffffffffffffffffffffffffffffffffffffff166306ab59236009548760001b876040518463ffffffff1660e01b81526004016127c893929190614a36565b602060405180830381600087803b1580156127e257600080fd5b505af11580156127f6573d6000803e3d6000fd5b505050506040513d601f19601f8201168201806040525081019061281a919061417e565b505b8373ffffffffffffffffffffffffffffffffffffffff16857fb3d987963d01b2f68493b4bdb130988f157ea43070d4ad840fee0466ed9370d985426128619190614fa9565b60405161286e9190614e4a565b60405180910390a382426128829190614fa9565b9050949350505050565b6000806128988361156e565b90508073ffffffffffffffffffffffffffffffffffffffff168473ffffffffffffffffffffffffffffffffffffffff16148061290757508373ffffffffffffffffffffffffffffffffffffffff166128ef84610be2565b73ffffffffffffffffffffffffffffffffffffffff16145b8061291857506129178185612069565b5b91505092915050565b8273ffffffffffffffffffffffffffffffffffffffff16612941826122cb565b73ffffffffffffffffffffffffffffffffffffffff1614612997576040517f08c379a000000000000000000000000000000000000000000000000000000000815260040161298e90614b8a565b60405180910390fd5b600073ffffffffffffffffffffffffffffffffffffffff168273ffffffffffffffffffffffffffffffffffffffff161415612a07576040517f08c379a00000000000000000000000000000000000000000000000000000000081526004016129fe90614c0a565b60405180910390fd5b612a1483838360016133ff565b8273ffffffffffffffffffffffffffffffffffffffff16612a34826122cb565b73ffffffffffffffffffffffffffffffffffffffff1614612a8a576040517f08c379a0000000000000000000000000000000000000000000000000000000008152600401612a8190614b8a565b60405180910390fd5b6005600082815260200190815260200160002060006101000a81549073ffffffffffffffffffffffffffffffffffffffff02191690556001600460008573ffffffffffffffffffffffffffffffffffffffff1673ffffffffffffffffffffffffffffffffffffffff168152602001908152602001600020600082825403925050819055506001600460008473ffffffffffffffffffffffffffffffffffffffff1673ffffffffffffffffffffffffffffffffffffffff16815260200190815260200160002060008282540192505081905550816003600083815260200190815260200160002060006101000a81548173ffffffffffffffffffffffffffffffffffffffff021916908373ffffffffffffffffffffffffffffffffffffffff160217905550808273ffffffffffffffffffffffffffffffffffffffff168473ffffffffffffffffffffffffffffffffffffffff167fddf252ad1be2c89b69c2b068fc378daa952ba7f163c4a11628f55a4df523b3ef60405160405180910390a4612c168383836001613525565b505050565b612c23611558565b15612c63576040517f08c379a0000000000000000000000000000000000000000000000000000000008152600401612c5a90614caa565b60405180910390fd5b565b612c6d612352565b73ffffffffffffffffffffffffffffffffffffffff16612c8b61185a565b73ffffffffffffffffffffffffffffffffffffffff1614612ce1576040517f08c379a0000000000000000000000000000000000000000000000000000000008152600401612cd890614d6a565b60405180910390fd5b565b612ceb61352b565b60008060006101000a81548160ff0219169083151502179055507f5db9ee0a495bf2e6ff9c91a7834c1ba4fdd244a5e8aa4e537bd38aeae4b073aa612d2e612352565b604051612d3b919061494e565b60405180910390a1565b6000600882901c9050600060ff83166001901b9050808460000160008481526020019081526020016000206000828254179250508190555050505050565b60008060019054906101000a900473ffffffffffffffffffffffffffffffffffffffff16905081600060016101000a81548173ffffffffffffffffffffffffffffffffffffffff021916908373ffffffffffffffffffffffffffffffffffffffff1602179055508173ffffffffffffffffffffffffffffffffffffffff168173ffffffffffffffffffffffffffffffffffffffff167f8be0079c531659141344cd1fd0a4f28419497f9722a3daafe3b4186f6b6457e060405160405180910390a35050565b612e50612c1b565b60016000806101000a81548160ff0219169083151502179055507f62e78cea01bee320cd4e420270b5ea74000d11b0c9f74754ebdbfc544b05a258612e93612352565b604051612ea0919061494e565b60405180910390a1565b8173ffffffffffffffffffffffffffffffffffffffff168373ffffffffffffffffffffffffffffffffffffffff161415612f19576040517f08c379a0000000000000000000000000000000000000000000000000000000008152600401612f1090614c2a565b60405180910390fd5b80600660008573ffffffffffffffffffffffffffffffffffffffff1673ffffffffffffffffffffffffffffffffffffffff16815260200190815260200160002060008473ffffffffffffffffffffffffffffffffffffffff1673ffffffffffffffffffffffffffffffffffffffff16815260200190815260200160002060006101000a81548160ff0219169083151502179055508173ffffffffffffffffffffffffffffffffffffffff168373ffffffffffffffffffffffffffffffffffffffff167f17307eab39ab6107e8899845ad3d59bd9653f200f220920489ca2b5937696c318360405161300a91906149d7565b60405180910390a3505050565b613022848484612921565b61302e84848484613574565b61306d576040517f08c379a000000000000000000000000000000000000000000000000000000000815260040161306490614b2a565b60405180910390fd5b50505050565b60008073ffffffffffffffffffffffffffffffffffffffff1661309583613214565b73ffffffffffffffffffffffffffffffffffffffff1614159050919050565b6060600060016130c38461370b565b01905060008167ffffffffffffffff811115613108577f4e487b7100000000000000000000000000000000000000000000000000000000600052604160045260246000fd5b6040519080825280601f01601f19166020018201604052801561313a5781602001600182028036833780820191505090505b509050600082602001820190505b6001156131cd578080600190039150507f3031323334353637383961626364656600000000000000000000000000000000600a86061a8153600a85816131b7577f4e487b7100000000000000000000000000000000000000000000000000000000600052601260045260246000fd5b04945060008514156131c8576131cd565b613148565b819350505050919050565b600080600883901c9050600060ff84166001901b9050600081866000016000858152602001908152602001600020541614159250505092915050565b60006003600083815260200190815260200160002060009054906101000a900473ffffffffffffffffffffffffffffffffffffffff169050919050565b61325a81613942565b600060126000838152602001908152602001600020549050600060016010805490506132869190614fff565b90506000601082815481106132c4577f4e487b7100000000000000000000000000000000000000000000000000000000600052603260045260246000fd5b90600052602060002001549050806010848154811061330c577f4e487b7100000000000000000000000000000000000000000000000000000000600052603260045260246000fd5b90600052602060002001819055506010805480613352577f4e487b7100000000000000000000000000000000000000000000000000000000600052603160045260246000fd5b600190038181906000526020600020016000905590558260126000838152602001908152602001600020819055506000601260008681526020019081526020016000208190555050505050565b6133a98282613a90565b601081908060018154018082558091505060019003906000526020600020016000909190919091505560016010805490506133e49190614fff565b60126000838152602001908152602001600020819055505050565b600181111561351f57600073ffffffffffffffffffffffffffffffffffffffff168473ffffffffffffffffffffffffffffffffffffffff16146134935780600460008673ffffffffffffffffffffffffffffffffffffffff1673ffffffffffffffffffffffffffffffffffffffff168152602001908152602001600020600082825461348b9190614fff565b925050819055505b600073ffffffffffffffffffffffffffffffffffffffff168373ffffffffffffffffffffffffffffffffffffffff161461351e5780600460008573ffffffffffffffffffffffffffffffffffffffff1673ffffffffffffffffffffffffffffffffffffffff16815260200190815260200160002060008282546135169190614fa9565b925050819055505b5b50505050565b50505050565b613533611558565b613572576040517f08c379a000000000000000000000000000000000000000000000000000000000815260040161356990614aea565b60405180910390fd5b565b60006135958473ffffffffffffffffffffffffffffffffffffffff16613cae565b156136fe578373ffffffffffffffffffffffffffffffffffffffff1663150b7a026135be612352565b8786866040518563ffffffff1660e01b81526004016135e09493929190614969565b602060405180830381600087803b1580156135fa57600080fd5b505af192505050801561362b57506040513d601f19601f8201168201806040525081019061362891906141d0565b60015b6136ae573d806000811461365b576040519150601f19603f3d011682016040523d82523d6000602084013e613660565b606091505b506000815114156136a6576040517f08c379a000000000000000000000000000000000000000000000000000000000815260040161369d90614b2a565b60405180910390fd5b805181602001fd5b63150b7a0260e01b7bffffffffffffffffffffffffffffffffffffffffffffffffffffffff1916817bffffffffffffffffffffffffffffffffffffffffffffffffffffffff191614915050613703565b600190505b949350505050565b600080600090507a184f03e93ff9f4daa797ed6e38ed64bf6a1f010000000000000000831061378f577a184f03e93ff9f4daa797ed6e38ed64bf6a1f0100000000000000008381613785577f4e487b7100000000000000000000000000000000000000000000000000000000600052601260045260246000fd5b0492506040810190505b6d04ee2d6d415b85acef810000000083106137f2576d04ee2d6d415b85acef810000000083816137e8577f4e487b7100000000000000000000000000000000000000000000000000000000600052601260045260246000fd5b0492506020810190505b662386f26fc10000831061384757662386f26fc10000838161383d577f4e487b7100000000000000000000000000000000000000000000000000000000600052601260045260246000fd5b0492506010810190505b6305f5e1008310613896576305f5e100838161388c577f4e487b7100000000000000000000000000000000000000000000000000000000600052601260045260246000fd5b0492506008810190505b61271083106138e15761271083816138d7577f4e487b7100000000000000000000000000000000000000000000000000000000600052601260045260246000fd5b0492506004810190505b6064831061392a5760648381613920577f4e487b7100000000000000000000000000000000000000000000000000000000600052601260045260246000fd5b0492506002810190505b600a8310613939576001810190505b80915050919050565b600061394d826122cb565b905061395d8160008460016133ff565b613966826122cb565b90506005600083815260200190815260200160002060006101000a81549073ffffffffffffffffffffffffffffffffffffffff02191690556001600460008373ffffffffffffffffffffffffffffffffffffffff1673ffffffffffffffffffffffffffffffffffffffff168152602001908152602001600020600082825403925050819055506003600083815260200190815260200160002060006101000a81549073ffffffffffffffffffffffffffffffffffffffff021916905581600073ffffffffffffffffffffffffffffffffffffffff168273ffffffffffffffffffffffffffffffffffffffff167fddf252ad1be2c89b69c2b068fc378daa952ba7f163c4a11628f55a4df523b3ef60405160405180910390a4613a8c816000846001613525565b5050565b600073ffffffffffffffffffffffffffffffffffffffff168273ffffffffffffffffffffffffffffffffffffffff161415613b00576040517f08c379a0000000000000000000000000000000000000000000000000000000008152600401613af790614d2a565b60405180910390fd5b613b0981613073565b15613b49576040517f08c379a0000000000000000000000000000000000000000000000000000000008152600401613b4090614baa565b60405180910390fd5b613b576000838360016133ff565b613b6081613073565b15613ba0576040517f08c379a0000000000000000000000000000000000000000000000000000000008152600401613b9790614baa565b60405180910390fd5b6001600460008473ffffffffffffffffffffffffffffffffffffffff1673ffffffffffffffffffffffffffffffffffffffff16815260200190815260200160002060008282540192505081905550816003600083815260200190815260200160002060006101000a81548173ffffffffffffffffffffffffffffffffffffffff021916908373ffffffffffffffffffffffffffffffffffffffff160217905550808273ffffffffffffffffffffffffffffffffffffffff16600073ffffffffffffffffffffffffffffffffffffffff167fddf252ad1be2c89b69c2b068fc378daa952ba7f163c4a11628f55a4df523b3ef60405160405180910390a4613caa600083836001613525565b5050565b6000808273ffffffffffffffffffffffffffffffffffffffff163b119050919050565b828054613cdd90615117565b90600052602060002090601f016020900481019282613cff5760008555613d46565b82601f10613d1857805160ff1916838001178555613d46565b82800160010185558215613d46579182015b82811115613d45578251825591602001919060010190613d2a565b5b509050613d539190613d57565b5090565b5b80821115613d70576000816000905550600101613d58565b5090565b6000613d87613d8284614e8a565b614e65565b90508083825260208201905082856020860282011115613da657600080fd5b60005b85811015613dd65781613dbc8882613f58565b845260208401935060208301925050600181019050613da9565b5050509392505050565b6000613df3613dee84614eb6565b614e65565b905082815260208101848484011115613e0b57600080fd5b613e168482856150d5565b509392505050565b6000613e31613e2c84614ee7565b614e65565b905082815260208101848484011115613e4957600080fd5b613e548482856150d5565b509392505050565b600081359050613e6b81615836565b92915050565b600081519050613e8081615836565b92915050565b600082601f830112613e9757600080fd5b8135613ea7848260208601613d74565b91505092915050565b600081359050613ebf8161584d565b92915050565b600081519050613ed481615864565b92915050565b600081359050613ee98161587b565b92915050565b600081519050613efe8161587b565b92915050565b600082601f830112613f1557600080fd5b8135613f25848260208601613de0565b91505092915050565b600082601f830112613f3f57600080fd5b8135613f4f848260208601613e1e565b91505092915050565b600081359050613f6781615892565b92915050565b600060208284031215613f7f57600080fd5b6000613f8d84828501613e5c565b91505092915050565b600060208284031215613fa857600080fd5b6000613fb684828501613e71565b91505092915050565b60008060408385031215613fd257600080fd5b6000613fe085828601613e5c565b9250506020613ff185828601613e5c565b9150509250929050565b60008060006060848603121561401057600080fd5b600061401e86828701613e5c565b935050602061402f86828701613e5c565b925050604061404086828701613f58565b9150509250925092565b6000806000806080858703121561406057600080fd5b600061406e87828801613e5c565b945050602061407f87828801613e5c565b935050604061409087828801613f58565b925050606085013567ffffffffffffffff8111156140ad57600080fd5b6140b987828801613f04565b91505092959194509250565b600080604083850312156140d857600080fd5b60006140e685828601613e5c565b92505060206140f785828601613eb0565b9150509250929050565b6000806040838503121561411457600080fd5b600061412285828601613e5c565b925050602061413385828601613f58565b9150509250929050565b60006020828403121561414f57600080fd5b600082013567ffffffffffffffff81111561416957600080fd5b61417584828501613e86565b91505092915050565b60006020828403121561419057600080fd5b600061419e84828501613ec5565b91505092915050565b6000602082840312156141b957600080fd5b60006141c784828501613eda565b91505092915050565b6000602082840312156141e257600080fd5b60006141f084828501613eef565b91505092915050565b60006020828403121561420b57600080fd5b600082013567ffffffffffffffff81111561422557600080fd5b61423184828501613f2e565b91505092915050565b60006020828403121561424c57600080fd5b600061425a84828501613f58565b91505092915050565b6000806040838503121561427657600080fd5b600061428485828601613f58565b925050602061429585828601613e5c565b9150509250929050565b6000806000606084860312156142b457600080fd5b60006142c286828701613f58565b93505060206142d386828701613e5c565b92505060406142e486828701613f58565b9150509250925092565b6000806040838503121561430157600080fd5b600061430f85828601613f58565b925050602061432085828601613f58565b9150509250929050565b600061433683836148f5565b60208301905092915050565b61434b81615033565b82525050565b600061435c82614f3d565b6143668185614f6b565b935061437183614f18565b8060005b838110156143a2578151614389888261432a565b975061439483614f5e565b925050600181019050614375565b5085935050505092915050565b6143b881615045565b82525050565b6143c781615051565b82525050565b60006143d882614f48565b6143e28185614f7c565b93506143f28185602086016150e4565b6143fb81615250565b840191505092915050565b61440f816150b1565b82525050565b600061442082614f53565b61442a8185614f8d565b935061443a8185602086016150e4565b61444381615250565b840191505092915050565b600061445982614f53565b6144638185614f9e565b93506144738185602086016150e4565b80840191505092915050565b6000815461448c81615117565b6144968186614f9e565b945060018216600081146144b157600181146144c2576144f5565b60ff198316865281860193506144f5565b6144cb85614f28565b60005b838110156144ed578154818901526001820191506020810190506144ce565b838801955050505b50505092915050565b600061450b601583614f8d565b915061451682615261565b602082019050919050565b600061452e601083614f8d565b91506145398261528a565b602082019050919050565b6000614551601483614f8d565b915061455c826152b3565b602082019050919050565b6000614574601183614f8d565b915061457f826152dc565b602082019050919050565b6000614597603283614f8d565b91506145a282615305565b604082019050919050565b60006145ba602783614f8d565b91506145c582615354565b604082019050919050565b60006145dd602683614f8d565b91506145e8826153a3565b604082019050919050565b6000614600602583614f8d565b915061460b826153f2565b604082019050919050565b6000614623601c83614f8d565b915061462e82615441565b602082019050919050565b6000614646601483614f8d565b91506146518261546a565b602082019050919050565b6000614669601683614f8d565b915061467482615493565b602082019050919050565b600061468c602483614f8d565b9150614697826154bc565b604082019050919050565b60006146af601983614f8d565b91506146ba8261550b565b602082019050919050565b60006146d2601583614f8d565b91506146dd82615534565b602082019050919050565b60006146f5601383614f8d565b91506147008261555d565b602082019050919050565b6000614718600783614f8d565b915061472382615586565b602082019050919050565b600061473b601083614f8d565b9150614746826155af565b602082019050919050565b600061475e602983614f8d565b9150614769826155d8565b604082019050919050565b6000614781601183614f8d565b915061478c82615627565b602082019050919050565b60006147a4600883614f8d565b91506147af82615650565b602082019050919050565b60006147c7602083614f8d565b91506147d282615679565b602082019050919050565b60006147ea600983614f8d565b91506147f5826156a2565b602082019050919050565b600061480d602083614f8d565b9150614818826156cb565b602082019050919050565b6000614830601283614f8d565b915061483b826156f4565b602082019050919050565b6000614853601883614f8d565b915061485e8261571d565b602082019050919050565b6000614876602183614f8d565b915061488182615746565b604082019050919050565b6000614899603d83614f8d565b91506148a482615795565b604082019050919050565b60006148bc600d83614f8d565b91506148c7826157e4565b602082019050919050565b60006148df600d83614f8d565b91506148ea8261580d565b602082019050919050565b6148fe816150a7565b82525050565b61490d816150a7565b82525050565b600061491f828461447f565b915081905092915050565b6000614936828561447f565b9150614942828461444e565b91508190509392505050565b60006020820190506149636000830184614342565b92915050565b600060808201905061497e6000830187614342565b61498b6020830186614342565b6149986040830185614904565b81810360608301526149aa81846143cd565b905095945050505050565b600060208201905081810360008301526149cf8184614351565b905092915050565b60006020820190506149ec60008301846143af565b92915050565b6000602082019050614a0760008301846143be565b92915050565b6000604082019050614a2260008301856143be565b614a2f6020830184614342565b9392505050565b6000606082019050614a4b60008301866143be565b614a5860208301856143be565b614a656040830184614342565b949350505050565b6000602082019050614a826000830184614406565b92915050565b60006020820190508181036000830152614aa28184614415565b905092915050565b60006020820190508181036000830152614ac3816144fe565b9050919050565b60006020820190508181036000830152614ae381614521565b9050919050565b60006020820190508181036000830152614b0381614544565b9050919050565b60006020820190508181036000830152614b2381614567565b9050919050565b60006020820190508181036000830152614b438161458a565b9050919050565b60006020820190508181036000830152614b63816145ad565b9050919050565b60006020820190508181036000830152614b83816145d0565b9050919050565b60006020820190508181036000830152614ba3816145f3565b9050919050565b60006020820190508181036000830152614bc381614616565b9050919050565b60006020820190508181036000830152614be381614639565b9050919050565b60006020820190508181036000830152614c038161465c565b9050919050565b60006020820190508181036000830152614c238161467f565b9050919050565b60006020820190508181036000830152614c43816146a2565b9050919050565b60006020820190508181036000830152614c63816146c5565b9050919050565b60006020820190508181036000830152614c83816146e8565b9050919050565b60006020820190508181036000830152614ca38161470b565b9050919050565b60006020820190508181036000830152614cc38161472e565b9050919050565b60006020820190508181036000830152614ce381614751565b9050919050565b60006020820190508181036000830152614d0381614774565b9050919050565b60006020820190508181036000830152614d2381614797565b9050919050565b60006020820190508181036000830152614d43816147ba565b9050919050565b60006020820190508181036000830152614d63816147dd565b9050919050565b60006020820190508181036000830152614d8381614800565b9050919050565b60006020820190508181036000830152614da381614823565b9050919050565b60006020820190508181036000830152614dc381614846565b9050919050565b60006020820190508181036000830152614de381614869565b9050919050565b60006020820190508181036000830152614e038161488c565b9050919050565b60006020820190508181036000830152614e23816148af565b9050919050565b60006020820190508181036000830152614e43816148d2565b9050919050565b6000602082019050614e5f6000830184614904565b92915050565b6000614e6f614e80565b9050614e7b8282615149565b919050565b6000604051905090565b600067ffffffffffffffff821115614ea557614ea4615221565b5b602082029050602081019050919050565b600067ffffffffffffffff821115614ed157614ed0615221565b5b614eda82615250565b9050602081019050919050565b600067ffffffffffffffff821115614f0257614f01615221565b5b614f0b82615250565b9050602081019050919050565b6000819050602082019050919050565b60008190508160005260206000209050919050565b600081519050919050565b600081519050919050565b600081519050919050565b6000602082019050919050565b600082825260208201905092915050565b600082825260208201905092915050565b600082825260208201905092915050565b600081905092915050565b6000614fb4826150a7565b9150614fbf836150a7565b9250827fffffffffffffffffffffffffffffffffffffffffffffffffffffffffffffffff03821115614ff457614ff36151c3565b5b828201905092915050565b600061500a826150a7565b9150615015836150a7565b925082821015615028576150276151c3565b5b828203905092915050565b600061503e82615087565b9050919050565b60008115159050919050565b6000819050919050565b60007fffffffff0000000000000000000000000000000000000000000000000000000082169050919050565b600073ffffffffffffffffffffffffffffffffffffffff82169050919050565b6000819050919050565b60006150bc826150c3565b9050919050565b60006150ce82615087565b9050919050565b82818337600083830152505050565b60005b838110156151025780820151818401526020810190506150e7565b83811115615111576000848401525b50505050565b6000600282049050600182168061512f57607f821691505b60208210811415615143576151426151f2565b5b50919050565b61515282615250565b810181811067ffffffffffffffff8211171561517157615170615221565b5b80604052505050565b6000615185826150a7565b91507fffffffffffffffffffffffffffffffffffffffffffffffffffffffffffffffff8214156151b8576151b76151c3565b5b600182019050919050565b7f4e487b7100000000000000000000000000000000000000000000000000000000600052601160045260246000fd5b7f4e487b7100000000000000000000000000000000000000000000000000000000600052602260045260246000fd5b7f4e487b7100000000000000000000000000000000000000000000000000000000600052604160045260246000fd5b6000601f19601f8301169050919050565b7f6e6f7420617070726f766564206f72206f776e65720000000000000000000000600082015250565b7f696e76616c6964206d696e742063617000000000000000000000000000000000600082015250565b7f5061757361626c653a206e6f7420706175736564000000000000000000000000600082015250565b7f696e76616c696420726567697374726172000000000000000000000000000000600082015250565b7f4552433732313a207472616e7366657220746f206e6f6e20455243373231526560008201527f63656976657220696d706c656d656e7465720000000000000000000000000000602082015250565b7f4552433732313a2063616c6c6572206973206e6f7420617070726f766564206f60008201527f72206f776e657200000000000000000000000000000000000000000000000000602082015250565b7f4f776e61626c653a206e6577206f776e657220697320746865207a65726f206160008201527f6464726573730000000000000000000000000000000000000000000000000000602082015250565b7f4552433732313a207472616e736665722066726f6d20696e636f72726563742060008201527f6f776e6572000000000000000000000000000000000000000000000000000000602082015250565b7f4552433732313a20746f6b656e20616c7265616479206d696e74656400000000600082015250565b7f74696d657374616d70206f766572666c6f776564000000000000000000000000600082015250565b7f746f6b656e496420646f6573206e6f7420657869737400000000000000000000600082015250565b7f4552433732313a207472616e7366657220746f20746865207a65726f2061646460008201527f7265737300000000000000000000000000000000000000000000000000000000602082015250565b7f4552433732313a20617070726f766520746f2063616c6c657200000000000000600082015250565b7f7374696c6c20696e20677261636520706572696f640000000000000000000000600082015250565b7f62616c616e636520657863656564732063617000000000000000000000000000600082015250565b7f6578706972656400000000000000000000000000000000000000000000000000600082015250565b7f5061757361626c653a2070617573656400000000000000000000000000000000600082015250565b7f4552433732313a2061646472657373207a65726f206973206e6f74206120766160008201527f6c6964206f776e65720000000000000000000000000000000000000000000000602082015250565b7f726573657276656420746f6b656e206964000000000000000000000000000000600082015250565b7f6e6f74206c697665000000000000000000000000000000000000000000000000600082015250565b7f4552433732313a206d696e7420746f20746865207a65726f2061646472657373600082015250565b7f6f6e6c79206374726c0000000000000000000000000000000000000000000000600082015250565b7f4f776e61626c653a2063616c6c6572206973206e6f7420746865206f776e6572600082015250565b7f74696d657374616d70206f766572666c6f770000000000000000000000000000600082015250565b7f4552433732313a20696e76616c696420746f6b656e2049440000000000000000600082015250565b7f4552433732313a20617070726f76616c20746f2063757272656e74206f776e6560008201527f7200000000000000000000000000000000000000000000000000000000000000602082015250565b7f4552433732313a20617070726f76652063616c6c6572206973206e6f7420746f60008201527f6b656e206f776e6572206f7220617070726f76656420666f7220616c6c000000602082015250565b7f6e6f7420617661696c61626c6500000000000000000000000000000000000000600082015250565b7f696e76616c696420696e64657800000000000000000000000000000000000000600082015250565b61583f81615033565b811461584a57600080fd5b50565b61585681615045565b811461586157600080fd5b50565b61586d81615051565b811461587857600080fd5b50565b6158848161505b565b811461588f57600080fd5b50565b61589b816150a7565b81146158a657600080fd5b5056fea2646970667358221220828f5ec036db397e873f3171dc9905e382c483f9597598909b2957fe11baa89e64736f6c63430008040033",
  "devdoc": {
    "kind": "dev",
    "methods": {
      "addController(address)": {
        "details": "Authorises a controller, who can register and renew domains."
      },
      "addReservedTokenId(uint256[])": {
        "details": "Some names are reserved for special purposes "
      },
      "approve(address,uint256)": {
        "details": "See {IERC721-approve}."
      },
      "available(uint256)": {
        "details": "Returns true iff the specified name is available for registration."
      },
      "balanceOf(address)": {
        "details": "See {IERC721-balanceOf}."
      },
      "getApproved(uint256)": {
        "details": "See {IERC721-getApproved}."
      },
      "isApprovedForAll(address,address)": {
        "details": "See {IERC721-isApprovedForAll}."
      },
      "name()": {
        "details": "See {IERC721Metadata-name}."
      },
      "nameExpires(uint256)": {
        "details": "Returns the expiration timestamp of the specified id."
      },
      "owner()": {
        "details": "Returns the address of the current owner."
      },
      "ownerOf(uint256)": {
        "details": "Gets the owner of the specified token ID. Names become unowned      when their registration expires.",
        "params": {
          "tokenId": "uint256 ID of the token to query the owner of"
        },
        "returns": {
          "_0": "address currently marked as the owner of the given token ID"
        }
      },
      "pause()": {
        "details": "Pause the register & renew globally"
      },
      "paused()": {
        "details": "Returns true if the contract is paused, and false otherwise."
      },
      "reclaim(uint256,address)": {
        "details": "Reclaim ownership of a name in MID, if you own it in the registrar."
      },
      "register(uint256,address,uint256)": {
        "details": "Register a name.",
        "params": {
          "duration": "Duration in seconds for the registration.",
          "id": "The token ID (keccak256 of the label).",
          "owner": "The address that should own the registration."
        }
      },
      "registerOnly(uint256,address,uint256)": {
        "details": "Register a name, without modifying the registry.",
        "params": {
          "duration": "Duration in seconds for the registration.",
          "id": "The token ID (keccak256 of the label).",
          "owner": "The address that should own the registration."
        }
      },
      "removeController(address)": {
        "details": "Revoke controller permission for an address."
      },
      "renew(uint256,uint256)": {
        "details": "Renew the name with input duration"
      },
      "renounceOwnership()": {
        "details": "Leaves the contract without owner. It will not be possible to call `onlyOwner` functions anymore. Can only be called by the current owner. NOTE: Renouncing ownership will leave the contract without an owner, thereby removing any functionality that is only available to the owner."
      },
      "safeTransferFrom(address,address,uint256)": {
        "details": "See {IERC721-safeTransferFrom}."
      },
      "safeTransferFrom(address,address,uint256,bytes)": {
        "details": "modify `transferFrom` and `safeTransferFrom` to make the domain automatically  transfer to target owner as well"
      },
      "setApprovalForAll(address,bool)": {
        "details": "See {IERC721-setApprovalForAll}."
      },
      "setBaseURI(string)": {
        "details": "Support directly set the baseURI.",
        "params": {
          "baseURI_": "the new base URI"
        }
      },
      "setGracePeriod(uint256)": {
        "details": "Reset the grace period"
      },
      "setMaxMintPerUser(uint256)": {
        "details": "max mint per user setter"
      },
      "setResolver(address)": {
        "details": "Set the resolver for the TLD this registrar manages."
      },
      "symbol()": {
        "details": "See {IERC721Metadata-symbol}."
      },
      "tokenByIndex(uint256)": {
        "details": "Get token ID by stored order"
      },
      "tokenURI(uint256)": {
        "details": "Return the metadata URI by token ID"
      },
      "totalSupply()": {
        "details": "Support token metadata"
      },
      "transferFrom(address,address,uint256)": {
        "details": "modify `transferFrom` and `safeTransferFrom` to make the domain automatically  transfer to target owner as well"
      },
      "transferOwnership(address)": {
        "details": "Transfers ownership of the contract to a new account (`newOwner`). Can only be called by the current owner."
      },
      "unpause()": {
        "details": "Unpause the register & renew globally"
      }
    },
    "stateVariables": {
      "baseURI": {
        "details": "Base URI of NFT metadata"
      },
      "expiries": {
        "details": "A map of expiry times"
      },
      "idToIndexes": {
        "details": "mapping from token id to index in tokens array"
      },
      "maxMintPerUser": {
        "details": "The max minting count per account"
      },
      "ownerToIds": {
        "details": "mapping from owner address to token ids"
      },
      "tokens": {
        "details": "All minted token ids"
      }
    },
    "version": 1
  },
  "userdoc": {
    "kind": "user",
    "methods": {},
    "version": 1
  },
  "storageLayout": {
    "storage": [
      {
        "astId": 130,
        "contract": "contracts/cidregistrar/BaseRegistrarImplementation.sol:BaseRegistrarImplementation",
        "label": "_paused",
        "offset": 0,
        "slot": "0",
        "type": "t_bool"
      },
      {
        "astId": 7,
        "contract": "contracts/cidregistrar/BaseRegistrarImplementation.sol:BaseRegistrarImplementation",
        "label": "_owner",
        "offset": 1,
        "slot": "0",
        "type": "t_address"
      },
      {
        "astId": 246,
        "contract": "contracts/cidregistrar/BaseRegistrarImplementation.sol:BaseRegistrarImplementation",
        "label": "_name",
        "offset": 0,
        "slot": "1",
        "type": "t_string_storage"
      },
      {
        "astId": 248,
        "contract": "contracts/cidregistrar/BaseRegistrarImplementation.sol:BaseRegistrarImplementation",
        "label": "_symbol",
        "offset": 0,
        "slot": "2",
        "type": "t_string_storage"
      },
      {
        "astId": 252,
        "contract": "contracts/cidregistrar/BaseRegistrarImplementation.sol:BaseRegistrarImplementation",
        "label": "_owners",
        "offset": 0,
        "slot": "3",
        "type": "t_mapping(t_uint256,t_address)"
      },
      {
        "astId": 256,
        "contract": "contracts/cidregistrar/BaseRegistrarImplementation.sol:BaseRegistrarImplementation",
        "label": "_balances",
        "offset": 0,
        "slot": "4",
        "type": "t_mapping(t_address,t_uint256)"
      },
      {
        "astId": 260,
        "contract": "contracts/cidregistrar/BaseRegistrarImplementation.sol:BaseRegistrarImplementation",
        "label": "_tokenApprovals",
        "offset": 0,
        "slot": "5",
        "type": "t_mapping(t_uint256,t_address)"
      },
      {
        "astId": 266,
        "contract": "contracts/cidregistrar/BaseRegistrarImplementation.sol:BaseRegistrarImplementation",
        "label": "_operatorApprovals",
        "offset": 0,
        "slot": "6",
        "type": "t_mapping(t_address,t_mapping(t_address,t_bool))"
      },
      {
        "astId": 2935,
        "contract": "contracts/cidregistrar/BaseRegistrarImplementation.sol:BaseRegistrarImplementation",
        "label": "gracePeriod",
        "offset": 0,
        "slot": "7",
        "type": "t_uint256"
      },
      {
        "astId": 2968,
        "contract": "contracts/cidregistrar/BaseRegistrarImplementation.sol:BaseRegistrarImplementation",
        "label": "mid",
        "offset": 0,
        "slot": "8",
        "type": "t_contract(MID)5910"
      },
      {
        "astId": 2970,
        "contract": "contracts/cidregistrar/BaseRegistrarImplementation.sol:BaseRegistrarImplementation",
        "label": "baseNode",
        "offset": 0,
        "slot": "9",
        "type": "t_bytes32"
      },
      {
        "astId": 2974,
        "contract": "contracts/cidregistrar/BaseRegistrarImplementation.sol:BaseRegistrarImplementation",
        "label": "controllers",
        "offset": 0,
        "slot": "10",
        "type": "t_mapping(t_address,t_bool)"
      },
      {
        "astId": 5562,
        "contract": "contracts/cidregistrar/BaseRegistrarImplementation.sol:BaseRegistrarImplementation",
        "label": "reservedTokenIdMap",
        "offset": 0,
        "slot": "11",
        "type": "t_struct(BitMap)2793_storage"
      },
      {
        "astId": 5565,
        "contract": "contracts/cidregistrar/BaseRegistrarImplementation.sol:BaseRegistrarImplementation",
        "label": "reservedIDRegistrar",
        "offset": 0,
        "slot": "12",
        "type": "t_address"
      },
      {
        "astId": 5569,
        "contract": "contracts/cidregistrar/BaseRegistrarImplementation.sol:BaseRegistrarImplementation",
        "label": "reservedTokenIds",
        "offset": 0,
        "slot": "13",
        "type": "t_array(t_uint256)dyn_storage"
      },
      {
        "astId": 3063,
        "contract": "contracts/cidregistrar/BaseRegistrarImplementation.sol:BaseRegistrarImplementation",
        "label": "expiries",
        "offset": 0,
        "slot": "14",
        "type": "t_mapping(t_uint256,t_uint256)"
      },
      {
        "astId": 3066,
        "contract": "contracts/cidregistrar/BaseRegistrarImplementation.sol:BaseRegistrarImplementation",
        "label": "baseURI",
        "offset": 0,
        "slot": "15",
        "type": "t_string_storage"
      },
      {
        "astId": 3070,
        "contract": "contracts/cidregistrar/BaseRegistrarImplementation.sol:BaseRegistrarImplementation",
        "label": "tokens",
        "offset": 0,
        "slot": "16",
        "type": "t_array(t_uint256)dyn_storage"
      },
      {
        "astId": 3074,
        "contract": "contracts/cidregistrar/BaseRegistrarImplementation.sol:BaseRegistrarImplementation",
        "label": "maxMintPerUser",
        "offset": 0,
        "slot": "17",
        "type": "t_uint256"
      },
      {
        "astId": 3079,
        "contract": "contracts/cidregistrar/BaseRegistrarImplementation.sol:BaseRegistrarImplementation",
        "label": "idToIndexes",
        "offset": 0,
        "slot": "18",
        "type": "t_mapping(t_uint256,t_uint256)"
      },
      {
        "astId": 3085,
        "contract": "contracts/cidregistrar/BaseRegistrarImplementation.sol:BaseRegistrarImplementation",
        "label": "ownerToIds",
        "offset": 0,
        "slot": "19",
        "type": "t_mapping(t_address,t_array(t_uint256)dyn_storage)"
      }
    ],
    "types": {
      "t_address": {
        "encoding": "inplace",
        "label": "address",
        "numberOfBytes": "20"
      },
      "t_array(t_uint256)dyn_storage": {
        "base": "t_uint256",
        "encoding": "dynamic_array",
        "label": "uint256[]",
        "numberOfBytes": "32"
      },
      "t_bool": {
        "encoding": "inplace",
        "label": "bool",
        "numberOfBytes": "1"
      },
      "t_bytes32": {
        "encoding": "inplace",
        "label": "bytes32",
        "numberOfBytes": "32"
      },
      "t_contract(MID)5910": {
        "encoding": "inplace",
        "label": "contract MID",
        "numberOfBytes": "20"
      },
      "t_mapping(t_address,t_array(t_uint256)dyn_storage)": {
        "encoding": "mapping",
        "key": "t_address",
        "label": "mapping(address => uint256[])",
        "numberOfBytes": "32",
        "value": "t_array(t_uint256)dyn_storage"
      },
      "t_mapping(t_address,t_bool)": {
        "encoding": "mapping",
        "key": "t_address",
        "label": "mapping(address => bool)",
        "numberOfBytes": "32",
        "value": "t_bool"
      },
      "t_mapping(t_address,t_mapping(t_address,t_bool))": {
        "encoding": "mapping",
        "key": "t_address",
        "label": "mapping(address => mapping(address => bool))",
        "numberOfBytes": "32",
        "value": "t_mapping(t_address,t_bool)"
      },
      "t_mapping(t_address,t_uint256)": {
        "encoding": "mapping",
        "key": "t_address",
        "label": "mapping(address => uint256)",
        "numberOfBytes": "32",
        "value": "t_uint256"
      },
      "t_mapping(t_uint256,t_address)": {
        "encoding": "mapping",
        "key": "t_uint256",
        "label": "mapping(uint256 => address)",
        "numberOfBytes": "32",
        "value": "t_address"
      },
      "t_mapping(t_uint256,t_uint256)": {
        "encoding": "mapping",
        "key": "t_uint256",
        "label": "mapping(uint256 => uint256)",
        "numberOfBytes": "32",
        "value": "t_uint256"
      },
      "t_string_storage": {
        "encoding": "bytes",
        "label": "string",
        "numberOfBytes": "32"
      },
      "t_struct(BitMap)2793_storage": {
        "encoding": "inplace",
        "label": "struct BitMaps.BitMap",
        "members": [
          {
            "astId": 2792,
            "contract": "contracts/cidregistrar/BaseRegistrarImplementation.sol:BaseRegistrarImplementation",
            "label": "_data",
            "offset": 0,
            "slot": "0",
            "type": "t_mapping(t_uint256,t_uint256)"
          }
        ],
        "numberOfBytes": "32"
      },
      "t_uint256": {
        "encoding": "inplace",
        "label": "uint256",
        "numberOfBytes": "32"
      }
    }
  }
}