{
  "address": "0x10649Ce5a1692326aE8cD29CC07DA3007F87f234",
  "abi": [
    {
      "inputs": [
        {
          "internalType": "contract MID",
          "name": "_mid",
          "type": "address"
        },
        {
          "internalType": "bytes32",
          "name": "_baseNode",
          "type": "bytes32"
        }
      ],
      "stateMutability": "nonpayable",
      "type": "constructor"
    },
    {
      "anonymous": false,
      "inputs": [
        {
          "indexed": true,
          "internalType": "address",
          "name": "owner",
          "type": "address"
        },
        {
          "indexed": true,
          "internalType": "address",
          "name": "approved",
          "type": "address"
        },
        {
          "indexed": true,
          "internalType": "uint256",
          "name": "tokenId",
          "type": "uint256"
        }
      ],
      "name": "Approval",
      "type": "event"
    },
    {
      "anonymous": false,
      "inputs": [
        {
          "indexed": true,
          "internalType": "address",
          "name": "owner",
          "type": "address"
        },
        {
          "indexed": true,
          "internalType": "address",
          "name": "operator",
          "type": "address"
        },
        {
          "indexed": false,
          "internalType": "bool",
          "name": "approved",
          "type": "bool"
        }
      ],
      "name": "ApprovalForAll",
      "type": "event"
    },
    {
      "anonymous": false,
      "inputs": [
        {
          "indexed": true,
          "internalType": "string",
          "name": "URI",
          "type": "string"
        }
      ],
      "name": "BaseURIChanged",
      "type": "event"
    },
    {
      "anonymous": false,
      "inputs": [
        {
          "indexed": true,
          "internalType": "address",
          "name": "controller",
          "type": "address"
        }
      ],
      "name": "ControllerAdded",
      "type": "event"
    },
    {
      "anonymous": false,
      "inputs": [
        {
          "indexed": true,
          "internalType": "address",
          "name": "controller",
          "type": "address"
        }
      ],
      "name": "ControllerRemoved",
      "type": "event"
    },
    {
      "anonymous": false,
      "inputs": [
        {
          "indexed": true,
          "internalType": "uint256",
          "name": "period",
          "type": "uint256"
        }
      ],
      "name": "GracePeriodChanged",
      "type": "event"
    },
    {
      "anonymous": false,
      "inputs": [
        {
          "indexed": true,
          "internalType": "uint256",
          "name": "cap",
          "type": "uint256"
        }
      ],
      "name": "MaxMintCapChanged",
      "type": "event"
    },
    {
      "anonymous": false,
      "inputs": [
        {
          "indexed": true,
          "internalType": "uint256",
          "name": "id",
          "type": "uint256"
        },
        {
          "indexed": true,
          "internalType": "address",
          "name": "owner",
          "type": "address"
        },
        {
          "indexed": false,
          "internalType": "uint256",
          "name": "expires",
          "type": "uint256"
        }
      ],
      "name": "NameMigrated",
      "type": "event"
    },
    {
      "anonymous": false,
      "inputs": [
        {
          "indexed": true,
          "internalType": "uint256",
          "name": "id",
          "type": "uint256"
        },
        {
          "indexed": true,
          "internalType": "address",
          "name": "owner",
          "type": "address"
        },
        {
          "indexed": false,
          "internalType": "uint256",
          "name": "expires",
          "type": "uint256"
        }
      ],
      "name": "NameRegistered",
      "type": "event"
    },
    {
      "anonymous": false,
      "inputs": [
        {
          "indexed": true,
          "internalType": "uint256",
          "name": "id",
          "type": "uint256"
        },
        {
          "indexed": false,
          "internalType": "uint256",
          "name": "expires",
          "type": "uint256"
        }
      ],
      "name": "NameRenewed",
      "type": "event"
    },
    {
      "anonymous": false,
      "inputs": [
        {
          "indexed": true,
          "internalType": "address",
          "name": "previousOwner",
          "type": "address"
        },
        {
          "indexed": true,
          "internalType": "address",
          "name": "newOwner",
          "type": "address"
        }
      ],
      "name": "OwnershipTransferred",
      "type": "event"
    },
    {
      "anonymous": false,
      "inputs": [
        {
          "indexed": false,
          "internalType": "address",
          "name": "account",
          "type": "address"
        }
      ],
      "name": "Paused",
      "type": "event"
    },
    {
      "anonymous": false,
      "inputs": [
        {
          "indexed": true,
          "internalType": "address",
          "name": "registrar",
          "type": "address"
        }
      ],
      "name": "ReservedNameRegistrarChanged",
      "type": "event"
    },
    {
      "anonymous": false,
      "inputs": [
        {
          "indexed": true,
          "internalType": "uint256",
          "name": "count",
          "type": "uint256"
        }
      ],
      "name": "ReservedTokenAdded",
      "type": "event"
    },
    {
      "anonymous": false,
      "inputs": [
        {
          "indexed": true,
          "internalType": "address",
          "name": "from",
          "type": "address"
        },
        {
          "indexed": true,
          "internalType": "address",
          "name": "to",
          "type": "address"
        },
        {
          "indexed": true,
          "internalType": "uint256",
          "name": "tokenId",
          "type": "uint256"
        }
      ],
      "name": "Transfer",
      "type": "event"
    },
    {
      "anonymous": false,
      "inputs": [
        {
          "indexed": false,
          "internalType": "address",
          "name": "account",
          "type": "address"
        }
      ],
      "name": "Unpaused",
      "type": "event"
    },
    {
      "inputs": [
        {
          "internalType": "address",
          "name": "controller",
          "type": "address"
        }
      ],
      "name": "addController",
      "outputs": [],
      "stateMutability": "nonpayable",
      "type": "function"
    },
    {
      "inputs": [
        {
          "internalType": "string[]",
          "name": "labelNames",
          "type": "string[]"
        }
      ],
      "name": "addReservedLabelNames",
      "outputs": [],
      "stateMutability": "nonpayable",
      "type": "function"
    },
    {
      "inputs": [
        {
          "internalType": "address",
          "name": "to",
          "type": "address"
        },
        {
          "internalType": "uint256",
          "name": "tokenId",
          "type": "uint256"
        }
      ],
      "name": "approve",
      "outputs": [],
      "stateMutability": "nonpayable",
      "type": "function"
    },
    {
      "inputs": [
        {
          "internalType": "uint256",
          "name": "id",
          "type": "uint256"
        }
      ],
      "name": "available",
      "outputs": [
        {
          "internalType": "bool",
          "name": "",
          "type": "bool"
        }
      ],
      "stateMutability": "view",
      "type": "function"
    },
    {
      "inputs": [
        {
          "internalType": "address",
          "name": "owner",
          "type": "address"
        }
      ],
      "name": "balanceOf",
      "outputs": [
        {
          "internalType": "uint256",
          "name": "",
          "type": "uint256"
        }
      ],
      "stateMutability": "view",
      "type": "function"
    },
    {
      "inputs": [],
      "name": "baseNode",
      "outputs": [
        {
          "internalType": "bytes32",
          "name": "",
          "type": "bytes32"
        }
      ],
      "stateMutability": "view",
      "type": "function"
    },
    {
      "inputs": [],
      "name": "baseURI",
      "outputs": [
        {
          "internalType": "string",
          "name": "",
          "type": "string"
        }
      ],
      "stateMutability": "view",
      "type": "function"
    },
    {
      "inputs": [
        {
          "internalType": "address",
          "name": "registrar",
          "type": "address"
        }
      ],
      "name": "canRegisterReservedId",
      "outputs": [
        {
          "internalType": "bool",
          "name": "",
          "type": "bool"
        }
      ],
      "stateMutability": "view",
      "type": "function"
    },
    {
      "inputs": [
        {
          "internalType": "address",
          "name": "",
          "type": "address"
        }
      ],
      "name": "controllers",
      "outputs": [
        {
          "internalType": "bool",
          "name": "",
          "type": "bool"
        }
      ],
      "stateMutability": "view",
      "type": "function"
    },
    {
      "inputs": [
        {
          "internalType": "uint256",
          "name": "tokenId",
          "type": "uint256"
        }
      ],
      "name": "getApproved",
      "outputs": [
        {
          "internalType": "address",
          "name": "",
          "type": "address"
        }
      ],
      "stateMutability": "view",
      "type": "function"
    },
    {
      "inputs": [],
      "name": "gracePeriod",
      "outputs": [
        {
          "internalType": "uint256",
          "name": "",
          "type": "uint256"
        }
      ],
      "stateMutability": "view",
      "type": "function"
    },
    {
      "inputs": [
        {
          "internalType": "address",
          "name": "owner",
          "type": "address"
        },
        {
          "internalType": "address",
          "name": "operator",
          "type": "address"
        }
      ],
      "name": "isApprovedForAll",
      "outputs": [
        {
          "internalType": "bool",
          "name": "",
          "type": "bool"
        }
      ],
      "stateMutability": "view",
      "type": "function"
    },
    {
      "inputs": [
        {
          "internalType": "uint256",
          "name": "id",
          "type": "uint256"
        }
      ],
      "name": "isTokenIdReserved",
      "outputs": [
        {
          "internalType": "bool",
          "name": "",
          "type": "bool"
        }
      ],
      "stateMutability": "view",
      "type": "function"
    },
    {
      "inputs": [],
      "name": "maxMintPerUser",
      "outputs": [
        {
          "internalType": "uint256",
          "name": "",
          "type": "uint256"
        }
      ],
      "stateMutability": "view",
      "type": "function"
    },
    {
      "inputs": [],
      "name": "mid",
      "outputs": [
        {
          "internalType": "contract MID",
          "name": "",
          "type": "address"
        }
      ],
      "stateMutability": "view",
      "type": "function"
    },
    {
      "inputs": [],
      "name": "name",
      "outputs": [
        {
          "internalType": "string",
          "name": "",
          "type": "string"
        }
      ],
      "stateMutability": "view",
      "type": "function"
    },
    {
      "inputs": [
        {
          "internalType": "uint256",
          "name": "id",
          "type": "uint256"
        }
      ],
      "name": "nameExpires",
      "outputs": [
        {
          "internalType": "uint256",
          "name": "",
          "type": "uint256"
        }
      ],
      "stateMutability": "view",
      "type": "function"
    },
    {
      "inputs": [],
      "name": "owner",
      "outputs": [
        {
          "internalType": "address",
          "name": "",
          "type": "address"
        }
      ],
      "stateMutability": "view",
      "type": "function"
    },
    {
      "inputs": [
        {
          "internalType": "uint256",
          "name": "tokenId",
          "type": "uint256"
        }
      ],
      "name": "ownerOf",
      "outputs": [
        {
          "internalType": "address",
          "name": "",
          "type": "address"
        }
      ],
      "stateMutability": "view",
      "type": "function"
    },
    {
      "inputs": [],
      "name": "pause",
      "outputs": [],
      "stateMutability": "nonpayable",
      "type": "function"
    },
    {
      "inputs": [],
      "name": "paused",
      "outputs": [
        {
          "internalType": "bool",
          "name": "",
          "type": "bool"
        }
      ],
      "stateMutability": "view",
      "type": "function"
    },
    {
      "inputs": [
        {
          "internalType": "uint256",
          "name": "id",
          "type": "uint256"
        },
        {
          "internalType": "address",
          "name": "owner",
          "type": "address"
        }
      ],
      "name": "reclaim",
      "outputs": [],
      "stateMutability": "nonpayable",
      "type": "function"
    },
    {
      "inputs": [
        {
          "internalType": "uint256",
          "name": "id",
          "type": "uint256"
        },
        {
          "internalType": "address",
          "name": "owner",
          "type": "address"
        },
        {
          "internalType": "uint256",
          "name": "duration",
          "type": "uint256"
        }
      ],
      "name": "register",
      "outputs": [
        {
          "internalType": "uint256",
          "name": "",
          "type": "uint256"
        }
      ],
      "stateMutability": "nonpayable",
      "type": "function"
    },
    {
      "inputs": [
        {
          "internalType": "uint256",
          "name": "id",
          "type": "uint256"
        },
        {
          "internalType": "address",
          "name": "owner",
          "type": "address"
        },
        {
          "internalType": "uint256",
          "name": "duration",
          "type": "uint256"
        }
      ],
      "name": "registerOnly",
      "outputs": [
        {
          "internalType": "uint256",
          "name": "",
          "type": "uint256"
        }
      ],
      "stateMutability": "nonpayable",
      "type": "function"
    },
    {
      "inputs": [
        {
          "internalType": "address",
          "name": "controller",
          "type": "address"
        }
      ],
      "name": "removeController",
      "outputs": [],
      "stateMutability": "nonpayable",
      "type": "function"
    },
    {
      "inputs": [
        {
          "internalType": "uint256",
          "name": "id",
          "type": "uint256"
        },
        {
          "internalType": "uint256",
          "name": "duration",
          "type": "uint256"
        }
      ],
      "name": "renew",
      "outputs": [
        {
          "internalType": "uint256",
          "name": "",
          "type": "uint256"
        }
      ],
      "stateMutability": "nonpayable",
      "type": "function"
    },
    {
      "inputs": [],
      "name": "renounceOwnership",
      "outputs": [],
      "stateMutability": "nonpayable",
      "type": "function"
    },
    {
      "inputs": [],
      "name": "reservedIDRegistrar",
      "outputs": [
        {
          "internalType": "address",
          "name": "",
          "type": "address"
        }
      ],
      "stateMutability": "view",
      "type": "function"
    },
    {
      "inputs": [
        {
          "internalType": "uint256",
          "name": "",
          "type": "uint256"
        }
      ],
      "name": "reservedTokenIds",
      "outputs": [
        {
          "internalType": "uint256",
          "name": "id",
          "type": "uint256"
        },
        {
          "internalType": "string",
          "name": "labelName",
          "type": "string"
        }
      ],
      "stateMutability": "view",
      "type": "function"
    },
    {
      "inputs": [
        {
          "internalType": "address",
          "name": "from",
          "type": "address"
        },
        {
          "internalType": "address",
          "name": "to",
          "type": "address"
        },
        {
          "internalType": "uint256",
          "name": "tokenId",
          "type": "uint256"
        }
      ],
      "name": "safeTransferFrom",
      "outputs": [],
      "stateMutability": "nonpayable",
      "type": "function"
    },
    {
      "inputs": [
        {
          "internalType": "address",
          "name": "from",
          "type": "address"
        },
        {
          "internalType": "address",
          "name": "to",
          "type": "address"
        },
        {
          "internalType": "uint256",
          "name": "tokenId",
          "type": "uint256"
        },
        {
          "internalType": "bytes",
          "name": "_data",
          "type": "bytes"
        }
      ],
      "name": "safeTransferFrom",
      "outputs": [],
      "stateMutability": "nonpayable",
      "type": "function"
    },
    {
      "inputs": [
        {
          "internalType": "address",
          "name": "operator",
          "type": "address"
        },
        {
          "internalType": "bool",
          "name": "approved",
          "type": "bool"
        }
      ],
      "name": "setApprovalForAll",
      "outputs": [],
      "stateMutability": "nonpayable",
      "type": "function"
    },
    {
      "inputs": [
        {
          "internalType": "string",
          "name": "baseURI_",
          "type": "string"
        }
      ],
      "name": "setBaseURI",
      "outputs": [],
      "stateMutability": "nonpayable",
      "type": "function"
    },
    {
      "inputs": [
        {
          "internalType": "uint256",
          "name": "gracePeriod_",
          "type": "uint256"
        }
      ],
      "name": "setGracePeriod",
      "outputs": [],
      "stateMutability": "nonpayable",
      "type": "function"
    },
    {
      "inputs": [
        {
          "internalType": "uint256",
          "name": "cap",
          "type": "uint256"
        }
      ],
      "name": "setMaxMintPerUser",
      "outputs": [],
      "stateMutability": "nonpayable",
      "type": "function"
    },
    {
      "inputs": [
        {
          "internalType": "address",
          "name": "registrar_",
          "type": "address"
        }
      ],
      "name": "setReservedIDRegistrar",
      "outputs": [],
      "stateMutability": "nonpayable",
      "type": "function"
    },
    {
      "inputs": [
        {
          "internalType": "address",
          "name": "resolver",
          "type": "address"
        }
      ],
      "name": "setResolver",
      "outputs": [],
      "stateMutability": "nonpayable",
      "type": "function"
    },
    {
      "inputs": [
        {
          "internalType": "bytes4",
          "name": "interfaceID",
          "type": "bytes4"
        }
      ],
      "name": "supportsInterface",
      "outputs": [
        {
          "internalType": "bool",
          "name": "",
          "type": "bool"
        }
      ],
      "stateMutability": "pure",
      "type": "function"
    },
    {
      "inputs": [],
      "name": "symbol",
      "outputs": [
        {
          "internalType": "string",
          "name": "",
          "type": "string"
        }
      ],
      "stateMutability": "view",
      "type": "function"
    },
    {
      "inputs": [
        {
          "internalType": "uint256",
          "name": "_index",
          "type": "uint256"
        }
      ],
      "name": "tokenByIndex",
      "outputs": [
        {
          "internalType": "uint256",
          "name": "",
          "type": "uint256"
        }
      ],
      "stateMutability": "view",
      "type": "function"
    },
    {
      "inputs": [
        {
          "internalType": "address",
          "name": "_owner",
          "type": "address"
        },
        {
          "internalType": "uint256",
          "name": "_index",
          "type": "uint256"
        }
      ],
      "name": "tokenOfOwnerByIndex",
      "outputs": [
        {
          "internalType": "uint256",
          "name": "",
          "type": "uint256"
        }
      ],
      "stateMutability": "view",
      "type": "function"
    },
    {
      "inputs": [
        {
          "internalType": "uint256",
          "name": "tokenId",
          "type": "uint256"
        }
      ],
      "name": "tokenURI",
      "outputs": [
        {
          "internalType": "string",
          "name": "",
          "type": "string"
        }
      ],
      "stateMutability": "view",
      "type": "function"
    },
    {
      "inputs": [
        {
          "internalType": "address",
          "name": "_owner",
          "type": "address"
        }
      ],
      "name": "tokensOfOwner",
      "outputs": [
        {
          "internalType": "uint256[]",
          "name": "",
          "type": "uint256[]"
        }
      ],
      "stateMutability": "view",
      "type": "function"
    },
    {
      "inputs": [],
      "name": "totalSupply",
      "outputs": [
        {
          "internalType": "uint256",
          "name": "",
          "type": "uint256"
        }
      ],
      "stateMutability": "view",
      "type": "function"
    },
    {
      "inputs": [
        {
          "internalType": "address",
          "name": "from",
          "type": "address"
        },
        {
          "internalType": "address",
          "name": "to",
          "type": "address"
        },
        {
          "internalType": "uint256",
          "name": "tokenId",
          "type": "uint256"
        }
      ],
      "name": "transferFrom",
      "outputs": [],
      "stateMutability": "nonpayable",
      "type": "function"
    },
    {
      "inputs": [
        {
          "internalType": "address",
          "name": "newOwner",
          "type": "address"
        }
      ],
      "name": "transferOwnership",
      "outputs": [],
      "stateMutability": "nonpayable",
      "type": "function"
    },
    {
      "inputs": [],
      "name": "unpause",
      "outputs": [],
      "stateMutability": "nonpayable",
      "type": "function"
    }
  ],
  "transactionHash": "0x54b5bcf9a431f9a818574d8d8342a9caa5e5b9467f0513f58328d5785e9da0d8",
  "args": [
    "0x1AC13DE986239B8b38F957E7aB2ffc864184cf92",
    "0xdba5666821b22671387fe7ea11d7cc41ede85a5aa67c3e7b3d68ce6a661f389c"
  ],
  "numDeployments": 1,
  "solcInputHash": "43445803a792b59b290dfe234179bf78",
  "bytecode": "0x608060405262278d00600755678ac7230489e800006011553480156200002457600080fd5b5060405162005e7338038062005e7383398181016040528101906200004a91906200031f565b6040518060400160405280600e81526020017f4d6f6e7374657220446f6d61696e0000000000000000000000000000000000008152506040518060400160405280600381526020017f4d4944000000000000000000000000000000000000000000000000000000000081525060008060006101000a81548160ff021916908315150217905550620000f0620000e46200017460201b60201c565b6200017c60201b60201c565b81600190805190602001906200010892919062000241565b5080600290805190602001906200012192919062000241565b50505081600860006101000a81548173ffffffffffffffffffffffffffffffffffffffff021916908373ffffffffffffffffffffffffffffffffffffffff1602179055508060098190555050506200044b565b600033905090565b60008060019054906101000a900473ffffffffffffffffffffffffffffffffffffffff16905081600060016101000a81548173ffffffffffffffffffffffffffffffffffffffff021916908373ffffffffffffffffffffffffffffffffffffffff1602179055508173ffffffffffffffffffffffffffffffffffffffff168173ffffffffffffffffffffffffffffffffffffffff167f8be0079c531659141344cd1fd0a4f28419497f9722a3daafe3b4186f6b6457e060405160405180910390a35050565b8280546200024f90620003b2565b90600052602060002090601f016020900481019282620002735760008555620002bf565b82601f106200028e57805160ff1916838001178555620002bf565b82800160010185558215620002bf579182015b82811115620002be578251825591602001919060010190620002a1565b5b509050620002ce9190620002d2565b5090565b5b80821115620002ed576000816000905550600101620002d3565b5090565b600081519050620003028162000417565b92915050565b600081519050620003198162000431565b92915050565b600080604083850312156200033357600080fd5b6000620003438582860162000308565b92505060206200035685828601620002f1565b9150509250929050565b60006200036d8262000392565b9050919050565b6000819050919050565b60006200038b8262000360565b9050919050565b600073ffffffffffffffffffffffffffffffffffffffff82169050919050565b60006002820490506001821680620003cb57607f821691505b60208210811415620003e257620003e1620003e8565b5b50919050565b7f4e487b7100000000000000000000000000000000000000000000000000000000600052602260045260246000fd5b620004228162000374565b81146200042e57600080fd5b50565b6200043c816200037e565b81146200044857600080fd5b50565b615a18806200045b6000396000f3fe608060405234801561001057600080fd5b50600436106102955760003560e01c806383ccaef711610167578063c475abff116100ce578063e80e31da11610087578063e80e31da14610823578063e985e9c514610853578063f2f6596014610883578063f2fde38b1461089f578063f6a74ed7146108bb578063fca247ac146108d757610295565b8063c475abff14610727578063c87b56dd14610757578063d304c4bc14610787578063d6e4fa86146107a5578063da8c229e146107d5578063ddf7fcb01461080557610295565b806396e494e81161012057806396e494e814610669578063a06db7dc14610699578063a22cb465146106b7578063a7fc7a07146106d3578063aa19dbc0146106ef578063b88d4fde1461070b57610295565b806383ccaef7146105bb5780638456cb59146105d75780638462151c146105e15780638da5cb5b146106115780638eaba75d1461062f57806395d89b411461064b57610295565b80633f5124691161020b578063594d04dc116101c4578063594d04dc146104e45780635c975abb146105155780636352211e146105335780636c0360eb1461056357806370a0823114610581578063715018a6146105b157610295565b80633f5124691461041257806342842e0e146104425780634e543b261461045e5780634f6ccce71461047a57806355f804b3146104aa578063583eeb1f146104c657610295565b806318160ddd1161025d57806318160ddd1461036457806323b872dd1461038257806328ed4f6c1461039e5780632e94420f146103ba5780632f745c59146103d85780633f4ba83a1461040857610295565b806301ffc9a71461029a57806306fdde03146102ca578063081812fc146102e8578063095ea7b3146103185780630e297b4514610334575b600080fd5b6102b460048036038101906102af91906142b0565b610907565b6040516102c19190614ae0565b60405180910390f35b6102d2610b51565b6040516102df9190614b91565b60405180910390f35b61030260048036038101906102fd9190614343565b610be3565b60405161030f9190614a57565b60405180910390f35b610332600480360381019061032d919061420a565b610c29565b005b61034e600480360381019061034991906143a8565b610d41565b60405161035b9190614f53565b60405180910390f35b61036c610d59565b6040516103799190614f53565b60405180910390f35b61039c60048036038101906103979190614104565b610d66565b005b6103b860048036038101906103b3919061436c565b610e7d565b005b6103c26110a3565b6040516103cf9190614b76565b60405180910390f35b6103f260048036038101906103ed919061420a565b6110c9565b6040516103ff9190614f53565b60405180910390f35b6104106111d9565b005b61042c60048036038101906104279190614076565b6111eb565b6040516104399190614ae0565b60405180910390f35b61045c60048036038101906104579190614104565b611245565b005b61047860048036038101906104739190614076565b611265565b005b610494600480360381019061048f9190614343565b611301565b6040516104a19190614f53565b60405180910390f35b6104c460048036038101906104bf9190614302565b611396565b005b6104ce6113fb565b6040516104db9190614a57565b60405180910390f35b6104fe60048036038101906104f99190614343565b611421565b60405161050c929190614f6e565b60405180910390f35b61051d6114dd565b60405161052a9190614ae0565b60405180910390f35b61054d60048036038101906105489190614343565b6114f3565b60405161055a9190614a57565b60405180910390f35b61056b61155a565b6040516105789190614b91565b60405180910390f35b61059b60048036038101906105969190614076565b6115e8565b6040516105a89190614f53565b60405180910390f35b6105b96116a0565b005b6105d560048036038101906105d09190614343565b6116b4565b005b6105df611736565b005b6105fb60048036038101906105f69190614076565b611748565b6040516106089190614abe565b60405180910390f35b6106196117df565b6040516106269190614a57565b60405180910390f35b61064960048036038101906106449190614246565b611808565b005b610653611972565b6040516106609190614b91565b60405180910390f35b610683600480360381019061067e9190614343565b611a04565b6040516106909190614ae0565b60405180910390f35b6106a1611a30565b6040516106ae9190614f53565b60405180910390f35b6106d160048036038101906106cc91906141ce565b611a36565b005b6106ed60048036038101906106e89190614076565b611a4c565b005b61070960048036038101906107049190614076565b611af2565b005b61072560048036038101906107209190614153565b611c13565b005b610741600480360381019061073c91906143f7565b611d2c565b60405161074e9190614f53565b60405180910390f35b610771600480360381019061076c9190614343565b61204a565b60405161077e9190614b91565b60405180910390f35b61078f6120f2565b60405161079c9190614f53565b60405180910390f35b6107bf60048036038101906107ba9190614343565b6120f8565b6040516107cc9190614f53565b60405180910390f35b6107ef60048036038101906107ea9190614076565b612115565b6040516107fc9190614ae0565b60405180910390f35b61080d612135565b60405161081a9190614afb565b60405180910390f35b61083d60048036038101906108389190614343565b61213b565b60405161084a9190614ae0565b60405180910390f35b61086d600480360381019061086891906140c8565b612158565b60405161087a9190614ae0565b60405180910390f35b61089d60048036038101906108989190614343565b6121ec565b005b6108b960048036038101906108b49190614076565b61222d565b005b6108d560048036038101906108d09190614076565b6122b1565b005b6108f160048036038101906108ec91906143a8565b612357565b6040516108fe9190614f53565b60405180910390f35b60007f01ffc9a7a5cef8baa21ed3c5c0d7e23accb804b619e9333b597f47a0d84076e27bffffffffffffffffffffffffffffffffffffffffffffffffffffffff1916827bffffffffffffffffffffffffffffffffffffffffffffffffffffffff19161480610ae257507fb88d4fde60196325a28bb7f99a2582e0b46de55b18761e960c14ad7a320994657f42842e0eb38857a7775b4e7364b2775df7325074d088e7fb39590cd6281184ed7f23b872dd7302113369cda2901243429419bec145408fa8b352b3dd92b66c680b7fe985e9c5c6636c6879256001057b28ccac7718ef0ac56553ff9b926452cab8a37fa22cb4651ab9570f89bb516380c40ce76762284fb1f21337ceaf6adab99e7d4a7f081812fc55e34fdc7cf5d8b5cf4e3621fa6423fde952ec6ab24afdc0d85c0b2e7f095ea7b334ae44009aa867bfb386f5c3b4b443ac6f0ee573fa91c4608fbadfba7f6352211e6566aa027e75ac9dbf2423197fbd9b82b9d981a3ab367d355866aa1c7f70a08231b98ef4ca268c9cc3f6b4590e4bfec28280db06bb5d45e689f2a360be18181818181818187bffffffffffffffffffffffffffffffffffffffffffffffffffffffff1916827bffffffffffffffffffffffffffffffffffffffffffffffffffffffff1916145b80610b4a57507f28ed4f6c74b219a5819055dfbcd2f1837c046c364cf01fabb6799e4f440d6f137bffffffffffffffffffffffffffffffffffffffffffffffffffffffff1916827bffffffffffffffffffffffffffffffffffffffffffffffffffffffff1916145b9050919050565b606060018054610b6090615250565b80601f0160208091040260200160405190810160405280929190818152602001828054610b8c90615250565b8015610bd95780601f10610bae57610100808354040283529160200191610bd9565b820191906000526020600020905b815481529060010190602001808311610bbc57829003601f168201915b5050505050905090565b6000610bee8261236f565b6005600083815260200190815260200160002060009054906101000a900473ffffffffffffffffffffffffffffffffffffffff169050919050565b6000610c34826123ba565b90508073ffffffffffffffffffffffffffffffffffffffff168373ffffffffffffffffffffffffffffffffffffffff161415610ca5576040517f08c379a0000000000000000000000000000000000000000000000000000000008152600401610c9c90614ed3565b60405180910390fd5b8073ffffffffffffffffffffffffffffffffffffffff16610cc4612441565b73ffffffffffffffffffffffffffffffffffffffff161480610cf35750610cf281610ced612441565b612158565b5b610d32576040517f08c379a0000000000000000000000000000000000000000000000000000000008152600401610d2990614ef3565b60405180910390fd5b610d3c8383612449565b505050565b6000610d508484846000612502565b90509392505050565b6000601080549050905090565b610d77610d71612441565b8261297b565b610db6576040517f08c379a0000000000000000000000000000000000000000000000000000000008152600401610dad90614c53565b60405180910390fd5b610dc1838383612a10565b600860009054906101000a900473ffffffffffffffffffffffffffffffffffffffff1673ffffffffffffffffffffffffffffffffffffffff166306ab59236009548360001b856040518463ffffffff1660e01b8152600401610e2593929190614b3f565b602060405180830381600087803b158015610e3f57600080fd5b505af1158015610e53573d6000803e3d6000fd5b505050506040513d601f19601f82011682018060405250810190610e779190614287565b50505050565b3073ffffffffffffffffffffffffffffffffffffffff16600860009054906101000a900473ffffffffffffffffffffffffffffffffffffffff1673ffffffffffffffffffffffffffffffffffffffff166302571be36009546040518263ffffffff1660e01b8152600401610ef19190614afb565b60206040518083038186803b158015610f0957600080fd5b505afa158015610f1d573d6000803e3d6000fd5b505050506040513d601f19601f82011682018060405250810190610f41919061409f565b73ffffffffffffffffffffffffffffffffffffffff1614610f97576040517f08c379a0000000000000000000000000000000000000000000000000000000008152600401610f8e90614e13565b60405180910390fd5b610f9f612d0a565b610fa9338361297b565b610fe8576040517f08c379a0000000000000000000000000000000000000000000000000000000008152600401610fdf90614bb3565b60405180910390fd5b600860009054906101000a900473ffffffffffffffffffffffffffffffffffffffff1673ffffffffffffffffffffffffffffffffffffffff166306ab59236009548460001b846040518463ffffffff1660e01b815260040161104c93929190614b3f565b602060405180830381600087803b15801561106657600080fd5b505af115801561107a573d6000803e3d6000fd5b505050506040513d601f19601f8201168201806040525081019061109e9190614287565b505050565b600860009054906101000a900473ffffffffffffffffffffffffffffffffffffffff1681565b6000601360008473ffffffffffffffffffffffffffffffffffffffff1673ffffffffffffffffffffffffffffffffffffffff16815260200190815260200160002080549050821061114f576040517f08c379a000000000000000000000000000000000000000000000000000000000815260040161114690614f33565b60405180910390fd5b601360008473ffffffffffffffffffffffffffffffffffffffff1673ffffffffffffffffffffffffffffffffffffffff16815260200190815260200160002082815481106111c6577f4e487b7100000000000000000000000000000000000000000000000000000000600052603260045260246000fd5b9060005260206000200154905092915050565b6111e1612d54565b6111e9612dd2565b565b6000600c60009054906101000a900473ffffffffffffffffffffffffffffffffffffffff1673ffffffffffffffffffffffffffffffffffffffff168273ffffffffffffffffffffffffffffffffffffffff16149050919050565b61126083838360405180602001604052806000815250611c13565b505050565b61126d612d54565b600860009054906101000a900473ffffffffffffffffffffffffffffffffffffffff1673ffffffffffffffffffffffffffffffffffffffff16631896f70a600954836040518363ffffffff1660e01b81526004016112cc929190614b16565b600060405180830381600087803b1580156112e657600080fd5b505af11580156112fa573d6000803e3d6000fd5b5050505050565b6000601080549050821061134a576040517f08c379a000000000000000000000000000000000000000000000000000000000815260040161134190614f33565b60405180910390fd5b60108281548110611384577f4e487b7100000000000000000000000000000000000000000000000000000000600052603260045260246000fd5b90600052602060002001549050919050565b61139e612d54565b80600f90805190602001906113b4929190613dc0565b50600f6040516113c49190614a1c565b60405180910390207f5411e8ebf1636d9e83d5fc4900bf80cbac82e8790da2a4c94db4895e889eedf660405160405180910390a250565b600c60009054906101000a900473ffffffffffffffffffffffffffffffffffffffff1681565b600d818154811061143157600080fd5b906000526020600020906002020160009150905080600001549080600101805461145a90615250565b80601f016020809104026020016040519081016040528092919081815260200182805461148690615250565b80156114d35780601f106114a8576101008083540402835291602001916114d3565b820191906000526020600020905b8154815290600101906020018083116114b657829003601f168201915b5050505050905082565b60008060009054906101000a900460ff16905090565b600042600e6000848152602001908152602001600020541161154a576040517f08c379a000000000000000000000000000000000000000000000000000000000815260040161154190614d93565b60405180910390fd5b611553826123ba565b9050919050565b600f805461156790615250565b80601f016020809104026020016040519081016040528092919081815260200182805461159390615250565b80156115e05780601f106115b5576101008083540402835291602001916115e0565b820191906000526020600020905b8154815290600101906020018083116115c357829003601f168201915b505050505081565b60008073ffffffffffffffffffffffffffffffffffffffff168273ffffffffffffffffffffffffffffffffffffffff161415611659576040517f08c379a000000000000000000000000000000000000000000000000000000000815260040161165090614dd3565b60405180910390fd5b600460008373ffffffffffffffffffffffffffffffffffffffff1673ffffffffffffffffffffffffffffffffffffffff168152602001908152602001600020549050919050565b6116a8612d54565b6116b26000612e34565b565b6116bc612d54565b600081116116ff576040517f08c379a00000000000000000000000000000000000000000000000000000000081526004016116f690614bd3565b60405180910390fd5b80601181905550807fe2622cd4be2b8558947da70a95c567e89753cd7c1b12d32d2c2acbcb20516d6e60405160405180910390a250565b61173e612d54565b611746612ef9565b565b6060601360008373ffffffffffffffffffffffffffffffffffffffff1673ffffffffffffffffffffffffffffffffffffffff1681526020019081526020016000208054806020026020016040519081016040528092919081815260200182805480156117d357602002820191906000526020600020905b8154815260200190600101908083116117bf575b50505050509050919050565b60008060019054906101000a900473ffffffffffffffffffffffffffffffffffffffff16905090565b611810612d54565b60005b8151811015611940576000828281518110611857577f4e487b7100000000000000000000000000000000000000000000000000000000600052603260045260246000fd5b602002602001015180519060200120905060008160001c905061188481600b612f5b90919063ffffffff16565b600d60405180604001604052808381526020018686815181106118d0577f4e487b7100000000000000000000000000000000000000000000000000000000600052603260045260246000fd5b6020026020010151815250908060018154018082558091505060019003906000526020600020906002020160009091909190915060008201518160000155602082015181600101908051906020019061192a929190613dc0565b505050505080611939906152b3565b9050611813565b5080517fa4c3cd462f158bd7d5585bea8b7cf141d737a95d93a4e277f6bb86aaf27f723360405160405180910390a250565b60606002805461198190615250565b80601f01602080910402602001604051908101604052809291908181526020018280546119ad90615250565b80156119fa5780601f106119cf576101008083540402835291602001916119fa565b820191906000526020600020905b8154815290600101906020018083116119dd57829003601f168201915b5050505050905090565b600042600754600e600085815260200190815260200160002054611a2891906150e2565b109050919050565b60075481565b611a48611a41612441565b8383612f99565b5050565b611a54612d54565b6001600a60008373ffffffffffffffffffffffffffffffffffffffff1673ffffffffffffffffffffffffffffffffffffffff16815260200190815260200160002060006101000a81548160ff0219169083151502179055508073ffffffffffffffffffffffffffffffffffffffff167f0a8bb31534c0ed46f380cb867bd5c803a189ced9a764e30b3a4991a9901d747460405160405180910390a250565b611afa612d54565b600073ffffffffffffffffffffffffffffffffffffffff168173ffffffffffffffffffffffffffffffffffffffff161415611b6a576040517f08c379a0000000000000000000000000000000000000000000000000000000008152600401611b6190614c13565b60405180910390fd5b80600c60006101000a81548173ffffffffffffffffffffffffffffffffffffffff021916908373ffffffffffffffffffffffffffffffffffffffff160217905550600c60009054906101000a900473ffffffffffffffffffffffffffffffffffffffff1673ffffffffffffffffffffffffffffffffffffffff167f066fa6d1f1ef9fda39d214ef7b86b6cd568ad4e8966bcf943dc8a18ae9b0f85860405160405180910390a250565b611c24611c1e612441565b8361297b565b611c63576040517f08c379a0000000000000000000000000000000000000000000000000000000008152600401611c5a90614c53565b60405180910390fd5b611c6f84848484613106565b600860009054906101000a900473ffffffffffffffffffffffffffffffffffffffff1673ffffffffffffffffffffffffffffffffffffffff166306ab59236009548460001b866040518463ffffffff1660e01b8152600401611cd393929190614b3f565b602060405180830381600087803b158015611ced57600080fd5b505af1158015611d01573d6000803e3d6000fd5b505050506040513d601f19601f82011682018060405250810190611d259190614287565b5050505050565b60003073ffffffffffffffffffffffffffffffffffffffff16600860009054906101000a900473ffffffffffffffffffffffffffffffffffffffff1673ffffffffffffffffffffffffffffffffffffffff166302571be36009546040518263ffffffff1660e01b8152600401611da29190614afb565b60206040518083038186803b158015611dba57600080fd5b505afa158015611dce573d6000803e3d6000fd5b505050506040513d601f19601f82011682018060405250810190611df2919061409f565b73ffffffffffffffffffffffffffffffffffffffff1614611e48576040517f08c379a0000000000000000000000000000000000000000000000000000000008152600401611e3f90614e13565b60405180910390fd5b600a60003373ffffffffffffffffffffffffffffffffffffffff1673ffffffffffffffffffffffffffffffffffffffff16815260200190815260200160002060009054906101000a900460ff16611ed4576040517f08c379a0000000000000000000000000000000000000000000000000000000008152600401611ecb90614e53565b60405180910390fd5b611edc612d0a565b42600754600e600086815260200190815260200160002054611efe91906150e2565b1015611f3f576040517f08c379a0000000000000000000000000000000000000000000000000000000008152600401611f3690614d53565b60405180910390fd5b60075482611f4d91906150e2565b60075483600e600087815260200190815260200160002054611f6f91906150e2565b611f7991906150e2565b11611fb9576040517f08c379a0000000000000000000000000000000000000000000000000000000008152600401611fb090614cd3565b60405180910390fd5b81600e60008581526020019081526020016000206000828254611fdc91906150e2565b92505081905550827f9b87a00e30f1ac65d898f070f8a3488fe60517182d0a2098e1b4b93a54aa9bd6600e6000868152602001908152602001600020546040516120269190614f53565b60405180910390a2600e600084815260200190815260200160002054905092915050565b606061205582613162565b612094576040517f08c379a000000000000000000000000000000000000000000000000000000000815260040161208b90614cf3565b60405180910390fd5b6000600f80546120a390615250565b9050116120bf57604051806020016040528060008152506120eb565b600f6120ca836131a3565b6040516020016120db929190614a33565b6040516020818303038152906040525b9050919050565b60115481565b6000600e6000838152602001908152602001600020549050919050565b600a6020528060005260406000206000915054906101000a900460ff1681565b60095481565b600061215182600b6132c790919063ffffffff16565b9050919050565b6000600660008473ffffffffffffffffffffffffffffffffffffffff1673ffffffffffffffffffffffffffffffffffffffff16815260200190815260200160002060008373ffffffffffffffffffffffffffffffffffffffff1673ffffffffffffffffffffffffffffffffffffffff16815260200190815260200160002060009054906101000a900460ff16905092915050565b6121f4612d54565b806007819055506007547fcc2c34a1adf0911114053f75b51b2b1f8fc9ef9e25f0a5f12f210032b5b0a1b260405160405180910390a250565b612235612d54565b600073ffffffffffffffffffffffffffffffffffffffff168173ffffffffffffffffffffffffffffffffffffffff1614156122a5576040517f08c379a000000000000000000000000000000000000000000000000000000000815260040161229c90614c73565b60405180910390fd5b6122ae81612e34565b50565b6122b9612d54565b6000600a60008373ffffffffffffffffffffffffffffffffffffffff1673ffffffffffffffffffffffffffffffffffffffff16815260200190815260200160002060006101000a81548160ff0219169083151502179055508073ffffffffffffffffffffffffffffffffffffffff167f33d83959be2573f5453b12eb9d43b3499bc57d96bd2f067ba44803c859e8111360405160405180910390a250565b60006123668484846001612502565b90509392505050565b61237881613162565b6123b7576040517f08c379a00000000000000000000000000000000000000000000000000000000081526004016123ae90614eb3565b60405180910390fd5b50565b6000806123c683613303565b9050600073ffffffffffffffffffffffffffffffffffffffff168173ffffffffffffffffffffffffffffffffffffffff161415612438576040517f08c379a000000000000000000000000000000000000000000000000000000000815260040161242f90614eb3565b60405180910390fd5b80915050919050565b600033905090565b816005600083815260200190815260200160002060006101000a81548173ffffffffffffffffffffffffffffffffffffffff021916908373ffffffffffffffffffffffffffffffffffffffff160217905550808273ffffffffffffffffffffffffffffffffffffffff166124bc836123ba565b73ffffffffffffffffffffffffffffffffffffffff167f8c5be1e5ebec7d5bd14f71427d1e84f3dd0314c0f7b2291e5b200ac8c7c3b92560405160405180910390a45050565b60003073ffffffffffffffffffffffffffffffffffffffff16600860009054906101000a900473ffffffffffffffffffffffffffffffffffffffff1673ffffffffffffffffffffffffffffffffffffffff166302571be36009546040518263ffffffff1660e01b81526004016125789190614afb565b60206040518083038186803b15801561259057600080fd5b505afa1580156125a4573d6000803e3d6000fd5b505050506040513d601f19601f820116820180604052508101906125c8919061409f565b73ffffffffffffffffffffffffffffffffffffffff161461261e576040517f08c379a000000000000000000000000000000000000000000000000000000000815260040161261590614e13565b60405180910390fd5b600a60003373ffffffffffffffffffffffffffffffffffffffff1673ffffffffffffffffffffffffffffffffffffffff16815260200190815260200160002060009054906101000a900460ff166126aa576040517f08c379a00000000000000000000000000000000000000000000000000000000081526004016126a190614e53565b60405180910390fd5b6126b2612d0a565b6126bb85611a04565b6126fa576040517f08c379a00000000000000000000000000000000000000000000000000000000081526004016126f190614f13565b60405180910390fd5b6127038561213b565b80156127155750612713336111eb565b155b15612755576040517f08c379a000000000000000000000000000000000000000000000000000000000815260040161274c90614df3565b60405180910390fd5b6007544261276391906150e2565b600754844261277291906150e2565b61277c91906150e2565b116127bc576040517f08c379a00000000000000000000000000000000000000000000000000000000081526004016127b390614e93565b60405180910390fd5b6011546127c8856115e8565b10612808576040517f08c379a00000000000000000000000000000000000000000000000000000000081526004016127ff90614d73565b60405180910390fd5b824261281491906150e2565b600e60008781526020019081526020016000208190555061283485613162565b156128435761284285613340565b5b61284d848661348e565b811561290b57600860009054906101000a900473ffffffffffffffffffffffffffffffffffffffff1673ffffffffffffffffffffffffffffffffffffffff166306ab59236009548760001b876040518463ffffffff1660e01b81526004016128b793929190614b3f565b602060405180830381600087803b1580156128d157600080fd5b505af11580156128e5573d6000803e3d6000fd5b505050506040513d601f19601f820116820180604052508101906129099190614287565b505b8373ffffffffffffffffffffffffffffffffffffffff16857fb3d987963d01b2f68493b4bdb130988f157ea43070d4ad840fee0466ed9370d9854261295091906150e2565b60405161295d9190614f53565b60405180910390a3824261297191906150e2565b9050949350505050565b600080612987836114f3565b90508073ffffffffffffffffffffffffffffffffffffffff168473ffffffffffffffffffffffffffffffffffffffff1614806129f657508373ffffffffffffffffffffffffffffffffffffffff166129de84610be3565b73ffffffffffffffffffffffffffffffffffffffff16145b80612a075750612a068185612158565b5b91505092915050565b8273ffffffffffffffffffffffffffffffffffffffff16612a30826123ba565b73ffffffffffffffffffffffffffffffffffffffff1614612a86576040517f08c379a0000000000000000000000000000000000000000000000000000000008152600401612a7d90614c93565b60405180910390fd5b600073ffffffffffffffffffffffffffffffffffffffff168273ffffffffffffffffffffffffffffffffffffffff161415612af6576040517f08c379a0000000000000000000000000000000000000000000000000000000008152600401612aed90614d13565b60405180910390fd5b612b0383838360016134ee565b8273ffffffffffffffffffffffffffffffffffffffff16612b23826123ba565b73ffffffffffffffffffffffffffffffffffffffff1614612b79576040517f08c379a0000000000000000000000000000000000000000000000000000000008152600401612b7090614c93565b60405180910390fd5b6005600082815260200190815260200160002060006101000a81549073ffffffffffffffffffffffffffffffffffffffff02191690556001600460008573ffffffffffffffffffffffffffffffffffffffff1673ffffffffffffffffffffffffffffffffffffffff168152602001908152602001600020600082825403925050819055506001600460008473ffffffffffffffffffffffffffffffffffffffff1673ffffffffffffffffffffffffffffffffffffffff16815260200190815260200160002060008282540192505081905550816003600083815260200190815260200160002060006101000a81548173ffffffffffffffffffffffffffffffffffffffff021916908373ffffffffffffffffffffffffffffffffffffffff160217905550808273ffffffffffffffffffffffffffffffffffffffff168473ffffffffffffffffffffffffffffffffffffffff167fddf252ad1be2c89b69c2b068fc378daa952ba7f163c4a11628f55a4df523b3ef60405160405180910390a4612d058383836001613614565b505050565b612d126114dd565b15612d52576040517f08c379a0000000000000000000000000000000000000000000000000000000008152600401612d4990614db3565b60405180910390fd5b565b612d5c612441565b73ffffffffffffffffffffffffffffffffffffffff16612d7a6117df565b73ffffffffffffffffffffffffffffffffffffffff1614612dd0576040517f08c379a0000000000000000000000000000000000000000000000000000000008152600401612dc790614e73565b60405180910390fd5b565b612dda61361a565b60008060006101000a81548160ff0219169083151502179055507f5db9ee0a495bf2e6ff9c91a7834c1ba4fdd244a5e8aa4e537bd38aeae4b073aa612e1d612441565b604051612e2a9190614a57565b60405180910390a1565b60008060019054906101000a900473ffffffffffffffffffffffffffffffffffffffff16905081600060016101000a81548173ffffffffffffffffffffffffffffffffffffffff021916908373ffffffffffffffffffffffffffffffffffffffff1602179055508173ffffffffffffffffffffffffffffffffffffffff168173ffffffffffffffffffffffffffffffffffffffff167f8be0079c531659141344cd1fd0a4f28419497f9722a3daafe3b4186f6b6457e060405160405180910390a35050565b612f01612d0a565b60016000806101000a81548160ff0219169083151502179055507f62e78cea01bee320cd4e420270b5ea74000d11b0c9f74754ebdbfc544b05a258612f44612441565b604051612f519190614a57565b60405180910390a1565b6000600882901c9050600060ff83166001901b9050808460000160008481526020019081526020016000206000828254179250508190555050505050565b8173ffffffffffffffffffffffffffffffffffffffff168373ffffffffffffffffffffffffffffffffffffffff161415613008576040517f08c379a0000000000000000000000000000000000000000000000000000000008152600401612fff90614d33565b60405180910390fd5b80600660008573ffffffffffffffffffffffffffffffffffffffff1673ffffffffffffffffffffffffffffffffffffffff16815260200190815260200160002060008473ffffffffffffffffffffffffffffffffffffffff1673ffffffffffffffffffffffffffffffffffffffff16815260200190815260200160002060006101000a81548160ff0219169083151502179055508173ffffffffffffffffffffffffffffffffffffffff168373ffffffffffffffffffffffffffffffffffffffff167f17307eab39ab6107e8899845ad3d59bd9653f200f220920489ca2b5937696c31836040516130f99190614ae0565b60405180910390a3505050565b613111848484612a10565b61311d84848484613663565b61315c576040517f08c379a000000000000000000000000000000000000000000000000000000000815260040161315390614c33565b60405180910390fd5b50505050565b60008073ffffffffffffffffffffffffffffffffffffffff1661318483613303565b73ffffffffffffffffffffffffffffffffffffffff1614159050919050565b6060600060016131b2846137fa565b01905060008167ffffffffffffffff8111156131f7577f4e487b7100000000000000000000000000000000000000000000000000000000600052604160045260246000fd5b6040519080825280601f01601f1916602001820160405280156132295781602001600182028036833780820191505090505b509050600082602001820190505b6001156132bc578080600190039150507f3031323334353637383961626364656600000000000000000000000000000000600a86061a8153600a85816132a6577f4e487b7100000000000000000000000000000000000000000000000000000000600052601260045260246000fd5b04945060008514156132b7576132bc565b613237565b819350505050919050565b600080600883901c9050600060ff84166001901b9050600081866000016000858152602001908152602001600020541614159250505092915050565b60006003600083815260200190815260200160002060009054906101000a900473ffffffffffffffffffffffffffffffffffffffff169050919050565b61334981613a31565b600060126000838152602001908152602001600020549050600060016010805490506133759190615138565b90506000601082815481106133b3577f4e487b7100000000000000000000000000000000000000000000000000000000600052603260045260246000fd5b9060005260206000200154905080601084815481106133fb577f4e487b7100000000000000000000000000000000000000000000000000000000600052603260045260246000fd5b90600052602060002001819055506010805480613441577f4e487b7100000000000000000000000000000000000000000000000000000000600052603160045260246000fd5b600190038181906000526020600020016000905590558260126000838152602001908152602001600020819055506000601260008681526020019081526020016000208190555050505050565b6134988282613b7f565b601081908060018154018082558091505060019003906000526020600020016000909190919091505560016010805490506134d39190615138565b60126000838152602001908152602001600020819055505050565b600181111561360e57600073ffffffffffffffffffffffffffffffffffffffff168473ffffffffffffffffffffffffffffffffffffffff16146135825780600460008673ffffffffffffffffffffffffffffffffffffffff1673ffffffffffffffffffffffffffffffffffffffff168152602001908152602001600020600082825461357a9190615138565b925050819055505b600073ffffffffffffffffffffffffffffffffffffffff168373ffffffffffffffffffffffffffffffffffffffff161461360d5780600460008573ffffffffffffffffffffffffffffffffffffffff1673ffffffffffffffffffffffffffffffffffffffff168152602001908152602001600020600082825461360591906150e2565b925050819055505b5b50505050565b50505050565b6136226114dd565b613661576040517f08c379a000000000000000000000000000000000000000000000000000000000815260040161365890614bf3565b60405180910390fd5b565b60006136848473ffffffffffffffffffffffffffffffffffffffff16613d9d565b156137ed578373ffffffffffffffffffffffffffffffffffffffff1663150b7a026136ad612441565b8786866040518563ffffffff1660e01b81526004016136cf9493929190614a72565b602060405180830381600087803b1580156136e957600080fd5b505af192505050801561371a57506040513d601f19601f8201168201806040525081019061371791906142d9565b60015b61379d573d806000811461374a576040519150601f19603f3d011682016040523d82523d6000602084013e61374f565b606091505b50600081511415613795576040517f08c379a000000000000000000000000000000000000000000000000000000000815260040161378c90614c33565b60405180910390fd5b805181602001fd5b63150b7a0260e01b7bffffffffffffffffffffffffffffffffffffffffffffffffffffffff1916817bffffffffffffffffffffffffffffffffffffffffffffffffffffffff1916149150506137f2565b600190505b949350505050565b600080600090507a184f03e93ff9f4daa797ed6e38ed64bf6a1f010000000000000000831061387e577a184f03e93ff9f4daa797ed6e38ed64bf6a1f0100000000000000008381613874577f4e487b7100000000000000000000000000000000000000000000000000000000600052601260045260246000fd5b0492506040810190505b6d04ee2d6d415b85acef810000000083106138e1576d04ee2d6d415b85acef810000000083816138d7577f4e487b7100000000000000000000000000000000000000000000000000000000600052601260045260246000fd5b0492506020810190505b662386f26fc10000831061393657662386f26fc10000838161392c577f4e487b7100000000000000000000000000000000000000000000000000000000600052601260045260246000fd5b0492506010810190505b6305f5e1008310613985576305f5e100838161397b577f4e487b7100000000000000000000000000000000000000000000000000000000600052601260045260246000fd5b0492506008810190505b61271083106139d05761271083816139c6577f4e487b7100000000000000000000000000000000000000000000000000000000600052601260045260246000fd5b0492506004810190505b60648310613a195760648381613a0f577f4e487b7100000000000000000000000000000000000000000000000000000000600052601260045260246000fd5b0492506002810190505b600a8310613a28576001810190505b80915050919050565b6000613a3c826123ba565b9050613a4c8160008460016134ee565b613a55826123ba565b90506005600083815260200190815260200160002060006101000a81549073ffffffffffffffffffffffffffffffffffffffff02191690556001600460008373ffffffffffffffffffffffffffffffffffffffff1673ffffffffffffffffffffffffffffffffffffffff168152602001908152602001600020600082825403925050819055506003600083815260200190815260200160002060006101000a81549073ffffffffffffffffffffffffffffffffffffffff021916905581600073ffffffffffffffffffffffffffffffffffffffff168273ffffffffffffffffffffffffffffffffffffffff167fddf252ad1be2c89b69c2b068fc378daa952ba7f163c4a11628f55a4df523b3ef60405160405180910390a4613b7b816000846001613614565b5050565b600073ffffffffffffffffffffffffffffffffffffffff168273ffffffffffffffffffffffffffffffffffffffff161415613bef576040517f08c379a0000000000000000000000000000000000000000000000000000000008152600401613be690614e33565b60405180910390fd5b613bf881613162565b15613c38576040517f08c379a0000000000000000000000000000000000000000000000000000000008152600401613c2f90614cb3565b60405180910390fd5b613c466000838360016134ee565b613c4f81613162565b15613c8f576040517f08c379a0000000000000000000000000000000000000000000000000000000008152600401613c8690614cb3565b60405180910390fd5b6001600460008473ffffffffffffffffffffffffffffffffffffffff1673ffffffffffffffffffffffffffffffffffffffff16815260200190815260200160002060008282540192505081905550816003600083815260200190815260200160002060006101000a81548173ffffffffffffffffffffffffffffffffffffffff021916908373ffffffffffffffffffffffffffffffffffffffff160217905550808273ffffffffffffffffffffffffffffffffffffffff16600073ffffffffffffffffffffffffffffffffffffffff167fddf252ad1be2c89b69c2b068fc378daa952ba7f163c4a11628f55a4df523b3ef60405160405180910390a4613d99600083836001613614565b5050565b6000808273ffffffffffffffffffffffffffffffffffffffff163b119050919050565b828054613dcc90615250565b90600052602060002090601f016020900481019282613dee5760008555613e35565b82601f10613e0757805160ff1916838001178555613e35565b82800160010185558215613e35579182015b82811115613e34578251825591602001919060010190613e19565b5b509050613e429190613e46565b5090565b5b80821115613e5f576000816000905550600101613e47565b5090565b6000613e76613e7184614fc3565b614f9e565b90508083825260208201905082856020860282011115613e9557600080fd5b60005b85811015613edf57813567ffffffffffffffff811115613eb757600080fd5b808601613ec48982614037565b85526020850194506020840193505050600181019050613e98565b5050509392505050565b6000613efc613ef784614fef565b614f9e565b905082815260208101848484011115613f1457600080fd5b613f1f84828561520e565b509392505050565b6000613f3a613f3584615020565b614f9e565b905082815260208101848484011115613f5257600080fd5b613f5d84828561520e565b509392505050565b600081359050613f748161596f565b92915050565b600081519050613f898161596f565b92915050565b600082601f830112613fa057600080fd5b8135613fb0848260208601613e63565b91505092915050565b600081359050613fc881615986565b92915050565b600081519050613fdd8161599d565b92915050565b600081359050613ff2816159b4565b92915050565b600081519050614007816159b4565b92915050565b600082601f83011261401e57600080fd5b813561402e848260208601613ee9565b91505092915050565b600082601f83011261404857600080fd5b8135614058848260208601613f27565b91505092915050565b600081359050614070816159cb565b92915050565b60006020828403121561408857600080fd5b600061409684828501613f65565b91505092915050565b6000602082840312156140b157600080fd5b60006140bf84828501613f7a565b91505092915050565b600080604083850312156140db57600080fd5b60006140e985828601613f65565b92505060206140fa85828601613f65565b9150509250929050565b60008060006060848603121561411957600080fd5b600061412786828701613f65565b935050602061413886828701613f65565b925050604061414986828701614061565b9150509250925092565b6000806000806080858703121561416957600080fd5b600061417787828801613f65565b945050602061418887828801613f65565b935050604061419987828801614061565b925050606085013567ffffffffffffffff8111156141b657600080fd5b6141c28782880161400d565b91505092959194509250565b600080604083850312156141e157600080fd5b60006141ef85828601613f65565b925050602061420085828601613fb9565b9150509250929050565b6000806040838503121561421d57600080fd5b600061422b85828601613f65565b925050602061423c85828601614061565b9150509250929050565b60006020828403121561425857600080fd5b600082013567ffffffffffffffff81111561427257600080fd5b61427e84828501613f8f565b91505092915050565b60006020828403121561429957600080fd5b60006142a784828501613fce565b91505092915050565b6000602082840312156142c257600080fd5b60006142d084828501613fe3565b91505092915050565b6000602082840312156142eb57600080fd5b60006142f984828501613ff8565b91505092915050565b60006020828403121561431457600080fd5b600082013567ffffffffffffffff81111561432e57600080fd5b61433a84828501614037565b91505092915050565b60006020828403121561435557600080fd5b600061436384828501614061565b91505092915050565b6000806040838503121561437f57600080fd5b600061438d85828601614061565b925050602061439e85828601613f65565b9150509250929050565b6000806000606084860312156143bd57600080fd5b60006143cb86828701614061565b93505060206143dc86828701613f65565b92505060406143ed86828701614061565b9150509250925092565b6000806040838503121561440a57600080fd5b600061441885828601614061565b925050602061442985828601614061565b9150509250929050565b600061443f83836149fe565b60208301905092915050565b6144548161516c565b82525050565b600061446582615076565b61446f81856150a4565b935061447a83615051565b8060005b838110156144ab5781516144928882614433565b975061449d83615097565b92505060018101905061447e565b5085935050505092915050565b6144c18161517e565b82525050565b6144d08161518a565b82525050565b60006144e182615081565b6144eb81856150b5565b93506144fb81856020860161521d565b61450481615389565b840191505092915050565b614518816151ea565b82525050565b60006145298261508c565b61453381856150c6565b935061454381856020860161521d565b61454c81615389565b840191505092915050565b60006145628261508c565b61456c81856150d7565b935061457c81856020860161521d565b80840191505092915050565b6000815461459581615250565b61459f81866150d7565b945060018216600081146145ba57600181146145cb576145fe565b60ff198316865281860193506145fe565b6145d485615061565b60005b838110156145f6578154818901526001820191506020810190506145d7565b838801955050505b50505092915050565b60006146146015836150c6565b915061461f8261539a565b602082019050919050565b60006146376010836150c6565b9150614642826153c3565b602082019050919050565b600061465a6014836150c6565b9150614665826153ec565b602082019050919050565b600061467d6011836150c6565b915061468882615415565b602082019050919050565b60006146a06032836150c6565b91506146ab8261543e565b604082019050919050565b60006146c36027836150c6565b91506146ce8261548d565b604082019050919050565b60006146e66026836150c6565b91506146f1826154dc565b604082019050919050565b60006147096025836150c6565b91506147148261552b565b604082019050919050565b600061472c601c836150c6565b91506147378261557a565b602082019050919050565b600061474f6014836150c6565b915061475a826155a3565b602082019050919050565b60006147726016836150c6565b915061477d826155cc565b602082019050919050565b60006147956024836150c6565b91506147a0826155f5565b604082019050919050565b60006147b86019836150c6565b91506147c382615644565b602082019050919050565b60006147db6015836150c6565b91506147e68261566d565b602082019050919050565b60006147fe6013836150c6565b915061480982615696565b602082019050919050565b60006148216007836150c6565b915061482c826156bf565b602082019050919050565b60006148446010836150c6565b915061484f826156e8565b602082019050919050565b60006148676029836150c6565b915061487282615711565b604082019050919050565b600061488a6011836150c6565b915061489582615760565b602082019050919050565b60006148ad6008836150c6565b91506148b882615789565b602082019050919050565b60006148d06020836150c6565b91506148db826157b2565b602082019050919050565b60006148f36009836150c6565b91506148fe826157db565b602082019050919050565b60006149166020836150c6565b915061492182615804565b602082019050919050565b60006149396012836150c6565b91506149448261582d565b602082019050919050565b600061495c6018836150c6565b915061496782615856565b602082019050919050565b600061497f6021836150c6565b915061498a8261587f565b604082019050919050565b60006149a2603d836150c6565b91506149ad826158ce565b604082019050919050565b60006149c5600d836150c6565b91506149d08261591d565b602082019050919050565b60006149e8600d836150c6565b91506149f382615946565b602082019050919050565b614a07816151e0565b82525050565b614a16816151e0565b82525050565b6000614a288284614588565b915081905092915050565b6000614a3f8285614588565b9150614a4b8284614557565b91508190509392505050565b6000602082019050614a6c600083018461444b565b92915050565b6000608082019050614a87600083018761444b565b614a94602083018661444b565b614aa16040830185614a0d565b8181036060830152614ab381846144d6565b905095945050505050565b60006020820190508181036000830152614ad8818461445a565b905092915050565b6000602082019050614af560008301846144b8565b92915050565b6000602082019050614b1060008301846144c7565b92915050565b6000604082019050614b2b60008301856144c7565b614b38602083018461444b565b9392505050565b6000606082019050614b5460008301866144c7565b614b6160208301856144c7565b614b6e604083018461444b565b949350505050565b6000602082019050614b8b600083018461450f565b92915050565b60006020820190508181036000830152614bab818461451e565b905092915050565b60006020820190508181036000830152614bcc81614607565b9050919050565b60006020820190508181036000830152614bec8161462a565b9050919050565b60006020820190508181036000830152614c0c8161464d565b9050919050565b60006020820190508181036000830152614c2c81614670565b9050919050565b60006020820190508181036000830152614c4c81614693565b9050919050565b60006020820190508181036000830152614c6c816146b6565b9050919050565b60006020820190508181036000830152614c8c816146d9565b9050919050565b60006020820190508181036000830152614cac816146fc565b9050919050565b60006020820190508181036000830152614ccc8161471f565b9050919050565b60006020820190508181036000830152614cec81614742565b9050919050565b60006020820190508181036000830152614d0c81614765565b9050919050565b60006020820190508181036000830152614d2c81614788565b9050919050565b60006020820190508181036000830152614d4c816147ab565b9050919050565b60006020820190508181036000830152614d6c816147ce565b9050919050565b60006020820190508181036000830152614d8c816147f1565b9050919050565b60006020820190508181036000830152614dac81614814565b9050919050565b60006020820190508181036000830152614dcc81614837565b9050919050565b60006020820190508181036000830152614dec8161485a565b9050919050565b60006020820190508181036000830152614e0c8161487d565b9050919050565b60006020820190508181036000830152614e2c816148a0565b9050919050565b60006020820190508181036000830152614e4c816148c3565b9050919050565b60006020820190508181036000830152614e6c816148e6565b9050919050565b60006020820190508181036000830152614e8c81614909565b9050919050565b60006020820190508181036000830152614eac8161492c565b9050919050565b60006020820190508181036000830152614ecc8161494f565b9050919050565b60006020820190508181036000830152614eec81614972565b9050919050565b60006020820190508181036000830152614f0c81614995565b9050919050565b60006020820190508181036000830152614f2c816149b8565b9050919050565b60006020820190508181036000830152614f4c816149db565b9050919050565b6000602082019050614f686000830184614a0d565b92915050565b6000604082019050614f836000830185614a0d565b8181036020830152614f95818461451e565b90509392505050565b6000614fa8614fb9565b9050614fb48282615282565b919050565b6000604051905090565b600067ffffffffffffffff821115614fde57614fdd61535a565b5b602082029050602081019050919050565b600067ffffffffffffffff82111561500a5761500961535a565b5b61501382615389565b9050602081019050919050565b600067ffffffffffffffff82111561503b5761503a61535a565b5b61504482615389565b9050602081019050919050565b6000819050602082019050919050565b60008190508160005260206000209050919050565b600081519050919050565b600081519050919050565b600081519050919050565b6000602082019050919050565b600082825260208201905092915050565b600082825260208201905092915050565b600082825260208201905092915050565b600081905092915050565b60006150ed826151e0565b91506150f8836151e0565b9250827fffffffffffffffffffffffffffffffffffffffffffffffffffffffffffffffff0382111561512d5761512c6152fc565b5b828201905092915050565b6000615143826151e0565b915061514e836151e0565b925082821015615161576151606152fc565b5b828203905092915050565b6000615177826151c0565b9050919050565b60008115159050919050565b6000819050919050565b60007fffffffff0000000000000000000000000000000000000000000000000000000082169050919050565b600073ffffffffffffffffffffffffffffffffffffffff82169050919050565b6000819050919050565b60006151f5826151fc565b9050919050565b6000615207826151c0565b9050919050565b82818337600083830152505050565b60005b8381101561523b578082015181840152602081019050615220565b8381111561524a576000848401525b50505050565b6000600282049050600182168061526857607f821691505b6020821081141561527c5761527b61532b565b5b50919050565b61528b82615389565b810181811067ffffffffffffffff821117156152aa576152a961535a565b5b80604052505050565b60006152be826151e0565b91507fffffffffffffffffffffffffffffffffffffffffffffffffffffffffffffffff8214156152f1576152f06152fc565b5b600182019050919050565b7f4e487b7100000000000000000000000000000000000000000000000000000000600052601160045260246000fd5b7f4e487b7100000000000000000000000000000000000000000000000000000000600052602260045260246000fd5b7f4e487b7100000000000000000000000000000000000000000000000000000000600052604160045260246000fd5b6000601f19601f8301169050919050565b7f6e6f7420617070726f766564206f72206f776e65720000000000000000000000600082015250565b7f696e76616c6964206d696e742063617000000000000000000000000000000000600082015250565b7f5061757361626c653a206e6f7420706175736564000000000000000000000000600082015250565b7f696e76616c696420726567697374726172000000000000000000000000000000600082015250565b7f4552433732313a207472616e7366657220746f206e6f6e20455243373231526560008201527f63656976657220696d706c656d656e7465720000000000000000000000000000602082015250565b7f4552433732313a2063616c6c6572206973206e6f7420617070726f766564206f60008201527f72206f776e657200000000000000000000000000000000000000000000000000602082015250565b7f4f776e61626c653a206e6577206f776e657220697320746865207a65726f206160008201527f6464726573730000000000000000000000000000000000000000000000000000602082015250565b7f4552433732313a207472616e736665722066726f6d20696e636f72726563742060008201527f6f776e6572000000000000000000000000000000000000000000000000000000602082015250565b7f4552433732313a20746f6b656e20616c7265616479206d696e74656400000000600082015250565b7f74696d657374616d70206f766572666c6f776564000000000000000000000000600082015250565b7f746f6b656e496420646f6573206e6f7420657869737400000000000000000000600082015250565b7f4552433732313a207472616e7366657220746f20746865207a65726f2061646460008201527f7265737300000000000000000000000000000000000000000000000000000000602082015250565b7f4552433732313a20617070726f766520746f2063616c6c657200000000000000600082015250565b7f7374696c6c20696e20677261636520706572696f640000000000000000000000600082015250565b7f62616c616e636520657863656564732063617000000000000000000000000000600082015250565b7f6578706972656400000000000000000000000000000000000000000000000000600082015250565b7f5061757361626c653a2070617573656400000000000000000000000000000000600082015250565b7f4552433732313a2061646472657373207a65726f206973206e6f74206120766160008201527f6c6964206f776e65720000000000000000000000000000000000000000000000602082015250565b7f726573657276656420746f6b656e206964000000000000000000000000000000600082015250565b7f6e6f74206c697665000000000000000000000000000000000000000000000000600082015250565b7f4552433732313a206d696e7420746f20746865207a65726f2061646472657373600082015250565b7f6f6e6c79206374726c0000000000000000000000000000000000000000000000600082015250565b7f4f776e61626c653a2063616c6c6572206973206e6f7420746865206f776e6572600082015250565b7f74696d657374616d70206f766572666c6f770000000000000000000000000000600082015250565b7f4552433732313a20696e76616c696420746f6b656e2049440000000000000000600082015250565b7f4552433732313a20617070726f76616c20746f2063757272656e74206f776e6560008201527f7200000000000000000000000000000000000000000000000000000000000000602082015250565b7f4552433732313a20617070726f76652063616c6c6572206973206e6f7420746f60008201527f6b656e206f776e6572206f7220617070726f76656420666f7220616c6c000000602082015250565b7f6e6f7420617661696c61626c6500000000000000000000000000000000000000600082015250565b7f696e76616c696420696e64657800000000000000000000000000000000000000600082015250565b6159788161516c565b811461598357600080fd5b50565b61598f8161517e565b811461599a57600080fd5b50565b6159a68161518a565b81146159b157600080fd5b50565b6159bd81615194565b81146159c857600080fd5b50565b6159d4816151e0565b81146159df57600080fd5b5056fea264697066735822122064901e8ee1090af6590a37764aedd596459423a66c0351a0fb8059605033d1f464736f6c63430008040033",
  "devdoc": {
    "kind": "dev",
    "methods": {
      "addController(address)": {
        "details": "Authorises a controller, who can register and renew domains."
      },
      "addReservedLabelNames(string[])": {
        "details": "Some names are reserved for special purposes "
      },
      "approve(address,uint256)": {
        "details": "See {IERC721-approve}."
      },
      "available(uint256)": {
        "details": "Returns true iff the specified name is available for registration."
      },
      "balanceOf(address)": {
        "details": "See {IERC721-balanceOf}."
      },
      "getApproved(uint256)": {
        "details": "See {IERC721-getApproved}."
      },
      "isApprovedForAll(address,address)": {
        "details": "See {IERC721-isApprovedForAll}."
      },
      "name()": {
        "details": "See {IERC721Metadata-name}."
      },
      "nameExpires(uint256)": {
        "details": "Returns the expiration timestamp of the specified id."
      },
      "owner()": {
        "details": "Returns the address of the current owner."
      },
      "ownerOf(uint256)": {
        "details": "Gets the owner of the specified token ID. Names become unowned      when their registration expires.",
        "params": {
          "tokenId": "uint256 ID of the token to query the owner of"
        },
        "returns": {
          "_0": "address currently marked as the owner of the given token ID"
        }
      },
      "pause()": {
        "details": "Pause the register & renew globally"
      },
      "paused()": {
        "details": "Returns true if the contract is paused, and false otherwise."
      },
      "reclaim(uint256,address)": {
        "details": "Reclaim ownership of a name in MID, if you own it in the registrar."
      },
      "register(uint256,address,uint256)": {
        "details": "Register a name.",
        "params": {
          "duration": "Duration in seconds for the registration.",
          "id": "The token ID (keccak256 of the label).",
          "owner": "The address that should own the registration."
        }
      },
      "registerOnly(uint256,address,uint256)": {
        "details": "Register a name, without modifying the registry.",
        "params": {
          "duration": "Duration in seconds for the registration.",
          "id": "The token ID (keccak256 of the label).",
          "owner": "The address that should own the registration."
        }
      },
      "removeController(address)": {
        "details": "Revoke controller permission for an address."
      },
      "renew(uint256,uint256)": {
        "details": "Renew the name with input duration"
      },
      "renounceOwnership()": {
        "details": "Leaves the contract without owner. It will not be possible to call `onlyOwner` functions anymore. Can only be called by the current owner. NOTE: Renouncing ownership will leave the contract without an owner, thereby removing any functionality that is only available to the owner."
      },
      "safeTransferFrom(address,address,uint256)": {
        "details": "See {IERC721-safeTransferFrom}."
      },
      "safeTransferFrom(address,address,uint256,bytes)": {
        "details": "modify `transferFrom` and `safeTransferFrom` to make the domain automatically  transfer to target owner as well"
      },
      "setApprovalForAll(address,bool)": {
        "details": "See {IERC721-setApprovalForAll}."
      },
      "setBaseURI(string)": {
        "details": "Support directly set the baseURI.",
        "params": {
          "baseURI_": "the new base URI"
        }
      },
      "setGracePeriod(uint256)": {
        "details": "Reset the grace period"
      },
      "setMaxMintPerUser(uint256)": {
        "details": "max mint per user setter"
      },
      "setResolver(address)": {
        "details": "Set the resolver for the TLD this registrar manages."
      },
      "symbol()": {
        "details": "See {IERC721Metadata-symbol}."
      },
      "tokenByIndex(uint256)": {
        "details": "Get token ID by stored order"
      },
      "tokenURI(uint256)": {
        "details": "Return the metadata URI by token ID"
      },
      "totalSupply()": {
        "details": "Support token metadata"
      },
      "transferFrom(address,address,uint256)": {
        "details": "modify `transferFrom` and `safeTransferFrom` to make the domain automatically  transfer to target owner as well"
      },
      "transferOwnership(address)": {
        "details": "Transfers ownership of the contract to a new account (`newOwner`). Can only be called by the current owner."
      },
      "unpause()": {
        "details": "Unpause the register & renew globally"
      }
    },
    "stateVariables": {
      "baseURI": {
        "details": "Base URI of NFT metadata"
      },
      "expiries": {
        "details": "A map of expiry times"
      },
      "idToIndexes": {
        "details": "mapping from token id to index in tokens array"
      },
      "maxMintPerUser": {
        "details": "The max minting count per account"
      },
      "ownerToIds": {
        "details": "mapping from owner address to token ids"
      },
      "tokens": {
        "details": "All minted token ids"
      }
    },
    "version": 1
  },
  "userdoc": {
    "kind": "user",
    "methods": {},
    "version": 1
  },
  "storageLayout": {
    "storage": [
      {
        "astId": 130,
        "contract": "contracts/cidregistrar/BaseRegistrarImplementation.sol:BaseRegistrarImplementation",
        "label": "_paused",
        "offset": 0,
        "slot": "0",
        "type": "t_bool"
      },
      {
        "astId": 7,
        "contract": "contracts/cidregistrar/BaseRegistrarImplementation.sol:BaseRegistrarImplementation",
        "label": "_owner",
        "offset": 1,
        "slot": "0",
        "type": "t_address"
      },
      {
        "astId": 246,
        "contract": "contracts/cidregistrar/BaseRegistrarImplementation.sol:BaseRegistrarImplementation",
        "label": "_name",
        "offset": 0,
        "slot": "1",
        "type": "t_string_storage"
      },
      {
        "astId": 248,
        "contract": "contracts/cidregistrar/BaseRegistrarImplementation.sol:BaseRegistrarImplementation",
        "label": "_symbol",
        "offset": 0,
        "slot": "2",
        "type": "t_string_storage"
      },
      {
        "astId": 252,
        "contract": "contracts/cidregistrar/BaseRegistrarImplementation.sol:BaseRegistrarImplementation",
        "label": "_owners",
        "offset": 0,
        "slot": "3",
        "type": "t_mapping(t_uint256,t_address)"
      },
      {
        "astId": 256,
        "contract": "contracts/cidregistrar/BaseRegistrarImplementation.sol:BaseRegistrarImplementation",
        "label": "_balances",
        "offset": 0,
        "slot": "4",
        "type": "t_mapping(t_address,t_uint256)"
      },
      {
        "astId": 260,
        "contract": "contracts/cidregistrar/BaseRegistrarImplementation.sol:BaseRegistrarImplementation",
        "label": "_tokenApprovals",
        "offset": 0,
        "slot": "5",
        "type": "t_mapping(t_uint256,t_address)"
      },
      {
        "astId": 266,
        "contract": "contracts/cidregistrar/BaseRegistrarImplementation.sol:BaseRegistrarImplementation",
        "label": "_operatorApprovals",
        "offset": 0,
        "slot": "6",
        "type": "t_mapping(t_address,t_mapping(t_address,t_bool))"
      },
      {
        "astId": 2935,
        "contract": "contracts/cidregistrar/BaseRegistrarImplementation.sol:BaseRegistrarImplementation",
        "label": "gracePeriod",
        "offset": 0,
        "slot": "7",
        "type": "t_uint256"
      },
      {
        "astId": 2968,
        "contract": "contracts/cidregistrar/BaseRegistrarImplementation.sol:BaseRegistrarImplementation",
        "label": "mid",
        "offset": 0,
        "slot": "8",
        "type": "t_contract(MID)6720"
      },
      {
        "astId": 2970,
        "contract": "contracts/cidregistrar/BaseRegistrarImplementation.sol:BaseRegistrarImplementation",
        "label": "baseNode",
        "offset": 0,
        "slot": "9",
        "type": "t_bytes32"
      },
      {
        "astId": 2974,
        "contract": "contracts/cidregistrar/BaseRegistrarImplementation.sol:BaseRegistrarImplementation",
        "label": "controllers",
        "offset": 0,
        "slot": "10",
        "type": "t_mapping(t_address,t_bool)"
      },
      {
        "astId": 6056,
        "contract": "contracts/cidregistrar/BaseRegistrarImplementation.sol:BaseRegistrarImplementation",
        "label": "reservedTokenIdMap",
        "offset": 0,
        "slot": "11",
        "type": "t_struct(BitMap)2793_storage"
      },
      {
        "astId": 6059,
        "contract": "contracts/cidregistrar/BaseRegistrarImplementation.sol:BaseRegistrarImplementation",
        "label": "reservedIDRegistrar",
        "offset": 0,
        "slot": "12",
        "type": "t_address"
      },
      {
        "astId": 6064,
        "contract": "contracts/cidregistrar/BaseRegistrarImplementation.sol:BaseRegistrarImplementation",
        "label": "reservedTokenIds",
        "offset": 0,
        "slot": "13",
        "type": "t_array(t_struct(ReservedDomain)6045_storage)dyn_storage"
      },
      {
        "astId": 3063,
        "contract": "contracts/cidregistrar/BaseRegistrarImplementation.sol:BaseRegistrarImplementation",
        "label": "expiries",
        "offset": 0,
        "slot": "14",
        "type": "t_mapping(t_uint256,t_uint256)"
      },
      {
        "astId": 3066,
        "contract": "contracts/cidregistrar/BaseRegistrarImplementation.sol:BaseRegistrarImplementation",
        "label": "baseURI",
        "offset": 0,
        "slot": "15",
        "type": "t_string_storage"
      },
      {
        "astId": 3070,
        "contract": "contracts/cidregistrar/BaseRegistrarImplementation.sol:BaseRegistrarImplementation",
        "label": "tokens",
        "offset": 0,
        "slot": "16",
        "type": "t_array(t_uint256)dyn_storage"
      },
      {
        "astId": 3074,
        "contract": "contracts/cidregistrar/BaseRegistrarImplementation.sol:BaseRegistrarImplementation",
        "label": "maxMintPerUser",
        "offset": 0,
        "slot": "17",
        "type": "t_uint256"
      },
      {
        "astId": 3079,
        "contract": "contracts/cidregistrar/BaseRegistrarImplementation.sol:BaseRegistrarImplementation",
        "label": "idToIndexes",
        "offset": 0,
        "slot": "18",
        "type": "t_mapping(t_uint256,t_uint256)"
      },
      {
        "astId": 3085,
        "contract": "contracts/cidregistrar/BaseRegistrarImplementation.sol:BaseRegistrarImplementation",
        "label": "ownerToIds",
        "offset": 0,
        "slot": "19",
        "type": "t_mapping(t_address,t_array(t_uint256)dyn_storage)"
      }
    ],
    "types": {
      "t_address": {
        "encoding": "inplace",
        "label": "address",
        "numberOfBytes": "20"
      },
      "t_array(t_struct(ReservedDomain)6045_storage)dyn_storage": {
        "base": "t_struct(ReservedDomain)6045_storage",
        "encoding": "dynamic_array",
        "label": "struct ReservedDomain[]",
        "numberOfBytes": "32"
      },
      "t_array(t_uint256)dyn_storage": {
        "base": "t_uint256",
        "encoding": "dynamic_array",
        "label": "uint256[]",
        "numberOfBytes": "32"
      },
      "t_bool": {
        "encoding": "inplace",
        "label": "bool",
        "numberOfBytes": "1"
      },
      "t_bytes32": {
        "encoding": "inplace",
        "label": "bytes32",
        "numberOfBytes": "32"
      },
      "t_contract(MID)6720": {
        "encoding": "inplace",
        "label": "contract MID",
        "numberOfBytes": "20"
      },
      "t_mapping(t_address,t_array(t_uint256)dyn_storage)": {
        "encoding": "mapping",
        "key": "t_address",
        "label": "mapping(address => uint256[])",
        "numberOfBytes": "32",
        "value": "t_array(t_uint256)dyn_storage"
      },
      "t_mapping(t_address,t_bool)": {
        "encoding": "mapping",
        "key": "t_address",
        "label": "mapping(address => bool)",
        "numberOfBytes": "32",
        "value": "t_bool"
      },
      "t_mapping(t_address,t_mapping(t_address,t_bool))": {
        "encoding": "mapping",
        "key": "t_address",
        "label": "mapping(address => mapping(address => bool))",
        "numberOfBytes": "32",
        "value": "t_mapping(t_address,t_bool)"
      },
      "t_mapping(t_address,t_uint256)": {
        "encoding": "mapping",
        "key": "t_address",
        "label": "mapping(address => uint256)",
        "numberOfBytes": "32",
        "value": "t_uint256"
      },
      "t_mapping(t_uint256,t_address)": {
        "encoding": "mapping",
        "key": "t_uint256",
        "label": "mapping(uint256 => address)",
        "numberOfBytes": "32",
        "value": "t_address"
      },
      "t_mapping(t_uint256,t_uint256)": {
        "encoding": "mapping",
        "key": "t_uint256",
        "label": "mapping(uint256 => uint256)",
        "numberOfBytes": "32",
        "value": "t_uint256"
      },
      "t_string_storage": {
        "encoding": "bytes",
        "label": "string",
        "numberOfBytes": "32"
      },
      "t_struct(BitMap)2793_storage": {
        "encoding": "inplace",
        "label": "struct BitMaps.BitMap",
        "members": [
          {
            "astId": 2792,
            "contract": "contracts/cidregistrar/BaseRegistrarImplementation.sol:BaseRegistrarImplementation",
            "label": "_data",
            "offset": 0,
            "slot": "0",
            "type": "t_mapping(t_uint256,t_uint256)"
          }
        ],
        "numberOfBytes": "32"
      },
      "t_struct(ReservedDomain)6045_storage": {
        "encoding": "inplace",
        "label": "struct ReservedDomain",
        "members": [
          {
            "astId": 6042,
            "contract": "contracts/cidregistrar/BaseRegistrarImplementation.sol:BaseRegistrarImplementation",
            "label": "id",
            "offset": 0,
            "slot": "0",
            "type": "t_uint256"
          },
          {
            "astId": 6044,
            "contract": "contracts/cidregistrar/BaseRegistrarImplementation.sol:BaseRegistrarImplementation",
            "label": "labelName",
            "offset": 0,
            "slot": "1",
            "type": "t_string_storage"
          }
        ],
        "numberOfBytes": "64"
      },
      "t_uint256": {
        "encoding": "inplace",
        "label": "uint256",
        "numberOfBytes": "32"
      }
    }
  }
}