{
  "address": "0xB0E4903A9175dE51382B7c421F3A0662a2DEEdf8",
  "abi": [
    {
      "inputs": [
        {
          "internalType": "contract MID",
          "name": "_mid",
          "type": "address"
        },
        {
          "internalType": "bytes32",
          "name": "_baseNode",
          "type": "bytes32"
        }
      ],
      "stateMutability": "nonpayable",
      "type": "constructor"
    },
    {
      "anonymous": false,
      "inputs": [
        {
          "indexed": true,
          "internalType": "address",
          "name": "owner",
          "type": "address"
        },
        {
          "indexed": true,
          "internalType": "address",
          "name": "approved",
          "type": "address"
        },
        {
          "indexed": true,
          "internalType": "uint256",
          "name": "tokenId",
          "type": "uint256"
        }
      ],
      "name": "Approval",
      "type": "event"
    },
    {
      "anonymous": false,
      "inputs": [
        {
          "indexed": true,
          "internalType": "address",
          "name": "owner",
          "type": "address"
        },
        {
          "indexed": true,
          "internalType": "address",
          "name": "operator",
          "type": "address"
        },
        {
          "indexed": false,
          "internalType": "bool",
          "name": "approved",
          "type": "bool"
        }
      ],
      "name": "ApprovalForAll",
      "type": "event"
    },
    {
      "anonymous": false,
      "inputs": [
        {
          "indexed": true,
          "internalType": "string",
          "name": "URI",
          "type": "string"
        }
      ],
      "name": "BaseURIChanged",
      "type": "event"
    },
    {
      "anonymous": false,
      "inputs": [
        {
          "indexed": true,
          "internalType": "address",
          "name": "controller",
          "type": "address"
        }
      ],
      "name": "ControllerAdded",
      "type": "event"
    },
    {
      "anonymous": false,
      "inputs": [
        {
          "indexed": true,
          "internalType": "address",
          "name": "controller",
          "type": "address"
        }
      ],
      "name": "ControllerRemoved",
      "type": "event"
    },
    {
      "anonymous": false,
      "inputs": [
        {
          "indexed": true,
          "internalType": "uint256",
          "name": "id",
          "type": "uint256"
        },
        {
          "indexed": true,
          "internalType": "address",
          "name": "owner",
          "type": "address"
        },
        {
          "indexed": false,
          "internalType": "uint256",
          "name": "expires",
          "type": "uint256"
        }
      ],
      "name": "NameMigrated",
      "type": "event"
    },
    {
      "anonymous": false,
      "inputs": [
        {
          "indexed": true,
          "internalType": "uint256",
          "name": "id",
          "type": "uint256"
        },
        {
          "indexed": true,
          "internalType": "address",
          "name": "owner",
          "type": "address"
        },
        {
          "indexed": false,
          "internalType": "uint256",
          "name": "expires",
          "type": "uint256"
        }
      ],
      "name": "NameRegistered",
      "type": "event"
    },
    {
      "anonymous": false,
      "inputs": [
        {
          "indexed": true,
          "internalType": "uint256",
          "name": "id",
          "type": "uint256"
        },
        {
          "indexed": false,
          "internalType": "uint256",
          "name": "expires",
          "type": "uint256"
        }
      ],
      "name": "NameRenewed",
      "type": "event"
    },
    {
      "anonymous": false,
      "inputs": [
        {
          "indexed": true,
          "internalType": "address",
          "name": "previousOwner",
          "type": "address"
        },
        {
          "indexed": true,
          "internalType": "address",
          "name": "newOwner",
          "type": "address"
        }
      ],
      "name": "OwnershipTransferred",
      "type": "event"
    },
    {
      "anonymous": false,
      "inputs": [
        {
          "indexed": true,
          "internalType": "address",
          "name": "from",
          "type": "address"
        },
        {
          "indexed": true,
          "internalType": "address",
          "name": "to",
          "type": "address"
        },
        {
          "indexed": true,
          "internalType": "uint256",
          "name": "tokenId",
          "type": "uint256"
        }
      ],
      "name": "Transfer",
      "type": "event"
    },
    {
      "inputs": [],
      "name": "GRACE_PERIOD",
      "outputs": [
        {
          "internalType": "uint256",
          "name": "",
          "type": "uint256"
        }
      ],
      "stateMutability": "view",
      "type": "function"
    },
    {
      "inputs": [
        {
          "internalType": "address",
          "name": "controller",
          "type": "address"
        }
      ],
      "name": "addController",
      "outputs": [],
      "stateMutability": "nonpayable",
      "type": "function"
    },
    {
      "inputs": [
        {
          "internalType": "address",
          "name": "to",
          "type": "address"
        },
        {
          "internalType": "uint256",
          "name": "tokenId",
          "type": "uint256"
        }
      ],
      "name": "approve",
      "outputs": [],
      "stateMutability": "nonpayable",
      "type": "function"
    },
    {
      "inputs": [
        {
          "internalType": "uint256",
          "name": "id",
          "type": "uint256"
        }
      ],
      "name": "available",
      "outputs": [
        {
          "internalType": "bool",
          "name": "",
          "type": "bool"
        }
      ],
      "stateMutability": "view",
      "type": "function"
    },
    {
      "inputs": [
        {
          "internalType": "address",
          "name": "owner",
          "type": "address"
        }
      ],
      "name": "balanceOf",
      "outputs": [
        {
          "internalType": "uint256",
          "name": "",
          "type": "uint256"
        }
      ],
      "stateMutability": "view",
      "type": "function"
    },
    {
      "inputs": [],
      "name": "baseNode",
      "outputs": [
        {
          "internalType": "bytes32",
          "name": "",
          "type": "bytes32"
        }
      ],
      "stateMutability": "view",
      "type": "function"
    },
    {
      "inputs": [],
      "name": "baseURI",
      "outputs": [
        {
          "internalType": "string",
          "name": "",
          "type": "string"
        }
      ],
      "stateMutability": "view",
      "type": "function"
    },
    {
      "inputs": [
        {
          "internalType": "address",
          "name": "",
          "type": "address"
        }
      ],
      "name": "controllers",
      "outputs": [
        {
          "internalType": "bool",
          "name": "",
          "type": "bool"
        }
      ],
      "stateMutability": "view",
      "type": "function"
    },
    {
      "inputs": [
        {
          "internalType": "uint256",
          "name": "tokenId",
          "type": "uint256"
        }
      ],
      "name": "getApproved",
      "outputs": [
        {
          "internalType": "address",
          "name": "",
          "type": "address"
        }
      ],
      "stateMutability": "view",
      "type": "function"
    },
    {
      "inputs": [
        {
          "internalType": "address",
          "name": "owner",
          "type": "address"
        },
        {
          "internalType": "address",
          "name": "operator",
          "type": "address"
        }
      ],
      "name": "isApprovedForAll",
      "outputs": [
        {
          "internalType": "bool",
          "name": "",
          "type": "bool"
        }
      ],
      "stateMutability": "view",
      "type": "function"
    },
    {
      "inputs": [],
      "name": "mid",
      "outputs": [
        {
          "internalType": "contract MID",
          "name": "",
          "type": "address"
        }
      ],
      "stateMutability": "view",
      "type": "function"
    },
    {
      "inputs": [],
      "name": "name",
      "outputs": [
        {
          "internalType": "string",
          "name": "",
          "type": "string"
        }
      ],
      "stateMutability": "view",
      "type": "function"
    },
    {
      "inputs": [
        {
          "internalType": "uint256",
          "name": "id",
          "type": "uint256"
        }
      ],
      "name": "nameExpires",
      "outputs": [
        {
          "internalType": "uint256",
          "name": "",
          "type": "uint256"
        }
      ],
      "stateMutability": "view",
      "type": "function"
    },
    {
      "inputs": [],
      "name": "owner",
      "outputs": [
        {
          "internalType": "address",
          "name": "",
          "type": "address"
        }
      ],
      "stateMutability": "view",
      "type": "function"
    },
    {
      "inputs": [
        {
          "internalType": "uint256",
          "name": "tokenId",
          "type": "uint256"
        }
      ],
      "name": "ownerOf",
      "outputs": [
        {
          "internalType": "address",
          "name": "",
          "type": "address"
        }
      ],
      "stateMutability": "view",
      "type": "function"
    },
    {
      "inputs": [
        {
          "internalType": "uint256",
          "name": "id",
          "type": "uint256"
        },
        {
          "internalType": "address",
          "name": "owner",
          "type": "address"
        }
      ],
      "name": "reclaim",
      "outputs": [],
      "stateMutability": "nonpayable",
      "type": "function"
    },
    {
      "inputs": [
        {
          "internalType": "uint256",
          "name": "id",
          "type": "uint256"
        },
        {
          "internalType": "address",
          "name": "owner",
          "type": "address"
        },
        {
          "internalType": "uint256",
          "name": "duration",
          "type": "uint256"
        }
      ],
      "name": "register",
      "outputs": [
        {
          "internalType": "uint256",
          "name": "",
          "type": "uint256"
        }
      ],
      "stateMutability": "nonpayable",
      "type": "function"
    },
    {
      "inputs": [
        {
          "internalType": "uint256",
          "name": "id",
          "type": "uint256"
        },
        {
          "internalType": "address",
          "name": "owner",
          "type": "address"
        },
        {
          "internalType": "uint256",
          "name": "duration",
          "type": "uint256"
        }
      ],
      "name": "registerOnly",
      "outputs": [
        {
          "internalType": "uint256",
          "name": "",
          "type": "uint256"
        }
      ],
      "stateMutability": "nonpayable",
      "type": "function"
    },
    {
      "inputs": [
        {
          "internalType": "address",
          "name": "controller",
          "type": "address"
        }
      ],
      "name": "removeController",
      "outputs": [],
      "stateMutability": "nonpayable",
      "type": "function"
    },
    {
      "inputs": [
        {
          "internalType": "uint256",
          "name": "id",
          "type": "uint256"
        },
        {
          "internalType": "uint256",
          "name": "duration",
          "type": "uint256"
        }
      ],
      "name": "renew",
      "outputs": [
        {
          "internalType": "uint256",
          "name": "",
          "type": "uint256"
        }
      ],
      "stateMutability": "nonpayable",
      "type": "function"
    },
    {
      "inputs": [],
      "name": "renounceOwnership",
      "outputs": [],
      "stateMutability": "nonpayable",
      "type": "function"
    },
    {
      "inputs": [
        {
          "internalType": "address",
          "name": "from",
          "type": "address"
        },
        {
          "internalType": "address",
          "name": "to",
          "type": "address"
        },
        {
          "internalType": "uint256",
          "name": "tokenId",
          "type": "uint256"
        }
      ],
      "name": "safeTransferFrom",
      "outputs": [],
      "stateMutability": "nonpayable",
      "type": "function"
    },
    {
      "inputs": [
        {
          "internalType": "address",
          "name": "from",
          "type": "address"
        },
        {
          "internalType": "address",
          "name": "to",
          "type": "address"
        },
        {
          "internalType": "uint256",
          "name": "tokenId",
          "type": "uint256"
        },
        {
          "internalType": "bytes",
          "name": "_data",
          "type": "bytes"
        }
      ],
      "name": "safeTransferFrom",
      "outputs": [],
      "stateMutability": "nonpayable",
      "type": "function"
    },
    {
      "inputs": [
        {
          "internalType": "address",
          "name": "operator",
          "type": "address"
        },
        {
          "internalType": "bool",
          "name": "approved",
          "type": "bool"
        }
      ],
      "name": "setApprovalForAll",
      "outputs": [],
      "stateMutability": "nonpayable",
      "type": "function"
    },
    {
      "inputs": [
        {
          "internalType": "string",
          "name": "baseURI_",
          "type": "string"
        }
      ],
      "name": "setBaseURI",
      "outputs": [],
      "stateMutability": "nonpayable",
      "type": "function"
    },
    {
      "inputs": [
        {
          "internalType": "address",
          "name": "resolver",
          "type": "address"
        }
      ],
      "name": "setResolver",
      "outputs": [],
      "stateMutability": "nonpayable",
      "type": "function"
    },
    {
      "inputs": [
        {
          "internalType": "bytes4",
          "name": "interfaceID",
          "type": "bytes4"
        }
      ],
      "name": "supportsInterface",
      "outputs": [
        {
          "internalType": "bool",
          "name": "",
          "type": "bool"
        }
      ],
      "stateMutability": "pure",
      "type": "function"
    },
    {
      "inputs": [],
      "name": "symbol",
      "outputs": [
        {
          "internalType": "string",
          "name": "",
          "type": "string"
        }
      ],
      "stateMutability": "view",
      "type": "function"
    },
    {
      "inputs": [
        {
          "internalType": "uint256",
          "name": "_index",
          "type": "uint256"
        }
      ],
      "name": "tokenByIndex",
      "outputs": [
        {
          "internalType": "uint256",
          "name": "",
          "type": "uint256"
        }
      ],
      "stateMutability": "view",
      "type": "function"
    },
    {
      "inputs": [
        {
          "internalType": "address",
          "name": "_owner",
          "type": "address"
        },
        {
          "internalType": "uint256",
          "name": "_index",
          "type": "uint256"
        }
      ],
      "name": "tokenOfOwnerByIndex",
      "outputs": [
        {
          "internalType": "uint256",
          "name": "",
          "type": "uint256"
        }
      ],
      "stateMutability": "view",
      "type": "function"
    },
    {
      "inputs": [
        {
          "internalType": "uint256",
          "name": "tokenId",
          "type": "uint256"
        }
      ],
      "name": "tokenURI",
      "outputs": [
        {
          "internalType": "string",
          "name": "",
          "type": "string"
        }
      ],
      "stateMutability": "view",
      "type": "function"
    },
    {
      "inputs": [
        {
          "internalType": "address",
          "name": "_owner",
          "type": "address"
        }
      ],
      "name": "tokensOfOwner",
      "outputs": [
        {
          "internalType": "uint256[]",
          "name": "",
          "type": "uint256[]"
        }
      ],
      "stateMutability": "view",
      "type": "function"
    },
    {
      "inputs": [],
      "name": "totalSupply",
      "outputs": [
        {
          "internalType": "uint256",
          "name": "",
          "type": "uint256"
        }
      ],
      "stateMutability": "view",
      "type": "function"
    },
    {
      "inputs": [
        {
          "internalType": "address",
          "name": "from",
          "type": "address"
        },
        {
          "internalType": "address",
          "name": "to",
          "type": "address"
        },
        {
          "internalType": "uint256",
          "name": "tokenId",
          "type": "uint256"
        }
      ],
      "name": "transferFrom",
      "outputs": [],
      "stateMutability": "nonpayable",
      "type": "function"
    },
    {
      "inputs": [
        {
          "internalType": "address",
          "name": "newOwner",
          "type": "address"
        }
      ],
      "name": "transferOwnership",
      "outputs": [],
      "stateMutability": "nonpayable",
      "type": "function"
    }
  ],
  "transactionHash": "0xd83e476acfe7470b6911839ff635228c0c0517cde6cf2095fef4c680448d6dc7",
  "args": [
    "0xDd80851D2585bAa3C4cF62630EbB8600aA5B0DF4",
    "0xdba5666821b22671387fe7ea11d7cc41ede85a5aa67c3e7b3d68ce6a661f389c"
  ],
  "numDeployments": 1,
  "solcInputHash": "26afe5490b5dcdd7f54b61f0999d818c",
  "bytecode": "0x60806040523480156200001157600080fd5b50604051620050c3380380620050c38339818101604052810190620000379190620002f1565b6040518060400160405280600e81526020017f4d6f6e7374657220446f6d61696e0000000000000000000000000000000000008152506040518060400160405280600381526020017f4d49440000000000000000000000000000000000000000000000000000000000815250620000c3620000b76200014760201b60201c565b6200014f60201b60201c565b8160019080519060200190620000db92919062000213565b508060029080519060200190620000f492919062000213565b50505081600760006101000a81548173ffffffffffffffffffffffffffffffffffffffff021916908373ffffffffffffffffffffffffffffffffffffffff1602179055508060088190555050506200041d565b600033905090565b60008060009054906101000a900473ffffffffffffffffffffffffffffffffffffffff169050816000806101000a81548173ffffffffffffffffffffffffffffffffffffffff021916908373ffffffffffffffffffffffffffffffffffffffff1602179055508173ffffffffffffffffffffffffffffffffffffffff168173ffffffffffffffffffffffffffffffffffffffff167f8be0079c531659141344cd1fd0a4f28419497f9722a3daafe3b4186f6b6457e060405160405180910390a35050565b828054620002219062000384565b90600052602060002090601f01602090048101928262000245576000855562000291565b82601f106200026057805160ff191683800117855562000291565b8280016001018555821562000291579182015b828111156200029057825182559160200191906001019062000273565b5b509050620002a09190620002a4565b5090565b5b80821115620002bf576000816000905550600101620002a5565b5090565b600081519050620002d481620003e9565b92915050565b600081519050620002eb8162000403565b92915050565b600080604083850312156200030557600080fd5b60006200031585828601620002da565b92505060206200032885828601620002c3565b9150509250929050565b60006200033f8262000364565b9050919050565b6000819050919050565b60006200035d8262000332565b9050919050565b600073ffffffffffffffffffffffffffffffffffffffff82169050919050565b600060028204905060018216806200039d57607f821691505b60208210811415620003b457620003b3620003ba565b5b50919050565b7f4e487b7100000000000000000000000000000000000000000000000000000000600052602260045260246000fd5b620003f48162000346565b81146200040057600080fd5b50565b6200040e8162000350565b81146200041a57600080fd5b50565b614c96806200042d6000396000f3fe608060405234801561001057600080fd5b50600436106102115760003560e01c8063715018a611610125578063c475abff116100ad578063ddf7fcb01161007c578063ddf7fcb01461065e578063e985e9c51461067c578063f2fde38b146106ac578063f6a74ed7146106c8578063fca247ac146106e457610211565b8063c475abff1461059e578063c87b56dd146105ce578063d6e4fa86146105fe578063da8c229e1461062e57610211565b806396e494e8116100f457806396e494e8146104fc578063a22cb4651461052c578063a7fc7a0714610548578063b88d4fde14610564578063c1a287e21461058057610211565b8063715018a6146104865780638462151c146104905780638da5cb5b146104c057806395d89b41146104de57610211565b80632e94420f116101a85780634f6ccce7116101775780634f6ccce7146103bc57806355f804b3146103ec5780636352211e146104085780636c0360eb1461043857806370a082311461045657610211565b80632e94420f146103365780632f745c591461035457806342842e0e146103845780634e543b26146103a057610211565b80630e297b45116101e45780630e297b45146102b057806318160ddd146102e057806323b872dd146102fe57806328ed4f6c1461031a57610211565b806301ffc9a71461021657806306fdde0314610246578063081812fc14610264578063095ea7b314610294575b600080fd5b610230600480360381019061022b919061385b565b610714565b60405161023d9190613fb9565b60405180910390f35b61024e61095e565b60405161025b919061406a565b60405180910390f35b61027e600480360381019061027991906138ee565b6109f0565b60405161028b9190613f30565b60405180910390f35b6102ae60048036038101906102a991906137f6565b610a36565b005b6102ca60048036038101906102c59190613953565b610b4e565b6040516102d7919061436c565b60405180910390f35b6102e8610b66565b6040516102f5919061436c565b60405180910390f35b610318600480360381019061031391906136f0565b610b73565b005b610334600480360381019061032f9190613917565b610c8a565b005b61033e610ea8565b60405161034b919061404f565b60405180910390f35b61036e600480360381019061036991906137f6565b610ece565b60405161037b919061436c565b60405180910390f35b61039e600480360381019061039991906136f0565b610fde565b005b6103ba60048036038101906103b59190613662565b610ffe565b005b6103d660048036038101906103d191906138ee565b61109a565b6040516103e3919061436c565b60405180910390f35b610406600480360381019061040191906138ad565b61112f565b005b610422600480360381019061041d91906138ee565b611194565b60405161042f9190613f30565b60405180910390f35b6104406111fb565b60405161044d919061406a565b60405180910390f35b610470600480360381019061046b9190613662565b611289565b60405161047d919061436c565b60405180910390f35b61048e611341565b005b6104aa60048036038101906104a59190613662565b611355565b6040516104b79190613f97565b60405180910390f35b6104c86113ec565b6040516104d59190613f30565b60405180910390f35b6104e6611415565b6040516104f3919061406a565b60405180910390f35b610516600480360381019061051191906138ee565b6114a7565b6040516105239190613fb9565b60405180910390f35b610546600480360381019061054191906137ba565b6114d4565b005b610562600480360381019061055d9190613662565b6114ea565b005b61057e6004803603810190610579919061373f565b611590565b005b6105886116a9565b604051610595919061436c565b60405180910390f35b6105b860048036038101906105b391906139a2565b6116b0565b6040516105c5919061436c565b60405180910390f35b6105e860048036038101906105e391906138ee565b6119c9565b6040516105f5919061406a565b60405180910390f35b610618600480360381019061061391906138ee565b611a71565b604051610625919061436c565b60405180910390f35b61064860048036038101906106439190613662565b611a8e565b6040516106559190613fb9565b60405180910390f35b610666611aae565b6040516106739190613fd4565b60405180910390f35b610696600480360381019061069191906136b4565b611ab4565b6040516106a39190613fb9565b60405180910390f35b6106c660048036038101906106c19190613662565b611b48565b005b6106e260048036038101906106dd9190613662565b611bcc565b005b6106fe60048036038101906106f99190613953565b611c72565b60405161070b919061436c565b60405180910390f35b60007f01ffc9a7a5cef8baa21ed3c5c0d7e23accb804b619e9333b597f47a0d84076e27bffffffffffffffffffffffffffffffffffffffffffffffffffffffff1916827bffffffffffffffffffffffffffffffffffffffffffffffffffffffff191614806108ef57507fb88d4fde60196325a28bb7f99a2582e0b46de55b18761e960c14ad7a320994657f42842e0eb38857a7775b4e7364b2775df7325074d088e7fb39590cd6281184ed7f23b872dd7302113369cda2901243429419bec145408fa8b352b3dd92b66c680b7fe985e9c5c6636c6879256001057b28ccac7718ef0ac56553ff9b926452cab8a37fa22cb4651ab9570f89bb516380c40ce76762284fb1f21337ceaf6adab99e7d4a7f081812fc55e34fdc7cf5d8b5cf4e3621fa6423fde952ec6ab24afdc0d85c0b2e7f095ea7b334ae44009aa867bfb386f5c3b4b443ac6f0ee573fa91c4608fbadfba7f6352211e6566aa027e75ac9dbf2423197fbd9b82b9d981a3ab367d355866aa1c7f70a08231b98ef4ca268c9cc3f6b4590e4bfec28280db06bb5d45e689f2a360be18181818181818187bffffffffffffffffffffffffffffffffffffffffffffffffffffffff1916827bffffffffffffffffffffffffffffffffffffffffffffffffffffffff1916145b8061095757507f28ed4f6c74b219a5819055dfbcd2f1837c046c364cf01fabb6799e4f440d6f137bffffffffffffffffffffffffffffffffffffffffffffffffffffffff1916827bffffffffffffffffffffffffffffffffffffffffffffffffffffffff1916145b9050919050565b60606001805461096d9061460d565b80601f01602080910402602001604051908101604052809291908181526020018280546109999061460d565b80156109e65780601f106109bb576101008083540402835291602001916109e6565b820191906000526020600020905b8154815290600101906020018083116109c957829003601f168201915b5050505050905090565b60006109fb82611c8a565b6005600083815260200190815260200160002060009054906101000a900473ffffffffffffffffffffffffffffffffffffffff169050919050565b6000610a4182611cd5565b90508073ffffffffffffffffffffffffffffffffffffffff168373ffffffffffffffffffffffffffffffffffffffff161415610ab2576040517f08c379a0000000000000000000000000000000000000000000000000000000008152600401610aa9906142ec565b60405180910390fd5b8073ffffffffffffffffffffffffffffffffffffffff16610ad1611d5c565b73ffffffffffffffffffffffffffffffffffffffff161480610b005750610aff81610afa611d5c565b611ab4565b5b610b3f576040517f08c379a0000000000000000000000000000000000000000000000000000000008152600401610b369061430c565b60405180910390fd5b610b498383611d64565b505050565b6000610b5d8484846000611e1d565b90509392505050565b6000600c80549050905090565b610b84610b7e611d5c565b826121e9565b610bc3576040517f08c379a0000000000000000000000000000000000000000000000000000000008152600401610bba906140cc565b60405180910390fd5b610bce83838361227e565b600760009054906101000a900473ffffffffffffffffffffffffffffffffffffffff1673ffffffffffffffffffffffffffffffffffffffff166306ab59236008548360001b856040518463ffffffff1660e01b8152600401610c3293929190614018565b602060405180830381600087803b158015610c4c57600080fd5b505af1158015610c60573d6000803e3d6000fd5b505050506040513d601f19601f82011682018060405250810190610c849190613832565b50505050565b3073ffffffffffffffffffffffffffffffffffffffff16600760009054906101000a900473ffffffffffffffffffffffffffffffffffffffff1673ffffffffffffffffffffffffffffffffffffffff166302571be36008546040518263ffffffff1660e01b8152600401610cfe9190613fd4565b60206040518083038186803b158015610d1657600080fd5b505afa158015610d2a573d6000803e3d6000fd5b505050506040513d601f19601f82011682018060405250810190610d4e919061368b565b73ffffffffffffffffffffffffffffffffffffffff1614610da4576040517f08c379a0000000000000000000000000000000000000000000000000000000008152600401610d9b9061422c565b60405180910390fd5b610dae33836121e9565b610ded576040517f08c379a0000000000000000000000000000000000000000000000000000000008152600401610de49061408c565b60405180910390fd5b600760009054906101000a900473ffffffffffffffffffffffffffffffffffffffff1673ffffffffffffffffffffffffffffffffffffffff166306ab59236008548460001b846040518463ffffffff1660e01b8152600401610e5193929190614018565b602060405180830381600087803b158015610e6b57600080fd5b505af1158015610e7f573d6000803e3d6000fd5b505050506040513d601f19601f82011682018060405250810190610ea39190613832565b505050565b600760009054906101000a900473ffffffffffffffffffffffffffffffffffffffff1681565b6000600e60008473ffffffffffffffffffffffffffffffffffffffff1673ffffffffffffffffffffffffffffffffffffffff168152602001908152602001600020805490508210610f54576040517f08c379a0000000000000000000000000000000000000000000000000000000008152600401610f4b9061434c565b60405180910390fd5b600e60008473ffffffffffffffffffffffffffffffffffffffff1673ffffffffffffffffffffffffffffffffffffffff1681526020019081526020016000208281548110610fcb577f4e487b7100000000000000000000000000000000000000000000000000000000600052603260045260246000fd5b9060005260206000200154905092915050565b610ff983838360405180602001604052806000815250611590565b505050565b611006612578565b600760009054906101000a900473ffffffffffffffffffffffffffffffffffffffff1673ffffffffffffffffffffffffffffffffffffffff16631896f70a600854836040518363ffffffff1660e01b8152600401611065929190613fef565b600060405180830381600087803b15801561107f57600080fd5b505af1158015611093573d6000803e3d6000fd5b5050505050565b6000600c8054905082106110e3576040517f08c379a00000000000000000000000000000000000000000000000000000000081526004016110da9061434c565b60405180910390fd5b600c828154811061111d577f4e487b7100000000000000000000000000000000000000000000000000000000600052603260045260246000fd5b90600052602060002001549050919050565b611137612578565b80600b908051906020019061114d92919061345c565b50600b60405161115d9190613ef5565b60405180910390207f5411e8ebf1636d9e83d5fc4900bf80cbac82e8790da2a4c94db4895e889eedf660405160405180910390a250565b600042600a600084815260200190815260200160002054116111eb576040517f08c379a00000000000000000000000000000000000000000000000000000000081526004016111e2906141ec565b60405180910390fd5b6111f482611cd5565b9050919050565b600b80546112089061460d565b80601f01602080910402602001604051908101604052809291908181526020018280546112349061460d565b80156112815780601f1061125657610100808354040283529160200191611281565b820191906000526020600020905b81548152906001019060200180831161126457829003601f168201915b505050505081565b60008073ffffffffffffffffffffffffffffffffffffffff168273ffffffffffffffffffffffffffffffffffffffff1614156112fa576040517f08c379a00000000000000000000000000000000000000000000000000000000081526004016112f19061420c565b60405180910390fd5b600460008373ffffffffffffffffffffffffffffffffffffffff1673ffffffffffffffffffffffffffffffffffffffff168152602001908152602001600020549050919050565b611349612578565b61135360006125f6565b565b6060600e60008373ffffffffffffffffffffffffffffffffffffffff1673ffffffffffffffffffffffffffffffffffffffff1681526020019081526020016000208054806020026020016040519081016040528092919081815260200182805480156113e057602002820191906000526020600020905b8154815260200190600101908083116113cc575b50505050509050919050565b60008060009054906101000a900473ffffffffffffffffffffffffffffffffffffffff16905090565b6060600280546114249061460d565b80601f01602080910402602001604051908101604052809291908181526020018280546114509061460d565b801561149d5780601f106114725761010080835404028352916020019161149d565b820191906000526020600020905b81548152906001019060200180831161148057829003601f168201915b5050505050905090565b6000426276a700600a6000858152602001908152602001600020546114cc919061449f565b109050919050565b6114e66114df611d5c565b83836126ba565b5050565b6114f2612578565b6001600960008373ffffffffffffffffffffffffffffffffffffffff1673ffffffffffffffffffffffffffffffffffffffff16815260200190815260200160002060006101000a81548160ff0219169083151502179055508073ffffffffffffffffffffffffffffffffffffffff167f0a8bb31534c0ed46f380cb867bd5c803a189ced9a764e30b3a4991a9901d747460405160405180910390a250565b6115a161159b611d5c565b836121e9565b6115e0576040517f08c379a00000000000000000000000000000000000000000000000000000000081526004016115d7906140cc565b60405180910390fd5b6115ec84848484612827565b600760009054906101000a900473ffffffffffffffffffffffffffffffffffffffff1673ffffffffffffffffffffffffffffffffffffffff166306ab59236008548460001b866040518463ffffffff1660e01b815260040161165093929190614018565b602060405180830381600087803b15801561166a57600080fd5b505af115801561167e573d6000803e3d6000fd5b505050506040513d601f19601f820116820180604052508101906116a29190613832565b5050505050565b6276a70081565b60003073ffffffffffffffffffffffffffffffffffffffff16600760009054906101000a900473ffffffffffffffffffffffffffffffffffffffff1673ffffffffffffffffffffffffffffffffffffffff166302571be36008546040518263ffffffff1660e01b81526004016117269190613fd4565b60206040518083038186803b15801561173e57600080fd5b505afa158015611752573d6000803e3d6000fd5b505050506040513d601f19601f82011682018060405250810190611776919061368b565b73ffffffffffffffffffffffffffffffffffffffff16146117cc576040517f08c379a00000000000000000000000000000000000000000000000000000000081526004016117c39061422c565b60405180910390fd5b600960003373ffffffffffffffffffffffffffffffffffffffff1673ffffffffffffffffffffffffffffffffffffffff16815260200190815260200160002060009054906101000a900460ff16611858576040517f08c379a000000000000000000000000000000000000000000000000000000000815260040161184f9061426c565b60405180910390fd5b426276a700600a60008681526020019081526020016000205461187b919061449f565b10156118bc576040517f08c379a00000000000000000000000000000000000000000000000000000000081526004016118b3906141cc565b60405180910390fd5b6276a700826118cb919061449f565b6276a70083600a6000878152602001908152602001600020546118ee919061449f565b6118f8919061449f565b11611938576040517f08c379a000000000000000000000000000000000000000000000000000000000815260040161192f9061414c565b60405180910390fd5b81600a6000858152602001908152602001600020600082825461195b919061449f565b92505081905550827f9b87a00e30f1ac65d898f070f8a3488fe60517182d0a2098e1b4b93a54aa9bd6600a6000868152602001908152602001600020546040516119a5919061436c565b60405180910390a2600a600084815260200190815260200160002054905092915050565b60606119d482612883565b611a13576040517f08c379a0000000000000000000000000000000000000000000000000000000008152600401611a0a9061416c565b60405180910390fd5b6000600b8054611a229061460d565b905011611a3e5760405180602001604052806000815250611a6a565b600b611a49836128c4565b604051602001611a5a929190613f0c565b6040516020818303038152906040525b9050919050565b6000600a6000838152602001908152602001600020549050919050565b60096020528060005260406000206000915054906101000a900460ff1681565b60085481565b6000600660008473ffffffffffffffffffffffffffffffffffffffff1673ffffffffffffffffffffffffffffffffffffffff16815260200190815260200160002060008373ffffffffffffffffffffffffffffffffffffffff1673ffffffffffffffffffffffffffffffffffffffff16815260200190815260200160002060009054906101000a900460ff16905092915050565b611b50612578565b600073ffffffffffffffffffffffffffffffffffffffff168173ffffffffffffffffffffffffffffffffffffffff161415611bc0576040517f08c379a0000000000000000000000000000000000000000000000000000000008152600401611bb7906140ec565b60405180910390fd5b611bc9816125f6565b50565b611bd4612578565b6000600960008373ffffffffffffffffffffffffffffffffffffffff1673ffffffffffffffffffffffffffffffffffffffff16815260200190815260200160002060006101000a81548160ff0219169083151502179055508073ffffffffffffffffffffffffffffffffffffffff167f33d83959be2573f5453b12eb9d43b3499bc57d96bd2f067ba44803c859e8111360405160405180910390a250565b6000611c818484846001611e1d565b90509392505050565b611c9381612883565b611cd2576040517f08c379a0000000000000000000000000000000000000000000000000000000008152600401611cc9906142cc565b60405180910390fd5b50565b600080611ce1836129e8565b9050600073ffffffffffffffffffffffffffffffffffffffff168173ffffffffffffffffffffffffffffffffffffffff161415611d53576040517f08c379a0000000000000000000000000000000000000000000000000000000008152600401611d4a906142cc565b60405180910390fd5b80915050919050565b600033905090565b816005600083815260200190815260200160002060006101000a81548173ffffffffffffffffffffffffffffffffffffffff021916908373ffffffffffffffffffffffffffffffffffffffff160217905550808273ffffffffffffffffffffffffffffffffffffffff16611dd783611cd5565b73ffffffffffffffffffffffffffffffffffffffff167f8c5be1e5ebec7d5bd14f71427d1e84f3dd0314c0f7b2291e5b200ac8c7c3b92560405160405180910390a45050565b60003073ffffffffffffffffffffffffffffffffffffffff16600760009054906101000a900473ffffffffffffffffffffffffffffffffffffffff1673ffffffffffffffffffffffffffffffffffffffff166302571be36008546040518263ffffffff1660e01b8152600401611e939190613fd4565b60206040518083038186803b158015611eab57600080fd5b505afa158015611ebf573d6000803e3d6000fd5b505050506040513d601f19601f82011682018060405250810190611ee3919061368b565b73ffffffffffffffffffffffffffffffffffffffff1614611f39576040517f08c379a0000000000000000000000000000000000000000000000000000000008152600401611f309061422c565b60405180910390fd5b600960003373ffffffffffffffffffffffffffffffffffffffff1673ffffffffffffffffffffffffffffffffffffffff16815260200190815260200160002060009054906101000a900460ff16611fc5576040517f08c379a0000000000000000000000000000000000000000000000000000000008152600401611fbc9061426c565b60405180910390fd5b611fce856114a7565b61200d576040517f08c379a00000000000000000000000000000000000000000000000000000000081526004016120049061432c565b60405180910390fd5b6276a7004261201c919061449f565b6276a700844261202c919061449f565b612036919061449f565b11612076576040517f08c379a000000000000000000000000000000000000000000000000000000000815260040161206d906142ac565b60405180910390fd5b8242612082919061449f565b600a6000878152602001908152602001600020819055506120a285612883565b156120b1576120b085612a25565b5b6120bb8486612b73565b811561217957600760009054906101000a900473ffffffffffffffffffffffffffffffffffffffff1673ffffffffffffffffffffffffffffffffffffffff166306ab59236008548760001b876040518463ffffffff1660e01b815260040161212593929190614018565b602060405180830381600087803b15801561213f57600080fd5b505af1158015612153573d6000803e3d6000fd5b505050506040513d601f19601f820116820180604052508101906121779190613832565b505b8373ffffffffffffffffffffffffffffffffffffffff16857fb3d987963d01b2f68493b4bdb130988f157ea43070d4ad840fee0466ed9370d985426121be919061449f565b6040516121cb919061436c565b60405180910390a382426121df919061449f565b9050949350505050565b6000806121f583611194565b90508073ffffffffffffffffffffffffffffffffffffffff168473ffffffffffffffffffffffffffffffffffffffff16148061226457508373ffffffffffffffffffffffffffffffffffffffff1661224c846109f0565b73ffffffffffffffffffffffffffffffffffffffff16145b8061227557506122748185611ab4565b5b91505092915050565b8273ffffffffffffffffffffffffffffffffffffffff1661229e82611cd5565b73ffffffffffffffffffffffffffffffffffffffff16146122f4576040517f08c379a00000000000000000000000000000000000000000000000000000000081526004016122eb9061410c565b60405180910390fd5b600073ffffffffffffffffffffffffffffffffffffffff168273ffffffffffffffffffffffffffffffffffffffff161415612364576040517f08c379a000000000000000000000000000000000000000000000000000000000815260040161235b9061418c565b60405180910390fd5b6123718383836001612bd3565b8273ffffffffffffffffffffffffffffffffffffffff1661239182611cd5565b73ffffffffffffffffffffffffffffffffffffffff16146123e7576040517f08c379a00000000000000000000000000000000000000000000000000000000081526004016123de9061410c565b60405180910390fd5b6005600082815260200190815260200160002060006101000a81549073ffffffffffffffffffffffffffffffffffffffff02191690556001600460008573ffffffffffffffffffffffffffffffffffffffff1673ffffffffffffffffffffffffffffffffffffffff168152602001908152602001600020600082825403925050819055506001600460008473ffffffffffffffffffffffffffffffffffffffff1673ffffffffffffffffffffffffffffffffffffffff16815260200190815260200160002060008282540192505081905550816003600083815260200190815260200160002060006101000a81548173ffffffffffffffffffffffffffffffffffffffff021916908373ffffffffffffffffffffffffffffffffffffffff160217905550808273ffffffffffffffffffffffffffffffffffffffff168473ffffffffffffffffffffffffffffffffffffffff167fddf252ad1be2c89b69c2b068fc378daa952ba7f163c4a11628f55a4df523b3ef60405160405180910390a46125738383836001612cf9565b505050565b612580611d5c565b73ffffffffffffffffffffffffffffffffffffffff1661259e6113ec565b73ffffffffffffffffffffffffffffffffffffffff16146125f4576040517f08c379a00000000000000000000000000000000000000000000000000000000081526004016125eb9061428c565b60405180910390fd5b565b60008060009054906101000a900473ffffffffffffffffffffffffffffffffffffffff169050816000806101000a81548173ffffffffffffffffffffffffffffffffffffffff021916908373ffffffffffffffffffffffffffffffffffffffff1602179055508173ffffffffffffffffffffffffffffffffffffffff168173ffffffffffffffffffffffffffffffffffffffff167f8be0079c531659141344cd1fd0a4f28419497f9722a3daafe3b4186f6b6457e060405160405180910390a35050565b8173ffffffffffffffffffffffffffffffffffffffff168373ffffffffffffffffffffffffffffffffffffffff161415612729576040517f08c379a0000000000000000000000000000000000000000000000000000000008152600401612720906141ac565b60405180910390fd5b80600660008573ffffffffffffffffffffffffffffffffffffffff1673ffffffffffffffffffffffffffffffffffffffff16815260200190815260200160002060008473ffffffffffffffffffffffffffffffffffffffff1673ffffffffffffffffffffffffffffffffffffffff16815260200190815260200160002060006101000a81548160ff0219169083151502179055508173ffffffffffffffffffffffffffffffffffffffff168373ffffffffffffffffffffffffffffffffffffffff167f17307eab39ab6107e8899845ad3d59bd9653f200f220920489ca2b5937696c318360405161281a9190613fb9565b60405180910390a3505050565b61283284848461227e565b61283e84848484612cff565b61287d576040517f08c379a0000000000000000000000000000000000000000000000000000000008152600401612874906140ac565b60405180910390fd5b50505050565b60008073ffffffffffffffffffffffffffffffffffffffff166128a5836129e8565b73ffffffffffffffffffffffffffffffffffffffff1614159050919050565b6060600060016128d384612e96565b01905060008167ffffffffffffffff811115612918577f4e487b7100000000000000000000000000000000000000000000000000000000600052604160045260246000fd5b6040519080825280601f01601f19166020018201604052801561294a5781602001600182028036833780820191505090505b509050600082602001820190505b6001156129dd578080600190039150507f3031323334353637383961626364656600000000000000000000000000000000600a86061a8153600a85816129c7577f4e487b7100000000000000000000000000000000000000000000000000000000600052601260045260246000fd5b04945060008514156129d8576129dd565b612958565b819350505050919050565b60006003600083815260200190815260200160002060009054906101000a900473ffffffffffffffffffffffffffffffffffffffff169050919050565b612a2e816130cd565b6000600d600083815260200190815260200160002054905060006001600c80549050612a5a91906144f5565b90506000600c8281548110612a98577f4e487b7100000000000000000000000000000000000000000000000000000000600052603260045260246000fd5b9060005260206000200154905080600c8481548110612ae0577f4e487b7100000000000000000000000000000000000000000000000000000000600052603260045260246000fd5b9060005260206000200181905550600c805480612b26577f4e487b7100000000000000000000000000000000000000000000000000000000600052603160045260246000fd5b6001900381819060005260206000200160009055905582600d6000838152602001908152602001600020819055506000600d60008681526020019081526020016000208190555050505050565b612b7d828261321b565b600c8190806001815401808255809150506001900390600052602060002001600090919091909150556001600c80549050612bb891906144f5565b600d6000838152602001908152602001600020819055505050565b6001811115612cf357600073ffffffffffffffffffffffffffffffffffffffff168473ffffffffffffffffffffffffffffffffffffffff1614612c675780600460008673ffffffffffffffffffffffffffffffffffffffff1673ffffffffffffffffffffffffffffffffffffffff1681526020019081526020016000206000828254612c5f91906144f5565b925050819055505b600073ffffffffffffffffffffffffffffffffffffffff168373ffffffffffffffffffffffffffffffffffffffff1614612cf25780600460008573ffffffffffffffffffffffffffffffffffffffff1673ffffffffffffffffffffffffffffffffffffffff1681526020019081526020016000206000828254612cea919061449f565b925050819055505b5b50505050565b50505050565b6000612d208473ffffffffffffffffffffffffffffffffffffffff16613439565b15612e89578373ffffffffffffffffffffffffffffffffffffffff1663150b7a02612d49611d5c565b8786866040518563ffffffff1660e01b8152600401612d6b9493929190613f4b565b602060405180830381600087803b158015612d8557600080fd5b505af1925050508015612db657506040513d601f19601f82011682018060405250810190612db39190613884565b60015b612e39573d8060008114612de6576040519150601f19603f3d011682016040523d82523d6000602084013e612deb565b606091505b50600081511415612e31576040517f08c379a0000000000000000000000000000000000000000000000000000000008152600401612e28906140ac565b60405180910390fd5b805181602001fd5b63150b7a0260e01b7bffffffffffffffffffffffffffffffffffffffffffffffffffffffff1916817bffffffffffffffffffffffffffffffffffffffffffffffffffffffff191614915050612e8e565b600190505b949350505050565b600080600090507a184f03e93ff9f4daa797ed6e38ed64bf6a1f0100000000000000008310612f1a577a184f03e93ff9f4daa797ed6e38ed64bf6a1f0100000000000000008381612f10577f4e487b7100000000000000000000000000000000000000000000000000000000600052601260045260246000fd5b0492506040810190505b6d04ee2d6d415b85acef81000000008310612f7d576d04ee2d6d415b85acef81000000008381612f73577f4e487b7100000000000000000000000000000000000000000000000000000000600052601260045260246000fd5b0492506020810190505b662386f26fc100008310612fd257662386f26fc100008381612fc8577f4e487b7100000000000000000000000000000000000000000000000000000000600052601260045260246000fd5b0492506010810190505b6305f5e1008310613021576305f5e1008381613017577f4e487b7100000000000000000000000000000000000000000000000000000000600052601260045260246000fd5b0492506008810190505b612710831061306c576127108381613062577f4e487b7100000000000000000000000000000000000000000000000000000000600052601260045260246000fd5b0492506004810190505b606483106130b557606483816130ab577f4e487b7100000000000000000000000000000000000000000000000000000000600052601260045260246000fd5b0492506002810190505b600a83106130c4576001810190505b80915050919050565b60006130d882611cd5565b90506130e8816000846001612bd3565b6130f182611cd5565b90506005600083815260200190815260200160002060006101000a81549073ffffffffffffffffffffffffffffffffffffffff02191690556001600460008373ffffffffffffffffffffffffffffffffffffffff1673ffffffffffffffffffffffffffffffffffffffff168152602001908152602001600020600082825403925050819055506003600083815260200190815260200160002060006101000a81549073ffffffffffffffffffffffffffffffffffffffff021916905581600073ffffffffffffffffffffffffffffffffffffffff168273ffffffffffffffffffffffffffffffffffffffff167fddf252ad1be2c89b69c2b068fc378daa952ba7f163c4a11628f55a4df523b3ef60405160405180910390a4613217816000846001612cf9565b5050565b600073ffffffffffffffffffffffffffffffffffffffff168273ffffffffffffffffffffffffffffffffffffffff16141561328b576040517f08c379a00000000000000000000000000000000000000000000000000000000081526004016132829061424c565b60405180910390fd5b61329481612883565b156132d4576040517f08c379a00000000000000000000000000000000000000000000000000000000081526004016132cb9061412c565b60405180910390fd5b6132e2600083836001612bd3565b6132eb81612883565b1561332b576040517f08c379a00000000000000000000000000000000000000000000000000000000081526004016133229061412c565b60405180910390fd5b6001600460008473ffffffffffffffffffffffffffffffffffffffff1673ffffffffffffffffffffffffffffffffffffffff16815260200190815260200160002060008282540192505081905550816003600083815260200190815260200160002060006101000a81548173ffffffffffffffffffffffffffffffffffffffff021916908373ffffffffffffffffffffffffffffffffffffffff160217905550808273ffffffffffffffffffffffffffffffffffffffff16600073ffffffffffffffffffffffffffffffffffffffff167fddf252ad1be2c89b69c2b068fc378daa952ba7f163c4a11628f55a4df523b3ef60405160405180910390a4613435600083836001612cf9565b5050565b6000808273ffffffffffffffffffffffffffffffffffffffff163b119050919050565b8280546134689061460d565b90600052602060002090601f01602090048101928261348a57600085556134d1565b82601f106134a357805160ff19168380011785556134d1565b828001600101855582156134d1579182015b828111156134d05782518255916020019190600101906134b5565b5b5090506134de91906134e2565b5090565b5b808211156134fb5760008160009055506001016134e3565b5090565b600061351261350d846143ac565b614387565b90508281526020810184848401111561352a57600080fd5b6135358482856145cb565b509392505050565b600061355061354b846143dd565b614387565b90508281526020810184848401111561356857600080fd5b6135738482856145cb565b509392505050565b60008135905061358a81614bed565b92915050565b60008151905061359f81614bed565b92915050565b6000813590506135b481614c04565b92915050565b6000815190506135c981614c1b565b92915050565b6000813590506135de81614c32565b92915050565b6000815190506135f381614c32565b92915050565b600082601f83011261360a57600080fd5b813561361a8482602086016134ff565b91505092915050565b600082601f83011261363457600080fd5b813561364484826020860161353d565b91505092915050565b60008135905061365c81614c49565b92915050565b60006020828403121561367457600080fd5b60006136828482850161357b565b91505092915050565b60006020828403121561369d57600080fd5b60006136ab84828501613590565b91505092915050565b600080604083850312156136c757600080fd5b60006136d58582860161357b565b92505060206136e68582860161357b565b9150509250929050565b60008060006060848603121561370557600080fd5b60006137138682870161357b565b93505060206137248682870161357b565b92505060406137358682870161364d565b9150509250925092565b6000806000806080858703121561375557600080fd5b60006137638782880161357b565b94505060206137748782880161357b565b93505060406137858782880161364d565b925050606085013567ffffffffffffffff8111156137a257600080fd5b6137ae878288016135f9565b91505092959194509250565b600080604083850312156137cd57600080fd5b60006137db8582860161357b565b92505060206137ec858286016135a5565b9150509250929050565b6000806040838503121561380957600080fd5b60006138178582860161357b565b92505060206138288582860161364d565b9150509250929050565b60006020828403121561384457600080fd5b6000613852848285016135ba565b91505092915050565b60006020828403121561386d57600080fd5b600061387b848285016135cf565b91505092915050565b60006020828403121561389657600080fd5b60006138a4848285016135e4565b91505092915050565b6000602082840312156138bf57600080fd5b600082013567ffffffffffffffff8111156138d957600080fd5b6138e584828501613623565b91505092915050565b60006020828403121561390057600080fd5b600061390e8482850161364d565b91505092915050565b6000806040838503121561392a57600080fd5b60006139388582860161364d565b92505060206139498582860161357b565b9150509250929050565b60008060006060848603121561396857600080fd5b60006139768682870161364d565b93505060206139878682870161357b565b92505060406139988682870161364d565b9150509250925092565b600080604083850312156139b557600080fd5b60006139c38582860161364d565b92505060206139d48582860161364d565b9150509250929050565b60006139ea8383613ed7565b60208301905092915050565b6139ff81614529565b82525050565b6000613a1082614433565b613a1a8185614461565b9350613a258361440e565b8060005b83811015613a56578151613a3d88826139de565b9750613a4883614454565b925050600181019050613a29565b5085935050505092915050565b613a6c8161453b565b82525050565b613a7b81614547565b82525050565b6000613a8c8261443e565b613a968185614472565b9350613aa68185602086016145da565b613aaf816146fd565b840191505092915050565b613ac3816145a7565b82525050565b6000613ad482614449565b613ade8185614483565b9350613aee8185602086016145da565b613af7816146fd565b840191505092915050565b6000613b0d82614449565b613b178185614494565b9350613b278185602086016145da565b80840191505092915050565b60008154613b408161460d565b613b4a8186614494565b94506001821660008114613b655760018114613b7657613ba9565b60ff19831686528186019350613ba9565b613b7f8561441e565b60005b83811015613ba157815481890152600182019150602081019050613b82565b838801955050505b50505092915050565b6000613bbf601583614483565b9150613bca8261470e565b602082019050919050565b6000613be2603283614483565b9150613bed82614737565b604082019050919050565b6000613c05602783614483565b9150613c1082614786565b604082019050919050565b6000613c28602683614483565b9150613c33826147d5565b604082019050919050565b6000613c4b602583614483565b9150613c5682614824565b604082019050919050565b6000613c6e601c83614483565b9150613c7982614873565b602082019050919050565b6000613c91601483614483565b9150613c9c8261489c565b602082019050919050565b6000613cb4601683614483565b9150613cbf826148c5565b602082019050919050565b6000613cd7602483614483565b9150613ce2826148ee565b604082019050919050565b6000613cfa601983614483565b9150613d058261493d565b602082019050919050565b6000613d1d601583614483565b9150613d2882614966565b602082019050919050565b6000613d40600783614483565b9150613d4b8261498f565b602082019050919050565b6000613d63602983614483565b9150613d6e826149b8565b604082019050919050565b6000613d86600883614483565b9150613d9182614a07565b602082019050919050565b6000613da9602083614483565b9150613db482614a30565b602082019050919050565b6000613dcc600983614483565b9150613dd782614a59565b602082019050919050565b6000613def602083614483565b9150613dfa82614a82565b602082019050919050565b6000613e12601283614483565b9150613e1d82614aab565b602082019050919050565b6000613e35601883614483565b9150613e4082614ad4565b602082019050919050565b6000613e58602183614483565b9150613e6382614afd565b604082019050919050565b6000613e7b603d83614483565b9150613e8682614b4c565b604082019050919050565b6000613e9e600d83614483565b9150613ea982614b9b565b602082019050919050565b6000613ec1600d83614483565b9150613ecc82614bc4565b602082019050919050565b613ee08161459d565b82525050565b613eef8161459d565b82525050565b6000613f018284613b33565b915081905092915050565b6000613f188285613b33565b9150613f248284613b02565b91508190509392505050565b6000602082019050613f4560008301846139f6565b92915050565b6000608082019050613f6060008301876139f6565b613f6d60208301866139f6565b613f7a6040830185613ee6565b8181036060830152613f8c8184613a81565b905095945050505050565b60006020820190508181036000830152613fb18184613a05565b905092915050565b6000602082019050613fce6000830184613a63565b92915050565b6000602082019050613fe96000830184613a72565b92915050565b60006040820190506140046000830185613a72565b61401160208301846139f6565b9392505050565b600060608201905061402d6000830186613a72565b61403a6020830185613a72565b61404760408301846139f6565b949350505050565b60006020820190506140646000830184613aba565b92915050565b600060208201905081810360008301526140848184613ac9565b905092915050565b600060208201905081810360008301526140a581613bb2565b9050919050565b600060208201905081810360008301526140c581613bd5565b9050919050565b600060208201905081810360008301526140e581613bf8565b9050919050565b6000602082019050818103600083015261410581613c1b565b9050919050565b6000602082019050818103600083015261412581613c3e565b9050919050565b6000602082019050818103600083015261414581613c61565b9050919050565b6000602082019050818103600083015261416581613c84565b9050919050565b6000602082019050818103600083015261418581613ca7565b9050919050565b600060208201905081810360008301526141a581613cca565b9050919050565b600060208201905081810360008301526141c581613ced565b9050919050565b600060208201905081810360008301526141e581613d10565b9050919050565b6000602082019050818103600083015261420581613d33565b9050919050565b6000602082019050818103600083015261422581613d56565b9050919050565b6000602082019050818103600083015261424581613d79565b9050919050565b6000602082019050818103600083015261426581613d9c565b9050919050565b6000602082019050818103600083015261428581613dbf565b9050919050565b600060208201905081810360008301526142a581613de2565b9050919050565b600060208201905081810360008301526142c581613e05565b9050919050565b600060208201905081810360008301526142e581613e28565b9050919050565b6000602082019050818103600083015261430581613e4b565b9050919050565b6000602082019050818103600083015261432581613e6e565b9050919050565b6000602082019050818103600083015261434581613e91565b9050919050565b6000602082019050818103600083015261436581613eb4565b9050919050565b60006020820190506143816000830184613ee6565b92915050565b60006143916143a2565b905061439d828261463f565b919050565b6000604051905090565b600067ffffffffffffffff8211156143c7576143c66146ce565b5b6143d0826146fd565b9050602081019050919050565b600067ffffffffffffffff8211156143f8576143f76146ce565b5b614401826146fd565b9050602081019050919050565b6000819050602082019050919050565b60008190508160005260206000209050919050565b600081519050919050565b600081519050919050565b600081519050919050565b6000602082019050919050565b600082825260208201905092915050565b600082825260208201905092915050565b600082825260208201905092915050565b600081905092915050565b60006144aa8261459d565b91506144b58361459d565b9250827fffffffffffffffffffffffffffffffffffffffffffffffffffffffffffffffff038211156144ea576144e9614670565b5b828201905092915050565b60006145008261459d565b915061450b8361459d565b92508282101561451e5761451d614670565b5b828203905092915050565b60006145348261457d565b9050919050565b60008115159050919050565b6000819050919050565b60007fffffffff0000000000000000000000000000000000000000000000000000000082169050919050565b600073ffffffffffffffffffffffffffffffffffffffff82169050919050565b6000819050919050565b60006145b2826145b9565b9050919050565b60006145c48261457d565b9050919050565b82818337600083830152505050565b60005b838110156145f85780820151818401526020810190506145dd565b83811115614607576000848401525b50505050565b6000600282049050600182168061462557607f821691505b602082108114156146395761463861469f565b5b50919050565b614648826146fd565b810181811067ffffffffffffffff82111715614667576146666146ce565b5b80604052505050565b7f4e487b7100000000000000000000000000000000000000000000000000000000600052601160045260246000fd5b7f4e487b7100000000000000000000000000000000000000000000000000000000600052602260045260246000fd5b7f4e487b7100000000000000000000000000000000000000000000000000000000600052604160045260246000fd5b6000601f19601f8301169050919050565b7f6e6f7420617070726f766564206f72206f776e65720000000000000000000000600082015250565b7f4552433732313a207472616e7366657220746f206e6f6e20455243373231526560008201527f63656976657220696d706c656d656e7465720000000000000000000000000000602082015250565b7f4552433732313a2063616c6c6572206973206e6f7420617070726f766564206f60008201527f72206f776e657200000000000000000000000000000000000000000000000000602082015250565b7f4f776e61626c653a206e6577206f776e657220697320746865207a65726f206160008201527f6464726573730000000000000000000000000000000000000000000000000000602082015250565b7f4552433732313a207472616e736665722066726f6d20696e636f72726563742060008201527f6f776e6572000000000000000000000000000000000000000000000000000000602082015250565b7f4552433732313a20746f6b656e20616c7265616479206d696e74656400000000600082015250565b7f74696d657374616d70206f766572666c6f776564000000000000000000000000600082015250565b7f746f6b656e496420646f6573206e6f7420657869737400000000000000000000600082015250565b7f4552433732313a207472616e7366657220746f20746865207a65726f2061646460008201527f7265737300000000000000000000000000000000000000000000000000000000602082015250565b7f4552433732313a20617070726f766520746f2063616c6c657200000000000000600082015250565b7f7374696c6c20696e20677261636520706572696f640000000000000000000000600082015250565b7f6578706972656400000000000000000000000000000000000000000000000000600082015250565b7f4552433732313a2061646472657373207a65726f206973206e6f74206120766160008201527f6c6964206f776e65720000000000000000000000000000000000000000000000602082015250565b7f6e6f74206c697665000000000000000000000000000000000000000000000000600082015250565b7f4552433732313a206d696e7420746f20746865207a65726f2061646472657373600082015250565b7f6f6e6c79206374726c0000000000000000000000000000000000000000000000600082015250565b7f4f776e61626c653a2063616c6c6572206973206e6f7420746865206f776e6572600082015250565b7f74696d657374616d70206f766572666c6f770000000000000000000000000000600082015250565b7f4552433732313a20696e76616c696420746f6b656e2049440000000000000000600082015250565b7f4552433732313a20617070726f76616c20746f2063757272656e74206f776e6560008201527f7200000000000000000000000000000000000000000000000000000000000000602082015250565b7f4552433732313a20617070726f76652063616c6c6572206973206e6f7420746f60008201527f6b656e206f776e6572206f7220617070726f76656420666f7220616c6c000000602082015250565b7f6e6f7420617661696c61626c6500000000000000000000000000000000000000600082015250565b7f696e76616c696420696e64657800000000000000000000000000000000000000600082015250565b614bf681614529565b8114614c0157600080fd5b50565b614c0d8161453b565b8114614c1857600080fd5b50565b614c2481614547565b8114614c2f57600080fd5b50565b614c3b81614551565b8114614c4657600080fd5b50565b614c528161459d565b8114614c5d57600080fd5b5056fea2646970667358221220cf942bf383377de49db4834a24b09d94a50382edde3305b69e6f16d1e4b00cfa64736f6c63430008040033",
  "devdoc": {
    "kind": "dev",
    "methods": {
      "approve(address,uint256)": {
        "details": "See {IERC721-approve}."
      },
      "balanceOf(address)": {
        "details": "See {IERC721-balanceOf}."
      },
      "getApproved(uint256)": {
        "details": "See {IERC721-getApproved}."
      },
      "isApprovedForAll(address,address)": {
        "details": "See {IERC721-isApprovedForAll}."
      },
      "name()": {
        "details": "See {IERC721Metadata-name}."
      },
      "owner()": {
        "details": "Returns the address of the current owner."
      },
      "ownerOf(uint256)": {
        "details": "Gets the owner of the specified token ID. Names become unowned      when their registration expires.",
        "params": {
          "tokenId": "uint256 ID of the token to query the owner of"
        },
        "returns": {
          "_0": "address currently marked as the owner of the given token ID"
        }
      },
      "reclaim(uint256,address)": {
        "details": "Reclaim ownership of a name in MID, if you own it in the registrar."
      },
      "register(uint256,address,uint256)": {
        "details": "Register a name.",
        "params": {
          "duration": "Duration in seconds for the registration.",
          "id": "The token ID (keccak256 of the label).",
          "owner": "The address that should own the registration."
        }
      },
      "registerOnly(uint256,address,uint256)": {
        "details": "Register a name, without modifying the registry.",
        "params": {
          "duration": "Duration in seconds for the registration.",
          "id": "The token ID (keccak256 of the label).",
          "owner": "The address that should own the registration."
        }
      },
      "renounceOwnership()": {
        "details": "Leaves the contract without owner. It will not be possible to call `onlyOwner` functions anymore. Can only be called by the current owner. NOTE: Renouncing ownership will leave the contract without an owner, thereby removing any functionality that is only available to the owner."
      },
      "safeTransferFrom(address,address,uint256)": {
        "details": "See {IERC721-safeTransferFrom}."
      },
      "setApprovalForAll(address,bool)": {
        "details": "See {IERC721-setApprovalForAll}."
      },
      "setBaseURI(string)": {
        "details": "Support directly set the baseURI.",
        "params": {
          "baseURI_": "the new base URI"
        }
      },
      "symbol()": {
        "details": "See {IERC721Metadata-symbol}."
      },
      "tokenURI(uint256)": {
        "details": "See {IERC721Metadata-tokenURI}."
      },
      "totalSupply()": {
        "details": "Support token metadata"
      },
      "transferOwnership(address)": {
        "details": "Transfers ownership of the contract to a new account (`newOwner`). Can only be called by the current owner."
      }
    },
    "version": 1
  },
  "userdoc": {
    "kind": "user",
    "methods": {},
    "version": 1
  },
  "storageLayout": {
    "storage": [
      {
        "astId": 7,
        "contract": "contracts/cidregistrar/BaseRegistrarImplementation.sol:BaseRegistrarImplementation",
        "label": "_owner",
        "offset": 0,
        "slot": "0",
        "type": "t_address"
      },
      {
        "astId": 138,
        "contract": "contracts/cidregistrar/BaseRegistrarImplementation.sol:BaseRegistrarImplementation",
        "label": "_name",
        "offset": 0,
        "slot": "1",
        "type": "t_string_storage"
      },
      {
        "astId": 140,
        "contract": "contracts/cidregistrar/BaseRegistrarImplementation.sol:BaseRegistrarImplementation",
        "label": "_symbol",
        "offset": 0,
        "slot": "2",
        "type": "t_string_storage"
      },
      {
        "astId": 144,
        "contract": "contracts/cidregistrar/BaseRegistrarImplementation.sol:BaseRegistrarImplementation",
        "label": "_owners",
        "offset": 0,
        "slot": "3",
        "type": "t_mapping(t_uint256,t_address)"
      },
      {
        "astId": 148,
        "contract": "contracts/cidregistrar/BaseRegistrarImplementation.sol:BaseRegistrarImplementation",
        "label": "_balances",
        "offset": 0,
        "slot": "4",
        "type": "t_mapping(t_address,t_uint256)"
      },
      {
        "astId": 152,
        "contract": "contracts/cidregistrar/BaseRegistrarImplementation.sol:BaseRegistrarImplementation",
        "label": "_tokenApprovals",
        "offset": 0,
        "slot": "5",
        "type": "t_mapping(t_uint256,t_address)"
      },
      {
        "astId": 158,
        "contract": "contracts/cidregistrar/BaseRegistrarImplementation.sol:BaseRegistrarImplementation",
        "label": "_operatorApprovals",
        "offset": 0,
        "slot": "6",
        "type": "t_mapping(t_address,t_mapping(t_address,t_bool))"
      },
      {
        "astId": 2722,
        "contract": "contracts/cidregistrar/BaseRegistrarImplementation.sol:BaseRegistrarImplementation",
        "label": "mid",
        "offset": 0,
        "slot": "7",
        "type": "t_contract(MID)5862"
      },
      {
        "astId": 2724,
        "contract": "contracts/cidregistrar/BaseRegistrarImplementation.sol:BaseRegistrarImplementation",
        "label": "baseNode",
        "offset": 0,
        "slot": "8",
        "type": "t_bytes32"
      },
      {
        "astId": 2728,
        "contract": "contracts/cidregistrar/BaseRegistrarImplementation.sol:BaseRegistrarImplementation",
        "label": "controllers",
        "offset": 0,
        "slot": "9",
        "type": "t_mapping(t_address,t_bool)"
      },
      {
        "astId": 2804,
        "contract": "contracts/cidregistrar/BaseRegistrarImplementation.sol:BaseRegistrarImplementation",
        "label": "expiries",
        "offset": 0,
        "slot": "10",
        "type": "t_mapping(t_uint256,t_uint256)"
      },
      {
        "astId": 2806,
        "contract": "contracts/cidregistrar/BaseRegistrarImplementation.sol:BaseRegistrarImplementation",
        "label": "baseURI",
        "offset": 0,
        "slot": "11",
        "type": "t_string_storage"
      },
      {
        "astId": 2809,
        "contract": "contracts/cidregistrar/BaseRegistrarImplementation.sol:BaseRegistrarImplementation",
        "label": "tokens",
        "offset": 0,
        "slot": "12",
        "type": "t_array(t_uint256)dyn_storage"
      },
      {
        "astId": 2813,
        "contract": "contracts/cidregistrar/BaseRegistrarImplementation.sol:BaseRegistrarImplementation",
        "label": "idToIndexes",
        "offset": 0,
        "slot": "13",
        "type": "t_mapping(t_uint256,t_uint256)"
      },
      {
        "astId": 2818,
        "contract": "contracts/cidregistrar/BaseRegistrarImplementation.sol:BaseRegistrarImplementation",
        "label": "ownerToIds",
        "offset": 0,
        "slot": "14",
        "type": "t_mapping(t_address,t_array(t_uint256)dyn_storage)"
      }
    ],
    "types": {
      "t_address": {
        "encoding": "inplace",
        "label": "address",
        "numberOfBytes": "20"
      },
      "t_array(t_uint256)dyn_storage": {
        "base": "t_uint256",
        "encoding": "dynamic_array",
        "label": "uint256[]",
        "numberOfBytes": "32"
      },
      "t_bool": {
        "encoding": "inplace",
        "label": "bool",
        "numberOfBytes": "1"
      },
      "t_bytes32": {
        "encoding": "inplace",
        "label": "bytes32",
        "numberOfBytes": "32"
      },
      "t_contract(MID)5862": {
        "encoding": "inplace",
        "label": "contract MID",
        "numberOfBytes": "20"
      },
      "t_mapping(t_address,t_array(t_uint256)dyn_storage)": {
        "encoding": "mapping",
        "key": "t_address",
        "label": "mapping(address => uint256[])",
        "numberOfBytes": "32",
        "value": "t_array(t_uint256)dyn_storage"
      },
      "t_mapping(t_address,t_bool)": {
        "encoding": "mapping",
        "key": "t_address",
        "label": "mapping(address => bool)",
        "numberOfBytes": "32",
        "value": "t_bool"
      },
      "t_mapping(t_address,t_mapping(t_address,t_bool))": {
        "encoding": "mapping",
        "key": "t_address",
        "label": "mapping(address => mapping(address => bool))",
        "numberOfBytes": "32",
        "value": "t_mapping(t_address,t_bool)"
      },
      "t_mapping(t_address,t_uint256)": {
        "encoding": "mapping",
        "key": "t_address",
        "label": "mapping(address => uint256)",
        "numberOfBytes": "32",
        "value": "t_uint256"
      },
      "t_mapping(t_uint256,t_address)": {
        "encoding": "mapping",
        "key": "t_uint256",
        "label": "mapping(uint256 => address)",
        "numberOfBytes": "32",
        "value": "t_address"
      },
      "t_mapping(t_uint256,t_uint256)": {
        "encoding": "mapping",
        "key": "t_uint256",
        "label": "mapping(uint256 => uint256)",
        "numberOfBytes": "32",
        "value": "t_uint256"
      },
      "t_string_storage": {
        "encoding": "bytes",
        "label": "string",
        "numberOfBytes": "32"
      },
      "t_uint256": {
        "encoding": "inplace",
        "label": "uint256",
        "numberOfBytes": "32"
      }
    }
  }
}