{
  "address": "0xCB5b339920A976B95AA448aCcf58671862eF0734",
  "abi": [
    {
      "inputs": [
        {
          "internalType": "contract MID",
          "name": "_mid",
          "type": "address"
        },
        {
          "internalType": "contract IMIDRegistrarController",
          "name": "_controller",
          "type": "address"
        }
      ],
      "stateMutability": "nonpayable",
      "type": "constructor"
    },
    {
      "inputs": [
        {
          "internalType": "bytes32[]",
          "name": "commitments_",
          "type": "bytes32[]"
        }
      ],
      "name": "batchCommit",
      "outputs": [],
      "stateMutability": "nonpayable",
      "type": "function"
    },
    {
      "inputs": [
        {
          "internalType": "string[]",
          "name": "names",
          "type": "string[]"
        },
        {
          "internalType": "address",
          "name": "owner",
          "type": "address"
        },
        {
          "internalType": "uint256[]",
          "name": "durations",
          "type": "uint256[]"
        },
        {
          "internalType": "bytes32",
          "name": "secret",
          "type": "bytes32"
        },
        {
          "internalType": "address",
          "name": "resolver",
          "type": "address"
        },
        {
          "internalType": "address",
          "name": "addr",
          "type": "address"
        }
      ],
      "name": "batchRegisterWithConfig",
      "outputs": [],
      "stateMutability": "payable",
      "type": "function"
    },
    {
      "inputs": [
        {
          "internalType": "string[]",
          "name": "names",
          "type": "string[]"
        },
        {
          "internalType": "address",
          "name": "owner",
          "type": "address"
        },
        {
          "internalType": "bytes32",
          "name": "secret",
          "type": "bytes32"
        },
        {
          "internalType": "address",
          "name": "resolver",
          "type": "address"
        },
        {
          "internalType": "address",
          "name": "addr",
          "type": "address"
        }
      ],
      "name": "makeBatchCommitmentWithConfig",
      "outputs": [
        {
          "internalType": "bytes32[]",
          "name": "results",
          "type": "bytes32[]"
        }
      ],
      "stateMutability": "view",
      "type": "function"
    },
    {
      "inputs": [],
      "name": "mid",
      "outputs": [
        {
          "internalType": "contract MID",
          "name": "",
          "type": "address"
        }
      ],
      "stateMutability": "view",
      "type": "function"
    },
    {
      "inputs": [
        {
          "internalType": "string[]",
          "name": "names",
          "type": "string[]"
        },
        {
          "internalType": "uint256",
          "name": "duration",
          "type": "uint256"
        }
      ],
      "name": "renewAll",
      "outputs": [],
      "stateMutability": "payable",
      "type": "function"
    },
    {
      "inputs": [
        {
          "internalType": "string[]",
          "name": "names",
          "type": "string[]"
        },
        {
          "internalType": "uint256",
          "name": "duration",
          "type": "uint256"
        }
      ],
      "name": "rentPrice",
      "outputs": [
        {
          "internalType": "uint256",
          "name": "total",
          "type": "uint256"
        }
      ],
      "stateMutability": "view",
      "type": "function"
    },
    {
      "inputs": [
        {
          "internalType": "string[]",
          "name": "names",
          "type": "string[]"
        },
        {
          "internalType": "uint256[]",
          "name": "durations",
          "type": "uint256[]"
        }
      ],
      "name": "rentPrices",
      "outputs": [
        {
          "internalType": "uint256",
          "name": "total",
          "type": "uint256"
        }
      ],
      "stateMutability": "view",
      "type": "function"
    },
    {
      "inputs": [
        {
          "internalType": "bytes4",
          "name": "interfaceID",
          "type": "bytes4"
        }
      ],
      "name": "supportsInterface",
      "outputs": [
        {
          "internalType": "bool",
          "name": "",
          "type": "bool"
        }
      ],
      "stateMutability": "pure",
      "type": "function"
    }
  ],
  "transactionHash": "0x6cbb1b1d0c0981b52b8d553c500a467a4e250ff64f2c2d405207dce6723cf01d",
  "args": [
    "0xab4914C910533b03F32B7BbCfA56D2B2412949ee",
    "0x8cC5587D64644Af271f46d9EB6810454a9040662"
  ],
  "numDeployments": 2,
  "solcInputHash": "943e11a3162ca2461d3e9210661e5eaf",
  "bytecode": "0x60806040523480156200001157600080fd5b5060405162001fb038038062001fb083398181016040528101906200003791906200019b565b600073ffffffffffffffffffffffffffffffffffffffff168273ffffffffffffffffffffffffffffffffffffffff1614158015620000a25750600073ffffffffffffffffffffffffffffffffffffffff168173ffffffffffffffffffffffffffffffffffffffff1614155b620000e4576040517f08c379a0000000000000000000000000000000000000000000000000000000008152600401620000db9062000203565b60405180910390fd5b816000806101000a81548173ffffffffffffffffffffffffffffffffffffffff021916908373ffffffffffffffffffffffffffffffffffffffff16021790555080600160006101000a81548173ffffffffffffffffffffffffffffffffffffffff021916908373ffffffffffffffffffffffffffffffffffffffff1602179055505050620002ef565b6000815190506200017e81620002bb565b92915050565b6000815190506200019581620002d5565b92915050565b60008060408385031215620001af57600080fd5b6000620001bf8582860162000184565b9250506020620001d2858286016200016d565b9150509250929050565b6000620001eb600f8362000225565b9150620001f88262000292565b602082019050919050565b600060208201905081810360008301526200021e81620001dc565b9050919050565b600082825260208201905092915050565b6000620002438262000272565b9050919050565b6000620002578262000236565b9050919050565b60006200026b8262000236565b9050919050565b600073ffffffffffffffffffffffffffffffffffffffff82169050919050565b7f696e76616c696420616464726573730000000000000000000000000000000000600082015250565b620002c6816200024a565b8114620002d257600080fd5b50565b620002e0816200025e565b8114620002ec57600080fd5b50565b611cb180620002ff6000396000f3fe60806040526004361061007b5760003560e01c80633971d4671161004e5780633971d4671461014e57806361046e7e1461018b5780637a5b7bfc146101a7578063e8d6dbb4146101e45761007b565b806301ffc9a7146100805780630c652a2a146100bd5780631c4c2a32146100e65780632e94420f14610123575b600080fd5b34801561008c57600080fd5b506100a760048036038101906100a291906113f8565b610200565b6040516100b4919061160b565b60405180910390f35b3480156100c957600080fd5b506100e460048036038101906100df9190611179565b6102d2565b005b3480156100f257600080fd5b5061010d60048036038101906101089190611340565b610404565b60405161011a91906115e9565b60405180910390f35b34801561012f57600080fd5b5061013861061b565b6040516101459190611641565b60405180910390f35b34801561015a57600080fd5b506101756004803603810190610170919061122f565b61063f565b60405161018291906117e0565b60405180910390f35b6101a560048036038101906101a09190611287565b610772565b005b3480156101b357600080fd5b506101ce60048036038101906101c991906111ba565b610a6a565b6040516101db91906117e0565b60405180910390f35b6101fe60048036038101906101f9919061122f565b610bdd565b005b60007f01ffc9a7a5cef8baa21ed3c5c0d7e23accb804b619e9333b597f47a0d84076e27bffffffffffffffffffffffffffffffffffffffffffffffffffffffff1916827bffffffffffffffffffffffffffffffffffffffffffffffffffffffff191614806102cb57507fdad11a49000000000000000000000000000000000000000000000000000000007bffffffffffffffffffffffffffffffffffffffffffffffffffffffff1916827bffffffffffffffffffffffffffffffffffffffffffffffffffffffff1916145b9050919050565b6000815111610316576040517f08c379a000000000000000000000000000000000000000000000000000000000815260040161030d906117c0565b60405180910390fd5b60005b815181101561040057600160009054906101000a900473ffffffffffffffffffffffffffffffffffffffff1673ffffffffffffffffffffffffffffffffffffffff1663f14fcbc8838381518110610399577f4e487b7100000000000000000000000000000000000000000000000000000000600052603260045260246000fd5b60200260200101516040518263ffffffff1660e01b81526004016103bd9190611626565b600060405180830381600087803b1580156103d757600080fd5b505af11580156103eb573d6000803e3d6000fd5b50505050806103f990611aec565b9050610319565b5050565b6060600086511161044a576040517f08c379a0000000000000000000000000000000000000000000000000000000008152600401610441906117a0565b60405180910390fd5b855167ffffffffffffffff81111561048b577f4e487b7100000000000000000000000000000000000000000000000000000000600052604160045260246000fd5b6040519080825280602002602001820160405280156104b95781602001602082028036833780820191505090505b50905060005b865181101561061157600160009054906101000a900473ffffffffffffffffffffffffffffffffffffffff1673ffffffffffffffffffffffffffffffffffffffff16633d86c52f88838151811061053f577f4e487b7100000000000000000000000000000000000000000000000000000000600052603260045260246000fd5b6020026020010151888888886040518663ffffffff1660e01b815260040161056b95949392919061168e565b60206040518083038186803b15801561058357600080fd5b505afa158015610597573d6000803e3d6000fd5b505050506040513d601f19601f820116820180604052508101906105bb91906113cf565b8282815181106105f4577f4e487b7100000000000000000000000000000000000000000000000000000000600052603260045260246000fd5b6020026020010181815250508061060a90611aec565b90506104bf565b5095945050505050565b60008054906101000a900473ffffffffffffffffffffffffffffffffffffffff1681565b600080600090505b8484905081101561076a57600160009054906101000a900473ffffffffffffffffffffffffffffffffffffffff1673ffffffffffffffffffffffffffffffffffffffff166383e7f6ff8686848181106106c9577f4e487b7100000000000000000000000000000000000000000000000000000000600052603260045260246000fd5b90506020028101906106db91906117fb565b866040518463ffffffff1660e01b81526004016106fa9392919061165c565b60206040518083038186803b15801561071257600080fd5b505afa158015610726573d6000803e3d6000fd5b505050506040513d601f19601f8201168201806040525081019061074a9190611421565b826107559190611981565b9150808061076290611aec565b915050610647565b509392505050565b60008651116107b6576040517f08c379a00000000000000000000000000000000000000000000000000000000081526004016107ad906117a0565b60405180910390fd5b83518651146107fa576040517f08c379a00000000000000000000000000000000000000000000000000000000081526004016107f190611780565b60405180910390fd5b60005b8651811015610a61576000600160009054906101000a900473ffffffffffffffffffffffffffffffffffffffff1673ffffffffffffffffffffffffffffffffffffffff166383e7f6ff89848151811061087f577f4e487b7100000000000000000000000000000000000000000000000000000000600052603260045260246000fd5b60200260200101518885815181106108c0577f4e487b7100000000000000000000000000000000000000000000000000000000600052603260045260246000fd5b60200260200101516040518363ffffffff1660e01b81526004016108e5929190611750565b60206040518083038186803b1580156108fd57600080fd5b505afa158015610911573d6000803e3d6000fd5b505050506040513d601f19601f820116820180604052508101906109359190611421565b9050600160009054906101000a900473ffffffffffffffffffffffffffffffffffffffff1673ffffffffffffffffffffffffffffffffffffffff1663f7a16963828a85815181106109af577f4e487b7100000000000000000000000000000000000000000000000000000000600052603260045260246000fd5b60200260200101518a8a87815181106109f1577f4e487b7100000000000000000000000000000000000000000000000000000000600052603260045260246000fd5b60200260200101518a8a8a6040518863ffffffff1660e01b8152600401610a1d969594939291906116e8565b6000604051808303818588803b158015610a3657600080fd5b505af1158015610a4a573d6000803e3d6000fd5b50505050505080610a5a90611aec565b90506107fd565b50505050505050565b600080600090505b85859050811015610bd457600160009054906101000a900473ffffffffffffffffffffffffffffffffffffffff1673ffffffffffffffffffffffffffffffffffffffff166383e7f6ff878784818110610af4577f4e487b7100000000000000000000000000000000000000000000000000000000600052603260045260246000fd5b9050602002810190610b0691906117fb565b878786818110610b3f577f4e487b7100000000000000000000000000000000000000000000000000000000600052603260045260246000fd5b905060200201356040518463ffffffff1660e01b8152600401610b649392919061165c565b60206040518083038186803b158015610b7c57600080fd5b505afa158015610b90573d6000803e3d6000fd5b505050506040513d601f19601f82011682018060405250810190610bb49190611421565b82610bbf9190611981565b91508080610bcc90611aec565b915050610a72565b50949350505050565b60005b83839050811015610dd6576000600160009054906101000a900473ffffffffffffffffffffffffffffffffffffffff1673ffffffffffffffffffffffffffffffffffffffff166383e7f6ff868685818110610c64577f4e487b7100000000000000000000000000000000000000000000000000000000600052603260045260246000fd5b9050602002810190610c7691906117fb565b866040518463ffffffff1660e01b8152600401610c959392919061165c565b60206040518083038186803b158015610cad57600080fd5b505afa158015610cc1573d6000803e3d6000fd5b505050506040513d601f19601f82011682018060405250810190610ce59190611421565b9050600160009054906101000a900473ffffffffffffffffffffffffffffffffffffffff1673ffffffffffffffffffffffffffffffffffffffff1663acf1a84182878786818110610d5f577f4e487b7100000000000000000000000000000000000000000000000000000000600052603260045260246000fd5b9050602002810190610d7191906117fb565b876040518563ffffffff1660e01b8152600401610d909392919061165c565b6000604051808303818588803b158015610da957600080fd5b505af1158015610dbd573d6000803e3d6000fd5b5050505050508080610dce90611aec565b915050610be0565b503373ffffffffffffffffffffffffffffffffffffffff166108fc479081150290604051600060405180830381858888f19350505050158015610e1d573d6000803e3d6000fd5b50505050565b6000610e36610e3184611877565b611852565b90508083825260208201905082856020860282011115610e5557600080fd5b60005b85811015610e855781610e6b88826110e6565b845260208401935060208301925050600181019050610e58565b5050509392505050565b6000610ea2610e9d846118a3565b611852565b90508083825260208201905082856020860282011115610ec157600080fd5b60005b85811015610f0b57813567ffffffffffffffff811115610ee357600080fd5b808601610ef08982611125565b85526020850194506020840193505050600181019050610ec4565b5050509392505050565b6000610f28610f23846118cf565b611852565b90508083825260208201905082856020860282011115610f4757600080fd5b60005b85811015610f775781610f5d888261114f565b845260208401935060208301925050600181019050610f4a565b5050509392505050565b6000610f94610f8f846118fb565b611852565b905082815260208101848484011115610fac57600080fd5b610fb7848285611a79565b509392505050565b600081359050610fce81611c1f565b92915050565b600082601f830112610fe557600080fd5b8135610ff5848260208601610e23565b91505092915050565b60008083601f84011261101057600080fd5b8235905067ffffffffffffffff81111561102957600080fd5b60208301915083602082028301111561104157600080fd5b9250929050565b600082601f83011261105957600080fd5b8135611069848260208601610e8f565b91505092915050565b60008083601f84011261108457600080fd5b8235905067ffffffffffffffff81111561109d57600080fd5b6020830191508360208202830111156110b557600080fd5b9250929050565b600082601f8301126110cd57600080fd5b81356110dd848260208601610f15565b91505092915050565b6000813590506110f581611c36565b92915050565b60008151905061110a81611c36565b92915050565b60008135905061111f81611c4d565b92915050565b600082601f83011261113657600080fd5b8135611146848260208601610f81565b91505092915050565b60008135905061115e81611c64565b92915050565b60008151905061117381611c64565b92915050565b60006020828403121561118b57600080fd5b600082013567ffffffffffffffff8111156111a557600080fd5b6111b184828501610fd4565b91505092915050565b600080600080604085870312156111d057600080fd5b600085013567ffffffffffffffff8111156111ea57600080fd5b6111f687828801610ffe565b9450945050602085013567ffffffffffffffff81111561121557600080fd5b61122187828801611072565b925092505092959194509250565b60008060006040848603121561124457600080fd5b600084013567ffffffffffffffff81111561125e57600080fd5b61126a86828701610ffe565b9350935050602061127d8682870161114f565b9150509250925092565b60008060008060008060c087890312156112a057600080fd5b600087013567ffffffffffffffff8111156112ba57600080fd5b6112c689828a01611048565b96505060206112d789828a01610fbf565b955050604087013567ffffffffffffffff8111156112f457600080fd5b61130089828a016110bc565b945050606061131189828a016110e6565b935050608061132289828a01610fbf565b92505060a061133389828a01610fbf565b9150509295509295509295565b600080600080600060a0868803121561135857600080fd5b600086013567ffffffffffffffff81111561137257600080fd5b61137e88828901611048565b955050602061138f88828901610fbf565b94505060406113a0888289016110e6565b93505060606113b188828901610fbf565b92505060806113c288828901610fbf565b9150509295509295909350565b6000602082840312156113e157600080fd5b60006113ef848285016110fb565b91505092915050565b60006020828403121561140a57600080fd5b600061141884828501611110565b91505092915050565b60006020828403121561143357600080fd5b600061144184828501611164565b91505092915050565b600061145683836114de565b60208301905092915050565b61146b816119d7565b82525050565b600061147c8261193c565b611486818561195f565b93506114918361192c565b8060005b838110156114c25781516114a9888261144a565b97506114b483611952565b925050600181019050611495565b5085935050505092915050565b6114d8816119e9565b82525050565b6114e7816119f5565b82525050565b6114f6816119f5565b82525050565b61150581611a55565b82525050565b60006115178385611970565b9350611524838584611a79565b61152d83611b93565b840190509392505050565b600061154382611947565b61154d8185611970565b935061155d818560208601611a88565b61156681611b93565b840191505092915050565b600061157e600f83611970565b915061158982611ba4565b602082019050919050565b60006115a1600c83611970565b91506115ac82611bcd565b602082019050919050565b60006115c4601283611970565b91506115cf82611bf6565b602082019050919050565b6115e381611a4b565b82525050565b600060208201905081810360008301526116038184611471565b905092915050565b600060208201905061162060008301846114cf565b92915050565b600060208201905061163b60008301846114ed565b92915050565b600060208201905061165660008301846114fc565b92915050565b6000604082019050818103600083015261167781858761150b565b905061168660208301846115da565b949350505050565b600060a08201905081810360008301526116a88188611538565b90506116b76020830187611462565b6116c460408301866114ed565b6116d16060830185611462565b6116de6080830184611462565b9695505050505050565b600060c08201905081810360008301526117028189611538565b90506117116020830188611462565b61171e60408301876115da565b61172b60608301866114ed565b6117386080830185611462565b61174560a0830184611462565b979650505050505050565b6000604082019050818103600083015261176a8185611538565b905061177960208301846115da565b9392505050565b6000602082019050818103600083015261179981611571565b9050919050565b600060208201905081810360008301526117b981611594565b9050919050565b600060208201905081810360008301526117d9816115b7565b9050919050565b60006020820190506117f560008301846115da565b92915050565b6000808335600160200384360303811261181457600080fd5b80840192508235915067ffffffffffffffff82111561183257600080fd5b60208301925060018202360383131561184a57600080fd5b509250929050565b600061185c61186d565b90506118688282611abb565b919050565b6000604051905090565b600067ffffffffffffffff82111561189257611891611b64565b5b602082029050602081019050919050565b600067ffffffffffffffff8211156118be576118bd611b64565b5b602082029050602081019050919050565b600067ffffffffffffffff8211156118ea576118e9611b64565b5b602082029050602081019050919050565b600067ffffffffffffffff82111561191657611915611b64565b5b61191f82611b93565b9050602081019050919050565b6000819050602082019050919050565b600081519050919050565b600081519050919050565b6000602082019050919050565b600082825260208201905092915050565b600082825260208201905092915050565b600061198c82611a4b565b915061199783611a4b565b9250827fffffffffffffffffffffffffffffffffffffffffffffffffffffffffffffffff038211156119cc576119cb611b35565b5b828201905092915050565b60006119e282611a2b565b9050919050565b60008115159050919050565b6000819050919050565b60007fffffffff0000000000000000000000000000000000000000000000000000000082169050919050565b600073ffffffffffffffffffffffffffffffffffffffff82169050919050565b6000819050919050565b6000611a6082611a67565b9050919050565b6000611a7282611a2b565b9050919050565b82818337600083830152505050565b60005b83811015611aa6578082015181840152602081019050611a8b565b83811115611ab5576000848401525b50505050565b611ac482611b93565b810181811067ffffffffffffffff82111715611ae357611ae2611b64565b5b80604052505050565b6000611af782611a4b565b91507fffffffffffffffffffffffffffffffffffffffffffffffffffffffffffffffff821415611b2a57611b29611b35565b5b600182019050919050565b7f4e487b7100000000000000000000000000000000000000000000000000000000600052601160045260246000fd5b7f4e487b7100000000000000000000000000000000000000000000000000000000600052604160045260246000fd5b6000601f19601f8301169050919050565b7f6c656e677468206d69736d617463680000000000000000000000000000000000600082015250565b7f6e616d6520636f756e7420300000000000000000000000000000000000000000600082015250565b7f636f6d6d69746d656e7420636f756e7420300000000000000000000000000000600082015250565b611c28816119d7565b8114611c3357600080fd5b50565b611c3f816119f5565b8114611c4a57600080fd5b50565b611c56816119ff565b8114611c6157600080fd5b50565b611c6d81611a4b565b8114611c7857600080fd5b5056fea26469706673582212201687bfa83231227727bc9c6bc67544b7b96990696f544bd3b7873e6a3e04a28964736f6c63430008040033",
  "devdoc": {
    "kind": "dev",
    "methods": {},
    "version": 1
  },
  "userdoc": {
    "kind": "user",
    "methods": {},
    "version": 1
  },
  "storageLayout": {
    "storage": [
      {
        "astId": 4013,
        "contract": "contracts/cidregistrar/BulkRenewal.sol:BulkRenewal",
        "label": "mid",
        "offset": 0,
        "slot": "0",
        "type": "t_contract(MID)6746"
      },
      {
        "astId": 4016,
        "contract": "contracts/cidregistrar/BulkRenewal.sol:BulkRenewal",
        "label": "controller",
        "offset": 0,
        "slot": "1",
        "type": "t_contract(IMIDRegistrarController)4575"
      }
    ],
    "types": {
      "t_contract(IMIDRegistrarController)4575": {
        "encoding": "inplace",
        "label": "contract IMIDRegistrarController",
        "numberOfBytes": "20"
      },
      "t_contract(MID)6746": {
        "encoding": "inplace",
        "label": "contract MID",
        "numberOfBytes": "20"
      }
    }
  }
}