{
  "address": "0x03EBaF003fC5c370eac7dDdfaa84E5e3666F3ada",
  "abi": [
    {
      "inputs": [
        {
          "internalType": "uint256",
          "name": "id",
          "type": "uint256"
        }
      ],
      "name": "nameExpires",
      "outputs": [
        {
          "internalType": "uint256",
          "name": "",
          "type": "uint256"
        }
      ],
      "stateMutability": "view",
      "type": "function"
    },
    {
      "inputs": [
        {
          "internalType": "uint256",
          "name": "id",
          "type": "uint256"
        },
        {
          "internalType": "uint256",
          "name": "expiry",
          "type": "uint256"
        }
      ],
      "name": "setNameExpires",
      "outputs": [],
      "stateMutability": "nonpayable",
      "type": "function"
    },
    {
      "inputs": [
        {
          "internalType": "string",
          "name": "name_",
          "type": "string"
        },
        {
          "internalType": "uint256",
          "name": "expiry",
          "type": "uint256"
        }
      ],
      "name": "setNameExpiresByLabelName",
      "outputs": [],
      "stateMutability": "nonpayable",
      "type": "function"
    }
  ],
  "transactionHash": "0x61e51a557f7bf4019ba3f888411ed49cde4b40e435fed1ab62eb9f8df73a398f",
  "args": [],
  "numDeployments": 1,
  "solcInputHash": "43445803a792b59b290dfe234179bf78",
  "bytecode": "0x608060405234801561001057600080fd5b5061039d806100206000396000f3fe608060405234801561001057600080fd5b50600436106100415760003560e01c80637be0043b14610046578063b12a6acf14610062578063d6e4fa861461007e575b600080fd5b610060600480360381019061005b919061018d565b6100ae565b005b61007c6004803603810190610077919061020a565b6100d9565b005b610098600480360381019061009391906101e1565b6100f4565b6040516100a59190610255565b60405180910390f35b600082805190602001209050816000808360001c815260200190815260200160002081905550505050565b80600080848152602001908152602001600020819055505050565b6000806000838152602001908152602001600020549050919050565b600061012361011e84610295565b610270565b90508281526020810184848401111561013b57600080fd5b6101468482856102d0565b509392505050565b600082601f83011261015f57600080fd5b813561016f848260208601610110565b91505092915050565b60008135905061018781610350565b92915050565b600080604083850312156101a057600080fd5b600083013567ffffffffffffffff8111156101ba57600080fd5b6101c68582860161014e565b92505060206101d785828601610178565b9150509250929050565b6000602082840312156101f357600080fd5b600061020184828501610178565b91505092915050565b6000806040838503121561021d57600080fd5b600061022b85828601610178565b925050602061023c85828601610178565b9150509250929050565b61024f816102c6565b82525050565b600060208201905061026a6000830184610246565b92915050565b600061027a61028b565b905061028682826102df565b919050565b6000604051905090565b600067ffffffffffffffff8211156102b0576102af610310565b5b6102b98261033f565b9050602081019050919050565b6000819050919050565b82818337600083830152505050565b6102e88261033f565b810181811067ffffffffffffffff8211171561030757610306610310565b5b80604052505050565b7f4e487b7100000000000000000000000000000000000000000000000000000000600052604160045260246000fd5b6000601f19601f8301169050919050565b610359816102c6565b811461036457600080fd5b5056fea264697066735822122086b62e2bea174ce6f5783883407d36063cb5b1fd2670edd0ca468279acc2ef1b64736f6c63430008040033",
  "devdoc": {
    "kind": "dev",
    "methods": {},
    "version": 1
  },
  "userdoc": {
    "kind": "user",
    "methods": {},
    "version": 1
  },
  "storageLayout": {
    "storage": [
      {
        "astId": 9333,
        "contract": "contracts/test/DummyMigrationSource.sol:DummySourceBaseRegistrar",
        "label": "expiries",
        "offset": 0,
        "slot": "0",
        "type": "t_mapping(t_uint256,t_uint256)"
      }
    ],
    "types": {
      "t_mapping(t_uint256,t_uint256)": {
        "encoding": "mapping",
        "key": "t_uint256",
        "label": "mapping(uint256 => uint256)",
        "numberOfBytes": "32",
        "value": "t_uint256"
      },
      "t_uint256": {
        "encoding": "inplace",
        "label": "uint256",
        "numberOfBytes": "32"
      }
    }
  }
}