{
  "address": "0x458b0a56129b1d840E0820d91cB1030C97e6BaEe",
  "abi": [
    {
      "inputs": [
        {
          "internalType": "int256",
          "name": "_value",
          "type": "int256"
        }
      ],
      "stateMutability": "nonpayable",
      "type": "constructor"
    },
    {
      "inputs": [],
      "name": "latestAnswer",
      "outputs": [
        {
          "internalType": "int256",
          "name": "",
          "type": "int256"
        }
      ],
      "stateMutability": "view",
      "type": "function"
    },
    {
      "inputs": [
        {
          "internalType": "int256",
          "name": "_value",
          "type": "int256"
        }
      ],
      "name": "set",
      "outputs": [],
      "stateMutability": "nonpayable",
      "type": "function"
    }
  ],
  "transactionHash": "0xc79b963458b8699a2e4facbbbf385fa42ba6fc916b39a3ee8653d134b24c9ffa",
  "args": [
    "130000000000"
  ],
  "numDeployments": 1,
  "solcInputHash": "48c77f3839b040a07ff91ad92d42e110",
  "bytecode": "0x608060405234801561001057600080fd5b506040516101ee3803806101ee83398181016040528101906100329190610066565b6100418161004760201b60201c565b506100b0565b8060008190555050565b60008151905061006081610099565b92915050565b60006020828403121561007857600080fd5b600061008684828501610051565b91505092915050565b6000819050919050565b6100a28161008f565b81146100ad57600080fd5b50565b61012f806100bf6000396000f3fe6080604052348015600f57600080fd5b506004361060325760003560e01c806350d25bcd146037578063e5c19b2d146051575b600080fd5b603d6069565b6040516048919060c2565b60405180910390f35b6067600480360381019060639190608f565b6072565b005b60008054905090565b8060008190555050565b60008135905060898160e5565b92915050565b60006020828403121560a057600080fd5b600060ac84828501607c565b91505092915050565b60bc8160db565b82525050565b600060208201905060d5600083018460b5565b92915050565b6000819050919050565b60ec8160db565b811460f657600080fd5b5056fea264697066735822122094a28fc14d508c3f8182613dec28c99caed736aee7ab4c4d1ad5fd2888eccc5d64736f6c63430008040033",
  "devdoc": {
    "kind": "dev",
    "methods": {},
    "version": 1
  },
  "userdoc": {
    "kind": "user",
    "methods": {},
    "version": 1
  },
  "storageLayout": {
    "storage": [
      {
        "astId": 3804,
        "contract": "contracts/cidregistrar/DummyOracle.sol:DummyOracle",
        "label": "value",
        "offset": 0,
        "slot": "0",
        "type": "t_int256"
      }
    ],
    "types": {
      "t_int256": {
        "encoding": "inplace",
        "label": "int256",
        "numberOfBytes": "32"
      }
    }
  }
}