{
  "address": "0x7Db46FE316Dc3f3A8e56a52942FDb0b7415022eC",
  "abi": [
    {
      "inputs": [
        {
          "internalType": "address",
          "name": "wishlist_",
          "type": "address"
        },
        {
          "internalType": "uint256",
          "name": "reservationPhraseStart_",
          "type": "uint256"
        },
        {
          "internalType": "uint256",
          "name": "reservationPhraseEnd_",
          "type": "uint256"
        },
        {
          "internalType": "contract BaseRegistrarImplementation",
          "name": "base_",
          "type": "address"
        },
        {
          "internalType": "contract PriceOracle",
          "name": "prices_",
          "type": "address"
        },
        {
          "internalType": "uint256",
          "name": "minCommitmentAge_",
          "type": "uint256"
        },
        {
          "internalType": "uint256",
          "name": "maxCommitmentAge_",
          "type": "uint256"
        }
      ],
      "stateMutability": "nonpayable",
      "type": "constructor"
    },
    {
      "anonymous": false,
      "inputs": [
        {
          "indexed": false,
          "internalType": "string",
          "name": "name",
          "type": "string"
        },
        {
          "indexed": true,
          "internalType": "bytes32",
          "name": "label",
          "type": "bytes32"
        },
        {
          "indexed": true,
          "internalType": "address",
          "name": "owner",
          "type": "address"
        },
        {
          "indexed": false,
          "internalType": "uint256",
          "name": "cost",
          "type": "uint256"
        },
        {
          "indexed": false,
          "internalType": "uint256",
          "name": "expires",
          "type": "uint256"
        }
      ],
      "name": "NameRegistered",
      "type": "event"
    },
    {
      "anonymous": false,
      "inputs": [
        {
          "indexed": false,
          "internalType": "string",
          "name": "name",
          "type": "string"
        },
        {
          "indexed": true,
          "internalType": "bytes32",
          "name": "label",
          "type": "bytes32"
        },
        {
          "indexed": false,
          "internalType": "uint256",
          "name": "cost",
          "type": "uint256"
        },
        {
          "indexed": false,
          "internalType": "uint256",
          "name": "expires",
          "type": "uint256"
        }
      ],
      "name": "NameRenewed",
      "type": "event"
    },
    {
      "anonymous": false,
      "inputs": [
        {
          "indexed": true,
          "internalType": "address",
          "name": "oracle",
          "type": "address"
        }
      ],
      "name": "NewPriceOracle",
      "type": "event"
    },
    {
      "anonymous": false,
      "inputs": [
        {
          "indexed": true,
          "internalType": "address",
          "name": "previousOwner",
          "type": "address"
        },
        {
          "indexed": true,
          "internalType": "address",
          "name": "newOwner",
          "type": "address"
        }
      ],
      "name": "OwnershipTransferred",
      "type": "event"
    },
    {
      "inputs": [],
      "name": "MIN_NAME_LENGTH",
      "outputs": [
        {
          "internalType": "uint256",
          "name": "",
          "type": "uint256"
        }
      ],
      "stateMutability": "view",
      "type": "function"
    },
    {
      "inputs": [],
      "name": "MIN_REGISTRATION_DURATION",
      "outputs": [
        {
          "internalType": "uint256",
          "name": "",
          "type": "uint256"
        }
      ],
      "stateMutability": "view",
      "type": "function"
    },
    {
      "inputs": [
        {
          "internalType": "string",
          "name": "name",
          "type": "string"
        }
      ],
      "name": "available",
      "outputs": [
        {
          "internalType": "bool",
          "name": "",
          "type": "bool"
        }
      ],
      "stateMutability": "view",
      "type": "function"
    },
    {
      "inputs": [
        {
          "internalType": "bytes32",
          "name": "commitment",
          "type": "bytes32"
        }
      ],
      "name": "commit",
      "outputs": [],
      "stateMutability": "nonpayable",
      "type": "function"
    },
    {
      "inputs": [
        {
          "internalType": "bytes32",
          "name": "",
          "type": "bytes32"
        }
      ],
      "name": "commitments",
      "outputs": [
        {
          "internalType": "uint256",
          "name": "",
          "type": "uint256"
        }
      ],
      "stateMutability": "view",
      "type": "function"
    },
    {
      "inputs": [],
      "name": "isReservationAlive",
      "outputs": [
        {
          "internalType": "bool",
          "name": "",
          "type": "bool"
        }
      ],
      "stateMutability": "view",
      "type": "function"
    },
    {
      "inputs": [
        {
          "internalType": "string",
          "name": "name",
          "type": "string"
        },
        {
          "internalType": "address",
          "name": "owner",
          "type": "address"
        },
        {
          "internalType": "bytes32",
          "name": "secret",
          "type": "bytes32"
        }
      ],
      "name": "makeCommitment",
      "outputs": [
        {
          "internalType": "bytes32",
          "name": "",
          "type": "bytes32"
        }
      ],
      "stateMutability": "pure",
      "type": "function"
    },
    {
      "inputs": [
        {
          "internalType": "string",
          "name": "name",
          "type": "string"
        },
        {
          "internalType": "address",
          "name": "owner",
          "type": "address"
        },
        {
          "internalType": "bytes32",
          "name": "secret",
          "type": "bytes32"
        },
        {
          "internalType": "address",
          "name": "resolver",
          "type": "address"
        },
        {
          "internalType": "address",
          "name": "addr",
          "type": "address"
        }
      ],
      "name": "makeCommitmentWithConfig",
      "outputs": [
        {
          "internalType": "bytes32",
          "name": "",
          "type": "bytes32"
        }
      ],
      "stateMutability": "pure",
      "type": "function"
    },
    {
      "inputs": [],
      "name": "maxCommitmentAge",
      "outputs": [
        {
          "internalType": "uint256",
          "name": "",
          "type": "uint256"
        }
      ],
      "stateMutability": "view",
      "type": "function"
    },
    {
      "inputs": [],
      "name": "minCommitmentAge",
      "outputs": [
        {
          "internalType": "uint256",
          "name": "",
          "type": "uint256"
        }
      ],
      "stateMutability": "view",
      "type": "function"
    },
    {
      "inputs": [],
      "name": "owner",
      "outputs": [
        {
          "internalType": "address",
          "name": "",
          "type": "address"
        }
      ],
      "stateMutability": "view",
      "type": "function"
    },
    {
      "inputs": [],
      "name": "prices",
      "outputs": [
        {
          "internalType": "contract PriceOracle",
          "name": "",
          "type": "address"
        }
      ],
      "stateMutability": "view",
      "type": "function"
    },
    {
      "inputs": [
        {
          "internalType": "string",
          "name": "name",
          "type": "string"
        },
        {
          "internalType": "address",
          "name": "owner",
          "type": "address"
        },
        {
          "internalType": "uint256",
          "name": "duration",
          "type": "uint256"
        },
        {
          "internalType": "bytes32",
          "name": "secret",
          "type": "bytes32"
        }
      ],
      "name": "register",
      "outputs": [],
      "stateMutability": "payable",
      "type": "function"
    },
    {
      "inputs": [
        {
          "internalType": "string",
          "name": "name",
          "type": "string"
        },
        {
          "internalType": "address",
          "name": "owner",
          "type": "address"
        },
        {
          "internalType": "uint256",
          "name": "duration",
          "type": "uint256"
        },
        {
          "internalType": "bytes32",
          "name": "secret",
          "type": "bytes32"
        },
        {
          "internalType": "address",
          "name": "resolver",
          "type": "address"
        },
        {
          "internalType": "address",
          "name": "addr",
          "type": "address"
        }
      ],
      "name": "registerWithConfig",
      "outputs": [],
      "stateMutability": "payable",
      "type": "function"
    },
    {
      "inputs": [
        {
          "internalType": "string",
          "name": "name",
          "type": "string"
        },
        {
          "internalType": "uint256",
          "name": "duration",
          "type": "uint256"
        }
      ],
      "name": "renew",
      "outputs": [],
      "stateMutability": "payable",
      "type": "function"
    },
    {
      "inputs": [],
      "name": "renounceOwnership",
      "outputs": [],
      "stateMutability": "nonpayable",
      "type": "function"
    },
    {
      "inputs": [
        {
          "internalType": "string",
          "name": "name",
          "type": "string"
        },
        {
          "internalType": "uint256",
          "name": "duration",
          "type": "uint256"
        }
      ],
      "name": "rentPrice",
      "outputs": [
        {
          "internalType": "uint256",
          "name": "",
          "type": "uint256"
        }
      ],
      "stateMutability": "view",
      "type": "function"
    },
    {
      "inputs": [],
      "name": "reservationPhraseEnd",
      "outputs": [
        {
          "internalType": "uint256",
          "name": "",
          "type": "uint256"
        }
      ],
      "stateMutability": "view",
      "type": "function"
    },
    {
      "inputs": [],
      "name": "reservationPhraseStart",
      "outputs": [
        {
          "internalType": "uint256",
          "name": "",
          "type": "uint256"
        }
      ],
      "stateMutability": "view",
      "type": "function"
    },
    {
      "inputs": [
        {
          "internalType": "uint256",
          "name": "minCommitmentAge_",
          "type": "uint256"
        },
        {
          "internalType": "uint256",
          "name": "maxCommitmentAge_",
          "type": "uint256"
        }
      ],
      "name": "setCommitmentAges",
      "outputs": [],
      "stateMutability": "nonpayable",
      "type": "function"
    },
    {
      "inputs": [
        {
          "internalType": "contract PriceOracle",
          "name": "_prices",
          "type": "address"
        }
      ],
      "name": "setPriceOracle",
      "outputs": [],
      "stateMutability": "nonpayable",
      "type": "function"
    },
    {
      "inputs": [
        {
          "internalType": "uint256",
          "name": "reservationPhraseStart_",
          "type": "uint256"
        },
        {
          "internalType": "uint256",
          "name": "reservationPhraseEnd_",
          "type": "uint256"
        }
      ],
      "name": "setReservationPhraseTime",
      "outputs": [],
      "stateMutability": "nonpayable",
      "type": "function"
    },
    {
      "inputs": [
        {
          "internalType": "address",
          "name": "treasury_",
          "type": "address"
        }
      ],
      "name": "setTreasury",
      "outputs": [],
      "stateMutability": "nonpayable",
      "type": "function"
    },
    {
      "inputs": [
        {
          "internalType": "address",
          "name": "wishlist_",
          "type": "address"
        }
      ],
      "name": "setWishlist",
      "outputs": [],
      "stateMutability": "nonpayable",
      "type": "function"
    },
    {
      "inputs": [
        {
          "internalType": "bytes4",
          "name": "interfaceID",
          "type": "bytes4"
        }
      ],
      "name": "supportsInterface",
      "outputs": [
        {
          "internalType": "bool",
          "name": "",
          "type": "bool"
        }
      ],
      "stateMutability": "pure",
      "type": "function"
    },
    {
      "inputs": [
        {
          "internalType": "address",
          "name": "newOwner",
          "type": "address"
        }
      ],
      "name": "transferOwnership",
      "outputs": [],
      "stateMutability": "nonpayable",
      "type": "function"
    },
    {
      "inputs": [],
      "name": "treasury",
      "outputs": [
        {
          "internalType": "address",
          "name": "",
          "type": "address"
        }
      ],
      "stateMutability": "view",
      "type": "function"
    },
    {
      "inputs": [
        {
          "internalType": "string",
          "name": "name",
          "type": "string"
        }
      ],
      "name": "valid",
      "outputs": [
        {
          "internalType": "bool",
          "name": "",
          "type": "bool"
        }
      ],
      "stateMutability": "pure",
      "type": "function"
    },
    {
      "inputs": [],
      "name": "wishlist",
      "outputs": [
        {
          "internalType": "contract IWishlist",
          "name": "",
          "type": "address"
        }
      ],
      "stateMutability": "view",
      "type": "function"
    },
    {
      "inputs": [],
      "name": "withdraw",
      "outputs": [],
      "stateMutability": "nonpayable",
      "type": "function"
    }
  ],
  "transactionHash": "0x72d14a766df852cb4057560cb86eef9ecf34aaae65b027df84dcdce899040406",
  "args": [
    "0x1923BcDB09fF75d6A4879a828D5D62f4310c8FD0",
    1675743226,
    1678335226,
    "0xF91fD680B5d5538D4f2Fd21C952BF7bF8ccF7fbF",
    "0xd6fa6818362094e6930075305cc74005DfEcd6f3",
    15,
    86400
  ],
  "numDeployments": 4,
  "solcInputHash": "3c13f36f36444a6b4d9a49c552158713",
  "bytecode": "0x60806040523480156200001157600080fd5b5060405162003bc538038062003bc58339818101604052810190620000379190620003b4565b620000576200004b6200015c60201b60201c565b6200016460201b60201c565b8181116200009c576040517f08c379a00000000000000000000000000000000000000000000000000000000081526004016200009390620004d1565b60405180910390fd5b620000ad876200022860201b60201c565b620000bf86866200027c60201b60201c565b83600160006101000a81548173ffffffffffffffffffffffffffffffffffffffff021916908373ffffffffffffffffffffffffffffffffffffffff16021790555082600260006101000a81548173ffffffffffffffffffffffffffffffffffffffff021916908373ffffffffffffffffffffffffffffffffffffffff16021790555081600381905550806004819055505050505050505062000624565b600033905090565b60008060009054906101000a900473ffffffffffffffffffffffffffffffffffffffff169050816000806101000a81548173ffffffffffffffffffffffffffffffffffffffff021916908373ffffffffffffffffffffffffffffffffffffffff1602179055508173ffffffffffffffffffffffffffffffffffffffff168173ffffffffffffffffffffffffffffffffffffffff167f8be0079c531659141344cd1fd0a4f28419497f9722a3daafe3b4186f6b6457e060405160405180910390a35050565b620002386200029e60201b60201c565b80600760006101000a81548173ffffffffffffffffffffffffffffffffffffffff021916908373ffffffffffffffffffffffffffffffffffffffff16021790555050565b6200028c6200029e60201b60201c565b81600881905550806009819055505050565b620002ae6200015c60201b60201c565b73ffffffffffffffffffffffffffffffffffffffff16620002d46200032f60201b60201c565b73ffffffffffffffffffffffffffffffffffffffff16146200032d576040517f08c379a00000000000000000000000000000000000000000000000000000000081526004016200032490620004af565b60405180910390fd5b565b60008060009054906101000a900473ffffffffffffffffffffffffffffffffffffffff16905090565b6000815190506200036981620005bc565b92915050565b6000815190506200038081620005d6565b92915050565b6000815190506200039781620005f0565b92915050565b600081519050620003ae816200060a565b92915050565b600080600080600080600060e0888a031215620003d057600080fd5b6000620003e08a828b0162000358565b9750506020620003f38a828b016200039d565b9650506040620004068a828b016200039d565b9550506060620004198a828b016200036f565b94505060806200042c8a828b0162000386565b93505060a06200043f8a828b016200039d565b92505060c0620004528a828b016200039d565b91505092959891949750929550565b600062000470602083620004f3565b91506200047d826200056a565b602082019050919050565b600062000497601683620004f3565b9150620004a48262000593565b602082019050919050565b60006020820190508181036000830152620004ca8162000461565b9050919050565b60006020820190508181036000830152620004ec8162000488565b9050919050565b600082825260208201905092915050565b6000620005118262000540565b9050919050565b6000620005258262000504565b9050919050565b6000620005398262000504565b9050919050565b600073ffffffffffffffffffffffffffffffffffffffff82169050919050565b6000819050919050565b7f4f776e61626c653a2063616c6c6572206973206e6f7420746865206f776e6572600082015250565b7f696e76616c696420636f6d6d69746d656e742061676500000000000000000000600082015250565b620005c78162000504565b8114620005d357600080fd5b50565b620005e18162000518565b8114620005ed57600080fd5b50565b620005fb816200052c565b81146200060757600080fd5b50565b620006158162000560565b81146200062157600080fd5b50565b61359180620006346000396000f3fe6080604052600436106101cd5760003560e01c80638a95b09f116100f7578063d3419bf311610095578063f49826be11610064578063f49826be1461064a578063f7a1696314610687578063fb60236f146106a3578063fbcfcd35146106ce576101cd565b8063d3419bf3146105a4578063f0f44260146105cf578063f14fcbc8146105f8578063f2fde38b14610621576101cd565b80639791c097116100d15780639791c097146104e3578063acf1a84114610520578063aeb8ce9b1461053c578063ce1e09c014610579576101cd565b80638a95b09f146104625780638d839ffe1461048d5780638da5cb5b146104b8576101cd565b8063530e784f1161016f578063839df9451161013e578063839df945146103a157806383e7f6ff146103de57806385f6d1551461041b5780638a94ea3114610437576101cd565b8063530e784f1461030d57806361d027b314610336578063715018a6146103615780637e32447914610378576101cd565b80633ccfd60b116101ab5780633ccfd60b146102635780633d86c52f1461027a57806344c50bdd146102b757806350cfeddd146102e2576101cd565b806301ffc9a7146101d2578063144e62691461020f578063154481341461023a575b600080fd5b3480156101de57600080fd5b506101f960048036038101906101f49190612344565b6106f7565b6040516102069190612b88565b60405180910390f35b34801561021b57600080fd5b506102246107c9565b6040516102319190612be7565b60405180910390f35b34801561024657600080fd5b50610261600480360381019061025c91906122a0565b6107ef565b005b34801561026f57600080fd5b5061027861083b565b005b34801561028657600080fd5b506102a1600480360381019061029c919061253f565b61088c565b6040516102ae9190612ba3565b60405180910390f35b3480156102c357600080fd5b506102cc6109e5565b6040516102d99190612b88565b60405180910390f35b3480156102ee57600080fd5b506102f76109fe565b6040516103049190612e5b565b60405180910390f35b34801561031957600080fd5b50610334600480360381019061032f9190612396565b610a03565b005b34801561034257600080fd5b5061034b610ab4565b6040516103589190612b06565b60405180910390f35b34801561036d57600080fd5b50610376610ada565b005b34801561038457600080fd5b5061039f600480360381019061039a91906126ec565b610aee565b005b3480156103ad57600080fd5b506103c860048036038101906103c391906122f2565b610b08565b6040516103d59190612e5b565b60405180910390f35b3480156103ea57600080fd5b506104056004803603810190610400919061266f565b610b20565b6040516104129190612e5b565b60405180910390f35b610435600480360381019061043091906123bf565b610c92565b005b34801561044357600080fd5b5061044c610cec565b6040516104599190612e5b565b60405180910390f35b34801561046e57600080fd5b50610477610cf2565b6040516104849190612e5b565b60405180910390f35b34801561049957600080fd5b506104a2610cf9565b6040516104af9190612e5b565b60405180910390f35b3480156104c457600080fd5b506104cd610cff565b6040516104da9190612b06565b60405180910390f35b3480156104ef57600080fd5b5061050a60048036038101906105059190612497565b610d28565b6040516105179190612b88565b60405180910390f35b61053a6004803603810190610535919061243f565b610d3e565b005b34801561054857600080fd5b50610563600480360381019061055e9190612497565b611006565b6040516105709190612b88565b60405180910390f35b34801561058557600080fd5b5061058e6110da565b60405161059b9190612e5b565b60405180910390f35b3480156105b057600080fd5b506105b96110e0565b6040516105c69190612c02565b60405180910390f35b3480156105db57600080fd5b506105f660048036038101906105f191906122a0565b611106565b005b34801561060457600080fd5b5061061f600480360381019061061a91906122f2565b6111c2565b005b34801561062d57600080fd5b50610648600480360381019061064391906122a0565b61123f565b005b34801561065657600080fd5b50610671600480360381019061066c91906124d8565b6112c3565b60405161067e9190612ba3565b60405180910390f35b6106a1600480360381019061069c91906125ce565b6112dc565b005b3480156106af57600080fd5b506106b8611c24565b6040516106c59190612e5b565b60405180910390f35b3480156106da57600080fd5b506106f560048036038101906106f091906126ec565b611c2a565b005b60007f01ffc9a7a5cef8baa21ed3c5c0d7e23accb804b619e9333b597f47a0d84076e27bffffffffffffffffffffffffffffffffffffffffffffffffffffffff1916827bffffffffffffffffffffffffffffffffffffffffffffffffffffffff191614806107c257507fcba8004a000000000000000000000000000000000000000000000000000000007bffffffffffffffffffffffffffffffffffffffffffffffffffffffff1916827bffffffffffffffffffffffffffffffffffffffffffffffffffffffff1916145b9050919050565b600760009054906101000a900473ffffffffffffffffffffffffffffffffffffffff1681565b6107f7611c44565b80600760006101000a81548173ffffffffffffffffffffffffffffffffffffffff021916908373ffffffffffffffffffffffffffffffffffffffff16021790555050565b610843611c44565b3373ffffffffffffffffffffffffffffffffffffffff166108fc479081150290604051600060405180830381858888f19350505050158015610889573d6000803e3d6000fd5b50565b60008086805190602001209050600073ffffffffffffffffffffffffffffffffffffffff168473ffffffffffffffffffffffffffffffffffffffff161480156109015750600073ffffffffffffffffffffffffffffffffffffffff168373ffffffffffffffffffffffffffffffffffffffff16145b156109395780868660405160200161091b93929190612a84565b604051602081830303815290604052805190602001209150506109dc565b600073ffffffffffffffffffffffffffffffffffffffff168473ffffffffffffffffffffffffffffffffffffffff1614156109a9576040517f08c379a00000000000000000000000000000000000000000000000000000000081526004016109a090612ddb565b60405180910390fd5b80868585886040516020016109c2959493929190612a25565b604051602081830303815290604052805190602001209150505b95945050505050565b6000600854421180156109f9575060095442105b905090565b600281565b610a0b611c44565b80600260006101000a81548173ffffffffffffffffffffffffffffffffffffffff021916908373ffffffffffffffffffffffffffffffffffffffff160217905550600260009054906101000a900473ffffffffffffffffffffffffffffffffffffffff1673ffffffffffffffffffffffffffffffffffffffff167ff261845a790fe29bbd6631e2ca4a5bdc83e6eed7c3271d9590d97287e00e912360405160405180910390a250565b600660009054906101000a900473ffffffffffffffffffffffffffffffffffffffff1681565b610ae2611c44565b610aec6000611cc2565b565b610af6611c44565b81600381905550806004819055505050565b60056020528060005260406000206000915090505481565b60008083805190602001209050600260009054906101000a900473ffffffffffffffffffffffffffffffffffffffff1673ffffffffffffffffffffffffffffffffffffffff166350e9a71585600160009054906101000a900473ffffffffffffffffffffffffffffffffffffffff1673ffffffffffffffffffffffffffffffffffffffff1663d6e4fa868560001c6040518263ffffffff1660e01b8152600401610bca9190612e5b565b60206040518083038186803b158015610be257600080fd5b505afa158015610bf6573d6000803e3d6000fd5b505050506040513d601f19601f82011682018060405250810190610c1a91906126c3565b866040518463ffffffff1660e01b8152600401610c3993929190612c5d565b60206040518083038186803b158015610c5157600080fd5b505afa158015610c65573d6000803e3d6000fd5b505050506040513d601f19601f82011682018060405250810190610c8991906126c3565b91505092915050565b610ce585858080601f016020809104026020016040519081016040528093929190818152602001838380828437600081840152601f19601f820116905080830192505050505050508484846000806112dc565b5050505050565b60095481565b6224ea0081565b60035481565b60008060009054906101000a900473ffffffffffffffffffffffffffffffffffffffff16905090565b60006002610d3583611d86565b10159050919050565b6000610d8e84848080601f016020809104026020016040519081016040528093929190818152602001838380828437600081840152601f19601f8201169050808301925050505050505083610b20565b905080341015610dd3576040517f08c379a0000000000000000000000000000000000000000000000000000000008152600401610dca90612d3b565b60405180910390fd5b60008484604051610de5929190612aed565b604051809103902090506000600160009054906101000a900473ffffffffffffffffffffffffffffffffffffffff1673ffffffffffffffffffffffffffffffffffffffff1663c475abff8360001c866040518363ffffffff1660e01b8152600401610e51929190612ed6565b602060405180830381600087803b158015610e6b57600080fd5b505af1158015610e7f573d6000803e3d6000fd5b505050506040513d601f19601f82011682018060405250810190610ea391906126c3565b9050600073ffffffffffffffffffffffffffffffffffffffff16600660009054906101000a900473ffffffffffffffffffffffffffffffffffffffff1673ffffffffffffffffffffffffffffffffffffffff1614610f6557600660009054906101000a900473ffffffffffffffffffffffffffffffffffffffff1673ffffffffffffffffffffffffffffffffffffffff166108fc849081150290604051600060405180830381858888f19350505050158015610f63573d6000803e3d6000fd5b505b82341115610fc0573373ffffffffffffffffffffffffffffffffffffffff166108fc8434610f939190612fd2565b9081150290604051600060405180830381858888f19350505050158015610fbe573d6000803e3d6000fd5b505b817f3da24c024582931cfaf8267d8ed24d13a82a8068d5bd337d30ec45cea4e506ae87878685604051610ff69493929190612c1d565b60405180910390a2505050505050565b6000808280519060200120905061101c83610d28565b80156110d25750600160009054906101000a900473ffffffffffffffffffffffffffffffffffffffff1673ffffffffffffffffffffffffffffffffffffffff166396e494e88260001c6040518263ffffffff1660e01b81526004016110819190612e5b565b60206040518083038186803b15801561109957600080fd5b505afa1580156110ad573d6000803e3d6000fd5b505050506040513d601f19601f820116820180604052508101906110d191906122c9565b5b915050919050565b60045481565b600260009054906101000a900473ffffffffffffffffffffffffffffffffffffffff1681565b61110e611c44565b600073ffffffffffffffffffffffffffffffffffffffff168173ffffffffffffffffffffffffffffffffffffffff16141561117e576040517f08c379a000000000000000000000000000000000000000000000000000000000815260040161117590612e3b565b60405180910390fd5b80600660006101000a81548173ffffffffffffffffffffffffffffffffffffffff021916908373ffffffffffffffffffffffffffffffffffffffff16021790555050565b4260045460056000848152602001908152602001600020546111e49190612f7c565b10611224576040517f08c379a000000000000000000000000000000000000000000000000000000000815260040161121b90612dfb565b60405180910390fd5b42600560008381526020019081526020016000208190555050565b611247611c44565b600073ffffffffffffffffffffffffffffffffffffffff168173ffffffffffffffffffffffffffffffffffffffff1614156112b7576040517f08c379a00000000000000000000000000000000000000000000000000000000081526004016112ae90612cfb565b60405180910390fd5b6112c081611cc2565b50565b60006112d384848460008061088c565b90509392505050565b6112e46109e5565b156114ca576001600760009054906101000a900473ffffffffffffffffffffffffffffffffffffffff1673ffffffffffffffffffffffffffffffffffffffff16631b84d0e288805190602001206040518263ffffffff1660e01b815260040161134d9190612ba3565b60206040518083038186803b15801561136557600080fd5b505afa158015611379573d6000803e3d6000fd5b505050506040513d601f19601f8201168201806040525081019061139d91906126c3565b146113dd576040517f08c379a00000000000000000000000000000000000000000000000000000000081526004016113d490612cbb565b60405180910390fd5b600760009054906101000a900473ffffffffffffffffffffffffffffffffffffffff1673ffffffffffffffffffffffffffffffffffffffff1663f70236a486886040518363ffffffff1660e01b815260040161143a929190612b58565b60206040518083038186803b15801561145257600080fd5b505afa158015611466573d6000803e3d6000fd5b505050506040513d601f19601f8201168201806040525081019061148a91906122c9565b6114c9576040517f08c379a00000000000000000000000000000000000000000000000000000000081526004016114c090612c9b565b60405180910390fd5b5b60006114d9878786868661088c565b905060006114e8888784611f61565b905060008880519060200120905060008160001c905060008073ffffffffffffffffffffffffffffffffffffffff168773ffffffffffffffffffffffffffffffffffffffff161461198657600160009054906101000a900473ffffffffffffffffffffffffffffffffffffffff1673ffffffffffffffffffffffffffffffffffffffff1663fca247ac83308c6040518463ffffffff1660e01b815260040161159293929190612e9f565b602060405180830381600087803b1580156115ac57600080fd5b505af11580156115c0573d6000803e3d6000fd5b505050506040513d601f19601f820116820180604052508101906115e491906126c3565b90506000600160009054906101000a900473ffffffffffffffffffffffffffffffffffffffff1673ffffffffffffffffffffffffffffffffffffffff1663ddf7fcb06040518163ffffffff1660e01b815260040160206040518083038186803b15801561165057600080fd5b505afa158015611664573d6000803e3d6000fd5b505050506040513d601f19601f82011682018060405250810190611688919061231b565b8460405160200161169a929190612ac1565b604051602081830303815290604052805190602001209050600160009054906101000a900473ffffffffffffffffffffffffffffffffffffffff1673ffffffffffffffffffffffffffffffffffffffff16632e94420f6040518163ffffffff1660e01b815260040160206040518083038186803b15801561171a57600080fd5b505afa15801561172e573d6000803e3d6000fd5b505050506040513d601f19601f82011682018060405250810190611752919061236d565b73ffffffffffffffffffffffffffffffffffffffff16631896f70a828a6040518363ffffffff1660e01b815260040161178c929190612bbe565b600060405180830381600087803b1580156117a657600080fd5b505af11580156117ba573d6000803e3d6000fd5b50505050600073ffffffffffffffffffffffffffffffffffffffff168773ffffffffffffffffffffffffffffffffffffffff1614611860578773ffffffffffffffffffffffffffffffffffffffff1663d5fa2b0082896040518363ffffffff1660e01b815260040161182d929190612bbe565b600060405180830381600087803b15801561184757600080fd5b505af115801561185b573d6000803e3d6000fd5b505050505b600160009054906101000a900473ffffffffffffffffffffffffffffffffffffffff1673ffffffffffffffffffffffffffffffffffffffff166328ed4f6c848d6040518363ffffffff1660e01b81526004016118bd929190612e76565b600060405180830381600087803b1580156118d757600080fd5b505af11580156118eb573d6000803e3d6000fd5b50505050600160009054906101000a900473ffffffffffffffffffffffffffffffffffffffff1673ffffffffffffffffffffffffffffffffffffffff166323b872dd308d866040518463ffffffff1660e01b815260040161194e93929190612b21565b600060405180830381600087803b15801561196857600080fd5b505af115801561197c573d6000803e3d6000fd5b5050505050611aa9565b600073ffffffffffffffffffffffffffffffffffffffff168673ffffffffffffffffffffffffffffffffffffffff16146119f5576040517f08c379a00000000000000000000000000000000000000000000000000000000081526004016119ec90612dbb565b60405180910390fd5b600160009054906101000a900473ffffffffffffffffffffffffffffffffffffffff1673ffffffffffffffffffffffffffffffffffffffff1663fca247ac838c8c6040518463ffffffff1660e01b8152600401611a5493929190612e9f565b602060405180830381600087803b158015611a6e57600080fd5b505af1158015611a82573d6000803e3d6000fd5b505050506040513d601f19601f82011682018060405250810190611aa691906126c3565b90505b8973ffffffffffffffffffffffffffffffffffffffff16837fca6abbe9d7f11422cb6ca7629fbf6fe9efb1c621f71ce8f02b9f2a230097404f8d8785604051611af493929190612c5d565b60405180910390a3600073ffffffffffffffffffffffffffffffffffffffff16600660009054906101000a900473ffffffffffffffffffffffffffffffffffffffff1673ffffffffffffffffffffffffffffffffffffffff1614611bbc57600660009054906101000a900473ffffffffffffffffffffffffffffffffffffffff1673ffffffffffffffffffffffffffffffffffffffff166108fc859081150290604051600060405180830381858888f19350505050158015611bba573d6000803e3d6000fd5b505b83341115611c17573373ffffffffffffffffffffffffffffffffffffffff166108fc8534611bea9190612fd2565b9081150290604051600060405180830381858888f19350505050158015611c15573d6000803e3d6000fd5b505b5050505050505050505050565b60085481565b611c32611c44565b81600881905550806009819055505050565b611c4c612129565b73ffffffffffffffffffffffffffffffffffffffff16611c6a610cff565b73ffffffffffffffffffffffffffffffffffffffff1614611cc0576040517f08c379a0000000000000000000000000000000000000000000000000000000008152600401611cb790612d5b565b60405180910390fd5b565b60008060009054906101000a900473ffffffffffffffffffffffffffffffffffffffff169050816000806101000a81548173ffffffffffffffffffffffffffffffffffffffff021916908373ffffffffffffffffffffffffffffffffffffffff1602179055508173ffffffffffffffffffffffffffffffffffffffff168173ffffffffffffffffffffffffffffffffffffffff167f8be0079c531659141344cd1fd0a4f28419497f9722a3daafe3b4186f6b6457e060405160405180910390a35050565b60008060008084519050600092505b80821015611f56576000858381518110611dd8577f4e487b7100000000000000000000000000000000000000000000000000000000600052603260045260246000fd5b602001015160f81c60f81b9050608060f81b817effffffffffffffffffffffffffffffffffffffffffffffffffffffffffffff19161015611e2757600183611e209190612f7c565b9250611f42565b60e060f81b817effffffffffffffffffffffffffffffffffffffffffffffffffffffffffffff19161015611e6957600283611e629190612f7c565b9250611f41565b60f060f81b817effffffffffffffffffffffffffffffffffffffffffffffffffffffffffffff19161015611eab57600383611ea49190612f7c565b9250611f40565b60f8801b817effffffffffffffffffffffffffffffffffffffffffffffffffffffffffffff19161015611eec57600483611ee59190612f7c565b9250611f3f565b60fc60f81b817effffffffffffffffffffffffffffffffffffffffffffffffffffffffffffff19161015611f2e57600583611f279190612f7c565b9250611f3e565b600683611f3b9190612f7c565b92505b5b5b5b5b508280611f4e90613163565b935050611d95565b829350505050919050565b6000426003546005600085815260200190815260200160002054611f859190612f7c565b1115611fc6576040517f08c379a0000000000000000000000000000000000000000000000000000000008152600401611fbd90612d7b565b60405180910390fd5b426004546005600085815260200190815260200160002054611fe89190612f7c565b11612028576040517f08c379a000000000000000000000000000000000000000000000000000000000815260040161201f90612d9b565b60405180910390fd5b61203184611006565b612070576040517f08c379a000000000000000000000000000000000000000000000000000000000815260040161206790612d1b565b60405180910390fd5b600560008381526020019081526020016000206000905560006120938585610b20565b90506224ea008410156120db576040517f08c379a00000000000000000000000000000000000000000000000000000000081526004016120d290612e1b565b60405180910390fd5b8034101561211e576040517f08c379a000000000000000000000000000000000000000000000000000000000815260040161211590612cdb565b60405180910390fd5b809150509392505050565b600033905090565b600061214461213f84612f24565b612eff565b90508281526020810184848401111561215c57600080fd5b6121678482856130f0565b509392505050565b60008135905061217e816134ba565b92915050565b600081519050612193816134d1565b92915050565b6000813590506121a8816134e8565b92915050565b6000815190506121bd816134e8565b92915050565b6000813590506121d2816134ff565b92915050565b6000815190506121e781613516565b92915050565b6000813590506121fc8161352d565b92915050565b60008083601f84011261221457600080fd5b8235905067ffffffffffffffff81111561222d57600080fd5b60208301915083600182028301111561224557600080fd5b9250929050565b600082601f83011261225d57600080fd5b813561226d848260208601612131565b91505092915050565b60008135905061228581613544565b92915050565b60008151905061229a81613544565b92915050565b6000602082840312156122b257600080fd5b60006122c08482850161216f565b91505092915050565b6000602082840312156122db57600080fd5b60006122e984828501612184565b91505092915050565b60006020828403121561230457600080fd5b600061231284828501612199565b91505092915050565b60006020828403121561232d57600080fd5b600061233b848285016121ae565b91505092915050565b60006020828403121561235657600080fd5b6000612364848285016121c3565b91505092915050565b60006020828403121561237f57600080fd5b600061238d848285016121d8565b91505092915050565b6000602082840312156123a857600080fd5b60006123b6848285016121ed565b91505092915050565b6000806000806000608086880312156123d757600080fd5b600086013567ffffffffffffffff8111156123f157600080fd5b6123fd88828901612202565b955095505060206124108882890161216f565b935050604061242188828901612276565b925050606061243288828901612199565b9150509295509295909350565b60008060006040848603121561245457600080fd5b600084013567ffffffffffffffff81111561246e57600080fd5b61247a86828701612202565b9350935050602061248d86828701612276565b9150509250925092565b6000602082840312156124a957600080fd5b600082013567ffffffffffffffff8111156124c357600080fd5b6124cf8482850161224c565b91505092915050565b6000806000606084860312156124ed57600080fd5b600084013567ffffffffffffffff81111561250757600080fd5b6125138682870161224c565b93505060206125248682870161216f565b925050604061253586828701612199565b9150509250925092565b600080600080600060a0868803121561255757600080fd5b600086013567ffffffffffffffff81111561257157600080fd5b61257d8882890161224c565b955050602061258e8882890161216f565b945050604061259f88828901612199565b93505060606125b08882890161216f565b92505060806125c18882890161216f565b9150509295509295909350565b60008060008060008060c087890312156125e757600080fd5b600087013567ffffffffffffffff81111561260157600080fd5b61260d89828a0161224c565b965050602061261e89828a0161216f565b955050604061262f89828a01612276565b945050606061264089828a01612199565b935050608061265189828a0161216f565b92505060a061266289828a0161216f565b9150509295509295509295565b6000806040838503121561268257600080fd5b600083013567ffffffffffffffff81111561269c57600080fd5b6126a88582860161224c565b92505060206126b985828601612276565b9150509250929050565b6000602082840312156126d557600080fd5b60006126e38482850161228b565b91505092915050565b600080604083850312156126ff57600080fd5b600061270d85828601612276565b925050602061271e85828601612276565b9150509250929050565b61273181613006565b82525050565b61274861274382613006565b6131ac565b82525050565b61275781613018565b82525050565b61276681613024565b82525050565b61277d61277882613024565b6131be565b82525050565b600061278f8385612f60565b935061279c8385846130f0565b82840190509392505050565b6127b1816130a8565b82525050565b6127c0816130cc565b82525050565b60006127d28385612f6b565b93506127df8385846130f0565b6127e883613238565b840190509392505050565b60006127fe82612f55565b6128088185612f6b565b93506128188185602086016130ff565b61282181613238565b840191505092915050565b6000612839601083612f6b565b915061284482613256565b602082019050919050565b600061285c601483612f6b565b91506128678261327f565b602082019050919050565b600061287f601283612f6b565b915061288a826132a8565b602082019050919050565b60006128a2602683612f6b565b91506128ad826132d1565b604082019050919050565b60006128c5601283612f6b565b91506128d082613320565b602082019050919050565b60006128e8600f83612f6b565b91506128f382613349565b602082019050919050565b600061290b602083612f6b565b915061291682613372565b602082019050919050565b600061292e600983612f6b565b91506129398261339b565b602082019050919050565b6000612951600883612f6b565b915061295c826133c4565b602082019050919050565b6000612974601383612f6b565b915061297f826133ed565b602082019050919050565b6000612997601783612f6b565b91506129a282613416565b602082019050919050565b60006129ba601b83612f6b565b91506129c58261343f565b602082019050919050565b60006129dd601a83612f6b565b91506129e882613468565b602082019050919050565b6000612a00601e83612f6b565b9150612a0b82613491565b602082019050919050565b612a1f8161309e565b82525050565b6000612a31828861276c565b602082019150612a418287612737565b601482019150612a518286612737565b601482019150612a618285612737565b601482019150612a71828461276c565b6020820191508190509695505050505050565b6000612a90828661276c565b602082019150612aa08285612737565b601482019150612ab0828461276c565b602082019150819050949350505050565b6000612acd828561276c565b602082019150612add828461276c565b6020820191508190509392505050565b6000612afa828486612783565b91508190509392505050565b6000602082019050612b1b6000830184612728565b92915050565b6000606082019050612b366000830186612728565b612b436020830185612728565b612b506040830184612a16565b949350505050565b6000604082019050612b6d6000830185612728565b8181036020830152612b7f81846127f3565b90509392505050565b6000602082019050612b9d600083018461274e565b92915050565b6000602082019050612bb8600083018461275d565b92915050565b6000604082019050612bd3600083018561275d565b612be06020830184612728565b9392505050565b6000602082019050612bfc60008301846127a8565b92915050565b6000602082019050612c1760008301846127b7565b92915050565b60006060820190508181036000830152612c388186886127c6565b9050612c476020830185612a16565b612c546040830184612a16565b95945050505050565b60006060820190508181036000830152612c7781866127f3565b9050612c866020830185612a16565b612c936040830184612a16565b949350505050565b60006020820190508181036000830152612cb48161282c565b9050919050565b60006020820190508181036000830152612cd48161284f565b9050919050565b60006020820190508181036000830152612cf481612872565b9050919050565b60006020820190508181036000830152612d1481612895565b9050919050565b60006020820190508181036000830152612d34816128b8565b9050919050565b60006020820190508181036000830152612d54816128db565b9050919050565b60006020820190508181036000830152612d74816128fe565b9050919050565b60006020820190508181036000830152612d9481612921565b9050919050565b60006020820190508181036000830152612db481612944565b9050919050565b60006020820190508181036000830152612dd481612967565b9050919050565b60006020820190508181036000830152612df48161298a565b9050919050565b60006020820190508181036000830152612e14816129ad565b9050919050565b60006020820190508181036000830152612e34816129d0565b9050919050565b60006020820190508181036000830152612e54816129f3565b9050919050565b6000602082019050612e706000830184612a16565b92915050565b6000604082019050612e8b6000830185612a16565b612e986020830184612728565b9392505050565b6000606082019050612eb46000830186612a16565b612ec16020830185612728565b612ece6040830184612a16565b949350505050565b6000604082019050612eeb6000830185612a16565b612ef86020830184612a16565b9392505050565b6000612f09612f1a565b9050612f158282613132565b919050565b6000604051905090565b600067ffffffffffffffff821115612f3f57612f3e613209565b5b612f4882613238565b9050602081019050919050565b600081519050919050565b600081905092915050565b600082825260208201905092915050565b6000612f878261309e565b9150612f928361309e565b9250827fffffffffffffffffffffffffffffffffffffffffffffffffffffffffffffffff03821115612fc757612fc66131da565b5b828201905092915050565b6000612fdd8261309e565b9150612fe88361309e565b925082821015612ffb57612ffa6131da565b5b828203905092915050565b60006130118261307e565b9050919050565b60008115159050919050565b6000819050919050565b60007fffffffff0000000000000000000000000000000000000000000000000000000082169050919050565b600061306582613006565b9050919050565b600061307782613006565b9050919050565b600073ffffffffffffffffffffffffffffffffffffffff82169050919050565b6000819050919050565b60006130b3826130ba565b9050919050565b60006130c58261307e565b9050919050565b60006130d7826130de565b9050919050565b60006130e98261307e565b9050919050565b82818337600083830152505050565b60005b8381101561311d578082015181840152602081019050613102565b8381111561312c576000848401525b50505050565b61313b82613238565b810181811067ffffffffffffffff8211171561315a57613159613209565b5b80604052505050565b600061316e8261309e565b91507fffffffffffffffffffffffffffffffffffffffffffffffffffffffffffffffff8214156131a1576131a06131da565b5b600182019050919050565b60006131b7826131c8565b9050919050565b6000819050919050565b60006131d382613249565b9050919050565b7f4e487b7100000000000000000000000000000000000000000000000000000000600052601160045260246000fd5b7f4e487b7100000000000000000000000000000000000000000000000000000000600052604160045260246000fd5b6000601f19601f8301169050919050565b60008160601b9050919050565b7f6e6f74206f776e65722773207769736800000000000000000000000000000000600082015250565b7f7769736820636f756e74206d7573742062652031000000000000000000000000600082015250565b7f726567697374727920756e646572706169640000000000000000000000000000600082015250565b7f4f776e61626c653a206e6577206f776e657220697320746865207a65726f206160008201527f6464726573730000000000000000000000000000000000000000000000000000602082015250565b7f6e616d65206e6f7420617661696c61626c650000000000000000000000000000600082015250565b7f72656e657720756e646572706169640000000000000000000000000000000000600082015250565b7f4f776e61626c653a2063616c6c6572206973206e6f7420746865206f776e6572600082015250565b7f746f6f206561726c790000000000000000000000000000000000000000000000600082015250565b7f746f6f206c617465000000000000000000000000000000000000000000000000600082015250565b7f616464722063616e277420626520656d70747900000000000000000000000000600082015250565b7f7265736f6c7665722063616e277420626520656d707479000000000000000000600082015250565b7f636f6d6d69746d656e74206e6f74206f75746461746564207965740000000000600082015250565b7f6475726174696f6e206d757374206f7665722032382064617973000000000000600082015250565b7f74726561737572792063616e2774206265207a65726f20616464726573730000600082015250565b6134c381613006565b81146134ce57600080fd5b50565b6134da81613018565b81146134e557600080fd5b50565b6134f181613024565b81146134fc57600080fd5b50565b6135088161302e565b811461351357600080fd5b50565b61351f8161305a565b811461352a57600080fd5b50565b6135368161306c565b811461354157600080fd5b50565b61354d8161309e565b811461355857600080fd5b5056fea26469706673582212209ea5e0bb4569e3af68864c035c0168c1b35d2397c57feced0c9e5cadd1d66c3964736f6c63430008040033",
  "devdoc": {
    "details": "A registrar controller for registering and renewing names at fixed cost.",
    "kind": "dev",
    "methods": {
      "owner()": {
        "details": "Returns the address of the current owner."
      },
      "renounceOwnership()": {
        "details": "Leaves the contract without owner. It will not be possible to call `onlyOwner` functions anymore. Can only be called by the current owner. NOTE: Renouncing ownership will leave the contract without an owner, thereby removing any functionality that is only available to the owner."
      },
      "transferOwnership(address)": {
        "details": "Transfers ownership of the contract to a new account (`newOwner`). Can only be called by the current owner."
      }
    },
    "version": 1
  },
  "userdoc": {
    "kind": "user",
    "methods": {},
    "version": 1
  },
  "storageLayout": {
    "storage": [
      {
        "astId": 7,
        "contract": "contracts/cidregistrar/MIDRegistrarController.sol:MIDRegistrarController",
        "label": "_owner",
        "offset": 0,
        "slot": "0",
        "type": "t_address"
      },
      {
        "astId": 4008,
        "contract": "contracts/cidregistrar/MIDRegistrarController.sol:MIDRegistrarController",
        "label": "base",
        "offset": 0,
        "slot": "1",
        "type": "t_contract(BaseRegistrarImplementation)3892"
      },
      {
        "astId": 4011,
        "contract": "contracts/cidregistrar/MIDRegistrarController.sol:MIDRegistrarController",
        "label": "prices",
        "offset": 0,
        "slot": "2",
        "type": "t_contract(PriceOracle)4974"
      },
      {
        "astId": 4013,
        "contract": "contracts/cidregistrar/MIDRegistrarController.sol:MIDRegistrarController",
        "label": "minCommitmentAge",
        "offset": 0,
        "slot": "3",
        "type": "t_uint256"
      },
      {
        "astId": 4015,
        "contract": "contracts/cidregistrar/MIDRegistrarController.sol:MIDRegistrarController",
        "label": "maxCommitmentAge",
        "offset": 0,
        "slot": "4",
        "type": "t_uint256"
      },
      {
        "astId": 4019,
        "contract": "contracts/cidregistrar/MIDRegistrarController.sol:MIDRegistrarController",
        "label": "commitments",
        "offset": 0,
        "slot": "5",
        "type": "t_mapping(t_bytes32,t_uint256)"
      },
      {
        "astId": 4021,
        "contract": "contracts/cidregistrar/MIDRegistrarController.sol:MIDRegistrarController",
        "label": "treasury",
        "offset": 0,
        "slot": "6",
        "type": "t_address"
      },
      {
        "astId": 4024,
        "contract": "contracts/cidregistrar/MIDRegistrarController.sol:MIDRegistrarController",
        "label": "wishlist",
        "offset": 0,
        "slot": "7",
        "type": "t_contract(IWishlist)2842"
      },
      {
        "astId": 4026,
        "contract": "contracts/cidregistrar/MIDRegistrarController.sol:MIDRegistrarController",
        "label": "reservationPhraseStart",
        "offset": 0,
        "slot": "8",
        "type": "t_uint256"
      },
      {
        "astId": 4028,
        "contract": "contracts/cidregistrar/MIDRegistrarController.sol:MIDRegistrarController",
        "label": "reservationPhraseEnd",
        "offset": 0,
        "slot": "9",
        "type": "t_uint256"
      }
    ],
    "types": {
      "t_address": {
        "encoding": "inplace",
        "label": "address",
        "numberOfBytes": "20"
      },
      "t_bytes32": {
        "encoding": "inplace",
        "label": "bytes32",
        "numberOfBytes": "32"
      },
      "t_contract(BaseRegistrarImplementation)3892": {
        "encoding": "inplace",
        "label": "contract BaseRegistrarImplementation",
        "numberOfBytes": "20"
      },
      "t_contract(IWishlist)2842": {
        "encoding": "inplace",
        "label": "contract IWishlist",
        "numberOfBytes": "20"
      },
      "t_contract(PriceOracle)4974": {
        "encoding": "inplace",
        "label": "contract PriceOracle",
        "numberOfBytes": "20"
      },
      "t_mapping(t_bytes32,t_uint256)": {
        "encoding": "mapping",
        "key": "t_bytes32",
        "label": "mapping(bytes32 => uint256)",
        "numberOfBytes": "32",
        "value": "t_uint256"
      },
      "t_uint256": {
        "encoding": "inplace",
        "label": "uint256",
        "numberOfBytes": "32"
      }
    }
  }
}