{
  "address": "0xc2e2Ff39e1b373E33c6443Dd602D12d5775F2902",
  "abi": [
    {
      "inputs": [
        {
          "internalType": "contract MID",
          "name": "_mid",
          "type": "address"
        }
      ],
      "stateMutability": "nonpayable",
      "type": "constructor"
    },
    {
      "anonymous": false,
      "inputs": [
        {
          "indexed": true,
          "internalType": "address",
          "name": "controller",
          "type": "address"
        },
        {
          "indexed": false,
          "internalType": "bool",
          "name": "enabled",
          "type": "bool"
        }
      ],
      "name": "ControllerChanged",
      "type": "event"
    },
    {
      "anonymous": false,
      "inputs": [
        {
          "indexed": true,
          "internalType": "address",
          "name": "previousOwner",
          "type": "address"
        },
        {
          "indexed": true,
          "internalType": "address",
          "name": "newOwner",
          "type": "address"
        }
      ],
      "name": "OwnershipTransferred",
      "type": "event"
    },
    {
      "anonymous": false,
      "inputs": [
        {
          "indexed": true,
          "internalType": "bytes32",
          "name": "label",
          "type": "bytes32"
        }
      ],
      "name": "TLDLocked",
      "type": "event"
    },
    {
      "inputs": [
        {
          "internalType": "address",
          "name": "",
          "type": "address"
        }
      ],
      "name": "controllers",
      "outputs": [
        {
          "internalType": "bool",
          "name": "",
          "type": "bool"
        }
      ],
      "stateMutability": "view",
      "type": "function"
    },
    {
      "inputs": [
        {
          "internalType": "bytes32",
          "name": "label",
          "type": "bytes32"
        }
      ],
      "name": "lock",
      "outputs": [],
      "stateMutability": "nonpayable",
      "type": "function"
    },
    {
      "inputs": [
        {
          "internalType": "bytes32",
          "name": "",
          "type": "bytes32"
        }
      ],
      "name": "locked",
      "outputs": [
        {
          "internalType": "bool",
          "name": "",
          "type": "bool"
        }
      ],
      "stateMutability": "view",
      "type": "function"
    },
    {
      "inputs": [],
      "name": "mid",
      "outputs": [
        {
          "internalType": "contract MID",
          "name": "",
          "type": "address"
        }
      ],
      "stateMutability": "view",
      "type": "function"
    },
    {
      "inputs": [],
      "name": "owner",
      "outputs": [
        {
          "internalType": "address",
          "name": "",
          "type": "address"
        }
      ],
      "stateMutability": "view",
      "type": "function"
    },
    {
      "inputs": [],
      "name": "renounceOwnership",
      "outputs": [],
      "stateMutability": "nonpayable",
      "type": "function"
    },
    {
      "inputs": [
        {
          "internalType": "address",
          "name": "controller",
          "type": "address"
        },
        {
          "internalType": "bool",
          "name": "enabled",
          "type": "bool"
        }
      ],
      "name": "setController",
      "outputs": [],
      "stateMutability": "nonpayable",
      "type": "function"
    },
    {
      "inputs": [
        {
          "internalType": "address",
          "name": "resolver",
          "type": "address"
        }
      ],
      "name": "setResolver",
      "outputs": [],
      "stateMutability": "nonpayable",
      "type": "function"
    },
    {
      "inputs": [
        {
          "internalType": "bytes32",
          "name": "label",
          "type": "bytes32"
        },
        {
          "internalType": "address",
          "name": "owner",
          "type": "address"
        }
      ],
      "name": "setSubnodeOwner",
      "outputs": [],
      "stateMutability": "nonpayable",
      "type": "function"
    },
    {
      "inputs": [
        {
          "internalType": "bytes4",
          "name": "interfaceID",
          "type": "bytes4"
        }
      ],
      "name": "supportsInterface",
      "outputs": [
        {
          "internalType": "bool",
          "name": "",
          "type": "bool"
        }
      ],
      "stateMutability": "pure",
      "type": "function"
    },
    {
      "inputs": [
        {
          "internalType": "address",
          "name": "newOwner",
          "type": "address"
        }
      ],
      "name": "transferOwnership",
      "outputs": [],
      "stateMutability": "nonpayable",
      "type": "function"
    }
  ],
  "transactionHash": "0xccaa20be1d0d6d01eeb576ef1cc8feaf2252e6b3ff0c08c2a6939b1239cf9f5e",
  "args": [
    "0xab4914C910533b03F32B7BbCfA56D2B2412949ee"
  ],
  "numDeployments": 1,
  "solcInputHash": "943e11a3162ca2461d3e9210661e5eaf",
  "bytecode": "0x60806040523480156200001157600080fd5b5060405162000fe638038062000fe6833981810160405281019062000037919062000182565b620000576200004b6200009f60201b60201c565b620000a760201b60201c565b80600260006101000a81548173ffffffffffffffffffffffffffffffffffffffff021916908373ffffffffffffffffffffffffffffffffffffffff1602179055505062000210565b600033905090565b60008060009054906101000a900473ffffffffffffffffffffffffffffffffffffffff169050816000806101000a81548173ffffffffffffffffffffffffffffffffffffffff021916908373ffffffffffffffffffffffffffffffffffffffff1602179055508173ffffffffffffffffffffffffffffffffffffffff168173ffffffffffffffffffffffffffffffffffffffff167f8be0079c531659141344cd1fd0a4f28419497f9722a3daafe3b4186f6b6457e060405160405180910390a35050565b6000815190506200017c81620001f6565b92915050565b6000602082840312156200019557600080fd5b6000620001a5848285016200016b565b91505092915050565b6000620001bb82620001d6565b9050919050565b6000620001cf82620001ae565b9050919050565b600073ffffffffffffffffffffffffffffffffffffffff82169050919050565b6200020181620001c2565b81146200020d57600080fd5b50565b610dc680620002206000396000f3fe608060405234801561001057600080fd5b50600436106100a95760003560e01c80638cb8ecec116100715780638cb8ecec1461013e5780638da5cb5b1461015a578063cbe9e76414610178578063da8c229e146101a8578063e0dba60f146101d8578063f2fde38b146101f4576100a9565b806301670ba9146100ae57806301ffc9a7146100ca5780632e94420f146100fa5780634e543b2614610118578063715018a614610134575b600080fd5b6100c860048036038101906100c39190610911565b610210565b005b6100e460048036038101906100df919061099f565b610274565b6040516100f19190610aab565b60405180910390f35b6101026102de565b60405161010f9190610b26565b60405180910390f35b610132600480360381019061012d91906108ac565b610304565b005b61013c6103a1565b005b61015860048036038101906101539190610963565b6103b5565b005b61016261055b565b60405161016f9190610a90565b60405180910390f35b610192600480360381019061018d9190610911565b610584565b60405161019f9190610aab565b60405180910390f35b6101c260048036038101906101bd91906108ac565b6105a4565b6040516101cf9190610aab565b60405180910390f35b6101f260048036038101906101ed91906108d5565b6105c4565b005b61020e600480360381019061020991906108ac565b610675565b005b6102186106f9565b807f1764176cfa565853ba1ded547a830a9f9bff95231ef6fd228b3ddd617577756960405160405180910390a260016003600083815260200190815260200160002060006101000a81548160ff02191690831515021790555050565b60007f01ffc9a7a5cef8baa21ed3c5c0d7e23accb804b619e9333b597f47a0d84076e27bffffffffffffffffffffffffffffffffffffffffffffffffffffffff1916827bffffffffffffffffffffffffffffffffffffffffffffffffffffffff1916149050919050565b600260009054906101000a900473ffffffffffffffffffffffffffffffffffffffff1681565b61030c6106f9565b600260009054906101000a900473ffffffffffffffffffffffffffffffffffffffff1673ffffffffffffffffffffffffffffffffffffffff16631896f70a6000801b836040518363ffffffff1660e01b815260040161036c929190610ac6565b600060405180830381600087803b15801561038657600080fd5b505af115801561039a573d6000803e3d6000fd5b5050505050565b6103a96106f9565b6103b36000610777565b565b600160003373ffffffffffffffffffffffffffffffffffffffff1673ffffffffffffffffffffffffffffffffffffffff16815260200190815260200160002060009054906101000a900460ff16610441576040517f08c379a000000000000000000000000000000000000000000000000000000000815260040161043890610b61565b60405180910390fd5b6003600083815260200190815260200160002060009054906101000a900460ff16156104a2576040517f08c379a000000000000000000000000000000000000000000000000000000000815260040161049990610ba1565b60405180910390fd5b600260009054906101000a900473ffffffffffffffffffffffffffffffffffffffff1673ffffffffffffffffffffffffffffffffffffffff166306ab59236000801b84846040518463ffffffff1660e01b815260040161050493929190610aef565b602060405180830381600087803b15801561051e57600080fd5b505af1158015610532573d6000803e3d6000fd5b505050506040513d601f19601f82011682018060405250810190610556919061093a565b505050565b60008060009054906101000a900473ffffffffffffffffffffffffffffffffffffffff16905090565b60036020528060005260406000206000915054906101000a900460ff1681565b60016020528060005260406000206000915054906101000a900460ff1681565b6105cc6106f9565b80600160008473ffffffffffffffffffffffffffffffffffffffff1673ffffffffffffffffffffffffffffffffffffffff16815260200190815260200160002060006101000a81548160ff0219169083151502179055508173ffffffffffffffffffffffffffffffffffffffff167f4c97694570a07277810af7e5669ffd5f6a2d6b74b6e9a274b8b870fd5114cf87826040516106699190610aab565b60405180910390a25050565b61067d6106f9565b600073ffffffffffffffffffffffffffffffffffffffff168173ffffffffffffffffffffffffffffffffffffffff1614156106ed576040517f08c379a00000000000000000000000000000000000000000000000000000000081526004016106e490610b41565b60405180910390fd5b6106f681610777565b50565b61070161083b565b73ffffffffffffffffffffffffffffffffffffffff1661071f61055b565b73ffffffffffffffffffffffffffffffffffffffff1614610775576040517f08c379a000000000000000000000000000000000000000000000000000000000815260040161076c90610b81565b60405180910390fd5b565b60008060009054906101000a900473ffffffffffffffffffffffffffffffffffffffff169050816000806101000a81548173ffffffffffffffffffffffffffffffffffffffff021916908373ffffffffffffffffffffffffffffffffffffffff1602179055508173ffffffffffffffffffffffffffffffffffffffff168173ffffffffffffffffffffffffffffffffffffffff167f8be0079c531659141344cd1fd0a4f28419497f9722a3daafe3b4186f6b6457e060405160405180910390a35050565b600033905090565b60008135905061085281610d34565b92915050565b60008135905061086781610d4b565b92915050565b60008135905061087c81610d62565b92915050565b60008151905061089181610d62565b92915050565b6000813590506108a681610d79565b92915050565b6000602082840312156108be57600080fd5b60006108cc84828501610843565b91505092915050565b600080604083850312156108e857600080fd5b60006108f685828601610843565b925050602061090785828601610858565b9150509250929050565b60006020828403121561092357600080fd5b60006109318482850161086d565b91505092915050565b60006020828403121561094c57600080fd5b600061095a84828501610882565b91505092915050565b6000806040838503121561097657600080fd5b60006109848582860161086d565b925050602061099585828601610843565b9150509250929050565b6000602082840312156109b157600080fd5b60006109bf84828501610897565b91505092915050565b6109d181610bd2565b82525050565b6109e081610be4565b82525050565b6109ef81610bf0565b82525050565b6109fe81610c46565b82525050565b6000610a11602683610bc1565b9150610a1c82610c6a565b604082019050919050565b6000610a34600983610bc1565b9150610a3f82610cb9565b602082019050919050565b6000610a57602083610bc1565b9150610a6282610ce2565b602082019050919050565b6000610a7a600683610bc1565b9150610a8582610d0b565b602082019050919050565b6000602082019050610aa560008301846109c8565b92915050565b6000602082019050610ac060008301846109d7565b92915050565b6000604082019050610adb60008301856109e6565b610ae860208301846109c8565b9392505050565b6000606082019050610b0460008301866109e6565b610b1160208301856109e6565b610b1e60408301846109c8565b949350505050565b6000602082019050610b3b60008301846109f5565b92915050565b60006020820190508181036000830152610b5a81610a04565b9050919050565b60006020820190508181036000830152610b7a81610a27565b9050919050565b60006020820190508181036000830152610b9a81610a4a565b9050919050565b60006020820190508181036000830152610bba81610a6d565b9050919050565b600082825260208201905092915050565b6000610bdd82610c26565b9050919050565b60008115159050919050565b6000819050919050565b60007fffffffff0000000000000000000000000000000000000000000000000000000082169050919050565b600073ffffffffffffffffffffffffffffffffffffffff82169050919050565b6000610c5182610c58565b9050919050565b6000610c6382610c26565b9050919050565b7f4f776e61626c653a206e6577206f776e657220697320746865207a65726f206160008201527f6464726573730000000000000000000000000000000000000000000000000000602082015250565b7f6f6e6c79206374726c0000000000000000000000000000000000000000000000600082015250565b7f4f776e61626c653a2063616c6c6572206973206e6f7420746865206f776e6572600082015250565b7f6c6f636b65640000000000000000000000000000000000000000000000000000600082015250565b610d3d81610bd2565b8114610d4857600080fd5b50565b610d5481610be4565b8114610d5f57600080fd5b50565b610d6b81610bf0565b8114610d7657600080fd5b50565b610d8281610bfa565b8114610d8d57600080fd5b5056fea2646970667358221220d96a29e94bb4a1dc451dc1e97e4f1dcd49ad011f5d8c8bb30d7250a4b3e0b78a64736f6c63430008040033",
  "devdoc": {
    "kind": "dev",
    "methods": {
      "owner()": {
        "details": "Returns the address of the current owner."
      },
      "renounceOwnership()": {
        "details": "Leaves the contract without owner. It will not be possible to call `onlyOwner` functions anymore. Can only be called by the current owner. NOTE: Renouncing ownership will leave the contract without an owner, thereby removing any functionality that is only available to the owner."
      },
      "transferOwnership(address)": {
        "details": "Transfers ownership of the contract to a new account (`newOwner`). Can only be called by the current owner."
      }
    },
    "version": 1
  },
  "userdoc": {
    "kind": "user",
    "methods": {},
    "version": 1
  },
  "storageLayout": {
    "storage": [
      {
        "astId": 7,
        "contract": "contracts/root/Root.sol:Root",
        "label": "_owner",
        "offset": 0,
        "slot": "0",
        "type": "t_address"
      },
      {
        "astId": 9095,
        "contract": "contracts/root/Root.sol:Root",
        "label": "controllers",
        "offset": 0,
        "slot": "1",
        "type": "t_mapping(t_address,t_bool)"
      },
      {
        "astId": 9165,
        "contract": "contracts/root/Root.sol:Root",
        "label": "mid",
        "offset": 0,
        "slot": "2",
        "type": "t_contract(MID)6746"
      },
      {
        "astId": 9169,
        "contract": "contracts/root/Root.sol:Root",
        "label": "locked",
        "offset": 0,
        "slot": "3",
        "type": "t_mapping(t_bytes32,t_bool)"
      }
    ],
    "types": {
      "t_address": {
        "encoding": "inplace",
        "label": "address",
        "numberOfBytes": "20"
      },
      "t_bool": {
        "encoding": "inplace",
        "label": "bool",
        "numberOfBytes": "1"
      },
      "t_bytes32": {
        "encoding": "inplace",
        "label": "bytes32",
        "numberOfBytes": "32"
      },
      "t_contract(MID)6746": {
        "encoding": "inplace",
        "label": "contract MID",
        "numberOfBytes": "20"
      },
      "t_mapping(t_address,t_bool)": {
        "encoding": "mapping",
        "key": "t_address",
        "label": "mapping(address => bool)",
        "numberOfBytes": "32",
        "value": "t_bool"
      },
      "t_mapping(t_bytes32,t_bool)": {
        "encoding": "mapping",
        "key": "t_bytes32",
        "label": "mapping(bytes32 => bool)",
        "numberOfBytes": "32",
        "value": "t_bool"
      }
    }
  }
}