{
  "address": "0x65f7d490E551E24B48290Dca17b1CC6183f3cad4",
  "abi": [
    {
      "inputs": [
        {
          "internalType": "contract MID",
          "name": "_mid",
          "type": "address"
        }
      ],
      "stateMutability": "nonpayable",
      "type": "constructor"
    },
    {
      "anonymous": false,
      "inputs": [
        {
          "indexed": true,
          "internalType": "address",
          "name": "controller",
          "type": "address"
        },
        {
          "indexed": false,
          "internalType": "bool",
          "name": "enabled",
          "type": "bool"
        }
      ],
      "name": "ControllerChanged",
      "type": "event"
    },
    {
      "anonymous": false,
      "inputs": [
        {
          "indexed": true,
          "internalType": "address",
          "name": "previousOwner",
          "type": "address"
        },
        {
          "indexed": true,
          "internalType": "address",
          "name": "newOwner",
          "type": "address"
        }
      ],
      "name": "OwnershipTransferred",
      "type": "event"
    },
    {
      "anonymous": false,
      "inputs": [
        {
          "indexed": true,
          "internalType": "bytes32",
          "name": "label",
          "type": "bytes32"
        }
      ],
      "name": "TLDLocked",
      "type": "event"
    },
    {
      "inputs": [
        {
          "internalType": "address",
          "name": "",
          "type": "address"
        }
      ],
      "name": "controllers",
      "outputs": [
        {
          "internalType": "bool",
          "name": "",
          "type": "bool"
        }
      ],
      "stateMutability": "view",
      "type": "function"
    },
    {
      "inputs": [
        {
          "internalType": "address",
          "name": "addr",
          "type": "address"
        }
      ],
      "name": "isOwner",
      "outputs": [
        {
          "internalType": "bool",
          "name": "",
          "type": "bool"
        }
      ],
      "stateMutability": "view",
      "type": "function"
    },
    {
      "inputs": [
        {
          "internalType": "bytes32",
          "name": "label",
          "type": "bytes32"
        }
      ],
      "name": "lock",
      "outputs": [],
      "stateMutability": "nonpayable",
      "type": "function"
    },
    {
      "inputs": [
        {
          "internalType": "bytes32",
          "name": "",
          "type": "bytes32"
        }
      ],
      "name": "locked",
      "outputs": [
        {
          "internalType": "bool",
          "name": "",
          "type": "bool"
        }
      ],
      "stateMutability": "view",
      "type": "function"
    },
    {
      "inputs": [],
      "name": "mid",
      "outputs": [
        {
          "internalType": "contract MID",
          "name": "",
          "type": "address"
        }
      ],
      "stateMutability": "view",
      "type": "function"
    },
    {
      "inputs": [],
      "name": "owner",
      "outputs": [
        {
          "internalType": "address",
          "name": "",
          "type": "address"
        }
      ],
      "stateMutability": "view",
      "type": "function"
    },
    {
      "inputs": [
        {
          "internalType": "address",
          "name": "controller",
          "type": "address"
        },
        {
          "internalType": "bool",
          "name": "enabled",
          "type": "bool"
        }
      ],
      "name": "setController",
      "outputs": [],
      "stateMutability": "nonpayable",
      "type": "function"
    },
    {
      "inputs": [
        {
          "internalType": "address",
          "name": "resolver",
          "type": "address"
        }
      ],
      "name": "setResolver",
      "outputs": [],
      "stateMutability": "nonpayable",
      "type": "function"
    },
    {
      "inputs": [
        {
          "internalType": "bytes32",
          "name": "label",
          "type": "bytes32"
        },
        {
          "internalType": "address",
          "name": "owner",
          "type": "address"
        }
      ],
      "name": "setSubnodeOwner",
      "outputs": [],
      "stateMutability": "nonpayable",
      "type": "function"
    },
    {
      "inputs": [
        {
          "internalType": "bytes4",
          "name": "interfaceID",
          "type": "bytes4"
        }
      ],
      "name": "supportsInterface",
      "outputs": [
        {
          "internalType": "bool",
          "name": "",
          "type": "bool"
        }
      ],
      "stateMutability": "pure",
      "type": "function"
    },
    {
      "inputs": [
        {
          "internalType": "address",
          "name": "newOwner",
          "type": "address"
        }
      ],
      "name": "transferOwnership",
      "outputs": [],
      "stateMutability": "nonpayable",
      "type": "function"
    }
  ],
  "transactionHash": "0x9cdad971ff0534f74f86f7c08dae636e22a071f82602afb2ce106d8081f3b929",
  "args": [
    "0xDd80851D2585bAa3C4cF62630EbB8600aA5B0DF4"
  ],
  "numDeployments": 1,
  "solcInputHash": "48c77f3839b040a07ff91ad92d42e110",
  "bytecode": "0x608060405234801561001057600080fd5b50604051610ef1380380610ef1833981810160405281019061003291906100ce565b336000806101000a81548173ffffffffffffffffffffffffffffffffffffffff021916908373ffffffffffffffffffffffffffffffffffffffff16021790555080600260006101000a81548173ffffffffffffffffffffffffffffffffffffffff021916908373ffffffffffffffffffffffffffffffffffffffff16021790555050610152565b6000815190506100c88161013b565b92915050565b6000602082840312156100e057600080fd5b60006100ee848285016100b9565b91505092915050565b60006101028261011b565b9050919050565b6000610114826100f7565b9050919050565b600073ffffffffffffffffffffffffffffffffffffffff82169050919050565b61014481610109565b811461014f57600080fd5b50565b610d90806101616000396000f3fe608060405234801561001057600080fd5b50600436106100a95760003560e01c80638cb8ecec116100715780638cb8ecec146101645780638da5cb5b14610180578063cbe9e7641461019e578063da8c229e146101ce578063e0dba60f146101fe578063f2fde38b1461021a576100a9565b806301670ba9146100ae57806301ffc9a7146100ca5780632e94420f146100fa5780632f54bf6e146101185780634e543b2614610148575b600080fd5b6100c860048036038101906100c3919061096d565b610236565b005b6100e460048036038101906100df91906109fb565b6102da565b6040516100f19190610ae4565b60405180910390f35b610102610344565b60405161010f9190610b5f565b60405180910390f35b610132600480360381019061012d9190610908565b61036a565b60405161013f9190610ae4565b60405180910390f35b610162600480360381019061015d9190610908565b6103c2565b005b61017e600480360381019061017991906109bf565b61049f565b005b610188610645565b6040516101959190610ac9565b60405180910390f35b6101b860048036038101906101b3919061096d565b610669565b6040516101c59190610ae4565b60405180910390f35b6101e860048036038101906101e39190610908565b610689565b6040516101f59190610ae4565b60405180910390f35b61021860048036038101906102139190610931565b6106a9565b005b610234600480360381019061022f9190610908565b61079a565b005b61023f3361036a565b61027e576040517f08c379a000000000000000000000000000000000000000000000000000000000815260040161027590610bba565b60405180910390fd5b807f1764176cfa565853ba1ded547a830a9f9bff95231ef6fd228b3ddd617577756960405160405180910390a260016003600083815260200190815260200160002060006101000a81548160ff02191690831515021790555050565b60007f01ffc9a7a5cef8baa21ed3c5c0d7e23accb804b619e9333b597f47a0d84076e27bffffffffffffffffffffffffffffffffffffffffffffffffffffffff1916827bffffffffffffffffffffffffffffffffffffffffffffffffffffffff1916149050919050565b600260009054906101000a900473ffffffffffffffffffffffffffffffffffffffff1681565b60008173ffffffffffffffffffffffffffffffffffffffff1660008054906101000a900473ffffffffffffffffffffffffffffffffffffffff1673ffffffffffffffffffffffffffffffffffffffff16149050919050565b6103cb3361036a565b61040a576040517f08c379a000000000000000000000000000000000000000000000000000000000815260040161040190610bba565b60405180910390fd5b600260009054906101000a900473ffffffffffffffffffffffffffffffffffffffff1673ffffffffffffffffffffffffffffffffffffffff16631896f70a6000801b836040518363ffffffff1660e01b815260040161046a929190610aff565b600060405180830381600087803b15801561048457600080fd5b505af1158015610498573d6000803e3d6000fd5b5050505050565b600160003373ffffffffffffffffffffffffffffffffffffffff1673ffffffffffffffffffffffffffffffffffffffff16815260200190815260200160002060009054906101000a900460ff1661052b576040517f08c379a000000000000000000000000000000000000000000000000000000000815260040161052290610b7a565b60405180910390fd5b6003600083815260200190815260200160002060009054906101000a900460ff161561058c576040517f08c379a000000000000000000000000000000000000000000000000000000000815260040161058390610b9a565b60405180910390fd5b600260009054906101000a900473ffffffffffffffffffffffffffffffffffffffff1673ffffffffffffffffffffffffffffffffffffffff166306ab59236000801b84846040518463ffffffff1660e01b81526004016105ee93929190610b28565b602060405180830381600087803b15801561060857600080fd5b505af115801561061c573d6000803e3d6000fd5b505050506040513d601f19601f820116820180604052508101906106409190610996565b505050565b60008054906101000a900473ffffffffffffffffffffffffffffffffffffffff1681565b60036020528060005260406000206000915054906101000a900460ff1681565b60016020528060005260406000206000915054906101000a900460ff1681565b6106b23361036a565b6106f1576040517f08c379a00000000000000000000000000000000000000000000000000000000081526004016106e890610bba565b60405180910390fd5b80600160008473ffffffffffffffffffffffffffffffffffffffff1673ffffffffffffffffffffffffffffffffffffffff16815260200190815260200160002060006101000a81548160ff0219169083151502179055508173ffffffffffffffffffffffffffffffffffffffff167f4c97694570a07277810af7e5669ffd5f6a2d6b74b6e9a274b8b870fd5114cf878260405161078e9190610ae4565b60405180910390a25050565b6107a33361036a565b6107e2576040517f08c379a00000000000000000000000000000000000000000000000000000000081526004016107d990610bba565b60405180910390fd5b8073ffffffffffffffffffffffffffffffffffffffff1660008054906101000a900473ffffffffffffffffffffffffffffffffffffffff1673ffffffffffffffffffffffffffffffffffffffff167f8be0079c531659141344cd1fd0a4f28419497f9722a3daafe3b4186f6b6457e060405160405180910390a3806000806101000a81548173ffffffffffffffffffffffffffffffffffffffff021916908373ffffffffffffffffffffffffffffffffffffffff16021790555050565b6000813590506108ae81610cfe565b92915050565b6000813590506108c381610d15565b92915050565b6000813590506108d881610d2c565b92915050565b6000815190506108ed81610d2c565b92915050565b60008135905061090281610d43565b92915050565b60006020828403121561091a57600080fd5b60006109288482850161089f565b91505092915050565b6000806040838503121561094457600080fd5b60006109528582860161089f565b9250506020610963858286016108b4565b9150509250929050565b60006020828403121561097f57600080fd5b600061098d848285016108c9565b91505092915050565b6000602082840312156109a857600080fd5b60006109b6848285016108de565b91505092915050565b600080604083850312156109d257600080fd5b60006109e0858286016108c9565b92505060206109f18582860161089f565b9150509250929050565b600060208284031215610a0d57600080fd5b6000610a1b848285016108f3565b91505092915050565b610a2d81610beb565b82525050565b610a3c81610bfd565b82525050565b610a4b81610c09565b82525050565b610a5a81610c5f565b82525050565b6000610a6d600983610bda565b9150610a7882610c83565b602082019050919050565b6000610a90600683610bda565b9150610a9b82610cac565b602082019050919050565b6000610ab3600983610bda565b9150610abe82610cd5565b602082019050919050565b6000602082019050610ade6000830184610a24565b92915050565b6000602082019050610af96000830184610a33565b92915050565b6000604082019050610b146000830185610a42565b610b216020830184610a24565b9392505050565b6000606082019050610b3d6000830186610a42565b610b4a6020830185610a42565b610b576040830184610a24565b949350505050565b6000602082019050610b746000830184610a51565b92915050565b60006020820190508181036000830152610b9381610a60565b9050919050565b60006020820190508181036000830152610bb381610a83565b9050919050565b60006020820190508181036000830152610bd381610aa6565b9050919050565b600082825260208201905092915050565b6000610bf682610c3f565b9050919050565b60008115159050919050565b6000819050919050565b60007fffffffff0000000000000000000000000000000000000000000000000000000082169050919050565b600073ffffffffffffffffffffffffffffffffffffffff82169050919050565b6000610c6a82610c71565b9050919050565b6000610c7c82610c3f565b9050919050565b7f6f6e6c79206374726c0000000000000000000000000000000000000000000000600082015250565b7f6c6f636b65640000000000000000000000000000000000000000000000000000600082015250565b7f6e6f74206f776e65720000000000000000000000000000000000000000000000600082015250565b610d0781610beb565b8114610d1257600080fd5b50565b610d1e81610bfd565b8114610d2957600080fd5b50565b610d3581610c09565b8114610d4057600080fd5b50565b610d4c81610c13565b8114610d5757600080fd5b5056fea2646970667358221220eb68eddf30c38dee56e78a15a242272d44fd5f6c677d759857db0a30990b18ab64736f6c63430008040033",
  "devdoc": {
    "kind": "dev",
    "methods": {},
    "version": 1
  },
  "userdoc": {
    "kind": "user",
    "methods": {},
    "version": 1
  },
  "storageLayout": {
    "storage": [
      {
        "astId": 8616,
        "contract": "contracts/root/Root.sol:Root",
        "label": "owner",
        "offset": 0,
        "slot": "0",
        "type": "t_address"
      },
      {
        "astId": 8572,
        "contract": "contracts/root/Root.sol:Root",
        "label": "controllers",
        "offset": 0,
        "slot": "1",
        "type": "t_mapping(t_address,t_bool)"
      },
      {
        "astId": 8703,
        "contract": "contracts/root/Root.sol:Root",
        "label": "mid",
        "offset": 0,
        "slot": "2",
        "type": "t_contract(MID)6223"
      },
      {
        "astId": 8707,
        "contract": "contracts/root/Root.sol:Root",
        "label": "locked",
        "offset": 0,
        "slot": "3",
        "type": "t_mapping(t_bytes32,t_bool)"
      }
    ],
    "types": {
      "t_address": {
        "encoding": "inplace",
        "label": "address",
        "numberOfBytes": "20"
      },
      "t_bool": {
        "encoding": "inplace",
        "label": "bool",
        "numberOfBytes": "1"
      },
      "t_bytes32": {
        "encoding": "inplace",
        "label": "bytes32",
        "numberOfBytes": "32"
      },
      "t_contract(MID)6223": {
        "encoding": "inplace",
        "label": "contract MID",
        "numberOfBytes": "20"
      },
      "t_mapping(t_address,t_bool)": {
        "encoding": "mapping",
        "key": "t_address",
        "label": "mapping(address => bool)",
        "numberOfBytes": "32",
        "value": "t_bool"
      },
      "t_mapping(t_bytes32,t_bool)": {
        "encoding": "mapping",
        "key": "t_bytes32",
        "label": "mapping(bytes32 => bool)",
        "numberOfBytes": "32",
        "value": "t_bool"
      }
    }
  }
}